:100000000C9464000C948C000C948C000C948C0068
:100010000C948C000C948C000C948C000C948C0030
:100020000C948C000C948C000C948C000C948C0020
:100030000C948C000C948C000C948C000C948C0010
:100040000C947D040C948C000C945D070C948F0729
:100050000C948C000C948C000C948C000C948C00F0
:100060000C942B020C948C0000000008000201008C
:100070000003040700000000000000000102040863
:100080001020408001020408102001020408102002
:10009000040404040404040402020202020203032E
:1000A00003030303000000002300260029000000D2
:1000B0000000250028002B0000000000240027007D
:1000C0002A00C5008D01BF0711241FBECFEFD8E065
:1000D000DEBFCDBF11E0A0E0B1E0EAEFF0E102C089
:1000E00005900D92AA33B107D9F722E0AAE3B1E057
:1000F00001C01D92AE3AB207E1F710E0C8ECD0E0C3
:1001000004C02297FE010E947708C23CD107C9F7BC
:100110000E9403080C947B080C94000026E040E841
:1001200055E260E070E081E192E00E94FB0661E050
:10013000809100010E9480058CE391E00E947B0485
:100140008CE391E00E94810340E060E08CE391E069
:100150000C94E2038CE391E00E94D40380910001AF
:100160000E94EF0590933B0180933A0180913A0100
:1001700090913B01019719F46AE071E002C06DE0D3
:1001800071E08CE391E00C94500824E044E167E2D4
:100190008CE391E00C9458038091780190E02091D9
:1001A0007901821B9109089520917901809178014C
:1001B000281750F4E22FF0E0E658FE4F808190E0DF
:1001C0002F5F2093790108958FEF9FEF0895E091BD
:1001D000790180917801E81730F4F0E0E658FE4F9D
:1001E000808190E008958FEF9FEF08950895CF925A
:1001F000DF92EF92FF920F931F93CF93DF937C01D7
:10020000CB018A0120915401222389F0EB016B017B
:10021000C40ED51ECC15DD0569F06991D701ED91AD
:10022000FC910190F081E02DC7010995F3CF642F77
:100230000E940202C801DF91CF911F910F91FF90A0
:10024000EF90DF90CF900895CF93DF931F92CDB7BB
:10025000DEB76983209154012223D1F0209155010A
:10026000203240F021E030E0FC013383228380E043
:1002700090E015C080915601E82FF0E0E95AFE4F5A
:10028000998190838F5F809356018093550105C0BB
:1002900061E0CE0101960E94020281E090E00F90A1
:1002A000DF91CF910895FC011382128248EE53E052
:1002B00060E070E0448355836683778385E191E055
:1002C00091838083089510927901109278011092A1
:1002D0005601109255010C94910181E080935401D4
:1002E00060937701109256011092550108950F9373
:1002F000062F21E04091550167E571E0809177017B
:100300000E94AF01109256011092550110925401B3
:100310000F91089561E00C94770188E491E00C94CA
:1003200053011092070281E08093050210920402AB
:1003300061E082E10E94B90561E083E10E94B905B4
:10034000E9EBF0E080818E7F808380818D7F8083E8
:1003500088E48093B80085E48093BC0008950F93EF
:10036000413208F046C0909107029111FCCF92E013
:1003700090930702009305029FEF90939A011092C9
:10038000DF014093DE01FB0160EE71E0DB019A2F9B
:10039000961B941718F491919D93F9CF1092060231
:1003A00090910602880F892B8093060280910402A7
:1003B000813041F410920402809106028093BB00C8
:1003C00085EC01C085EE8093BC00222321F0809152
:1003D00007028230E1F380919A018F3F61F08091B2
:1003E0009A01803251F080919A01803341F483E088
:1003F00007C081E005C080E003C082E001C084E066
:100400000F910895613298F420910702243089F405
:100410006093BC01FC018EEB91E0DC012A2F281BCC
:10042000261718F421912D93F9CF80E0089581E0EB
:10043000089582E0089585ED8093BC008091BC0012
:1004400084FDFCCF10920702089585EC8093BC00D8
:100450001092070208951F920F920FB60F92112467
:100460002F933F934F935F936F937F938F939F93BC
:10047000AF93BF93EF93FF938091B900887F80364D
:1004800009F49CC068F5883209F45BC090F48031AF
:1004900009F454C038F4882309F4F5C0883009F40D
:1004A0004DC0F5C0883109F44CC0803209F45DC0FC
:1004B000EEC0803409F468C048F4803309F455C0B4
:1004C000883309F0E4C080939A01A8C0803509F40C
:1004D0004FC0883509F45DC0883409F0D8C0D5C054
:1004E000883909F4C6C0A8F4883709F467C038F41D
:1004F000883609F463C0803709F460C0C8C0883802
:1005000009F4B7C0803909F45FC0803809F0BFC072
:100510005BC0803B09F485C038F4803A09F466C0BA
:10052000883A09F47EC0B3C0803C09F4A6C0883C78
:1005300009F4A3C0883B09F489C0A9C080910602D0
:1005400010C09091DF018091DE01981770F5E09165
:10055000DF0181E08E0F8093DF01F0E0E052FE4F7B
:1005600080818093BB0085EC85C080939A018DC00B
:10057000E091DF0181E08E0F8093DF018091BB006D
:10058000F0E0E052FE4F80839091DF018091DE0128
:100590006DC0E091DF0181E08E0F8093DF018091DB
:1005A000BB00F0E0E052FE4F808380910502811194
:1005B0006CC081E08093040284EA60C083E0809391
:1005C000070210929B01CFCF80919B01803208F0EF
:1005D00050C0E0919B0181E08E0F80939B01809140
:1005E000BB00F0E0E456FE4F8083BDCF80919B01BD
:1005F000803230F4E0919B01F0E0E456FE4F10822F
:100600000E941B0260919B0170E0E0910002F0915A
:1006100001028CE991E0099510929B010E9425024C
:1006200036C084E0809307021092BD011092BC0195
:10063000E0910202F091030209958091BC018111C1
:1006400005C081E08093BC011092BE01E091BD0124
:1006500081E08E0F8093BD01F0E0E254FE4F808177
:100660008093BB009091BD018091BC01981708F464
:100670007ACF85E88093BC000AC085EC8093BC00EB
:100680001092070204C010929A010E941B02FF916F
:10069000EF91BF91AF919F918F917F916F915F91FA
:1006A0004F913F912F910F900FBE0F901F90189573
:1006B000FC011382128285E291E09183808364833E
:1006C00041872287138608951F93CF93DF93EC0110
:1006D000162F6C8188E491E00E946D01E091480141
:1006E000F09149016B85612B0190F081E02D88E448
:1006F00091E0099588E491E0DF91CF911F910C94EE
:100700008A0128E0FC01238760E00C9464031F93B6
:10071000CF93DF93EC01162F64600E94640381E0A5
:1007200090E00E941205612F6B7FCE010E9464034E
:1007300082E390E0DF91CF911F910C9412051F93FB
:10074000CF93DF93EC01162F0E946403612FCE013B
:10075000DF91CF911F910C948703EF92FF921F932B
:10076000CF93DF931F92CDB7DEB77C01162F607F4A
:10077000642B49830E949F0380E1189FB0011124DC
:100780004981642BC7010F90DF91CF911F91FF909A
:10079000EF900C949F0341E00E94AD0380E090E055
:1007A000089540E00C94AD0361E00E94D10380ED18
:1007B00097E00C94120562E00E94D10380ED97E06F
:1007C0000C941205CF93DF93CDB7DEB728970FB601
:1007D000F894DEBF0FBECDBF28E0E2E0F1E0DE011D
:1007E000119601900D922A95E1F7FC0120852417BE
:1007F00010F44FEF420FFE013196E40FF11DE40FAC
:10080000F11D2081260F2068622F28960FB6F894DC
:10081000DEBF0FBECDBFDF91CF910C94D103FC01A1
:100820006681262F246026836C600C94D103CF93BD
:10083000DF93EC01423018F08D8188608D8348870A
:10084000222329F0413019F48D8184608D8362E385
:1008500070E080E090E00E94EA046B85CE010E9487
:10086000640368EE73E080E090E00E94EA0460E3D5
:10087000CE010E949F0384E991E10E94120560E38A
:10088000CE010E949F0384E991E10E94120560E37A
:10089000CE010E949F0386E990E00E94120560E26B
:1008A000CE010E949F036D816062CE010E94D10340
:1008B00084E08E83CE010E940F04CE010E94D403F7
:1008C00082E08F8366E0CE010E94D103CE01DF91EA
:1008D000CF910C94DB03CF93DF93EC0188E491E09C
:1008E0000E9463011D8220E04A856985CE01DF9167
:1008F000CF910C9417040C946B041F920F920FB6B7
:100900000F9211242F933F938F939F93AF93BF9395
:100910008091090290910A02A0910B02B0910C0201
:100920003091080223E0230F2D3720F40196A11DFA
:10093000B11D05C026E8230F0296A11DB11D20930D
:1009400008028093090290930A02A0930B02B093CD
:100950000C0280910D0290910E02A0910F02B091B5
:1009600010020196A11DB11D80930D0290930E02FD
:10097000A0930F02B0931002BF91AF919F918F91FE
:100980003F912F910F900FBE0F901F9018953FB77A
:10099000F89480910D0290910E02A0910F02B091F7
:1009A000100226B5A89B05C02F3F19F00196A11D86
:1009B000B11D3FBF6627782F892F9A2F620F711DB7
:1009C000811D911D42E0660F771F881F991F4A9570
:1009D000D1F70895CF92DF92EF92FF92CF93DF93FA
:1009E0006B017C010E94C704EB01C114D104E10436
:1009F000F10489F00E9452080E94C7046C1B7D0B11
:100A0000683E734090F381E0C81AD108E108F1080C
:100A1000C851DC4FEACFDF91CF91FF90EF90DF908C
:100A2000CF900895019739F0880F991F880F991F6B
:100A300002970197F1F70895789484B5826084BD98
:100A400084B5816084BD85B5826085BD85B58160D2
:100A500085BDEEE6F0E0808181608083E1E8F0E032
:100A60001082808182608083808181608083E0E861
:100A7000F0E0808181608083E1EBF0E08081846040
:100A80008083E0EBF0E0808181608083EAE7F0E042
:100A900080818460808380818260808380818160A6
:100AA00080838081806880831092C10008958330A4
:100AB00081F028F4813099F08230A1F008958730D8
:100AC000A9F08830B9F08430D1F4809180008F7D16
:100AD00003C0809180008F7780938000089584B553
:100AE0008F7702C084B58F7D84BD08958091B0005A
:100AF0008F7703C08091B0008F7D8093B000089500
:100B0000CF93DF9390E0FC01E458FF4F2491FC0168
:100B1000E057FF4F8491882349F190E0880F991F97
:100B2000FC01E854FF4FA591B49182559F4FFC0101
:100B3000C591D4919FB7611108C0F8948C9120950C
:100B400082238C93888182230AC0623051F4F89406
:100B50008C91322F309583238C938881822B8883CC
:100B600004C0F8948C91822B8C939FBFDF91CF911E
:100B700008950F931F93CF93DF931F92CDB7DEB7E6
:100B8000282F30E0F901E859FF4F8491F901E4582A
:100B9000FF4F1491F901E057FF4F04910023C9F072
:100BA000882321F069830E9457056981E02FF0E0D6
:100BB000EE0FFF1FE255FF4FA591B4919FB7F89438
:100BC0008C91611103C01095812301C0812B8C93FE
:100BD0009FBF0F90DF91CF911F910F910895CF93F9
:100BE000DF93282F30E0F901E859FF4F8491F90194
:100BF000E458FF4FD491F901E057FF4FC491CC2343
:100C000091F081110E945705EC2FF0E0EE0FFF1FCD
:100C1000EC55FF4FA591B4912C912D2381E090E0EC
:100C200021F480E002C080E090E0DF91CF91089550
:100C3000FC01818D228D90E0805C9F4F821B910989
:100C40008F7399270895FC01918D828D981731F04B
:100C5000828DE80FF11D858D90E008958FEF9FEF55
:100C60000895FC01918D828D981761F0828DDF01CE
:100C7000A80FB11D5D968C91928D9F5F9F73928F8F
:100C800090E008958FEF9FEF089585EB97E0892B13
:100C900049F080E090E0892B29F00E94B50781118E
:100CA0000C9400000895FC01848DDF01A80FB11D94
:100CB000A35ABF4F2C91848D90E001968F73992792
:100CC000848FA689B7892C93A089B1898C9180647F
:100CD0008C93938D848D981306C00288F389E02D40
:100CE00080818F7D80830895CF93DF93EC01888D81
:100CF0008823C9F0EA89FB89808185FD05C0A88920
:100D0000B9898C9186FD0FC00FB607FCF5CF8081A5
:100D100085FFF2CFA889B9898C9185FFEDCFCE01EF
:100D20000E945306E7CFDF91CF910895CF92DF92D3
:100D3000FF920F931F93CF93DF931F92CDB7DEB730
:100D40006C01DC015B969C915B975C968C915C9747
:100D5000981307C05096ED91FC915197808185FDC5
:100D600032C0F601038D10E00F5F1F4F0F73112784
:100D7000F02EF601848DF81211C00FB607FCF9CFE2
:100D8000D6015096ED91FC915197808185FFF1CF6E
:100D9000C60169830E9453066981EBCF838DE80FFA
:100DA000F11DE35AFF4F6083D6015B960C935B976E
:100DB0005296ED91FC91539780818062808381E00F
:100DC00058968C930DC0D6015696ED91FC9157978D
:100DD00060835096ED91FC9151978081806480836F
:100DE00081E090E00F90DF91CF911F910F91FF90E4
:100DF000DF90CF900895BF92CF92DF92EF92FF9253
:100E0000CF93DF93EC016A017B01B22EE889F98967
:100E100082E08083411581EE580761057105A1F0DC
:100E200060E079E08DE390E0A70196010E9453080D
:100E30002150310941095109569547953795279514
:100E4000211580E1380798F0E889F989108260E877
:100E500074E88EE190E0A70196010E9453082150AA
:100E60003109410951095695479537952795EC85E4
:100E7000FD853083EE85FF852083188EEC89FD8902
:100E8000B082EA89FB89808180618083EA89FB895D
:100E9000808188608083EA89FB8980818068808383
:100EA000EA89FB8980818F7D8083DF91CF91FF90DC
:100EB000EF90DF90CF90BF9008951F920F920FB6E2
:100EC0000F9211242F938F939F93EF93FF93E091B1
:100ED0002102F09122028081E0912702F091280204
:100EE00082FD12C0908180912A028F5F8F732091C2
:100EF0002B02821751F0E0912A02F0E0EF5EFD4FE5
:100F0000958F80932A0201C08081FF91EF919F917C
:100F10008F912F910F900FBE0F901F9018951F92D9
:100F20000F920FB60F9211242F933F934F935F931D
:100F30006F937F938F939F93AF93BF93EF93FF93A1
:100F400081E192E00E945306FF91EF91BF91AF9132
:100F50009F918F917F916F915F914F913F912F91D1
:100F60000F900FBE0F901F90189581E192E00E94A4
:100F7000180621E0892B09F420E0822F08951092B1
:100F800014021092130288EE93E0A0E0B0E0809388
:100F9000150290931602A0931702B09318028DE2E7
:100FA00091E0909312028093110285EC90E090936F
:100FB0001E0280931D0284EC90E0909320028093A7
:100FC0001F0280EC90E0909322028093210281EC3A
:100FD00090E0909324028093230282EC90E090931F
:100FE00026028093250286EC90E09093280280935D
:100FF000270210922A0210922B0210922C021092B9
:101000002D02089508950E941C050E9402080E9466
:101010008E00C5E4D6E00E94AA002097E1F30E946A
:101020004506F9CFCF92DF92EF92FF920F931F9375
:10103000CF93DF936C017A01EB01E60EF71E00E01F
:1010400010E0CE15DF0561F06991D601ED91FC91BC
:101050000190F081E02DC6010995080F191FF1CF0D
:10106000C801DF91CF911F910F91FF90EF90DF901A
:10107000CF9008956115710581F0DB010D9000207E
:10108000E9F7AD0141505109461B570BDC01ED91C9
:10109000FC910280F381E02D099480E090E00895B6
:1010A0000C943A080895A1E21A2EAA1BBB1BFD015D
:1010B0000DC0AA1FBB1FEE1FFF1FA217B307E40737
:1010C000F50720F0A21BB30BE40BF50B661F771F8F
:1010D000881F991F1A9469F760957095809590956F
:1010E0009B01AC01BD01CF010895EE0FFF1F0590DC
:0A10F000F491E02D0994F894FFCF6D
:1010FA00020000004000140054006F6E006F666624
:10110A0000000000002401F700CC00D400E700F63C
:10111A000000000000CB031208000000009606122F
:0A112A0008180631062306740600BB
:00000001FF
