:100000000C94E5000C940D010C940D010C940D0161
:100010000C940D010C940D010C940D010C940D0128
:100020000C940D010C940D010C940D010C940D0118
:100030000C940D010C940D010C940D010C940D0108
:100040000C945D140C940D010C9449170C947B17BF
:100050000C940D010C940D010C940D010C940D01E8
:100060000C94F70E0C940D01005EBCE2613FDD8341
:10007000C29C7E20A3FD1F419DC3217FFCA2401E88
:100080005F01E3BD3E6082DC237D9FC1421CFEA078
:10009000E1BF5D0380DE3C62BEE0025CDF81633D68
:1000A0007C22C09E1D43A1FF4618FAA427799BC558
:1000B00084DA3866E5BB5907DB856739BAE4065848
:1000C0001947A5FB7826C49A653BD987045AB8E638
:1000D000A7F91B45C6987A24F8A6441A99C7257B28
:1000E0003A6486D85B05E7B98CD2306EEDB3510F18
:1000F0004E10F2AC2F7193CD114FADF3702ECC9208
:10010000D38D6F31B2EC0E50AFF1134DCE90722CF7
:100110006D33D18F0C52B0EE326C8ED0530DEFB1E7
:10012000F0AE4C1291CF2D73CA947628ABF51749D7
:100130000856B4EA6937D58B5709EBB536688AD4C7
:1001400095CB2977F4AA4816E9B7550B88D6346AB7
:100150002B7597C94A14F6A8742AC896154BA9F7A7
:10016000B6E80A54D7896B35000000080002010088
:100170000003040700000000000000000102040862
:100180001020408001020408102001020408102001
:10019000040404040404040402020202020203032D
:1001A00003030303000000002300260029000000D1
:1001B0000000250028002B0000000000240027007C
:1001C0002A002001590EAB176E0111241FBECFEF7C
:1001D000D8E0DEBFCDBF11E0A0E0B1E0EEE4F0E496
:1001E00002C005900D92AE3DB107D9F723E0AEED08
:1001F000B1E001C01D92AB3CB207E1F711E0C8ECE1
:10020000D1E004C02297FE010E94E21CC23CD1074B
:10021000C9F70E94EF170C941A200C94000026E0F6
:1002200040E855E260E070E08AE293E00E94E71661
:100230008EED91E00C949A018EED91E00C946506A0
:10024000CF93DF938EED91E00E9472016EE08BEE12
:1002500091E00E94D10C6BEE71E089EF91E00E9479
:100260004A1180E290E090930D0280930C02C3E06B
:10027000D0E0D0931302C09312028FED8093160248
:1002800068E671E087E192E00E94101982E090E058
:10029000909325028093240287E090E090932702B8
:1002A0008093260286E090E09093290280932802B2
:1002B00085E090E090932B0280932A0284E090E006
:1002C00090932D0280932C02D0932F02C0932E0284
:1002D00081E080933C02DF91CF91089587E192E025
:1002E0000C94A21824E044E167E20C9424100F93CC
:1002F0001F93CF93DF93EC018B01622F0E94AE100E
:10030000B801CE01DF91CF911F910F910C94281865
:10031000CF93DF93EC010E944711CE010E944D1054
:1003200040E060E0CE010E94AE10CE01DF91CF919F
:100330000C94A0100F931F93CF93DF9300D000D0A5
:1003400000D0CDB7DEB78C014B960E947312F80136
:10035000E65BFF4F61E080810E946C15F801E45B71
:10036000FF4F61E080810E946C15F801E25BFF4F56
:1003700061E080810E946C15F801E05BFF4F61E055
:1003800080810E946C15F801EA5BFF4F61E080817B
:100390000E946C15F801E85BFF4F61E080810E94CC
:1003A0006C15C8010E94880166E171E0CE010196DA
:1003B0000E94101920E030E040E050E0BE016F5F85
:1003C0007F4FC8010E947701CE0101960E94A218BA
:1003D00026960FB6F894DEBF0FBECDBFDF91CF914A
:1003E0001F910F910895CF93DF93EC01FC01E65B21
:1003F000FF4F61E080810E94A515FE01E45BFF4F85
:1004000061E080810E94A515FE01E25BFF4F61E083
:1004100080810E94A515FE01E05BFF4F61E08081B5
:100420000E94A515C25ADF4F1882DF91CF9108951F
:10043000FC0140A951A962A973A941305105610588
:100440007105A9F02CF4452B462B472B61F008953C
:10045000423051056105710571F043305105610568
:10046000710569F00895FC01E65BFF4F0BC0FC01CC
:10047000E45BFF4F07C0FC01E25BFF4F03C0FC01E0
:10048000E05BFF4F61E080810C94A515CF93DF9373
:10049000EC01FC01E65BFF4F60E080810E94A51546
:1004A000FE01E45BFF4F60E080810E94A515FE0124
:1004B000E25BFF4F60E080810E94A515C05BDF4FCB
:1004C00060E08881DF91CF910C94A5152F923F9227
:1004D0004F925F926F927F928F929F92AF92BF9254
:1004E000CF92DF92EF92FF920F931F93CF93DF9300
:1004F00000D000D000D0CDB7DEB78C010E94DB0A5F
:10050000480122E5820E911CD4016D937D938D9359
:100510009C9313975801B6E5AB0EB11C2801EAE590
:100520004E0E511CD201CD90DD90ED90FC90DC017F
:10053000CB018C199D09AE09BF09F5018083918318
:10054000A283B3830E946C0B80FD12C07801FBE193
:10055000EF0EF11CC7010E94451360E0C7010E9425
:1005600039140E94331BD801D7967C936E93D6978B
:100570006AE271E0CE0101960E94101920E030E09D
:1005800040E050E0BE016F5F7F4FC8010E947701DD
:10059000CE0101960E94A218F401608171818281CE
:1005A00093810E94E3094AE0BC01CE0101960E94BA
:1005B000761927E030E040E050E0BE016F5F7F4FEA
:1005C000C8010E947701CE0101960E94A21862E341
:1005D00071E0CE0101960E94101929E030E040E060
:1005E00050E0BE016F5F7F4FC8010E947701CE01CE
:1005F00001960E94A21866E671E0CE0101960E9463
:1006000010192EE030E040E050E0BE016F5F7F4FF8
:10061000C8010E947701CE0101960E94A218D40160
:100620006D917D918D919C910E94E9094AE0BC01F8
:10063000CE0101960E9476192EE030E040E050E0B5
:10064000BE016F5F7F4FC8010E947701CE01019606
:100650000E94A21867E371E0CE0101960E94101972
:1006600020E130E040E050E0BE016F5F7F4FC80105
:100670000E947701CE0101960E94A2187801BFE581
:10068000EB0EF11CF70180819801205A3F4F690160
:1006900081112AC0D9018D919C91880F991FB09723
:1006A0000190F081E02DE80FF91FD801D6962D9129
:1006B0003C91D7978081918128173907ACF0F401DC
:1006C00080819181A281B381F20180839183A28391
:1006D000B383D5011D921D921D921C92139781E048
:1006E000F7018083319710826CE371E0CE010196AF
:1006F0000E94101920E030E041E050E0BE016F5F41
:100700007F4FC8010E947701CE0101960E94A21876
:10071000D801D6966D917C91D7974AE0CE0101968B
:100720000E94761929E030E041E050E0BE016F5FA1
:100730007F4FC8010E947701CE0101960E94A21846
:10074000F80160ADCE0101960E945E192BE030E009
:1007500041E050E0BE016F5F7F4FC8010E9477010A
:10076000CE0101960E94A21866E471E0CE010196C6
:100770000E9410192CE030E041E050E0BE016F5FB4
:100780007F4FC8010E947701CE0101960E94A218F6
:1007900069E471E0CE0101960E94101920E030E07A
:1007A00042E050E0BE016F5F7F4FC8010E947701B9
:1007B000CE0101960E94A2183801F4E66F0E711C5A
:1007C000D3016D917C914AE0CE0101960E94761989
:1007D00025E030E042E050E0BE016F5F7F4FC8018E
:1007E0000E947701CE0101960E94A21865EA71E08D
:1007F000CE0101960E94101926E030E042E050E060
:10080000BE016F5F7F4FC8010E947701CE01019644
:100810000E94A218F60180819181880F991F4801DA
:10082000FFE38F0E911CD401ED91FC91E80FF91FAD
:10083000608171814AE0CE0101960E94761928E01C
:1008400030E042E050E0BE016F5F7F4FC8010E9480
:100850007701CE0101960E94A21866E471E0CE01F4
:1008600001960E9410192AE030E042E050E0BE01FB
:100870006F5F7F4FC8010E947701CE0101960E94F1
:10088000A2181801B2E62B0E311CF1018081918172
:10089000880F991FD401ED91FC91E80FF91F608139
:1008A00071814AE0CE0101960E9476192CE030E079
:1008B00042E050E0BE016F5F7F4FC8010E947701A8
:1008C000CE0101960E94A2186FE471E0CE0101965C
:1008D0000E9410192EE030E042E050E0BE016F5F50
:1008E0007F4FC8010E947701CE0101960E94A21895
:1008F000F301208131813296808191812817390757
:100900000CF0A8C069E471E0CE0101960E941019B4
:1009100020E030E043E050E0BE016F5F7F4FC80150
:100920000E947701CE0101960E94A218D3016D9119
:100930007C916F5F7F4F4AE0CE0101960E9476194D
:1009400025E030E043E050E0BE016F5F7F4FC8011B
:100950000E947701CE0101960E94A21865EA71E01B
:10096000CE0101960E94101926E030E043E050E0ED
:10097000BE016F5F7F4FC8010E947701CE010196D3
:100980000E94A218F601808191810296880F991F1A
:10099000D401ED91FC91E80FF91F608171814AE06B
:1009A000CE0101960E94761928E030E043E050E045
:1009B000BE016F5F7F4FC8010E947701CE01019693
:1009C0000E94A21866E471E0CE0101960E941019FF
:1009D0002AE030E043E050E0BE016F5F7F4FC80186
:1009E0000E947701CE0101960E94A218F101808138
:1009F00091810296880F991FD401ED91FC91E80F27
:100A0000F91F608171814AE0CE0101960E9476193A
:100A10002CE030E043E050E0BE016F5F7F4FC80143
:100A20000E947701CE0101960E94A2186FE471E046
:100A3000CE0101960E9410192EE030E043E050E014
:100A4000BE016F5F7F4FC8010E947701CE01019602
:100A50000E94A218F50160817181828193810E94B8
:100A6000E3091816190624F0D7018C918111F6C0FC
:100A7000F7018081882309F443C067E671E0CE0165
:100A800001960E9410192FE030E041E050E0BE01D5
:100A90006F5F7F4FC8010E947701CE0101960E94CF
:100AA000A218F50160817181828193810E94E3091E
:100AB0004AE0BC01CE0101960E9476192EE030E09A
:100AC00041E050E0BE016F5F7F4FC8010E94770197
:100AD000CE0101960E94A2186FE471E0CE0101964A
:100AE0000E94101920E130E041E050E0BE016F5F4C
:100AF0007F4FC8010E947701CE0101960E94A21883
:100B0000D6018D919C91880F991F4801BFE38B0EF0
:100B1000911CD401ED91FC91E80FF91FD801D696F4
:100B20002D913C91D7978081918128173907B4F096
:100B3000F7018081882321F0C8010E9446021BC072
:100B400064E070E080E090E00E947E18D801D096CA
:100B50006D937D938D939C93D3970DC0F801E25ACA
:100B6000FF4F8081811104C0C8010E94180203C098
:100B7000C8010E94F301F501608171818281938136
:100B80000E94E309B8016E597F4FDB012D913C9122
:100B9000A901440F551FD401ED91FC91E40FF51FFD
:100BA00040815181841795070CF476C0F801EC5907
:100BB000FF4F80819181A8014A595F4FDA014D9121
:100BC0005C91841795070CF067C0D7014C914423C2
:100BD00009F462C0019691838083F601808191813E
:100BE0000296918380832E5F3F4FDB012D933C93D0
:100BF000F801E25AFF4F81E08083F7011082D201B1
:100C00001D921D921D921C92139764E571E0CE0116
:100C100001960E94101920E030E041E050E0BE0152
:100C20006F5F7F4FC8010E947701CE0101960E943D
:100C3000A21864E571E0CE0101960E94101920E02F
:100C400030E043E050E0BE016F5F7F4FC8010E947B
:100C50007701CE0101960E94A2181EC0D5016D91A8
:100C60007D918D919C910E94E9094AE0BC01CE01E1
:100C700001960E9476192EE030E041E050E0BE017E
:100C80006F5F7F4FC8010E947701CE0101960E94DD
:100C9000A21867E371E022CF26960FB6F894DEBF64
:100CA0000FBECDBFDF91CF911F910F91FF90EF90BD
:100CB000DF90CF90BF90AF909F908F907F906F907C
:100CC0005F904F903F902F9008952F923F924F92B8
:100CD0005F926F927F928F929F92AF92BF92CF92CC
:100CE000DF92EF92FF920F931F93CF93DF93CDB7D5
:100CF000DEB72C970FB6F894DEBF0FBECDBF6C01E8
:100D00002DB63EB668E671E0CE0107960E94101936
:100D1000B601645F7F4FCE0101960E94AE08BE010E
:100D20006F5F7F4FCE0107960E942619CE01019674
:100D30000E94A21868E671E0CE0107960E94E119B0
:100D400081110BC14DB65EB6F60186A597A5880F39
:100D5000991F2DB73EB7281B390B0FB6F8943EBF2D
:100D60000FBE2DBF8DB79EB701965C014C0100E010
:100D700010E0360199E3690E711C68E671E0CE015E
:100D800007960E94E119811159C069E671E0CE0110
:100D900001960E941019BE016F5F7F4FCE0107962A
:100DA0000E941C1A7C01CE0101960E94A218F7FE37
:100DB00007C068E671E0CE0107960E9446193EC062
:100DC000970140E050E0BE01695F7F4FCE01019680
:100DD0000115110549F40E94201ABE016F5F7F4F73
:100DE000C3010E94261909C00E94201A89819A8194
:100DF0000E94341FF40171836083CE0101960E942A
:100E0000A2182B853C85A7014F5F5F4FBE01695F2C
:100E10007F4FCE0101960E94201ABE016F5F7F4F67
:100E2000CE0107960E942619CE0101960E94A218B3
:100E30000F5F1F4FF2E08F0E911C9FCFC8010297EA
:100E4000760121E4E20EF11CF70191838083B596CF
:100E50009C010150110997FD980135952795318323
:100E600020838138FFE39F0718F4880F991F02C081
:100E70008FEF9FEF0E94FE17F601FF96808391830C
:100E8000F60125AD36ADF801EE0FFF1FEA0DFB1D93
:100E9000408151818C01D50180E090E01296F701EC
:100EA00060817181861797075CF401966D917C9142
:100EB0001197F801619371938F01260F371FEECFC1
:100EC00086010D5B1F4F2417350761F56BE671E056
:100ED000CE0101960E94101920E030E040E050E081
:100EE000BE016F5F7F4FC6010E947701CE01019660
:100EF0000E94A2186FE771E0CE0101960E941019BE
:100F000020E030E041E050E0BE016F5F7F4FC6015E
:100F10000E947701CE0101960E94A21881E0F8019B
:100F2000808316C064E971E0CE0101960E94101919
:100F300020E030E041E050E0BE016F5F7F4FC6012E
:100F40000E947701CE0101960E94A218F80110823A
:100F50000FB6F8945EBE0FBE4DBE8601055E1F4FF4
:100F6000C8010E94451360E0C8010E9439140E9424
:100F7000331BF60177AB66AB69E971E0CE010196F0
:100F80000E94101920E030E042E050E0BE016F5FA7
:100F90007F4FC6010E947701CE0101960E94A218E0
:100FA000F60166A977A94AE0CE0101960E9476195A
:100FB0002EE030E042E050E0BE016F5F7F4FC6019F
:100FC0000E947701CE0101960E94A218F60160AD41
:100FD000CE0101960E945E1920E130E042E050E02F
:100FE000BE016F5F7F4FC6010E947701CE0101965F
:100FF0000E94A21868EA71E0CE0101960E941019C1
:1010000021E130E042E050E0BE016F5F7F4FC6015A
:101010000E947701CE0101960E94A218F601EA5BB8
:10102000FF4F80810E94DB155C01F601EC5BFF4FF6
:10103000918380834601F3E48F0E911CF40180813B
:10104000882309F469C0F1E0AF16B10409F064C067
:10105000E12CF12C00E010E020E030E040E050E036
:1010600060E070E080E090E00E94740B64E571E065
:10107000CE0101960E94101920E030E040E050E0DF
:10108000BE016F5F7F4FC6010E947701CE010196BE
:101090000E94A21864E571E0CE0101960E94101929
:1010A00020E030E041E050E0BE016F5F7F4FC601BD
:1010B0000E947701CE0101960E94A21864E571E0BA
:1010C000CE0101960E94101920E030E042E050E08D
:1010D000BE016F5F7F4FC6010E947701CE0101966E
:1010E0000E94A218F601E05AFF4F11821082329638
:1010F000B182A082389710821182128213823596B3
:1011000010823596B182A082F4018081882321F07B
:10111000C6010E946602F8CFCE0107960E94A2186F
:101120000FB6F8943EBE0FBE2DBE2C960FB6F894A7
:10113000DEBF0FBECDBFDF91CF911F910F91FF900A
:10114000EF90DF90CF90BF90AF909F908F907F9067
:101150006F905F904F903F902F9008950F931F9343
:10116000CF93DF9300D000D000D0CDB7DEB78C0195
:101170008AE293E00E940416892BB9F064E670E0DD
:1011800080E090E00E94D6146AE273E0CE010196FE
:101190000E946418BE016F5F7F4FC8010E943D1915
:1011A000CE0101960E94A21805C068E671E0C80150
:1011B0000E941019C80126960FB6F894DEBF0FBE24
:1011C000CDBFDF91CF911F910F9108956F927F92C4
:1011D0008F929F92AF92BF92CF92DF92EF92FF9247
:1011E0000F931F93CF93DF93EA012CE3C22ED12CF0
:1011F000E12CF12CA70196010E94691C6883CA01A9
:10120000B901A70196010E94691C6983CA01B9014D
:1012100028E130E040E050E00E94691C49015A0199
:101220006A83CA01B9016C5F7F4F8F4F9F4F27E0E0
:1012300030E040E050E00E94691C6F5F6B8300E08B
:1012400010E0980140E054E6652E712C60E9C62E4E
:10125000DD24D394E42FF0E0EE54F84F7F0183E0D7
:10126000E822FF24E114F10489F4CF01B3010E94C4
:10127000551C892B29F08EE691E0A0E0B0E00AC071
:10128000CF01B6010E94551C892BA9F38DE691E090
:10129000A0E0B0E0080F191F2A1F3B1FD901C801A9
:1012A000AA27BB2788169906AA06BB0610F04F5F2F
:1012B000D1CF4E83E114F10499F4CF0164E670E0DC
:1012C0000E94551C892B29F08EE691E0A0E0B0E049
:1012D0000BC0CF0160E971E00E94551C892BA1F37E
:1012E0008DE691E0A0E0B0E0081B190B2A0B3B0B48
:1012F000801A910AA20AB30ACF0164E670E00E9444
:10130000551C9C01CF0160E971E00E94551CEAEA7E
:10131000F1E0A0E0A13059F4E114F10451F42115F9
:10132000310511F04DE106C00097E1F302C04081A4
:1013300001C04CE150E060E070E084169506A6061E
:10134000B70640F0841A950AA60AB70AAF5F31962D
:10135000AC3001F7AF5FAD8383948C82DF91CF9186
:101360001F910F91FF90EF90DF90CF90BF90AF90C3
:101370009F908F907F906F900895CF92DF92EF9221
:10138000FF926B017C018091560290915702A091CF
:101390005802B0915902C816D906EA06FB0671F048
:1013A0004AE552E0C701B6010E94E608C092560223
:1013B000D0925702E0925802F0925902FF90EF90BB
:1013C000DF90CF9008950E94BD0980915B0290E06C
:1013D00008950E94BD0980915A0290E008956F928D
:1013E0007F928F929F92AF92BF92CF92DF92EF92B5
:1013F000FF920F931F93CF93DF93FC01C680AC2D18
:10140000B0E020E833E341EE51E00E94B91C4B010B
:101410005C0122EB37E06D01C4E6D0E000E911E0A9
:10142000C901825B97408C159D05DCF4C90183706E
:101430009927892B99F4C901BE010E94551C892B5B
:1014400031F4C901B8010E94551C892B39F480E898
:10145000880E81E5981E81E0A81EB11C2F5F3F4FCA
:10146000DFCF6580712C8EE4C81A88EFD80AC601D8
:1014700064E670E00E94551C8C01C60160E971E0D1
:101480000E94551C7C01C1E0D0E083E0C822DD242D
:10149000C615D7052CF5C230D10589F4C114D10485
:1014A00071F40115110519F4E114F10441F480E817
:1014B000880E8BE3981E86E2A81EB11C0FC0DE01C9
:1014C000A755BE4FAC91B0E020E831E541E050E0D7
:1014D0000E94B91C860E971EA81EB91E2196D8CF51
:1014E0004181228130E0A0E1BEE00E94AA1C6B0194
:1014F0007C01242F30E0ACE3B0E00E94AA1CC60EB1
:10150000D71EE81EF91E8081C80ED11CE11CF11CFB
:10151000A481B0E0119720E831E541E050E00E945D
:10152000C41CC60ED71EE81EF91EC80CD91CEA1C26
:10153000FB1CC701B601DF91CF911F910F91FF9066
:10154000EF90DF90CF90BF90AF909F908F907F9063
:101550006F9008950F931F936093520270935302FC
:10156000809354029093550200910A0110910B014F
:1015700020910C0130910D01060F171F281F391FF4
:1015800000934A0210934B0220934C0230934D0279
:1015900082E090E090934902809348020E94A71451
:1015A00060934E0270934F028093500290935102C9
:1015B0001F910F910895CF92DF92EF92FF920F93B8
:1015C0001F930E94A714C0904E02D0904F02E0904B
:1015D0005002F09051026C197D098E099F0900910B
:1015E0005202109153022091540230915502683EEC
:1015F000734081059105D8F00F5F1F4F2F4F3F4F6C
:1016000000935202109353022093540230935502D8
:1016100048EEC40E43E0D41EE11CF11CC0924E0201
:10162000D0924F02E0925002F0925102CACF8091C4
:101630004A0290914B02A0914C02B0914D020817C2
:1016400019072A073B07C8F1E0914602F0914702CB
:10165000309799F10995611571058105910519F08A
:101660000E94AA0A2AC080910A0190910B01A091C0
:101670000C01B0910D0140915202509153026091C2
:10168000540270915502840F951FA61FB71F8093B7
:101690004A0290934B02A0934C02B0934D0281E01A
:1016A00090E02091480230914902232B11F480E010
:1016B00090E09093490280934802609152027091A9
:1016C000530280915402909155021F910F91FF9007
:1016D000EF90DF90CF9008950E94DB0A0E94BD0931
:1016E00080915A0290E00895EF92FF920F9394E652
:1016F000E916F1042CF092EBE91A97E0F90A03C01D
:101700009EE1E90EF11CE092600200935F022093DB
:101710005E0280935C0260935B0240935A028AE50A
:1017200092E00E94EF090F91FF90EF900C94AA0AAB
:10173000FF920F931F93CF93DF93FC010081C18130
:10174000D281F8948981F02EF0948F218983789446
:101750001DE7115029F182E090E00E94FE1488817B
:101760008023B9F3F8948A818F218A838981802B21
:101770008983789480EE91E00E94FE14F894898128
:101780008F21898386E490E00E94FE148881802363
:1017900011E009F010E078948AE991E00E94FE14CB
:1017A000812FDF91CF911F910F91FF9008951F938B
:1017B000CF93DF93FC011081C181D281912F90954D
:1017C00060FF12C0F8948A8189238A838981812BE2
:1017D00089838AE090E00E94FE148A81812B8A83AB
:1017E000789487E390E011C0F8948A8189238A83F2
:1017F0008981812B898381E490E00E94FE148A8193
:10180000812B8A83789485E090E0DF91CF911F91BE
:101810000C94FE140F931F93CF93DF93FC01108160
:10182000C181D281F8948981812B89838A81012F9A
:10183000009580238A8383E090E00E94FE148981D2
:10184000802389838AE090E00E94FE14C881789406
:1018500085E390E00E94FE141C2381E009F480E0FF
:10186000DF91CF911F910F910895CF92DF92EF9268
:10187000FF920F931F93CF93DF931F92CDB7DEB7E5
:101880006C01E62E08E010E0FF24F39461E09F2D48
:101890009E2109F460E0C60149830E94D70BFF0C2A
:1018A0000150110949810115110581F7411115C038
:1018B000F894D6011196ED91FC91129791818C913B
:1018C0008095892381831196ED91FC9112979281E5
:1018D0008C9180958923828378940F90DF91CF91AA
:1018E0001F910F91FF90EF90DF90CF900895EF92AE
:1018F000FF920F931F93CF93DF938C01C8E0D0E04A
:10190000F12CEE24E394C8010E940A0C8111FE28F8
:10191000EE0C2197C1F78F2DDF91CF911F910F9181
:10192000FF90EF900895CF92DF92FF920F931F9355
:10193000CF93DF931F92CDB7DEB78C01F62E40E038
:1019400065E579830E94350CCF2C7981D72E88E00C
:10195000F82EF60161916F0140E0C8010E94350C3C
:10196000FA94B9F70F90DF91CF911F910F91FF90EB
:10197000DF90CF90089540E06CEC0C94350CFC01A6
:1019800013861586148627E030E0DF01A20FB31F0F
:1019900013961C922115310519F021503109F5CF0C
:1019A00008951F93CF93DF93EC01162F60E0812FF2
:1019B0000E946C15612F70E0FB01E458FE4FE4912A
:1019C000E883FB01E057FE4FE491F0E0EE0FFF1FCC
:1019D000EC55FE4F859194919A838983CE01DF91D6
:1019E000CF911F910C94BF0CAF92BF92CF92DF9218
:1019F000EF92FF920F931F93CF93DF931F92CDB778
:101A0000DEB75C01E62ED72EFC01858581115DC015
:101A1000C5010E94980B811105C0F501138615863A
:101A200014866EC040E060EFC5010E94350C01E0F5
:101A3000F12CC12C11E0C5010E940A0C682FC501D0
:101A400069830E940A0C6981613019F48130B9F40C
:101A500033C02F2D30E068131BC0F50183851817A4
:101A600030F4E20FF31F8381802349F402C018177A
:101A700031F060E0193058F4F501148708C0F50121
:101A8000EF0DF11D8381802B838361E009C0C12E9E
:101A9000F501E20FF31F8381902F909589238383B3
:101AA000C5010E94D70B1F5F000F11F4F39401E0F2
:101AB000F7E0FF1508F0BFCF113438F0F501C38609
:101AC000C11018C081E0858715C0F5011386158601
:101AD000148680E0EE2DFD2D20E030E0D501A20F30
:101AE000B31F13969C9191932F5F3F4F2830310580
:101AF000A9F706C0F5018381882339F381E0EACF95
:101B00000F90DF91CF911F910F91FF90EF90DF9099
:101B1000CF90BF90AF900895DC0180E0615038F025
:101B2000ED91E827F0E0E859FF4F8491F7CF089551
:101B30008091910290E020919202821B9109089578
:101B40002091920280919102281750F4E22FF0E048
:101B5000ED56FD4F808190E02F5F20939202089513
:101B60008FEF9FEF0895E091920280919102E81724
:101B700030F4F0E0ED56FD4F808190E008958FEF56
:101B80009FEF08950895CF92DF92EF92FF920F9307
:101B90001F93CF93DF937C01CB018A0120916D02CB
:101BA000222389F0EB016B01C40ED51ECC15DD0597
:101BB00069F06991D701ED91FC910190F081E02DE0
:101BC000C7010995F3CF642F0E94CE0EC801DF91A3
:101BD000CF911F910F91FF90EF90DF90CF900895DC
:101BE000CF93DF931F92CDB7DEB7698320916D024B
:101BF0002223D1F020916E02203240F021E030E02B
:101C0000FC013383228380E090E015C080916F0255
:101C1000E82FF0E0E059FD4F998190838F5F80932A
:101C20006F0280936E0205C061E0CE0101960E94B2
:101C3000CE0E81E090E00F90DF91CF910895FC01EE
:101C40001382128248EE53E060E070E044835583D3
:101C5000668377838AEB91E0918380830895109265
:101C600092021092910210926F0210926E020C94E6
:101C70005D0E81E080936D026093900210926F027E
:101C800010926E0208950F93062F21E040916E028C
:101C900060E772E0809190020E947B0E10926F02CA
:101CA00010926E0210926D020F91089561E00C94F3
:101CB000430E81E692E00C941F0E1092200381E007
:101CC00080931E0310921D0361E082E10E94A5151E
:101CD00061E083E10E94A515E9EBF0E080818E7F51
:101CE000808380818D7F808388E48093B80085E441
:101CF0008093BC0008950F93413208F046C0909144
:101D000020039111FCCF92E09093200300931E03D7
:101D10009FEF9093B3021092F8024093F702FB01F9
:101D200069EF72E0DB019A2F961B941718F49191DA
:101D30009D93F9CF10921F0390911F03880F892B59
:101D400080931F0380911D03813041F410921D0385
:101D500080911F038093BB0085EC01C085EE8093CA
:101D6000BC00222321F0809120038230E1F3809196
:101D7000B3028F3F61F08091B302803251F08091C5
:101D8000B302803341F483E007C081E005C080E006
:101D900003C082E001C084E00F910895613298F49D
:101DA00020912003243089F46093D502FC0187ED53
:101DB00092E0DC012A2F281B261718F421912D937D
:101DC000F9CF80E0089581E0089582E0089585EDDF
:101DD0008093BC008091BC0084FDFCCF1092200356
:101DE000089585EC8093BC001092200308951F9203
:101DF0000F920FB60F9211242F933F934F935F933F
:101E00006F937F938F939F93AF93BF93EF93FF93C2
:101E10008091B900887F803609F49CC068F58832CB
:101E200009F45BC090F4803109F454C038F488237D
:101E300009F4F5C0883009F44DC0F5C0883109F4C3
:101E40004CC0803209F45DC0EEC0803409F468C033
:101E500048F4803309F455C0883309F0E4C0809316
:101E6000B302A8C0803509F44FC0883509F45DC0BD
:101E7000883409F0D8C0D5C0883909F4C6C0A8F4A0
:101E8000883709F467C038F4883609F463C08037AE
:101E900009F460C0C8C0883809F4B7C0803909F4B3
:101EA0005FC0803809F0BFC05BC0803B09F485C0CB
:101EB00038F4803A09F466C0883A09F47EC0B3C0A9
:101EC000803C09F4A6C0883C09F4A3C0883B09F40F
:101ED00089C0A9C080911F0310C09091F802809121
:101EE000F702981770F5E091F80281E08E0F809369
:101EF000F802F0E0E750FD4F80818093BB0085EC55
:101F000085C08093B3028DC0E091F80281E08E0F0E
:101F10008093F8028091BB00F0E0E750FD4F808392
:101F20009091F8028091F7026DC0E091F80281E093
:101F30008E0F8093F8028091BB00F0E0E750FD4FD8
:101F4000808380911E0381116CC081E080931D030A
:101F500084EA60C083E0809320031092B402CFCF64
:101F60008091B402803208F050C0E091B40281E068
:101F70008E0F8093B4028091BB00F0E0EB54FD4FD4
:101F80008083BDCF8091B402803230F4E091B402FE
:101F9000F0E0EB54FD4F10820E94E70E6091B40216
:101FA00070E0E0911903F0911A0385EB92E0099536
:101FB0001092B4020E94F10E36C084E08093200398
:101FC0001092D6021092D502E0911B03F0911C03EF
:101FD00009958091D502811105C081E08093D502D9
:101FE0001092D702E091D60281E08E0F8093D60244
:101FF000F0E0E952FD4F80818093BB009091D602C2
:102000008091D502981708F47ACF85E88093BC00B8
:102010000AC085EC8093BC001092200304C010928B
:10202000B3020E94E70EFF91EF91BF91AF919F9194
:102030008F917F916F915F914F913F912F910F9071
:102040000FBE0F901F901895FC01138212828AEC2C
:1020500091E091838083648341872287138608956A
:102060001F93CF93DF93EC01162F6C8181E692E0F2
:102070000E94390EE0916102F09162026B85612B42
:102080000190F081E02D81E692E0099581E692E0F1
:10209000DF91CF911F910C94560E28E0FC0123870D
:1020A00060E00C9430101F93CF93DF93EC01162F58
:1020B00064600E94301081E090E00E94FE14612F65
:1020C0006B7FCE010E94301082E390E0DF91CF91D0
:1020D0001F910C94FE141F93CF93DF93EC01162FE6
:1020E0000E943010612FCE01DF91CF911F910C948F
:1020F0005310EF92FF921F93CF93DF931F92CDB7B0
:10210000DEB77C01162F607F642B49830E946B1021
:1021100080E1189FB00111244981642BC7010F9001
:10212000DF91CF911F91FF90EF900C946B1041E0E5
:102130000E94791080E090E0089540E00C947910BE
:1021400061E00E949D1080ED97E00C94FE1462E027
:102150000E949D1080ED97E00C94FE14CF93DF93C6
:10216000CDB7DEB728970FB6F894DEBF0FBECDBF50
:1021700028E0EEE0F1E0DE01119601900D922A9543
:10218000E1F7FC012085241710F44FEF420FFE0108
:102190003196E40FF11DE40FF11D2081260F206818
:1021A000622F28960FB6F894DEBF0FBECDBFDF9129
:1021B000CF910C949D10FC016681262F246026830C
:1021C0006C600C949D10CF93DF93EC01423018F0BB
:1021D0008D8188608D834887222329F0413019F44E
:1021E0008D8184608D8362E370E080E090E00E94E6
:1021F000D6146B85CE010E94301068EE73E080E04B
:1022000090E00E94D61460E3CE010E946B1084E936
:1022100091E10E94FE1460E3CE010E946B1084E9FC
:1022200091E10E94FE1460E3CE010E946B1086E9EA
:1022300090E00E94FE1460E2CE010E946B106D815E
:102240006062CE010E949D1084E08E83CE010E94C8
:10225000DB10CE010E94A01082E08F8366E0CE01E9
:102260000E949D10CE01DF91CF910C94A710CF93C7
:10227000DF93EC0181E692E00E942F0E1D8220E0A8
:102280004A856985CE01DF91CF910C94E3100C94BF
:1022900037110895FC0189E491E1928B818B76835B
:1022A00065831482108289E0818381E08283838345
:1022B0000895CF93DF93EB0167E0CE010E948C0D70
:1022C00091E02F81821390E0892FDF91CF910895C3
:1022D000EF92FF920F931F93CF93DF93EC018B014B
:1022E000E42E8D819E810E94BF0CF12CB8018D815E
:1022F0009E810E94F40C882359F0FE1006C0B8019C
:10230000CE010E945911811104C0F394EF1470F7AB
:1023100080E0DF91CF911F910F91FF90EF90089592
:10232000EF92FF920F931F93CF93DF9300D0CDB71F
:10233000DEB77C018A01FC018581968169837A83FD
:102340000E94980B69817A81F701858196810E94AC
:10235000930C40E06EEBF701858196810E94350C6D
:10236000F701858196810E94770CF8018083F7013F
:10237000858196810E94770CF8018183F701858120
:1023800096810E94770CF8018283F70185819681FE
:102390000E94770CF8018383F701858196810E9462
:1023A000770CF8018483F701858196810E94770C70
:1023B000F8018583F701858196810E94770CF801E9
:1023C0008683F701858196810E94770CF8018783C7
:1023D000F701858196810E94770CF8018087F701CB
:1023E000858196810F900F90DF91CF911F910F9172
:1023F000FF90EF900C94980BCF93DF93EA010E942B
:10240000901168E0CE010E948C0D91E02885821326
:1024100090E0892FDF91CF910895EF92FF921F9363
:10242000CF93DF9300D0CDB7DEB77C01FC0185816F
:10243000968169837A830E94980B69817A81F7017A
:10244000858196810E94930C40E064EBF7018581C1
:1024500096810E94350CF701858196810E940A0CB5
:10246000182FF701858196810E94980B81E0111148
:1024700080E00F900F90DF91CF911F91FF90EF9030
:102480000895CF93DF93CDB7DEB729970FB6F894B1
:10249000DEBF0FBECDBFFB0120812031D1F0AE01E8
:1024A0004F5F5F4F0E94FC11882379F08D818F333D
:1024B00051F018F48F3169F008C08F3541F08F3733
:1024C00021F48CE007C08AE005C080E003C08BE007
:1024D00001C089E029960FB6F894DEBF0FBECDBFCC
:1024E000DF91CF910895EF92FF920F931F93CF93B7
:1024F000DF93CDB7DEB761970FB6F894DEBF0FBE9E
:10250000CDBF8C01FC01858196810E94BF0CF80132
:102510001482FF24F394BE01665F7F4FF80185812A
:1025200096810E94F40C8823C9F1BE01665F7F4F3B
:10253000C8010E945911882371F3F801808181112B
:1025400008C0BE01665F7F4FC8010E940D12811155
:1025500022C0AE014F5F5F4FBE01665F7F4FC80173
:102560000E949011F801E180BE01665F7F4FC801B3
:102570000E9441128E1518F4F801818106C0BE0137
:10258000665F7F4FC8010E944112F80181838481F8
:102590008F5F8483C0CFF801F082DBCF61960FB6E6
:1025A000F894DEBF0FBECDBFDF91CF911F910F9189
:1025B000FF90EF900895CF93DF93CDB7DEB72997C3
:1025C0000FB6F894DEBF0FBECDBFAE014F5F5F4FB9
:1025D0000E94901181E09981911101C080E02996BB
:1025E0000FB6F894DEBF0FBECDBFDF91CF91089537
:1025F000CF92DF92EF92FF920F931F93CF93DF93CF
:10260000EC018B01452BE1F08B818823C9F0888197
:10261000811116C00E94A7146B017C0160E070E07C
:10262000CE010E94DB1281110BC00E94A7146C190D
:102630007D098E099F096E3E72408105910570F3F8
:10264000F80180818A3049F08B3061F0893079F46B
:102650006EE570E080E090E00EC06CEB70E080E032
:1026600090E009C067E771E080E090E004C06EEEA2
:1026700072E080E090E0DF91CF911F910F91FF9089
:10268000EF90DF90CF900C94D614CF93DF93EC01B2
:102690008D819E810E94980B8D819E810E94BB0C32
:1026A000488164E48D819E810E94350C8A81882353
:1026B00051F0BE016F5F7F4F40E050E0CE01DF91EF
:1026C000CF910C94F812DF91CF9108958F929F9241
:1026D000AF92BF92CF92DF92EF92FF921F93CF9370
:1026E000DF93FB01EA01698170E0762F662788811C
:1026F000682B80818232B1F18832A1F1803109F0FA
:1027000078C01F8175956795882777FD8095982FEC
:102710000E94661B20E030E040E85EE30E94661AFB
:102720006B017C01612F70E08E81681B7109882725
:1027300077FD8095982F0E94661B4B015C01612FED
:1027400070E080E090E00E94641B9B01AC01C50139
:10275000B4010E94CB1A9B01AC01C701B6010E94D3
:10276000671A43C08C818F3381F198F48F3109F05F
:1027700040C093E0759567959A95E1F7882777FDB6
:102780008095982F0E94661B20E030E040E05FE3D8
:102790002AC08F3569F08F3761F5882777FD8095DE
:1027A000982F0E94661B20E030E040E85DE31BC0EC
:1027B00075956795882777FD8095982F0E94661BF1
:1027C00020E030E040E05EE30EC0759567957595BA
:1027D0006795882777FD8095982F0E94661B20E0DB
:1027E00030E040E85EE30E94F21B562F472F382F5F
:1027F000292F652F742F832F922FDF91CF911F9157
:10280000FF90EF90DF90CF90BF90AF909F908F9010
:102810000895EF92FF920F931F93CF93DF93CDB75D
:10282000DEB729970FB6F894DEBF0FBECDBF8C017F
:102830007B01AE014F5F5F4F0E94FC11882341F086
:10284000AE014F5F5F4FB701C8010E94661304C01D
:1028500060E070E08EEF92EC29960FB6F894DEBF40
:102860000FBECDBFDF91CF911F910F91FF90EF90E1
:1028700008950F931F93CF93DF93CDB7DEB72897BB
:102880000FB6F894DEBF0FBECDBF8C01462FBE0140
:102890006F5F7F4F0E946811BE016F5F7F4FC8015D
:1028A0000E94091428960FB6F894DEBF0FBECDBF64
:1028B000DF91CF911F910F9108951F920F920FB644
:1028C0000F9211242F933F938F939F93AF93BF93B6
:1028D0008091220390912303A0912403B0912503BA
:1028E0003091210323E0230F2D3720F40196A11D01
:1028F000B11D05C026E8230F0296A11DB11D20932E
:1029000021038093220390932303A0932403B09385
:1029100025038091260390912703A0912803B0916D
:1029200029030196A11DB11D8093260390932703CF
:10293000A0932803B0932903BF91AF919F918F91EA
:102940003F912F910F900FBE0F901F9018952FB7AA
:10295000F894609122037091230380912403909155
:1029600025032FBF08953FB7F894809126039091D7
:102970002703A0912803B091290326B5A89B05C081
:102980002F3F19F00196A11DB11D3FBF6627782F7B
:10299000892F9A2F620F711D811D911D42E0660FD4
:1029A000771F881F991F4A95D1F70895CF92DF921C
:1029B000EF92FF92CF93DF936B017C010E94B314DF
:1029C000EB01C114D104E104F10489F00E94651AFD
:1029D0000E94B3146C1B7D0B683E734090F381E042
:1029E000C81AD108E108F108C851DC4FEACFDF91DD
:1029F000CF91FF90EF90DF90CF900895019739F03D
:102A0000880F991F880F991F02970197F1F7089572
:102A1000789484B5826084BD84B5816084BD85B5B9
:102A2000826085BD85B5816085BDEEE6F0E0808180
:102A300081608083E1E8F0E01082808182608083A1
:102A4000808181608083E0E8F0E080818160808324
:102A5000E1EBF0E0808184608083E0EBF0E0808156
:102A600081608083EAE7F0E08081846080838081F8
:102A700082608083808181608083808180688083A0
:102A80001092C1000895833081F028F4813099F0CC
:102A90008230A1F008958730A9F08830B9F08430F1
:102AA000D1F4809180008F7D03C0809180008F776A
:102AB00080938000089584B58F7702C084B58F7DA0
:102AC00084BD08958091B0008F7703C08091B000DD
:102AD0008F7D8093B0000895CF93DF9390E0FC0149
:102AE000E458FE4F2491FC01E057FE4F8491882367
:102AF00049F190E0880F991FFC01E854FE4FA59121
:102B0000B49182559E4FFC01C591D4919FB761113C
:102B100008C0F8948C91209582238C93888182231D
:102B20000AC0623051F4F8948C91322F309583238F
:102B30008C938881822B888304C0F8948C91822B9B
:102B40008C939FBFDF91CF9108950F931F93CF93E5
:102B5000DF931F92CDB7DEB7282F30E0F901E85997
:102B6000FE4F8491F901E458FE4F1491F901E057AA
:102B7000FE4F04910023C9F0882321F069830E944D
:102B800043156981E02FF0E0EE0FFF1FE255FE4F85
:102B9000A591B4919FB7F8948C91611103C01095E1
:102BA000812301C0812B8C939FBF0F90DF91CF9128
:102BB0001F910F910895CF93DF93282F30E0F901F3
:102BC000E859FE4F8491F901E458FE4FD491F90180
:102BD000E057FE4FC491CC2391F081110E94431520
:102BE000EC2FF0E0EE0FFF1FEC55FE4FA591B491D6
:102BF0002C912D2381E090E021F480E002C080E060
:102C000090E0DF91CF910895FC01818D228D90E0BD
:102C1000805C9F4F821B91098F7399270895FC0157
:102C2000918D828D981731F0828DE80FF11D858D81
:102C300090E008958FEF9FEF0895FC01918D828DB4
:102C4000981761F0828DDF01A80FB11D5D968C9100
:102C5000928D9F5F9F73928F90E008958FEF9FEF0B
:102C6000089581EA97E1892B49F080E090E0892B73
:102C700029F00E94A11781110C9400000895FC0115
:102C8000848DDF01A80FB11DA35ABF4F2C91848DF5
:102C900090E001968F739927848FA689B7892C932A
:102CA000A089B1898C9180648C93938D848D9813C5
:102CB00006C00288F389E02D80818F7D808308958E
:102CC000CF93DF93EC01888D8823C9F0EA89FB89D3
:102CD000808185FD05C0A889B9898C9186FD0FC0CA
:102CE0000FB607FCF5CF808185FFF2CFA889B9899F
:102CF0008C9185FFEDCFCE010E943F16E7CFDF918B
:102D0000CF910895CF92DF92FF920F931F93CF93AD
:102D1000DF931F92CDB7DEB76C01DC015B969C910F
:102D20005B975C968C915C97981307C05096ED91D9
:102D3000FC915197808185FD32C0F601038D10E032
:102D40000F5F1F4F0F731127F02EF601848DF812BD
:102D500011C00FB607FCF9CFD6015096ED91FC914A
:102D60005197808185FFF1CFC60169830E943F168C
:102D70006981EBCF838DE80FF11DE35AFF4F60832C
:102D8000D6015B960C935B975296ED91FC9153970D
:102D900080818062808381E058968C930DC0D6013B
:102DA0005696ED91FC91579760835096ED91FC916A
:102DB000519780818064808381E090E00F90DF9163
:102DC000CF911F910F91FF90DF90CF900895BF9208
:102DD000CF92DF92EF92FF92CF93DF93EC016A01E3
:102DE0007B01B22EE889F98982E08083411581EE6A
:102DF000580761057105A1F060E079E08DE390E08E
:102E0000A70196010E94691C21503109410951090D
:102E10005695479537952795211580E1380798F005
:102E2000E889F989108260E874E88EE190E0A701F2
:102E300096010E94691C215031094109510956959A
:102E4000479537952795EC85FD853083EE85FF8581
:102E50002083188EEC89FD89B082EA89FB89808104
:102E600080618083EA89FB89808188608083EA8928
:102E7000FB89808180688083EA89FB8980818F7DDE
:102E80008083DF91CF91FF90EF90DF90CF90BF9044
:102E900008951F920F920FB60F9211242F938F93C4
:102EA0009F93EF93FF93E0913A03F0913B0380816E
:102EB000E0914003F091410382FD12C09081809126
:102EC00043038F5F8F7320914403821751F0E09189
:102ED0004303F0E0E65DFC4F958F8093430301C010
:102EE0008081FF91EF919F918F912F910F900FBE55
:102EF0000F901F9018951F920F920FB60F921124EA
:102F00002F933F934F935F936F937F938F939F93F1
:102F1000AF93BF93EF93FF938AE293E00E943F1633
:102F2000FF91EF91BF91AF919F918F917F916F91A1
:102F30005F914F913F912F910F900FBE0F901F9077
:102F400018958AE293E00E94041621E0892B09F487
:102F500020E0822F089510922D0310922C0388EE0A
:102F600093E0A0E0B0E080932E0390932F03A09312
:102F70003003B093310382ED91E090932B03809363
:102F80002A0385EC90E0909337038093360384EC1A
:102F900090E0909339038093380380EC90E0909315
:102FA0003B0380933A0381EC90E090933D03809340
:102FB0003C0382EC90E090933F0380933E0386ECC9
:102FC00090E090934103809340031092430310924A
:102FD00044031092450310924603089508950E94F9
:102FE00008150E94EE170E940F01C1E3D6E10E946E
:102FF0001C012097E1F30E943116F9CF0C94E61CD6
:10300000CF92DF92EF92FF920F931F93CF93DF93B4
:103010006C017A01EB01E60EF71E00E010E0CE1520
:10302000DF0561F06991D601ED91FC910190F0818D
:10303000E02DC6010995080F191FF1CFC801DF91D6
:10304000CF911F910F91FF90EF90DF90CF90089557
:10305000DC01ED91FC91DB0114964D915C9115978B
:103060006D917C910280F381E02D09940F931F9361
:10307000CF93DF93EC010E94A714688779878A8732
:103080009B87E881F9810680F781E02DCE010995C3
:1030900097FF15C00E94A714088519852A853B85CE
:1030A000601B710B820B930B0C811D812E813F8164
:1030B000601771078207930720F38FEF9FEFDF916F
:1030C000CF911F910F9108950F931F93CF93DF938B
:1030D000EC018B0168E671E00E941019C8010E94A2
:1030E000361897FD05C0682FCE010E94CE19F6CF85
:1030F000CE01DF91CF911F910F910895CF93DF9370
:1031000000D000D0CDB7DEB79B01AC0161157105D1
:103110008105910569F069833A834B835C830E9442
:103120005C1E29813A814B815C810E948B1C03C00B
:1031300060E070E0CB010F900F900F900F90DF9147
:10314000CF910895FC01808191810C947E1DCF93D5
:10315000DF93EC0188819981009711F00E947E1D18
:10316000198218821D821C821B821A82DF91CF91E4
:1031700008950F931F93CF93DF93EC018B016F5F43
:103180007F4F888199810E946A1E009731F0998350
:1031900088831B830A8381E001C080E0DF91CF91A7
:1031A0001F910F910895CF93DF93EC01888199814E
:1031B000892B29F08A819B818617970760F4CE01BD
:1031C0000E94B918882341F08C819D81892B19F4C4
:1031D000E881F981108281E0DF91CF910895EF922B
:1031E000FF920F931F93CF93DF93EC017B018A0132
:1031F000BA010E94D318811104C0CE010E94A71801
:1032000007C01D830C83B701888199810E946D1FBF
:10321000CE01DF91CF911F910F91FF90EF90089514
:10322000FC011182108213821282158214826115B0
:10323000710559F0FB0101900020E9F7AF01415001
:103240005109461B570B0C94EF180895CF93DF9349
:10325000EC01FB018617970761F0608171816115B0
:10326000710529F0448155810E94EF1802C00E9427
:10327000A718CE01DF91CF910895FC011182108231
:1032800013821282158214820C942619CF93DF9335
:10329000EC016115710561F0FB0101900020E9F777
:1032A000AF0141505109461B570B0E94EF1802C055
:1032B0000E94A718CE01DF91CF910895CF93DF939D
:1032C00000D0CDB7DEB7FC011182108213821282CA
:1032D0001582148269831A82BE016F5F7F4F0E943C
:1032E00046190F900F90DF91CF9108950F931F9380
:1032F000CF93DF93CDB7DEB762970FB6F894DEBFFA
:103300000FBECDBF8C01CB01F80111821082138258
:1033100012821582148250E0BE016F5F7F4F0E94BF
:103320008E1FBE016F5F7F4FC8010E9446196296D3
:103330000FB6F894DEBF0FBECDBFDF91CF911F91C6
:103340000F910895EF92FF920F931F93CF93DF9306
:10335000EC017B010C811D816115710511F480E088
:1033600016C04115510591F0040F151FB8010E94B8
:10337000D3188823A1F3288139818C819D81B701DD
:10338000820F931F0E946D1F1D830C8381E0DF91CC
:10339000CF911F910F91FF90EF900895CF93DF93FE
:1033A00000D0CDB7DEB769831A8241E050E0BE019C
:1033B0006F5F7F4F0E94A2190F900F90DF91CF9106
:1033C0000895FC0124813581232B31F421E061151E
:1033D0007105A1F0FB0108C0FC018081918161159C
:1033E000710531F421E0FC018081882339F005C0AA
:1033F0000E94641F21E0892B09F020E0822F0895AC
:10340000CF93DF93FC01848195814817590778F4A5
:10341000C081D181FB0160817181CE01840F951F34
:103420000E94741F009719F08C1B9D0B02C08FEF38
:103430009FEFDF91CF91089540E050E00C94001A87
:10344000BF92CF92DF92EF92FF920F931F93CF9391
:10345000DF936C017B01EA0189012417350720F411
:103460008D2FE901042F182F68E671E0C6010E9434
:103470001019D70114968D919C911597C817D907EB
:10348000C8F48017910708F48C01D701ED91FC91E5
:103490001197E00FF11FB08010826D917C916C0F3D
:1034A0007D1FC6010E944619D701ED91FC91E00FE6
:1034B000F11FB082C601DF91CF911F910F91FF9054
:1034C000EF90DF90CF90BF90089508955058BB279C
:1034D000AA270ED04DC13ED130F043D120F031F4B7
:1034E0009F3F11F41EF433C10EF4E095E7FB29C1B0
:1034F000E92F4FD180F3BA17620773078407950746
:1035000018F071F49EF567C10EF4E0950B2EBA2FFA
:10351000A02D0B01B90190010C01CA01A0011124D9
:10352000FF27591B99F0593F50F4503E68F11A1685
:10353000F040A22F232F342F4427585FF3CF469516
:1035400037952795A795F0405395C9F77EF41F1638
:10355000BA0B620B730B840BBAF09150A1F0FF0F02
:10356000BB1F661F771F881FC2F70EC0BA0F621FEE
:10357000731F841F48F4879577956795B795F795DE
:103580009E3F08F0B3CF9395880F08F09927EE0F70
:103590009795879508950CD0EBC0E3D040F0DAD032
:1035A00030F021F45F3F19F0CCC0511115C1CFC0EC
:1035B000F0D098F39923C9F35523B1F3951B550B1C
:1035C000BB27AA2762177307840738F09F5F5F4FF6
:1035D000220F331F441FAA1FA9F333D00E2E3AF037
:1035E000E0E830D091505040E695001CCAF729D051
:1035F000FE2F27D0660F771F881FBB1F26173707A0
:103600004807AB07B0E809F0BB0B802DBF01FF27CF
:1036100093585F4F2AF09E3F510568F092C0DCC07E
:103620005F3FECF3983EDCF3869577956795B79509
:10363000F7959F5FC9F7880F911D9695879597F924
:103640000895E1E0660F771F881FBB1F621773079D
:103650008407BA0720F0621B730B840BBA0BEE1FB2
:1036600088F7E095089504D06894B111B5C0089525
:1036700098D088F09F5790F0B92F9927B751A0F0B4
:10368000D1F0660F771F881F991F1AF0BA95C9F7F6
:1036900012C0B13081F09FD0B1E008959CC0672F77
:1036A000782F8827B85F39F0B93FCCF386957795A6
:1036B0006795B395D9F73EF490958095709561958F
:1036C0007F4F8F4F9F4F0895E89409C097FB3EF4BA
:1036D00090958095709561957F4F8F4F9F4F99235F
:1036E000A9F0F92F96E9BB279395F69587957795DD
:1036F0006795B795F111F8CFFAF4BB0F11F460FF9D
:103700001BC06F5F7F4F8F4F9F4F16C0882311F0F4
:1037100096E911C0772321F09EE8872F762F05C008
:10372000662371F096E8862F70E060E02AF09A95A3
:10373000660F771F881FDAF7880F9695879597F998
:10374000089597F99F6780E870E060E008959FEF23
:1037500080EC089500240A94161617061806090628
:10376000089500240A9412161306140605060895F7
:10377000092E0394000C11F4882352F0BB0F40F47F
:10378000BF2B11F460FF04C06F5F7F4F8F4F9F4FBF
:10379000089557FD9058440F551F59F05F3F71F041
:1037A0004795880F97FB991F61F09F3F79F08795A8
:1037B0000895121613061406551FF2CF4695F1DF31
:1037C00008C0161617061806991FF1CF86957105C1
:1037D000610508940895E894BB2766277727CB01F5
:1037E00097F908950BD0C4CFB5DF28F0BADF18F0F1
:1037F000952309F0A6CFABCF1124EECFCADFA0F3FB
:10380000959FD1F3950F50E0551F629FF001729F75
:10381000BB27F00DB11D639FAA27F00DB11DAA1F94
:10382000649F6627B00DA11D661F829F2227B00DE1
:10383000A11D621F739FB00DA11D621F839FA00D6C
:10384000611D221F749F3327A00D611D231F849FBC
:10385000600D211D822F762F6A2F11249F57504013
:103860008AF0E1F088234AF0EE0FFF1FBB1F661FAE
:10387000771F881F91505040A9F79E3F510570F067
:1038800060CFAACF5F3FECF3983EDCF38695779547
:103890006795B795F795E7959F5FC1F7FE2B880F62
:1038A000911D9695879597F9089597FB072E16F425
:1038B000009407D077FD09D00E94CC1C07FC05D0EE
:1038C0003EF4909581959F4F0895709561957F4F37
:1038D0000895A1E21A2EAA1BBB1BFD010DC0AA1F51
:1038E000BB1FEE1FFF1FA217B307E407F50720F069
:1038F000A21BB30BE40BF50B661F771F881F991FE4
:103900001A9469F760957095809590959B01AC012C
:10391000BD01CF010895052E97FB1EF400940E946F
:10392000A21C57FD07D00E94691C07FC03D04EF46F
:103930000C94A21C50954095309521953F4F4F4FC8
:103940005F4F089590958095709561957F4F8F4F4B
:103950009F4F0895A29FB001B39FC001A39F700D18
:10396000811D1124911DB29F700D811D1124911D87
:1039700008950E94AA1CA59F900DB49F900DA49F2E
:10398000800D911D11240895B7FF0C94B91C0E945D
:10399000B91C821B930B0895AA1BBB1B51E107C0E6
:1039A000AA1FBB1FA617B70710F0A61BB70B881FCF
:1039B000991F5A95A9F780959095BC01CD0108955E
:1039C000EE0FFF1F0590F491E02D0994CF93DF9344
:1039D0008230910510F482E090E0E091C903F0910B
:1039E000CA0320E030E0A0E0B0E0309739F1408138
:1039F000518148175907B8F04817590771F4828167
:103A00009381109729F013969C938E9312972CC054
:103A10009093CA038093C90327C02115310531F063
:103A20004217530718F0A901DB0101C0EF019A0109
:103A3000BD01DF010280F381E02DD7CF21153105D3
:103A4000F9F0281B390B2430310580F48A819B81E1
:103A50006115710521F0FB019383828304C090936B
:103A6000CA038093C903FE01329644C0FE01E20FEF
:103A7000F31F8193919322503109398328833AC0EF
:103A80002091C7033091C803232B41F420910201F8
:103A9000309103013093C8032093C70320910001A4
:103AA000309101012115310541F42DB73EB7409108
:103AB000040150910501241B350BE091C703F091DF
:103AC000C803E217F307A0F42E1B3F0B2817390792
:103AD00078F0AC014E5F5F4F2417350748F04E0F6A
:103AE0005F1F5093C8034093C7038193919302C013
:103AF000E0E0F0E0CF01DF91CF910895CF93DF9325
:103B0000009709F487C0FC01329713821282C0919A
:103B1000C903D091CA03209781F420813181280FF5
:103B2000391F8091C7039091C8038217930779F5D5
:103B3000F093C803E093C7036DC0DE0120E030E0DE
:103B4000AE17BF0750F412964D915C9113979D01EB
:103B50004115510509F1DA01F3CFB383A283408106
:103B60005181840F951F8A179B0771F48D919C9149
:103B70001197840F951F02969183808312968D91E1
:103B80009C911397938382832115310529F4F09337
:103B9000CA03E093C9033EC0D9011396FC93EE9388
:103BA00012974D915D91A40FB51FEA17FB0779F4A9
:103BB00080819181840F951F0296D90111969C9363
:103BC0008E938281938113969C938E931297E0E05B
:103BD000F0E08A819B81009719F0FE01EC01F9CF9A
:103BE000CE01029628813981820F931F2091C7034D
:103BF0003091C8032817390769F4309729F41092D7
:103C0000CA031092C90302C013821282D093C80360
:103C1000C093C703DF91CF9108958F929F92AF9287
:103C2000BF92CF92DF92EF92FF92CF93DF93EC019E
:103C3000688179818A819B81611571058105910572
:103C400021F464E279ED8BE597E02DE133EF41E07B
:103C500050E00E948B1C49015A019B01AC01A7EA6C
:103C6000B1E40E94B91C6B017C01ACEEB4EFA5017C
:103C700094010E94C71CC60ED71EE81EF91EF7FE4F
:103C800006C081E0C81AD108E10880E8F80AC882B5
:103C9000D982EA82FB82C701B6019F77DF91CF917B
:103CA000FF90EF90DF90CF90BF90AF909F908F905C
:103CB00008950E940D1E089586E091E00E940D1E59
:103CC0000895609306017093070180930801909313
:103CD00009010895A0E0B0E0E0E7FEE10C94E71FE1
:103CE000EC01CB01209719F40E94E61CB8C0FE013C
:103CF000E60FF71F9E0122503109E217F30708F47F
:103D0000ACC0D9010D911C91119706171707B8F097
:103D10000530110508F49FC0A80144505109461709
:103D2000570708F498C002501109061B170B01939E
:103D300011936D937C93CF010E947E1D8CC05B011B
:103D4000A01AB10A4E01800E911EA091C903B09134
:103D5000CA03612C712C60E070E0109709F449C02F
:103D6000A815B905C9F5ED90FC901197670142E0DF
:103D7000C40ED11CCA14DB0478F147018A189B08D1
:103D8000640142E0C40ED11C1296BC9012971396A7
:103D9000AC91B5E0CB16D10440F0B282A3839182FE
:103DA0008082D9018D939C9309C00E5F1F4F0E0D29
:103DB0001F1DF90111830083EB2DFA2F6115710589
:103DC00031F0DB011396FC93EE93129744C0F0930D
:103DD000CA03E093C9033FC06D917C9111976616A9
:103DE000770608F43B01BD0112960D90BC91A02D01
:103DF000B4CF6091C7037091C80368157905E9F4E1
:103E000068167906D0F440910001509101014115E6
:103E1000510541F44DB75EB7609104017091050101
:103E2000461B570BE417F507C0F4F093C803E09363
:103E3000C703F901918380830EC00E94E61C7C01B8
:103E4000009759F0A801BE010E945B1FCE010E949D
:103E50007E1DC70104C0CE0102C080E090E0CDB756
:103E6000DEB7EEE00C9403201F93FC01992788270E
:103E7000BC01E89411911032E9F3193010F01E30B2
:103E8000C8F31B3251F01D3249F4689406C00E94F9
:103E9000A41F610F711D811D911D119110531A30C6
:103EA000B0F33EF490958095709561957F4F8F4F5C
:103EB0009F4F1F910895FB01DC0102C001900D92FC
:103EC00041505040D8F70895FB01DC018D910190DD
:103ED00080190110D9F3990B0895FB01DC010190C1
:103EE0000D920020E1F70895FB0151915523A9F0AF
:103EF000BF01DC014D9145174111E1F759F4CD01A6
:103F00000190002049F04D9140154111C9F3FB018A
:103F10004111EFCF81E090E00197089545325105BE
:103F200020F4423010F00C94991FFB011082CB0159
:103F30000895BB274A3031F4992322F4BDE29095CD
:103F400081959F4F0C94BA1F592F482F372F262F3A
:103F5000660F771F881F991F660F771F881F991F8D
:103F6000620F731F841F951F660F771F881F991F8D
:103F70000895BB27FB015527AA27880F991FAA1F61
:103F8000A41710F0A41B83955051B9F7A05DAA3374
:103F900008F0A95DA193009779F7B111B19311923F
:103FA000CB010C94D31FDC01FC01672F71917723A7
:103FB000E1F7329704C07C916D9370836291AE17E4
:103FC000BF07C8F308952F923F924F925F926F926E
:103FD0007F928F929F92AF92BF92CF92DF92EF9299
:103FE000FF920F931F93CF93DF93CDB7DEB7CA1B1A
:103FF000DB0B0FB6F894DEBF0FBECDBF09942A8845
:10400000398848885F846E847D848C849B84AA84EC
:10401000B984C884DF80EE80FD800C811B81AA8179
:10402000B981CE0FD11D0FB6F894DEBF0FBECDBF44
:10403000ED01089511E0C8ECD1E004C0FE010E943A
:0E404000E21C2296CA3CD107C9F7F894FFCFC4
:10404E000000CB038000010000002C0100000000E6
:10405E0040001400540057616974696E6720666FE2
:10406E00722070726F6772616D00546F74616C7440
:10407E003A006D696E20002073656B00416B74759C
:10408E00656C6C743A004320005374656720002001
:10409E006D696E002020202020202020202020204E
:1040AE002020202020202020002C005061757365D8
:1040BE006420202020202020202020202020004DA1
:1040CE00617368736368656D65642075706C6F618C
:1040DE00646564004661696C0043757272656E7446
:1040EE002074656D703A200043001F1C1F1E1F1E9A
:1040FE001F1F1E1F1E1F00000000F00DC30D980D88
:10410E00A00DB30DC20D00000000971000180000A6
:0E411E0000008216001804161D160F166016FB
:00000001FF
