:100000000C94E5000C940D010C940D010C940D0161
:100010000C940D010C940D010C940D010C940D0128
:100020000C940D010C940D010C940D010C940D0118
:100030000C940D010C940D010C940D010C940D0108
:100040000C9406160C940D010C94F2180C942419BF
:100050000C940D010C940D010C940D010C940D01E8
:100060000C94A0100C940D01005EBCE2613FDD8396
:10007000C29C7E20A3FD1F419DC3217FFCA2401E88
:100080005F01E3BD3E6082DC237D9FC1421CFEA078
:10009000E1BF5D0380DE3C62BEE0025CDF81633D68
:1000A0007C22C09E1D43A1FF4618FAA427799BC558
:1000B00084DA3866E5BB5907DB856739BAE4065848
:1000C0001947A5FB7826C49A653BD987045AB8E638
:1000D000A7F91B45C6987A24F8A6441A99C7257B28
:1000E0003A6486D85B05E7B98CD2306EEDB3510F18
:1000F0004E10F2AC2F7193CD114FADF3702ECC9208
:10010000D38D6F31B2EC0E50AFF1134DCE90722CF7
:100110006D33D18F0C52B0EE326C8ED0530DEFB1E7
:10012000F0AE4C1291CF2D73CA947628ABF51749D7
:100130000856B4EA6937D58B5709EBB536688AD4C7
:1001400095CB2977F4AA4816E9B7550B88D6346AB7
:100150002B7597C94A14F6A8742AC896154BA9F7A7
:10016000B6E80A54D7896B35000000080002010088
:100170000003040700000000000000000102040862
:100180001020408001020408102001020408102001
:10019000040404040404040402020202020203032D
:1001A00003030303000000002300260029000000D1
:1001B0000000250028002B0000000000240027007C
:1001C0002A002001021054193F0111241FBECFEF55
:1001D000D8E0DEBFCDBF11E0A0E0B1E0E0EDF3E498
:1001E00002C005900D92A83FB107D9F723E0A8EF10
:1001F000B1E001C01D92A43EB207E1F711E0C8ECE6
:10020000D1E004C02297FE010E94A31EC23CD10788
:10021000C9F70E9498190C94DB210C94000026E089
:1002200040E855E260E070E083E493E00E949018BB
:1002300088EF91E00C947D0388EF91E00C945B08CB
:1002400088EF91E00E9443016EE085E092E00E9419
:100250007A0E65E072E083E192E00E94F3126BEAAD
:1002600071E08CE292E00E94D11A81E08093510209
:1002700080935202809353028093540208958CE23B
:1002800092E00C94631A24E044E167E20C94CD11EF
:100290000F931F93CF93DF93EC018B01622F0E948A
:1002A0005712B801CE01DF91CF911F910F910C949D
:1002B000E719CF93DF93EC010E94F012CE010E9468
:1002C000F61140E060E0CE010E945712CE010E947C
:1002D000491266E171E0CE01DF91CF910C94F519DE
:1002E000DF92EF92FF920F931F93CF93DF9300D093
:1002F00000D000D0CDB7DEB78C01D62E7A01462FC4
:1003000060E00E9457126AE271E0C8010E94F5198C
:100310004D2D69E0C8010E9457124AE0B701CE0195
:1003200001960E94371BBE016F5F7F4FC8010E947C
:10033000E719CE0101960E94631A4D2D6BE0C801AA
:100340000E9457126FEDCE0101960E941F1BBE0145
:100350006F5F7F4FC8010E94E719CE0101960E948E
:10036000631A4D2D6CE0C8010E94571264E371E0DE
:10037000C8010E94F51926960FB6F894DEBF0FBE8D
:10038000CDBFDF91CF911F910F91FF90EF90DF9044
:100390000895CF93DF93EC0140E060E00E94571294
:1003A00066E371E0CE010E94F51941E060E0CE0104
:1003B0000E9457126BE471E0CE01DF91CF910C9453
:1003C000F519CF93DF93EC0141E060E00E945712F2
:1003D00060E671E0CE01DF91CF910C94F519CF92D8
:1003E000DF92EF92FF920F931F93CF93DF9300D092
:1003F00000D000D0CDB7DEB78C016A017B0140E0B0
:1004000060E00E94571265E771E0C8010E94F5198B
:1004100040E067E0C8010E945712C701B6010E9480
:100420008C0B4AE0BC01CE0101960E94371BBE0135
:100430006F5F7F4FC8010E94E719CE0101960E94AD
:10044000631A40E06AE0C8010E9457126DE771E04C
:10045000C8010E94F51940E06EE0C8010E945712E1
:10046000C701B6010E94920B4AE0BC01CE01019681
:100470000E94371BBE016F5F7F4FC8010E94E719C2
:10048000CE0101960E94631A40E060E1C8010E941B
:10049000571264E871E0C8010E94F51926960FB65C
:1004A000F894DEBF0FBECDBFDF91CF911F910F91AA
:1004B000FF90EF90DF90CF900895AF92BF92CF92D0
:1004C000DF92EF92FF920F93CF93DF9300D000D093
:1004D00000D0CDB7DEB75C0169017A01AB0161E004
:1004E00070E00E947001C701B6010E948C0B1816C3
:1004F000190624F1002309F450C041E06EE0C50163
:100500000E945712C701B6010E94920B4AE0BC013B
:10051000CE0101960E94371BBE016F5F7F4FC50160
:100520000E94E719CE0101960E94631A41E060E142
:10053000C5010E94571264E871E02CC0002369F1E4
:1005400041E06FE0C5010E9457126AEA71E0C501FF
:100550000E94F51941E06EE0C5010E945712C701E3
:10056000B6010E948C0B4AE0BC01CE0101960E94AC
:10057000371BBE016F5F7F4FC5010E94E719CE0197
:1005800001960E94631A41E060E1C5010E94571282
:1005900069E871E0C5010E94F51926960FB6F89436
:1005A000DEBF0FBECDBFDF91CF910F91FF90EF90D7
:1005B000DF90CF90BF90AF9008959F92AF92BF927F
:1005C000CF92DF92EF92FF920F931F93CF93DF931F
:1005D00000D000D000D0CDB7DEB77C01962E6A01E6
:1005E0005901462F60E00E9457126EE871E0C70182
:1005F0000E94F519492D65E0C7010E9457124AE093
:10060000B601CE0101960E94371BBE016F5F7F4F7E
:10061000C7010E94E719CE0101960E94631A492D75
:1006200066E0C7010E9457126AE771E0C7010E94A5
:10063000F519492D68E0C7010E9457124AE0B5013B
:10064000CE0101960E94371BBE016F5F7F4FC7012D
:100650000E94E719CE0101960E94631A492D6AE0B3
:10066000C7010E9457126FEDCE0101960E941F1B19
:10067000BE016F5F7F4FC7010E94E719CE0101964F
:100680000E94631A492D6BE0C7010E94571264E96A
:1006900071E0C7010E94F519492D6DE0C7010E9464
:1006A00057124AE0B801CE0101960E94371BBE01E5
:1006B0006F5F7F4FC7010E94E719CE0101960E942C
:1006C000631A492D6FE0C7010E94571269E871E073
:1006D000C7010E94F51926960FB6F894DEBF0FBE2B
:1006E000CDBFDF91CF911F910F91FF90EF90DF90E1
:1006F000CF90BF90AF909F900895CF93DF93EC0180
:100700004B960E941C1461E086E00E94151761E080
:1007100085E00E94151761E084E00E94151761E0F2
:1007200083E00E94151761E087E00E94151760E0E2
:100730008DE00E94151760E088E00E94151760E0C8
:1007400089E00E94151760E08AE00E94151760E0BA
:100750008BE00E94151760E08CE00E94151760E0A6
:1007600082E00E941517CE01DF91CF910C945901C0
:10077000CF92DF92EF92FF920F931F93CF93DF936D
:10078000EC0188E00E9484176E0123E4C20ED11CA4
:10079000F6019183808389E00E9484177E01F5E44D
:1007A000EF0EF11CF701918380838AE00E94841789
:1007B0008E01095B1F4FF801918380838BE00E94BB
:1007C0008417C75BDF4F99838883F601808191810D
:1007D000019711F461E001C060E086E00E944E17CD
:1007E000F70180819181019711F461E001C060E01F
:1007F00085E00E944E17F80180819181019711F4E4
:1008000061E001C060E084E00E944E178881998118
:10081000019711F461E001C060E083E0DF91CF91C6
:100820001F910F91FF90EF90DF90CF900C944E1797
:10083000CF93DF93EC0164E070E080E090E00E94F1
:100840003F1A20E030E0CF5BDF4FE881F981C9013A
:10085000880F991FE80FF91F808191816817790728
:1008600049F464E070E080E090E00E943F1A20E0EC
:1008700030E0EBCF232B19F421E030E0E6CFCB01C1
:10088000DF91CF9108954F925F926F927F928F92F6
:100890009F92AF92BF92CF92DF92EF92FF920F930F
:1008A0001F93CF93DF93EC018C01065A1F4FD801A1
:1008B0008C918823E9F06E01B1E4CB0ED11CF601D6
:1008C000E080F18064E070E080E090E00E943F1AF8
:1008D000D7016D937C93F601E080F180CE010E94F8
:1008E0001804D70113969C938E931297F8011082E7
:1008F00000E010E03E01F3E46F0E711C6E0185E430
:10090000C80ED11C5E01A7E4AA0EB11C4E01B9E4C9
:100910008B0E911C7E01E1E4EE0EF11C88E00E943A
:100920008417D3018D939C9389E00E948417F6016C
:10093000918380838AE00E948417D5018D939C93D4
:100940008BE00E948417F40191838083D3018D9101
:100950009C91892BD1F4D701ED91FC91E00FF11F0F
:1009600080819181892B89F460E086E00E944E1796
:10097000F70140805180400E511ECE010E941804A4
:10098000D2018D939C9321E001C020E0F60180818B
:100990009181892BC9F4D701ED91FC91E00FF11FF2
:1009A00080819181019781F460E085E00E944E177B
:1009B000F70140805180400E511ECE010E94180464
:1009C000D2018D939C9321E0F50180819181892B47
:1009D000C9F4D701ED91FC91E00FF11F8081918165
:1009E000029781F460E084E00E944E17F701408096
:1009F0005180400E511ECE010E941804D2018D93E9
:100A00009C9321E0F40180819181892BC9F4D70165
:100A1000ED91FC91E00FF11F80819181039781F4AA
:100A200060E083E00E944E17F70140805180400E45
:100A3000511ECE010E941804D2018D939C936ECF5B
:100A400021116CCFD701ED91FC91E00FF11F808156
:100A500091818130910571F02CF4892B91F461E042
:100A600086E00DC08230910541F0039751F461E0BA
:100A700083E005C061E085E002C061E084E00E949F
:100A80004E170E5F1F4F0430110509F047CFDF915D
:100A9000CF911F910F91FF90EF90DF90CF90BF907B
:100AA000AF909F908F907F906F905F904F90089540
:100AB000865A9F4F21E0FC01208360E086E00E947F
:100AC0004E1760E085E00E944E1760E084E00E94CF
:100AD0004E1760E083E00C944E170F931F93CF9353
:100AE000DF9300D000D000D0CDB7DEB78C0167E92E
:100AF00071E0CE0101960E94D11A20E030E040E082
:100B000050E0BE016F5F7F4FC8010E944801CE01D7
:100B100001960E94631A67E971E0CE0101960E9476
:100B2000D11A20E030E042E050E0BE016F5F7F4F1D
:100B3000C8010E944801CE0101960E94631A67E92C
:100B400071E0CE0101960E94D11A20E030E041E030
:100B500050E0BE016F5F7F4FC8010E944801CE0187
:100B600001960E94631A67E971E0CE0101960E9426
:100B7000D11A20E030E043E050E0BE016F5F7F4FCC
:100B8000C8010E944801CE0101960E94631A6CEAD6
:100B900071E0CE0101960E94D11A20E030E040E0E1
:100BA00050E0BE016F5F7F4FC8010E944801CE0137
:100BB00001960E94631AF801E15AFF4F408151816A
:100BC00062E070E0C8010E94700126960FB6F894AA
:100BD000DEBF0FBECDBFDF91CF911F910F91089562
:100BE0002F923F924F925F926F927F928F929F923D
:100BF000AF92BF92CF92DF92EF92FF920F931F932B
:100C0000CF93DF93CDB7DEB728970FB6F894DEBF4A
:100C10000FBECDBF7C010E94840C47012DE4820EE3
:100C2000911CD4016D937D938D939C931397370101
:100C3000B1E56B0E711CF701EB5AFF4FF887EF839C
:100C40000081118122813381DC01CB01801B910B5A
:100C5000A20BB30BF30180839183A283B3830E9421
:100C6000150D80FD16C08701055E1F4FC8010E944B
:100C7000EE1460E0C8010E94E21520E030E0A90116
:100C80000E94281C0E94F41CD701D3967C936E937B
:100C9000D297F4014081518162817381C7010E9422
:100CA000EF016701FEE5CF0ED11CD6018C91F70153
:100CB000E15AFF4F5F01D701D2966D917C91D39796
:100CC000811125C080819181880F991FDA96ED915D
:100CD000FC91DB97E80FF91F8081918168177907F4
:100CE000B4F0F40180819181A281B381EF81F88514
:100CF00080839183A283B383D3011D921D921D92A1
:100D00001C92139781E0F601808335971082D301FE
:100D10002D913D914D915C91F6010081C7010E949A
:100D20005D02D701DA968D919C91DB972701B1E6A0
:100D30004B0E511CD201ED91FC91EE0FFF1FE80FFD
:100D4000F91F00811181D501ED91FC91EE0FFF1F7C
:100D5000E80FF91F208131814701B3E68B0E911C0A
:100D6000F4014081518162E070E0C7010E94DD0220
:100D7000D4014D915C911701B5E62B0E311CF101A8
:100D8000808191814817590704F5D701DA968D9132
:100D90009C91DB97D201ED91FC913296EE0FFF1FF3
:100DA000E80FF91F00811181D501ED91FC91329678
:100DB000EE0FFF1FE80FF91F208131814F5F5F4F5A
:100DC00063E070E0C7010E94DD02F3016081718180
:100DD000828193810E948C0BD2012D913C91220F34
:100DE000331FD701DA96ED91FC91DB97E20FF31FE9
:100DF00020813181821793076CF0F10120813181CC
:100E0000D4018D919C912817390721F4F601808136
:100E1000811141C0D5018D919C91880F991FD701F7
:100E2000DA96ED91FC91DB97E80FF91FD2962D91A0
:100E30003C91D397808191812817390744F0F601BE
:100E40008081882391F0C7010E94580517C0D60100
:100E50008C91882351F0F701E55AFF4F8081882358
:100E600021F0C7010E94430409C0F701E55AFF4F72
:100E70008081882319F0C7010E94B8038CE00E948A
:100E80008417892BD1F0F701E55AFF4F8081882321
:100E9000A1F061E013C060E087E00E944E17C70137
:100EA0000E945805D701DE961C92F701E55AFF4FC4
:100EB0001082C7010E946D05ADCF60E087E00E94FF
:100EC0004E17F30160817181828193810E948C0BA6
:100ED000D2012D913C91A901440F551FD701DA96FB
:100EE000ED91FC91DB97E40FF51F40815181841750
:100EF00095070CF454C0F40180819181D1014D918A
:100F00005C91841795070CF04AC0F6014081442398
:100F100009F445C00196F40191838083D5018D9138
:100F20009C91119702968D939C932E5F3F4FF201F7
:100F300031832083F701E75AFF4F81E08083D60198
:100F40001C92EF81F885108211821282138267E968
:100F500071E0CE0101960E94D11A20E030E041E01C
:100F600050E0BE016F5F7F4FC7010E944801CE0174
:100F700001960E94631A67E971E0CE0101960E9412
:100F8000D11A20E030E043E050E0BE016F5F7F4FB8
:100F9000C7010E944801CE0101960E94631A28965B
:100FA0000FB6F894DEBF0FBECDBFDF91CF911F917A
:100FB0000F91FF90EF90DF90CF90BF90AF909F90F8
:100FC0008F907F906F905F904F903F902F900895FB
:100FD000EF92FF920F931F93CF93DF9300D000D037
:100FE00000D0CDB7DEB78C01FC0142A953A961E066
:100FF00070E00E9470010E94150D80FD15C07801FF
:10100000FBE1EF0EF11CC7010E94EE1460E0C70186
:101010000E94E21520E030E0A9010E94281C0E94F5
:10102000F41CF80173AB62AB82E00E948417892B39
:1010300009F160EA71E0CE0101960E94D11A20E028
:1010400030E043E050E0BE016F5F7F4FC8010E9477
:101050004801CE0101960E94631AF801E35AFF4F3E
:1010600081E08083709760817181828193810E9489
:10107000530C14C08DE00E948417892B79F060E036
:1010800087E00E944E17C8010E945805F80116AE6D
:10109000E55AFF4F1082C8010E946D0526960FB6D3
:1010A000F894DEBF0FBECDBFDF91CF911F910F919E
:1010B000FF90EF9008958F929F92AF92BF92CF9240
:1010C000DF92EF92FF920F931F93CF93DF93CDB7F1
:1010D000DEB7CC54D1090FB6F894DEBF0FBECDBF3A
:1010E0006C016BEA71E0CE01895B9F4F0E94D11ABF
:1010F000B601645F7F4FCE0101960E94570ABE0180
:101100006F5F7F4FCE01895B9F4F0E94E71ACE0130
:1011100001960E94631A6BEA71E0CE01895B9F4FD2
:101120000E94A21B8111C7C0AE014F5F5F4F5A01E1
:1011300000E010E0460154E3850E911C6BEA71E07B
:10114000CE01895B9F4F0E94A21B811166C061EC9A
:1011500071E0CE018F5B9F4F0E94D11ABE016F5B81
:101160007F4FCE01895B9F4F0E94DD1B7C01CE012A
:101170008F5B9F4F0E94631AF7FE08C06BEA71E015
:10118000CE01895B9F4F0E94071B47C0970140E03B
:1011900050E0BE01695B7F4FCE018F5B9F4F011511
:1011A000110549F40E94E11BBE016F5B7F4FC40132
:1011B0000E94E71A0BC00E94E11B23968EAD9FADE3
:1011C00023970E94F520F50171836083CE018F5B28
:1011D0009F4F0E94631A2D962EAD3FAD2D97A7010C
:1011E0004F5F5F4FBE01695B7F4FCE018F5B9F4FAB
:1011F0000E94E11BBE016F5B7F4FCE01895B9F4F59
:101200000E94E71ACE018F5B9F4F0E94631A0F5F07
:101210001F4FF2E0AF0EB11C91CFC8010297F6014B
:1012200095AF84AFEB59FF4F9C010150110997FD19
:10123000980135952795318320838138FFE39F07F7
:1012400018F4880F991F02C08FEF9FEF0E94A71913
:10125000F60182AF93AF20AD31ADF801EE0FFF1F65
:1012600041E050E04C0F5D1FE40FF51F608171817C
:10127000DE0113968C0180E090E0F60144AD55AD9F
:101280008417950754F401964D915D91F8014193AF
:1012900051938F01240F351FF0CFC6012617370752
:1012A00031F40E94C90181E0F60186AF04C00E94BA
:1012B000E101F60116AE8601055E1F4FC8010E94CE
:1012C000EE1460E0C8010E94E21520E030E0A901C0
:1012D0000E94281C0E94F41CF60173AB62ABAB01A8
:1012E00062E070E0C6010E94700182E00E948417F3
:1012F0005C01F601FF9691838083F60186AD811132
:1013000019C0CE01895B9F4F0E94631AC45BDF4FF7
:101310000FB6F894DEBF0FBECDBFDF91CF911F9106
:101320000F91FF90EF90DF90CF90BF90AF909F9084
:101330008F900895F1E0AF16B10419F7E12CF12C6C
:1013400000E010E020E030E040E050E060E070E0DD
:1013500080E090E00E941D0D67E971E0CE010196EA
:101360000E94D11A20E030E040E050E0BE016F5F03
:101370007F4FC6010E944801CE0101960E94631A68
:1013800067E971E0CE0101960E94D11A20E030E0B9
:1013900041E050E0BE016F5F7F4FC6010E944801EF
:1013A000CE0101960E94631A67E971E0CE010196B1
:1013B0000E94D11A20E030E042E050E0BE016F5FB1
:1013C0007F4FC6010E944801CE0101960E94631A18
:1013D000F601E15AFF4F118210823296B182A0824B
:1013E0003C971082118212821382399610823596B0
:1013F000B182A0828601035A1F4F81E0F8018083E9
:1014000084E090E00E94A719F601EF5BFF4F918303
:1014100080837601FBE5EF0EF11CBB24B394F6014B
:1014200086AD882309F46DCF8DE00E948417892B47
:1014300051F1F801108260E087E00E944E1760E0F1
:1014400086E00E944E1760E085E00E944E1760E043
:1014500084E00E944E1760E083E00E944E1766E32E
:1014600071E0CE0101960E94D11A20E030E043E005
:1014700050E0BE016F5F7F4FC6010E944801CE0160
:1014800001960E94631AF8018081882331F0F701E8
:10149000B082C6010E94F005C2CF8DE00E94841781
:1014A000892B09F0BCCFC6010E94E807B8CF0F9383
:1014B0001F93CF93DF9300D000D000D0CDB7DEB71D
:1014C0008C0183E493E00E94AD17892BB9F064E6A8
:1014D00070E080E090E00E947F1663E473E0CE014C
:1014E00001960E94251ABE016F5F7F4FC8010E94BE
:1014F000FE1ACE0101960E94631A05C06BEA71E0E4
:10150000C8010E94D11AC80126960FB6F894DEBF12
:101510000FBECDBFDF91CF911F910F9108956F92B4
:101520007F928F929F92AF92BF92CF92DF92EF9273
:10153000FF920F931F93CF93DF93EA012CE3C22E08
:10154000D12CE12CF12CA70196010E942A1E688360
:10155000CA01B901A70196010E942A1E6983CA0126
:10156000B90128E130E040E050E00E942A1E490124
:101570005A016A83CA01B9016C5F7F4F8F4F9F4F39
:1015800027E030E040E050E00E942A1E6F5F6B834E
:1015900000E010E0980140E054E6652E712C60E90F
:1015A000C62EDD24D394E42FF0E0EE54F84F7F01F3
:1015B00083E0E822FF24E114F10489F4CF01B301B0
:1015C0000E94161E892B29F08EE691E0A0E0B0E083
:1015D0000AC0CF01B6010E94161E892BA9F38DE621
:1015E00091E0A0E0B0E0080F191F2A1F3B1FD901AE
:1015F000C801AA27BB2788169906AA06BB0610F0C1
:101600004F5FD1CF4E83E114F10499F4CF0164E62A
:1016100070E00E94161E892B29F08EE691E0A0E072
:10162000B0E00BC0CF0160E971E00E94161E892B6B
:10163000A1F38DE691E0A0E0B0E0081B190B2A0BA6
:101640003B0B801A910AA20AB30ACF0164E670E04C
:101650000E94161E9C01CF0160E971E00E94161ED7
:10166000E3ECF1E0A0E0A13059F4E114F10451F40D
:101670002115310511F04DE106C00097E1F302C0DC
:10168000408101C04CE150E060E070E084169506B6
:10169000A606B70640F0841A950AA60AB70AAF5FF5
:1016A0003196AC3001F7AF5FAD8383948C82DF91CC
:1016B000CF911F910F91FF90EF90DF90CF90BF904F
:1016C000AF909F908F907F906F900895CF92DF9210
:1016D000EF92FF926B017C0180916F0290917002FA
:1016E000A0917102B0917202C816D906EA06FB06F3
:1016F00071F043E752E0C701B6010E948F0AC09221
:101700006F02D0927002E0927102F0927202FF902A
:10171000EF90DF90CF9008950E94660B8091740245
:1017200090E008950E94660B8091730290E0089506
:101730006F927F928F929F92AF92BF92CF92DF92E1
:10174000EF92FF920F931F93CF93DF93FC01C6801C
:10175000AC2DB0E020E833E341EE51E00E947A1E68
:101760004B015C0122EB37E06D01C4E6D0E000E9FB
:1017700011E0C901825B97408C159D05DCF4C9011D
:1017800083709927892B99F4C901BE010E94161E06
:10179000892B31F4C901B8010E94161E892B39F436
:1017A00080E8880E81E5981E81E0A81EB11C2F5F9D
:1017B0003F4FDFCF6580712C8EE4C81A88EFD80ABE
:1017C000C60164E670E00E94161E8C01C60160E945
:1017D00071E00E94161E7C01C1E0D0E083E0C822C7
:1017E000DD24C615D7052CF5C230D10589F4C11406
:1017F000D10471F40115110519F4E114F10441F457
:1018000080E8880E8BE3981E86E2A81EB11C0FC0EC
:10181000DE01AE53BE4FAC91B0E020E831E541E0CF
:1018200050E00E947A1E860E971EA81EB91E2196B1
:10183000D8CF4181228130E0A0E1BEE00E946B1E42
:101840006B017C01242F30E0ACE3B0E00E946B1E02
:10185000C60ED71EE81EF91E8081C80ED11CE11CE1
:10186000F11CA481B0E0119720E831E541E050E09F
:101870000E94851EC60ED71EE81EF91EC80CD91C74
:10188000EA1CFB1CC701B601DF91CF911F910F919C
:10189000FF90EF90DF90CF90BF90AF909F908F9090
:1018A0007F906F9008950F931F9360936B027093D6
:1018B0006C0280936D0290936E0200910A01109168
:1018C0000B0120910C0130910D01060F171F281FED
:1018D000391F0093630210936402209365023093D2
:1018E000660282E090E090936202809361020E941F
:1018F0005016609367027093680280936902909318
:101900006A021F910F910895CF92DF92EF92FF929A
:101910000F931F930E945016C0906702D0906802E8
:10192000E0906902F0906A026C197D098E099F09A6
:1019300000916B0210916C0220916D0230916E0249
:10194000683E734081059105D8F00F5F1F4F2F4F00
:101950003F4F00936B0210936C0220936D02309303
:101960006E0248EEC40E43E0D41EE11CF11CC0928E
:101970006702D0926802E0926902F0926A02CACFCE
:101980008091630290916402A0916502B091660219
:10199000081719072A073B07C8F1E0915F02F09189
:1019A0006002309799F109956115710581059105DE
:1019B00019F00E94530C2AC080910A0190910B01EA
:1019C000A0910C01B0910D0140916B0250916C02FD
:1019D00060916D0270916E02840F951FA61FB71F54
:1019E0008093630290936402A0936502B0936602B1
:1019F00081E090E02091610230916202232B11F48A
:101A000080E090E0909362028093610260916B02AB
:101A100070916C0280916D0290916E021F910F91F6
:101A2000FF90EF90DF90CF9008950E94840C0E9469
:101A3000660B8091730290E00895EF92FF920F93EE
:101A400094E6E916F1042CF092EBE91A97E0F90A12
:101A500003C09EE1E90EF11CE09279020093780246
:101A6000209377028093750260937402409373020F
:101A700083E792E00E94980B0F91FF90EF900C94F7
:101A8000530CFF920F931F93CF93DF93FC010081C0
:101A9000C181D281F8948981F02EF0948F218983BD
:101AA00078941DE7115029F182E090E00E94A7167A
:101AB00088818023B9F3F8948A818F218A83898170
:101AC000802B8983789480EE91E00E94A716F89489
:101AD00089818F21898386E490E00E94A7168881FE
:101AE000802311E009F010E078948AE991E00E94E7
:101AF000A716812FDF91CF911F910F91FF9008952D
:101B00001F93CF93DF93FC011081C181D281912F6C
:101B1000909560FF12C0F8948A8189238A83898115
:101B2000812B89838AE090E00E94A7168A81812B0D
:101B30008A83789487E390E011C0F8948A8189239E
:101B40008A838981812B898381E490E00E94A71692
:101B50008A81812B8A83789485E090E0DF91CF9110
:101B60001F910C94A7160F931F93CF93DF93FC0143
:101B70001081C181D281F8948981812B89838A81E6
:101B8000012F009580238A8383E090E00E94A716AE
:101B90008981802389838AE090E00E94A716C8810A
:101BA000789485E390E00E94A7161C2381E009F455
:101BB00080E0DF91CF911F910F910895CF92DF9236
:101BC000EF92FF920F931F93CF93DF931F92CDB7A6
:101BD000DEB76C01E62E08E010E0FF24F39461E02C
:101BE0009F2D9E2109F460E0C60149830E94800D6B
:101BF000FF0C0150110949810115110581F74111AF
:101C000015C0F894D6011196ED91FC91129791812F
:101C10008C918095892381831196ED91FC91129787
:101C200092818C9180958923828378940F90DF91A3
:101C3000CF911F910F91FF90EF90DF90CF9008957B
:101C4000EF92FF920F931F93CF93DF938C01C8E025
:101C5000D0E0F12CEE24E394C8010E94B30D811171
:101C6000FE28EE0C2197C1F78F2DDF91CF911F91A8
:101C70000F91FF90EF900895CF92DF92FF920F9314
:101C80001F93CF93DF931F92CDB7DEB78C01F62E53
:101C900040E065E579830E94DE0DCF2C7981D72E57
:101CA00088E0F82EF60161916F0140E0C8010E94C2
:101CB000DE0DFA94B9F70F90DF91CF911F910F913C
:101CC000FF90DF90CF90089540E06CEC0C94DE0D17
:101CD000FC0113861586148627E030E0DF01A20F91
:101CE000B31F13961C922115310519F021503109AB
:101CF000F5CF08951F93CF93DF93EC01162F60E08B
:101D0000812F0E941517612F70E0FB01E458FE4FF0
:101D1000E491E883FB01E057FE4FE491F0E0EE0F21
:101D2000FF1FEC55FE4F859194919A838983CE01D4
:101D3000DF91CF911F910C94680EAF92BF92CF921A
:101D4000DF92EF92FF920F931F93CF93DF931F9237
:101D5000CDB7DEB75C01E62ED72EFC01858581115B
:101D60005DC0C5010E94410D811105C0F5011386BA
:101D7000158614866EC040E060EFC5010E94DE0D3E
:101D800001E0F12CC12C11E0C5010E94B30D682FB8
:101D9000C50169830E94B30D6981613019F48130F6
:101DA000B9F433C02F2D30E068131BC0F5018385D3
:101DB000181730F4E20FF31F8381802349F402C027
:101DC000181731F060E0193058F4F501148708C095
:101DD000F501EF0DF11D8381802B838361E009C044
:101DE000C12EF501E20FF31F8381902F9095892377
:101DF0008383C5010E94800D1F5F000F11F4F394CF
:101E000001E0F7E0FF1508F0BFCF113438F0F5011D
:101E1000C386C11018C081E0858715C0F5011386FF
:101E20001586148680E0EE2DFD2D20E030E0D501F2
:101E3000A20FB31F13969C9191932F5F3F4F2830B1
:101E40003105A9F706C0F5018381882339F381E0C4
:101E5000EACF0F90DF91CF911F910F91FF90EF90FC
:101E6000DF90CF90BF90AF900895DC0180E061508B
:101E700038F0ED91E827F0E0E859FF4F8491F7CF73
:101E800008958091AA0290E02091AB02821B9109F3
:101E900008952091AB028091AA02281750F4E22FF6
:101EA000F0E0E455FD4F808190E02F5F2093AB027E
:101EB00008958FEF9FEF0895E091AB028091AA0201
:101EC000E81730F4F0E0E455FD4F808190E008958C
:101ED0008FEF9FEF08950895CF92DF92EF92FF92D8
:101EE0000F931F93CF93DF937C01CB018A01209145
:101EF0008602222389F0EB016B01C40ED51ECC159E
:101F0000DD0569F06991D701ED91FC910190F081B7
:101F1000E02DC7010995F3CF642F0E947710C80107
:101F2000DF91CF911F910F91FF90EF90DF90CF90B5
:101F30000895CF93DF931F92CDB7DEB769832091C9
:101F400086022223D1F020918702203240F021E046
:101F500030E0FC013383228380E090E015C0809163
:101F60008802E82FF0E0E757FD4F998190838F5F5B
:101F7000809388028093870205C061E0CE010196BC
:101F80000E94771081E090E00F90DF91CF9108954B
:101F9000FC011382128248EE53E060E070E044835B
:101FA00055836683778383ED91E0918380830895E1
:101FB0001092AB021092AA0210928802109287022D
:101FC0000C94061081E0809386026093A90210921F
:101FD00088021092870208950F93062F21E0409106
:101FE000870269E872E08091A9020E942410109291
:101FF000880210928702109286020F91089561E084
:102000000C94EC0F8AE792E00C94C80F10923903FD
:1020100081E0809337031092360361E082E10E94F1
:102020004E1761E083E10E944E17E9EBF0E08081FA
:102030008E7F808380818D7F808388E48093B80049
:1020400085E48093BC0008950F93413208F046C0A8
:10205000909139039111FCCF92E090933903009352
:1020600037039FEF9093CC0210921103409310031B
:10207000FB0162E173E0DB019A2F961B941718F4C1
:1020800091919D93F9CF1092380390913803880F66
:10209000892B8093380380913603813041F410926C
:1020A0003603809138038093BB0085EC01C085EE38
:1020B0008093BC00222321F0809139038230E1F328
:1020C0008091CC028F3F61F08091CC02803251F040
:1020D0008091CC02803341F483E007C081E005C0E9
:1020E00080E003C082E001C084E00F910895613276
:1020F00098F420913903243089F46093EE02FC01B6
:1021000080EF92E0DC012A2F281B261718F421917A
:102110002D93F9CF80E0089581E0089582E008953D
:1021200085ED8093BC008091BC0084FDFCCF1092B3
:102130003903089585EC8093BC001092390308950B
:102140001F920F920FB60F9211242F933F934F932C
:102150005F936F937F938F939F93AF93BF93EF930F
:10216000FF938091B900887F803609F49CC068F5A0
:10217000883209F45BC090F4803109F454C038F41B
:10218000882309F4F5C0883009F44DC0F5C08831C2
:1021900009F44CC0803209F45DC0EEC0803409F40B
:1021A00068C048F4803309F455C0883309F0E4C0AE
:1021B0008093CC02A8C0803509F44FC0883509F45B
:1021C0005DC0883409F0D8C0D5C0883909F4C6C0CC
:1021D000A8F4883709F467C038F4883609F463C076
:1021E000803709F460C0C8C0883809F4B7C08039A6
:1021F00009F45FC0803809F0BFC05BC0803B09F4C0
:1022000085C038F4803A09F466C0883A09F47EC083
:10221000B3C0803C09F4A6C0883C09F4A3C0883B45
:1022200009F489C0A9C08091380310C090911103AE
:1022300080911003981770F5E091110381E08E0FE3
:1022400080931103F0E0EE5EFC4F80818093BB0031
:1022500085EC85C08093CC028DC0E091110381E0B4
:102260008E0F809311038091BB00F0E0EE5EFC4F77
:10227000808390911103809110036DC0E091110350
:1022800081E08E0F809311038091BB00F0E0EE5E41
:10229000FC4F80838091370381116CC081E0809373
:1022A000360384EA60C083E0809339031092CD0244
:1022B000CFCF8091CD02803208F050C0E091CD02A6
:1022C00081E08E0F8093CD028091BB00F0E0E2535D
:1022D000FD4F8083BDCF8091CD02803230F4E091FC
:1022E000CD02F0E0E253FD4F10820E949010609109
:1022F000CD0270E0E0913203F09133038EEC92E076
:1023000009951092CD020E949A1036C084E0809305
:1023100039031092EF021092EE02E0913403F09133
:10232000350309958091EE02811105C081E080930B
:10233000EE021092F002E091EF0281E08E0F8093A6
:10234000EF02F0E0E051FD4F80818093BB0090915F
:10235000EF028091EE02981708F47ACF85E8809317
:10236000BC000AC085EC8093BC001092390304C005
:102370001092CC020E949010FF91EF91BF91AF910B
:102380009F918F917F916F915F914F913F912F918D
:102390000F900FBE0F901F901895FC0113821282B0
:1023A00083EE91E091838083648341872287138643
:1023B00008951F93CF93DF93EC01162F6C818AE76A
:1023C00092E00E94E20FE0917A02F0917B026B852D
:1023D000612B0190F081E02D8AE792E009958AE770
:1023E00092E0DF91CF911F910C94FF0F28E0FC0148
:1023F000238760E00C94D9111F93CF93DF93EC01F6
:10240000162F64600E94D91181E090E00E94A71607
:10241000612F6B7FCE010E94D91182E390E0DF91A2
:10242000CF911F910C94A7161F93CF93DF93EC01CC
:10243000162F0E94D911612FCE01DF91CF911F91EC
:102440000C94FC11EF92FF921F93CF93DF931F9296
:10245000CDB7DEB77C01162F607F642B49830E94C5
:10246000141280E1189FB00111244981642BC70127
:102470000F90DF91CF911F91FF90EF900C94141269
:1024800041E00E94221280E090E0089540E00C9428
:10249000221261E00E94461280ED97E00C94A7168C
:1024A00062E00E94461280ED97E00C94A716CF934D
:1024B000DF93CDB7DEB728970FB6F894DEBF0FBE17
:1024C000CDBF28E0EEE0F1E0DE01119601900D9223
:1024D0002A95E1F7FC012085241710F44FEF420FF5
:1024E000FE013196E40FF11DE40FF11D2081260F4E
:1024F0002068622F28960FB6F894DEBF0FBECDBFBE
:10250000DF91CF910C944612FC016681262F246046
:1025100026836C600C944612CF93DF93EC0142301B
:1025200018F08D8188608D834887222329F04130FF
:1025300019F48D8184608D8362E370E080E090E027
:102540000E947F166B85CE010E94D91168EE73E060
:1025500080E090E00E947F1660E3CE010E9414129A
:1025600084E991E10E94A71660E3CE010E94141253
:1025700084E991E10E94A71660E3CE010E94141243
:1025800086E990E00E94A71660E2CE010E94141234
:102590006D816062CE010E94461284E08E83CE017E
:1025A0000E948412CE010E94491282E08F8366E06D
:1025B000CE010E944612CE01DF91CF910C945012B1
:1025C000CF93DF93EC018AE792E00E94D80F1D823F
:1025D00020E04A856985CE01DF91CF910C948C1261
:1025E0000C94E0120895FC0182EF92E1928B818BB2
:1025F000768365831482108289E0818381E08283FF
:1026000083830895CF93DF93EB0167E0CE010E94AF
:10261000350F91E02F81821390E0892FDF91CF91C8
:102620000895EF92FF920F931F93CF93DF93EC01E6
:102630008B01E42E8D819E810E94680EF12CB801E1
:102640008D819E810E949D0E882359F0FE1006C048
:10265000B801CE010E940213811104C0F394EF145B
:1026600070F780E0DF91CF911F910F91FF90EF9075
:102670000895EF92FF920F931F93CF93DF9300D0B3
:10268000CDB7DEB77C018A01FC0185819681698323
:102690007A830E94410D69817A81F7018581968153
:1026A0000E943C0E40E06EEBF701858196810E940E
:1026B000DE0DF701858196810E94200EF80180834E
:1026C000F701858196810E94200EF8018183F70130
:1026D000858196810E94200EF8018283F701858111
:1026E00096810E94200EF8018383F70185819681EF
:1026F0000E94200EF8018483F701858196810E9453
:10270000200EF8018583F701858196810E94200EB5
:10271000F8018683F701858196810E94200EF801D9
:102720008783F701858196810E94200EF8018087BA
:10273000F701858196810F900F90DF91CF911F91C6
:102740000F91FF90EF900C94410DCF93DF93EA012E
:102750000E94391368E0CE010E94350F91E0288570
:10276000821390E0892FDF91CF910895EF92FF922D
:102770001F93CF93DF9300D0CDB7DEB77C01FC0170
:102780008581968169837A830E94410D69817A816E
:10279000F701858196810E943C0E40E064EBF701D1
:1027A000858196810E94DE0DF701858196810E94C8
:1027B000B30D182FF701858196810E94410D81E0AC
:1027C000111180E00F900F90DF91CF911F91FF903A
:1027D000EF900895CF93DF93CDB7DEB729970FB66B
:1027E000F894DEBF0FBECDBFFB0120812031D1F0B8
:1027F000AE014F5F5F4F0E94A513882379F08D8152
:102800008F3351F018F48F3169F008C08F3541F0E3
:102810008F3721F48CE007C08AE005C080E003C058
:102820008BE001C089E029960FB6F894DEBF0FBE99
:10283000CDBFDF91CF910895EF92FF920F931F9339
:10284000CF93DF93CDB7DEB761970FB6F894DEBFB5
:102850000FBECDBF8C01FC01858196810E94680E60
:10286000F8011482FF24F394BE01665F7F4FF801E4
:10287000858196810E949D0E8823C9F1BE01665F05
:102880007F4FC8010E940213882371F3F8018081F1
:10289000811108C0BE01665F7F4FC8010E94B61358
:1028A000811122C0AE014F5F5F4FBE01665F7F4F57
:1028B000C8010E943913F801E180BE01665F7F4FB5
:1028C000C8010E94EA138E1518F4F801818106C030
:1028D000BE01665F7F4FC8010E94EA13F801818341
:1028E00084818F5F8483C0CFF801F082DBCF619653
:1028F0000FB6F894DEBF0FBECDBFDF91CF911F9111
:102900000F91FF90EF900895CF93DF93CDB7DEB78F
:1029100029970FB6F894DEBF0FBECDBFAE014F5F53
:102920005F4F0E94391381E09981911101C080E0CD
:1029300029960FB6F894DEBF0FBECDBFDF91CF91C1
:102940000895CF92DF92EF92FF920F931F93CF9350
:10295000DF93EC018B01452BE1F08B818823C9F0DB
:102960008881811116C00E9450166B017C0160E0C5
:1029700070E0CE010E94841481110BC00E94501699
:102980006C197D098E099F096E3E72408105910583
:1029900070F3F80180818A3049F08B3061F0893022
:1029A00079F46EE570E080E090E00EC06CEB70E0D2
:1029B00080E090E009C067E771E080E090E004C04B
:1029C0006EEE72E080E090E0DF91CF911F910F9169
:1029D000FF90EF90DF90CF900C947F16CF93DF9312
:1029E000EC018D819E810E94410D8D819E810E940E
:1029F000640E488164E48D819E810E94DE0D8A818F
:102A0000882351F0BE016F5F7F4F40E050E0CE0160
:102A1000DF91CF910C94A114DF91CF9108958F9203
:102A20009F92AF92BF92CF92DF92EF92FF921F934D
:102A3000CF93DF93FB01EA01698170E0762F66276F
:102A40008881682B80818232B1F18832A1F1803196
:102A500009F078C01F8175956795882777FD809567
:102A6000982F0E94271D20E030E040E85EE30E949E
:102A7000271C6B017C01612F70E08E81681B71093E
:102A8000882777FD8095982F0E94271D4B015C01B8
:102A9000612F70E080E090E00E94251D9B01AC0159
:102AA000C501B4010E948C1C9B01AC01C701B60199
:102AB0000E94281C43C08C818F3381F198F48F31A0
:102AC00009F040C093E0759567959A95E1F78827DE
:102AD00077FD8095982F0E94271D20E030E040E090
:102AE0005FE32AC08F3569F08F3761F5882777FD5E
:102AF0008095982F0E94271D20E030E040E85DE39C
:102B00001BC075956795882777FD8095982F0E9443
:102B1000271D20E030E040E05EE30EC0759567952C
:102B200075956795882777FD8095982F0E94271DBA
:102B300020E030E040E85EE30E94B31D562F472FAF
:102B4000382F292F652F742F832F922FDF91CF914C
:102B50001F91FF90EF90DF90CF90BF90AF909F902C
:102B60008F900895EF92FF920F931F93CF93DF936F
:102B7000CDB7DEB729970FB6F894DEBF0FBECDBF35
:102B80008C017B01AE014F5F5F4F0E94A51388232C
:102B900041F0AE014F5F5F4FB701C8010E940F15B2
:102BA00004C060E070E08EEF92EC29960FB6F894C6
:102BB000DEBF0FBECDBFDF91CF911F910F91FF9070
:102BC000EF9008950F931F93CF93DF93CDB7DEB7A8
:102BD00028970FB6F894DEBF0FBECDBF8C01462FED
:102BE000BE016F5F7F4F0E941113BE016F5F7F4F69
:102BF000C8010E94B21528960FB6F894DEBF0FBE2A
:102C0000CDBFDF91CF911F910F9108951F920F9229
:102C10000FB60F9211242F933F938F939F93AF93EF
:102C2000BF9380913B0390913C03A0913D03B091F1
:102C30003E0330913A0323E0230F2D3720F4019611
:102C4000A11DB11D05C026E8230F0296A11DB11DCF
:102C500020933A0380933B0390933C03A0933D035E
:102C6000B0933E0380913F0390914003A0914103B4
:102C7000B09142030196A11DB11D80933F03909333
:102C80004003A0934103B0934203BF91AF919F9142
:102C90008F913F912F910F900FBE0F901F9018951D
:102CA0002FB7F89460913B0370913C0380913D03F2
:102CB00090913E032FBF08953FB7F89480913F0352
:102CC00090914003A0914103B091420326B5A89B87
:102CD00005C02F3F19F00196A11DB11D3FBF66270A
:102CE000782F892F9A2F620F711D811D911D42E04F
:102CF000660F771F881F991F4A95D1F70895CF92C5
:102D0000DF92EF92FF92CF93DF936B017C010E94E1
:102D10005C16EB01C114D104E104F10489F00E94B6
:102D2000261C0E945C166C1B7D0B683E734090F362
:102D300081E0C81AD108E108F108C851DC4FEACF98
:102D4000DF91CF91FF90EF90DF90CF9008950197A2
:102D500039F0880F991F880F991F02970197F1F793
:102D60000895789484B5826084BD84B5816084BD03
:102D700085B5826085BD85B5816085BDEEE6F0E0F4
:102D8000808181608083E1E8F0E010828081826050
:102D90008083808181608083E0E8F0E080818160D1
:102DA0008083E1EBF0E0808184608083E0EBF0E001
:102DB000808181608083EAE7F0E0808184608083A5
:102DC000808182608083808181608083808180684F
:102DD00080831092C1000895833081F028F48130FF
:102DE00099F08230A1F008958730A9F08830B9F0C9
:102DF0008430D1F4809180008F7D03C08091800069
:102E00008F7780938000089584B58F7702C084B552
:102E10008F7D84BD08958091B0008F7703C080912D
:102E2000B0008F7D8093B0000895CF93DF9390E042
:102E3000FC01E458FE4F2491FC01E057FE4F8491C1
:102E4000882349F190E0880F991FFC01E854FE4F58
:102E5000A591B49182559E4FFC01C591D4919FB725
:102E6000611108C0F8948C91209582238C938881FD
:102E700082230AC0623051F4F8948C91322F30953D
:102E800083238C938881822B888304C0F8948C914F
:102E9000822B8C939FBFDF91CF9108950F931F9347
:102EA000CF93DF931F92CDB7DEB7282F30E0F90123
:102EB000E859FE4F8491F901E458FE4F1491F9014D
:102EC000E057FE4F04910023C9F0882321F0698365
:102ED0000E94EC166981E02FF0E0EE0FFF1FE25533
:102EE000FE4FA591B4919FB7F8948C91611103C0E6
:102EF0001095812301C0812B8C939FBF0F90DF9190
:102F0000CF911F910F910895CF93DF93282F30E039
:102F1000F901E859FE4F8491F901E458FE4FD4912C
:102F2000F901E057FE4FC491CC2391F081110E942A
:102F3000EC16EC2FF0E0EE0FFF1FEC55FE4FA591C5
:102F4000B4912C912D2381E090E021F480E002C027
:102F500080E090E0DF91CF910895FC01818D228D7A
:102F600090E0805C9F4F821B91098F739927089591
:102F7000FC01918D828D981731F0828DE80FF11D43
:102F8000858D90E008958FEF9FEF0895FC01918D5E
:102F9000828D981761F0828DDF01A80FB11D5D96BB
:102FA0008C91928D9F5F9F73928F90E008958FEF29
:102FB0009FEF08958AE499E1892B49F080E090E041
:102FC000892B29F00E944A1981110C940000089560
:102FD000FC01848DDF01A80FB11DA35ABF4F2C91B6
:102FE000848D90E001968F739927848FA689B78985
:102FF0002C93A089B1898C9180648C93938D848D5E
:10300000981306C00288F389E02D80818F7D80832C
:103010000895CF93DF93EC01888D8823C9F0EA8966
:10302000FB89808185FD05C0A889B9898C9186FDC1
:103030000FC00FB607FCF5CF808185FFF2CFA889BE
:10304000B9898C9185FFEDCFCE010E94E817E7CFBB
:10305000DF91CF910895CF92DF92FF920F931F934C
:10306000CF93DF931F92CDB7DEB76C01DC015B9687
:103070009C915B975C968C915C97981307C05096D7
:10308000ED91FC915197808185FD32C0F601038D51
:1030900010E00F5F1F4F0F731127F02EF601848D84
:1030A000F81211C00FB607FCF9CFD6015096ED917A
:1030B000FC915197808185FFF1CFC60169830E9401
:1030C000E8176981EBCF838DE80FF11DE35AFF4FBD
:1030D0006083D6015B960C935B975296ED91FC91C1
:1030E000539780818062808381E058968C930DC0D5
:1030F000D6015696ED91FC91579760835096ED91CD
:10310000FC91519780818064808381E090E00F90F2
:10311000DF91CF911F910F91FF90DF90CF90089595
:10312000BF92CF92DF92EF92FF92CF93DF93EC01A9
:103130006A017B01B22EE889F98982E0808341151A
:1031400081EE580761057105A1F060E079E08DE33B
:1031500090E0A70196010E942A1E215031094109E1
:1031600051095695479537952795211580E13807E0
:1031700098F0E889F989108260E874E88EE190E0BF
:10318000A70196010E942A1E2150310941095109C7
:103190005695479537952795EC85FD853083EE85C7
:1031A000FF852083188EEC89FD89B082EA89FB892E
:1031B000808180618083EA89FB8980818860808347
:1031C000EA89FB89808180688083EA89FB89808124
:1031D0008F7D8083DF91CF91FF90EF90DF90CF9034
:1031E000BF9008951F920F920FB60F9211242F9344
:1031F0008F939F93EF93FF93E0915303F0915403C8
:103200008081E0915903F0915A0382FD12C09081B0
:1032100080915C038F5F8F7320915D03821751F063
:10322000E0915C03F0E0ED5BFC4F958F80935C03D5
:1032300001C08081FF91EF919F918F912F910F900D
:103240000FBE0F901F9018951F920F920FB60F92FE
:1032500011242F933F934F935F936F937F938F939B
:103260009F93AF93BF93EF93FF9383E493E00E9408
:10327000E817FF91EF91BF91AF919F918F917F914F
:103280006F915F914F913F912F910F900FBE0F90D3
:103290001F90189583E493E00E94AD1721E0892BDD
:1032A00009F420E0822F08951092460310924503FE
:1032B00088EE93E0A0E0B0E080934703909348034A
:1032C000A0934903B0934A038BEE91E0909344039B
:1032D0008093430385EC90E09093500380934F03D9
:1032E00084EC90E0909352038093510380EC90E043
:1032F000909354038093530381EC90E09093560392
:103300008093550382EC90E0909358038093570389
:1033100086EC90E090935A038093590310925C03DB
:1033200010925D0310925E0310925F03089508955A
:103330000E94B1160E9497190E940F01CAEDD7E1B1
:103340000E941C012097E1F30E94DA17F9CF0C9438
:10335000A71ECF92DF92EF92FF920F931F93CF930E
:10336000DF936C017A01EB01E60EF71E00E010E03E
:10337000CE15DF0561F06991D601ED91FC910190C8
:10338000F081E02DC6010995080F191FF1CFC80182
:10339000DF91CF911F910F91FF90EF90DF90CF9031
:1033A00008956115710581F0DB010D900020E9F7AA
:1033B000AD0141505109461B570BDC01ED91FC91C9
:1033C0000280F381E02D099480E090E00895DC0113
:1033D000ED91FC91DB0114964D915C9115976D91E7
:1033E0007C910280F381E02D09940C94D1190F9304
:1033F0001F93CF93DF93EC010E9450166887798763
:103400008A879B87E881F9810680F781E02DCE01CC
:10341000099597FF15C00E945016088519852A85C1
:103420003B85601B710B820B930B0C811D812E81E0
:103430003F81601771078207930720F38FEF9FEF9B
:10344000DF91CF911F910F9108950F931F93CF9309
:10345000DF93EC018B016BEA71E00E94D11AC80185
:103460000E94F71997FD05C0682FCE010E948F1B9F
:10347000F6CFCE01DF91CF911F910F910895CF9399
:10348000DF9300D000D0CDB7DEB79B01AC01611552
:1034900071058105910569F069833A834B835C83EB
:1034A0000E941D2029813A814B815C810E944C1E23
:1034B00003C060E070E0CB010F900F900F900F9071
:1034C000DF91CF910895FC01808191810C943F1F81
:1034D000CF93DF93EC0188819981009711F00E94CE
:1034E0003F1F198218821D821C821B821A82DF9163
:1034F000CF9108950F931F93CF93DF93EC018B012E
:103500006F5F7F4F888199810E942B20009731F057
:10351000998388831B830A8381E001C080E0DF9167
:10352000CF911F910F910895CF93DF93EC01888184
:103530009981892B29F08A819B818617970760F4EE
:10354000CE010E947A1A882341F08C819D81892BBB
:1035500019F4E881F981108281E0DF91CF9108951B
:10356000EF92FF920F931F93CF93DF93EC017B01B8
:103570008A01BA010E94941A811104C0CE010E94EE
:10358000681A07C01D830C83B701888199810E9446
:103590002E21CE01DF91CF911F910F91FF90EF90DF
:1035A0000895FC0111821082138212821582148206
:1035B0006115710559F0FB0101900020E9F7AF0199
:1035C00041505109461B570B0C94B01A0895CF93E4
:1035D000DF93EC01FB018617970761F06081718131
:1035E0006115710529F0448155810E94B01A02C00D
:1035F0000E94681ACE01DF91CF910895FC011182DB
:10360000108213821282158214820C94E71ACF93CF
:10361000DF93EC016115710561F0FB010190002061
:10362000E9F7AF0141505109461B570B0E94B01AF0
:1036300002C00E94681ACE01DF91CF910895CF9306
:10364000DF9300D0CDB7DEB7FC0111821082138268
:1036500012821582148269831A82BE016F5F7F4FC6
:103660000E94071B0F900F90DF91CF9108950F9349
:103670001F93CF93DF93CDB7DEB762970FB6F89461
:10368000DEBF0FBECDBF8C01CB01F80111821082CD
:10369000138212821582148250E0BE016F5F7F4F49
:1036A0000E944F21BE016F5F7F4FC8010E94071B20
:1036B00062960FB6F894DEBF0FBECDBFDF91CF91FB
:1036C0001F910F910895EF92FF920F931F93CF9345
:1036D000DF93EC017B010C811D816115710511F4F3
:1036E00080E016C04115510591F0040F151FB80177
:1036F0000E94941A8823A1F3288139818C819D81AD
:10370000B701820F931F0E942E211D830C8381E03D
:10371000DF91CF911F910F91FF90EF900895CF937C
:10372000DF9300D0CDB7DEB769831A8241E050E065
:10373000BE016F5F7F4F0E94631B0F900F90DF9160
:10374000CF910895FC0124813581232B31F421E0B0
:1037500061157105A1F0FB0108C0FC018081918118
:103760006115710531F421E0FC018081882339F075
:1037700005C00E94252121E0892B09F020E0822F3D
:103780000895CF93DF93FC018481958148175907F1
:1037900078F4C081D181FB0160817181CE01840FF9
:1037A000951F0E943521009719F08C1B9D0B02C0BC
:1037B0008FEF9FEFDF91CF91089540E050E00C94A0
:1037C000C11BBF92CF92DF92EF92FF920F931F9394
:1037D000CF93DF936C017B01EA0189012417350740
:1037E00020F48D2FE901042F182F6BEA71E0C60138
:1037F0000E94D11AD70114968D919C911597C817E4
:10380000D907C8F48017910708F48C01D701ED910E
:10381000FC911197E00FF11FB08010826D917C91A7
:103820006C0F7D1FC6010E94071BD701ED91FC9113
:10383000E00FF11FB082C601DF91CF911F910F9170
:10384000FF90EF90DF90CF90BF900895089550586B
:10385000BB27AA270ED04DC13ED130F043D120F076
:1038600031F49F3F11F41EF433C10EF4E095E7FBF1
:1038700029C1E92F4FD180F3BA1762077307840774
:10388000950718F071F49EF567C10EF4E0950B2EC4
:10389000BA2FA02D0B01B90190010C01CA01A001A2
:1038A0001124FF27591B99F0593F50F4503E68F1FD
:1038B0001A16F040A22F232F342F4427585FF3CF3E
:1038C000469537952795A795F0405395C9F77EF40F
:1038D0001F16BA0B620B730B840BBAF09150A1F058
:1038E000FF0FBB1F661F771F881FC2F70EC0BA0FDE
:1038F000621F731F841F48F4879577956795B79566
:10390000F7959E3F08F0B3CF9395880F08F099275D
:10391000EE0F9795879508950CD0EBC0E3D040F05B
:10392000DAD030F021F45F3F19F0CCC0511115C14D
:10393000CFC0F0D098F39923C9F35523B1F3951B69
:10394000550BBB27AA2762177307840738F09F5FC0
:103950005F4F220F331F441FAA1FA9F333D00E2E2F
:103960003AF0E0E830D091505040E695001CCAF79C
:1039700029D0FE2F27D0660F771F881FBB1F261761
:1039800037074807AB07B0E809F0BB0B802DBF0134
:10399000FF2793585F4F2AF09E3F510568F092C071
:1039A000DCC05F3FECF3983EDCF386957795679536
:1039B000B795F7959F5FC9F7880F911D96958795E5
:1039C00097F90895E1E0660F771F881FBB1F621704
:1039D00073078407BA0720F0621B730B840BBA0BC2
:1039E000EE1F88F7E095089504D06894B111B5C032
:1039F000089598D088F09F5790F0B92F9927B75124
:103A0000A0F0D1F0660F771F881F991F1AF0BA95A2
:103A1000C9F712C0B13081F09FD0B1E008959CC0C9
:103A2000672F782F8827B85F39F0B93FCCF3869598
:103A300077956795B395D9F73EF4909580957095F5
:103A400061957F4F8F4F9F4F0895E89409C097FB72
:103A50003EF490958095709561957F4F8F4F9F4F65
:103A60009923A9F0F92F96E9BB279395F6958795A9
:103A700077956795B795F111F8CFFAF4BB0F11F46C
:103A800060FF1BC06F5F7F4F8F4F9F4F16C0882313
:103A900011F096E911C0772321F09EE8872F762F49
:103AA00005C0662371F096E8862F70E060E02AF08A
:103AB0009A95660F771F881FDAF7880F9695879576
:103AC00097F9089597F99F6780E870E060E008959E
:103AD0009FEF80EC089500240A9416161706180626
:103AE0000906089500240A94121613061406050602
:103AF0000895092E0394000C11F4882352F0BB0F93
:103B000040F4BF2B11F460FF04C06F5F7F4F8F4FF5
:103B10009F4F089557FD9058440F551F59F05F3F30
:103B200071F04795880F97FB991F61F09F3F79F0DF
:103B300087950895121613061406551FF2CF469561
:103B4000F1DF08C0161617061806991FF1CF8695E3
:103B50007105610508940895E894BB2766277727C7
:103B6000CB0197F908950BD0C4CFB5DF28F0BADFA9
:103B700018F0952309F0A6CFABCF1124EECFCADF02
:103B8000A0F3959FD1F3950F50E0551F629FF00170
:103B9000729FBB27F00DB11D639FAA27F00DB11DC9
:103BA000AA1F649F6627B00DA11D661F829F222752
:103BB000B00DA11D621F739FB00DA11D621F839FD9
:103BC000A00D611D221F749F3327A00D611D231FAF
:103BD000849F600D211D822F762F6A2F11249F57FD
:103BE00050408AF0E1F088234AF0EE0FFF1FBB1F20
:103BF000661F771F881F91505040A9F79E3F5105BF
:103C000070F060CFAACF5F3FECF3983EDCF386956F
:103C100077956795B795F795E7959F5FC1F7FE2B69
:103C2000880F911D9695879597F9089597FB072E14
:103C300016F4009407D077FD09D00E948D1E07FC72
:103C400005D03EF4909581959F4F089570956195AC
:103C50007F4F0895A1E21A2EAA1BBB1BFD010DC0C8
:103C6000AA1FBB1FEE1FFF1FA217B307E407F5072C
:103C700020F0A21BB30BE40BF50B661F771F881F08
:103C8000991F1A9469F760957095809590959B019E
:103C9000AC01BD01CF010895052E97FB1EF40094E1
:103CA0000E94631E57FD07D00E942A1E07FC03D006
:103CB0004EF40C94631E50954095309521953F4FDE
:103CC0004F4F5F4F089590958095709561957F4F08
:103CD0008F4F9F4F0895A29FB001B39FC001A39F34
:103CE000700D811D1124911DB29F700D811D112435
:103CF000911D08950E946B1EA59F900DB49F900D7D
:103D0000A49F800D911D11240895B7FF0C947A1E75
:103D10000E947A1E821B930B0895AA1BBB1B51E1C4
:103D200007C0AA1FBB1FA617B70710F0A61BB70B2B
:103D3000881F991F5A95A9F780959095BC01CD01D0
:103D40000895EE0FFF1F0590F491E02D0994CF9395
:103D5000DF938230910510F482E090E0E091E2037D
:103D6000F091E30320E030E0A0E0B0E0309739F1DB
:103D70004081518148175907B8F04817590771F425
:103D800082819381109729F013969C938E931297BA
:103D90002CC09093E3038093E20327C021153105E3
:103DA00031F04217530718F0A901DB0101C0EF0100
:103DB0009A01BD01DF010280F381E02DD7CF2115EB
:103DC0003105F9F0281B390B2430310580F48A8144
:103DD0009B816115710521F0FB019383828304C0EF
:103DE0009093E3038093E203FE01329644C0FE0108
:103DF000E20FF31F81939193225031093983288375
:103E00003AC02091E0033091E103232B41F420914B
:103E10000201309103013093E1032093E0032091EC
:103E20000001309101012115310541F42DB73EB754
:103E30004091040150910501241B350BE091E003F2
:103E4000F091E103E217F307A0F42E1B3F0B2817B4
:103E5000390778F0AC014E5F5F4F2417350748F003
:103E60004E0F5F1F5093E1034093E00381939193C2
:103E700002C0E0E0F0E0CF01DF91CF910895CF9351
:103E8000DF93009709F487C0FC01329713821282F6
:103E9000C091E203D091E303209781F42081318126
:103EA000280F391F8091E0039091E1038217930757
:103EB00079F5F093E103E093E0036DC0DE0120E0CB
:103EC00030E0AE17BF0750F412964D915C911397F6
:103ED0009D014115510509F1DA01F3CFB383A283A6
:103EE00040815181840F951F8A179B0771F48D9132
:103EF0009C911197840F951F02969183808312964F
:103F00008D919C911397938382832115310529F418
:103F1000F093E303E093E2033EC0D9011396FC93D0
:103F2000EE9312974D915D91A40FB51FEA17FB0711
:103F300079F480819181840F951F0296D9011196A1
:103F40009C938E938281938113969C938E93129768
:103F5000E0E0F0E08A819B81009719F0FE01EC011E
:103F6000F9CFCE01029628813981820F931F2091CB
:103F7000E0033091E1032817390769F4309729F4F9
:103F80001092E3031092E20302C013821282D093D4
:103F9000E103C093E003DF91CF9108958F929F9248
:103FA000AF92BF92CF92DF92EF92FF92CF93DF93C7
:103FB000EC01688179818A819B8161157105810598
:103FC000910521F464E279ED8BE597E02DE133EF83
:103FD00041E050E00E944C1E49015A019B01AC0196
:103FE000A7EAB1E40E947A1E6B017C01ACEEB4EF4B
:103FF000A50194010E94881EC60ED71EE81EF91E58
:10400000F7FE06C081E0C81AD108E10880E8F80A86
:10401000C882D982EA82FB82C701B6019F77DF910D
:10402000CF91FF90EF90DF90CF90BF90AF909F9097
:104030008F9008950E94CE1F089586E091E00E941F
:10404000CE1F0895609306017093070180930801C5
:10405000909309010895A0E0B0E0E1E3F0E20C9450
:10406000A821EC01CB01209719F40E94A71EB8C02B
:10407000FE01E60FF71F9E0122503109E217F307F8
:1040800008F4ACC0D9010D911C91119706171707C0
:10409000B8F00530110508F49FC0A801445051093B
:1040A0004617570708F498C002501109061B170B52
:1040B000019311936D937C93CF010E943F1F8CC09D
:1040C0005B01A01AB10A4E01800E911EA091E2037D
:1040D000B091E303612C712C60E070E0109709F45B
:1040E00049C0A815B905C9F5ED90FC901197670175
:1040F00042E0C40ED11CCA14DB0478F147018A18CF
:104100009B08640142E0C40ED11C1296BC90129729
:104110001396AC91B5E0CB16D10440F0B282A383E4
:1041200091828082D9018D939C9309C00E5F1F4FAD
:104130000E0D1F1DF90111830083EB2DFA2F611560
:10414000710531F0DB011396FC93EE93129744C096
:10415000F093E303E093E2033FC06D917C911197EC
:104160006616770608F43B01BD0112960D90BC91CE
:10417000A02DB4CF6091E0037091E103681579053B
:10418000E9F468167906D0F44091000150910101DC
:104190004115510541F44DB75EB76091040170912E
:1041A0000501461B570BE417F507C0F4F093E10334
:1041B000E093E003F901918380830EC00E94A71E63
:1041C0007C01009759F0A801BE010E941C21CE017C
:1041D0000E943F1FC70104C0CE0102C080E090E0F2
:1041E000CDB7DEB7EEE00C94C4211F93FC019927F4
:1041F0008827BC01E89411911032E9F3193010F0CE
:104200001E30C8F31B3251F01D3249F4689406C0C9
:104210000E946521610F711D811D911D1191105327
:104220001A30B0F33EF490958095709561957F4F6C
:104230008F4F9F4F1F910895FB01DC0102C0019039
:104240000D9241505040D8F70895FB01DC018D914B
:10425000019080190110D9F3990B0895FB01DC013D
:1042600001900D920020E1F70895FB015191552333
:10427000A9F0BF01DC014D9145174111E1F759F457
:10428000CD010190002049F04D9140154111C9F335
:10429000FB014111EFCF81E090E001970895453295
:1042A000510520F4423010F00C945A21FB01108289
:1042B000CB010895BB274A3031F4992322F4BDE2A3
:1042C000909581959F4F0C947B21592F482F372F24
:1042D000262F660F771F881F991F660F771F881F6D
:1042E000991F620F731F841F951F660F771F881F0A
:1042F000991F0895BB27FB015527AA27880F991FEF
:10430000AA1FA41710F0A41B83955051B9F7A05D04
:10431000AA3308F0A95DA193009779F7B111B19381
:104320001192CB010C949421DC01FC01672F719157
:104330007723E1F7329704C07C916D93708362918B
:10434000AE17BF07C8F308952F923F924F925F9226
:104350006F927F928F929F92AF92BF92CF92DF9295
:10436000EF92FF920F931F93CF93DF93CDB7DEB7FA
:10437000CA1BDB0B0FB6F894DEBF0FBECDBF09948E
:104380002A88398848885F846E847D848C849B84E5
:10439000AA84B984C884DF80EE80FD800C811B81F3
:1043A000AA81B981CE0FD11D0FB6F894DEBF0FBE22
:1043B000CDBFED01089511E0C8ECD1E004C0FE01CD
:1043C0000E94A31E2296CA3CD107C9F7F894FFCFDA
:1043D0000000E4038000010000002C010000000048
:1043E00040001400540057616974696E6720666F5D
:1043F000722070726F6772616D0043757272656EC4
:10440000743A2000430050617573656420202020B9
:1044100020202020202020202020004D6173687360
:104420006368656D65642075706C6F6164656400B8
:104430004661696C20202020202020202020202080
:104440002020202000546F74616C3A20006D696E4A
:10445000202020002073656B00206D696E0053746E
:1044600065702000432000202020202020202020D4
:104470002020202020202020202020005768616953
:1044800074696E6720666F722070726F6772616DFB
:10449000002C001F1C1F1E1F1E1F1F1E1F1E1F0083
:1044A000000000990F6C0F410F490F5C0F6B0F005C
:1044B0000000004012A919000000002B18A919AD36
:0844C00017C617B81709180010
:00000001FF
