:100000000C94E5000C940D010C940D010C940D0161
:100010000C940D010C940D010C940D010C940D0128
:100020000C940D010C940D010C940D010C940D0118
:100030000C940D010C940D010C940D010C940D0108
:100040000C948B150C940D010C9477180C94A91832
:100050000C940D010C940D010C940D010C940D01E8
:100060000C9425100C940D01005EBCE2613FDD8311
:10007000C29C7E20A3FD1F419DC3217FFCA2401E88
:100080005F01E3BD3E6082DC237D9FC1421CFEA078
:10009000E1BF5D0380DE3C62BEE0025CDF81633D68
:1000A0007C22C09E1D43A1FF4618FAA427799BC558
:1000B00084DA3866E5BB5907DB856739BAE4065848
:1000C0001947A5FB7826C49A653BD987045AB8E638
:1000D000A7F91B45C6987A24F8A6441A99C7257B28
:1000E0003A6486D85B05E7B98CD2306EEDB3510F18
:1000F0004E10F2AC2F7193CD114FADF3702ECC9208
:10010000D38D6F31B2EC0E50AFF1134DCE90722CF7
:100110006D33D18F0C52B0EE326C8ED0530DEFB1E7
:10012000F0AE4C1291CF2D73CA947628ABF51749D7
:100130000856B4EA6937D58B5709EBB536688AD4C7
:1001400095CB2977F4AA4816E9B7550B88D6346AB7
:100150002B7597C94A14F6A8742AC896154BA9F7A7
:10016000B6E80A54D7896B35000000080002010088
:100170000003040700000000000000000102040862
:100180001020408001020408102001020408102001
:10019000040404040404040402020202020203032D
:1001A00003030303000000002300260029000000D1
:1001B0000000250028002B0000000000240027007C
:1001C0002A002001870FD918560111241FBECFEF36
:1001D000D8E0DEBFCDBF11E0A0E0B1E0EAEAF2E492
:1001E00002C005900D92AE3DB107D9F723E0AEED08
:1001F000B1E001C01D92AF3CB207E1F711E0C8ECDD
:10020000D1E004C02297FE010E94101EC23CD1071B
:10021000C9F70E941D190C9448210C94000026E097
:1002200040E855E260E070E08EE293E00E9415182D
:100230008EED91E00C9482018EED91E00C946507B7
:100240008EED91E00E945A016EE08BEE91E00E94EB
:10025000FF0D6BEE71E089EF91E00E94781280E271
:1002600090E090930D0280930C0283E090E09093D5
:100270001302809312028FED8093160268E671E0FC
:1002800087E192E00E943E1A82E090E0909325027E
:10029000809324028DE090E09093270280932602C1
:1002A00081E080933E0280933F02089587E192E0CF
:1002B0000C94D01924E044E167E20C9452110F939E
:1002C0001F93CF93DF93EC018B01622F0E94DC110F
:1002D000B801CE01DF91CF911F910F910C94561967
:1002E000CF93DF93EC010E947512CE010E947B1127
:1002F00040E060E0CE010E94DC11CE01DF91CF91A1
:100300000C94CE110F931F93CF93DF9300D000D0A6
:1003100000D0CDB7DEB78C014B960E94A11361E0EF
:1003200086E00E949A1661E085E00E949A1661E0DC
:1003300084E00E949A1661E083E00E949A1661E0D0
:1003400087E00E949A16F801E85BFF4F61E0808128
:100350000E949A1661E088E00E949A1661E089E0A6
:100360000E949A1661E08AE00E949A1661E08BE092
:100370000E949A1661E08CE00E949A16F801EA5BEE
:10038000FF4F61E080810E949A16C8010E947001AF
:1003900066E171E0CE0101960E943E1A20E030E055
:1003A00040E050E0BE016F5F7F4FC8010E945F01D7
:1003B000CE0101960E94D01926960FB6F894DEBFA2
:1003C0000FBECDBFDF91CF911F910F910895CF93B5
:1003D000DF93EC01FC01EA5BFF4F80810E9409176B
:1003E000892B79F0FE01EE59FF4F81E08083CC5AD2
:1003F000DF4F688179818A819B81DF91CF910C9455
:10040000D80BDF91CF910895CF92DF92EF92FF92B8
:100410000F931F93CF93DF93EC0188E00E9409179D
:100420006E012AE4C20ED11CF6019183808389E01B
:100430000E9409177E01FCE4EF0EF11CF701918385
:1004400080838AE00E9409178E01025B1F4FF8012A
:10045000918380838BE00E940917C05BDF4F9983F3
:100460008883F60180819181019711F461E001C0D8
:1004700060E086E00E94D316F701808191810197A8
:1004800011F461E001C060E085E00E94D316F8013C
:1004900080819181019711F461E001C060E084E006
:1004A0000E94D31688819981019711F461E001C0FF
:1004B00060E083E0DF91CF911F910F91FF90EF906B
:1004C000DF90CF900C94D316AF92BF92CF92DF9271
:1004D000EF92FF920F931F93CF93DF93EC018C0168
:1004E0000F591F4FF8018081882361F064E070E0AC
:1004F00080E090E00E94AC1968AB79AB8AAB9BAB13
:10050000F80110828E01065B1F4F7E01FCE4EF0EA6
:10051000F11C6E018EE4C80ED11C5E01E0E5AE0E4A
:10052000B11C88E00E940917F8019183808389E05B
:100530000E940917F701918380838AE00E940917BE
:10054000F601918380838BE00E940917F501918366
:100550008083F80180819181892BC1F488A999A9B0
:10056000AAA9BBA9892B8A2B8B2B81F460E086E09A
:100570000E94D31664E070E080E090E00E94AC1925
:1005800068AB79AB8AAB9BAB21E001C020E0F701FF
:1005900080819181892BB9F488A999A9AAA9BBA9BD
:1005A0000197A105B10579F460E085E00E94D316BA
:1005B00064E070E080E090E00E94AC1968AB79AB39
:1005C0008AAB9BAB21E0F60180819181892BB9F444
:1005D00088A999A9AAA9BBA90297A105B10579F48F
:1005E00060E084E00E94D31664E070E080E090E078
:1005F0000E94AC1968AB79AB8AAB9BAB21E0F501EB
:1006000080819181892BB9F488A999A9AAA9BBA94C
:100610000397A105B10579F460E083E00E94D31649
:1006200064E070E080E090E00E94AC1968AB79ABC8
:100630008AAB9BAB76CF211174CF88A999A9AAA9BF
:10064000BBA981309105A105B105A1F03CF4892B2E
:100650008A2B8B2B01F561E086E011C08230910579
:10066000A105B10551F00397A105B105A1F461E021
:1006700083E005C061E085E002C061E084E0DF91D5
:10068000CF911F910F91FF90EF90DF90CF90BF908F
:10069000AF900C94D316DF91CF911F910F91FF90E3
:1006A000EF90DF90CF90BF90AF9008958F599F4FFC
:1006B00021E0FC01208360E086E00E94D31660E028
:1006C00085E00E94D31660E084E00E94D31660E0CB
:1006D00083E00C94D3162F923F924F925F926F92C9
:1006E0007F928F929F92AF92BF92CF92DF92EF92C2
:1006F000FF920F931F93CF93DF9300D000D000D0D1
:10070000CDB7DEB78C010E94090C480124E5820EAA
:10071000911CD4016D937D938D939C9313975801F5
:10072000B8E5AB0EB11C2801ECE54E0E511CD20110
:10073000CD90DD90ED90FC90DC01CB018C199D09F2
:10074000AE09BF09F50180839183A283B3830E9420
:100750009A0C80FD12C07801FBE1EF0EF11CC7017D
:100760000E94731460E0C7010E9467150E94611C1B
:10077000D801D7967C936E93D6976AE271E0CE014A
:1007800001960E943E1A20E030E040E050E0BE01B9
:100790006F5F7F4FC8010E945F01CE0101960E94EA
:1007A000D019F40160817181828193810E94110BC3
:1007B0004AE0BC01CE0101960E94A41A27E030E075
:1007C00040E050E0BE016F5F7F4FC8010E945F01B3
:1007D000CE0101960E94D01962E371E0CE0101962C
:1007E0000E943E1A29E030E040E050E0BE016F5F19
:1007F0007F4FC8010E945F01CE0101960E94D0196F
:1008000066E671E0CE0101960E943E1A2EE030E0CD
:1008100040E050E0BE016F5F7F4FC8010E945F0162
:10082000CE0101960E94D019D4016D917D918D91D8
:100830009C910E94170B4AE0BC01CE0101960E94D8
:10084000A41A2EE030E040E050E0BE016F5F7F4F21
:10085000C8010E945F01CE0101960E94D01967E392
:1008600071E0CE0101960E943E1A20E130E040E0A6
:1008700050E0BE016F5F7F4FC8010E945F01CE0153
:1008800001960E94D0197801B3E6EB0EF11CF70136
:10089000808198012C593F4F690181112AC0D901EB
:1008A0008D919C91880F991FB4970190F081E02D54
:1008B000E80FF91FD801D6962D913C91D7978081EA
:1008C000918128173907ACF0F40180819181A281D0
:1008D000B381F20180839183A283B383D5011D92FA
:1008E0001D921D921C92139781E0F701808333972C
:1008F00010826CE371E0CE0101960E943E1A20E066
:1009000030E041E050E0BE016F5F7F4FC8010E94C0
:100910005F01CE0101960E94D019D801D6966D9143
:100920007C91D7974AE0CE0101960E94A41A29E053
:1009300030E041E050E0BE016F5F7F4FC8010E9490
:100940005F01CE0101960E94D019F80160ADCE0181
:1009500001960E948C1A2BE030E041E050E0BE018D
:100960006F5F7F4FC8010E945F01CE0101960E9418
:10097000D01966E471E0CE0101960E943E1A2CE087
:1009800030E041E050E0BE016F5F7F4FC8010E9440
:100990005F01CE0101960E94D01969E471E0CE0199
:1009A00001960E943E1A20E030E042E050E0BE0195
:1009B0006F5F7F4FC8010E945F01CE0101960E94C8
:1009C000D0193801F8E66F0E711CD3016D917C913E
:1009D0004AE0CE0101960E94A41A25E030E042E0F0
:1009E00050E0BE016F5F7F4FC8010E945F01CE01E2
:1009F00001960E94D01965EA71E0CE0101960E942D
:100A00003E1A26E030E042E050E0BE016F5F7F4FCB
:100A1000C8010E945F01CE0101960E94D019F60123
:100A200080819181880F991F4801FFE38F0E911CEF
:100A3000D401ED91FC91E80FF91F608171814AE0CA
:100A4000CE0101960E94A41A28E030E042E050E076
:100A5000BE016F5F7F4FC8010E945F01CE0101960A
:100A60000E94D01966E471E0CE0101960E943E1A00
:100A70002AE030E042E050E0BE016F5F7F4FC801E6
:100A80000E945F01CE0101960E94D0191801B6E6BE
:100A90002B0E311CF10180819181880F991FD401A7
:100AA000ED91FC91E80FF91F608171814AE0CE0160
:100AB00001960E94A41A2CE030E042E050E0BE0112
:100AC0006F5F7F4FC8010E945F01CE0101960E94B7
:100AD000D0196FE471E0CE0101960E943E1A2EE01B
:100AE00030E042E050E0BE016F5F7F4FC8010E94DE
:100AF0005F01CE0101960E94D019F301208131815E
:100B0000329680819181281739070CF0A8C069E4DA
:100B100071E0CE0101960E943E1A20E030E043E0F1
:100B200050E0BE016F5F7F4FC8010E945F01CE01A0
:100B300001960E94D019D3016D917C916F5F7F4F18
:100B40004AE0CE0101960E94A41A25E030E043E07D
:100B500050E0BE016F5F7F4FC8010E945F01CE0170
:100B600001960E94D01965EA71E0CE0101960E94BB
:100B70003E1A26E030E043E050E0BE016F5F7F4F59
:100B8000C8010E945F01CE0101960E94D019F601B2
:100B9000808191810296880F991FD401ED91FC917B
:100BA000E80FF91F608171814AE0CE0101960E9431
:100BB000A41A28E030E043E050E0BE016F5F7F4FB1
:100BC000C8010E945F01CE0101960E94D01966E41F
:100BD00071E0CE0101960E943E1A2AE030E043E027
:100BE00050E0BE016F5F7F4FC8010E945F01CE01E0
:100BF00001960E94D019F101808191810296880F9F
:100C0000991FD401ED91FC91E80FF91F608171816A
:100C10004AE0CE0101960E94A41A2CE030E043E0A5
:100C200050E0BE016F5F7F4FC8010E945F01CE019F
:100C300001960E94D0196FE471E0CE0101960E94E6
:100C40003E1A2EE030E043E050E0BE016F5F7F4F80
:100C5000C8010E945F01CE0101960E94D019F501E2
:100C600060817181828193810E94110B181619068F
:100C700024F0D7018C918111F1C0F7018081882384
:100C800009F443C067E671E0CE0101960E943E1A66
:100C90002FE030E041E050E0BE016F5F7F4FC801C0
:100CA0000E945F01CE0101960E94D019F50160817A
:100CB0007181828193810E94110B4AE0BC01CE01B7
:100CC00001960E94A41A2EE030E041E050E0BE01FF
:100CD0006F5F7F4FC8010E945F01CE0101960E94A5
:100CE000D0196FE471E0CE0101960E943E1A20E116
:100CF00030E041E050E0BE016F5F7F4FC8010E94CD
:100D00005F01CE0101960E94D019D6018D919C9170
:100D1000880F991F4801BFE38B0E911CD401ED9100
:100D2000FC91E80FF91FD801D6962D913C91D797E9
:100D3000808191812817390744F0F7018081882349
:100D400061F0C8010E9456030BC0D7018C91882323
:100D500021F0C8010E94640203C0C8010E9404027D
:100D60008CE00E940917892B11F061E001C060E05E
:100D700087E00E94D316F5016081718182819381A1
:100D80000E94110BB8016A597F4FDB012D913C91F4
:100D9000A901440F551FD401ED91FC91E40FF51FFB
:100DA00040815181841795070CF476C0F801E85909
:100DB000FF4F80819181A80146595F4FDA014D9123
:100DC0005C91841795070CF067C0D7014C914423C0
:100DD00009F462C0019691838083F601808191813C
:100DE0000296918380832E5F3F4FDB012D933C93CE
:100DF000F801E05AFF4F81E08083F7011082D201B1
:100E00001D921D921D921C92139764E571E0CE0114
:100E100001960E943E1A20E030E041E050E0BE0121
:100E20006F5F7F4FC8010E945F01CE0101960E9453
:100E3000D01964E571E0CE0101960E943E1A20E0CF
:100E400030E043E050E0BE016F5F7F4FC8010E9479
:100E50005F01CE0101960E94D0191EC0D5016D918F
:100E60007D918D919C910E94170B4AE0BC01CE01AF
:100E700001960E94A41A2EE030E041E050E0BE014D
:100E80006F5F7F4FC8010E945F01CE0101960E94F3
:100E9000D01967E371E027CF26960FB6F894DEBF2E
:100EA0000FBECDBFDF91CF911F910F91FF90EF90BB
:100EB000DF90CF90BF90AF909F908F907F906F907A
:100EC0005F904F903F902F9008952F923F924F92B6
:100ED0005F926F927F928F929F92AF92BF92CF92CA
:100EE000DF92EF92FF920F931F93CF93DF93CDB7D3
:100EF000DEB72C970FB6F894DEBF0FBECDBF6C01E6
:100F00002DB63EB668E671E0CE0107960E943E1A05
:100F1000B601645F7F4FCE0101960E94DC09BE01DD
:100F20006F5F7F4FCE0107960E94541ACE01019643
:100F30000E94D01968E671E0CE0107960E940F1B4F
:100F400081110BC14DB65EB6F60186A597A5880F37
:100F5000991F2DB73EB7281B390B0FB6F8943EBF2B
:100F60000FBE2DBF8DB79EB701965C014C0100E00E
:100F700010E0360199E3690E711C68E671E0CE015C
:100F800007960E940F1B811159C069E671E0CE01DE
:100F900001960E943E1ABE016F5F7F4FCE010796F9
:100FA0000E944A1B7C01CE0101960E94D019F7FED7
:100FB00007C068E671E0CE0107960E94741A3EC031
:100FC000970140E050E0BE01695F7F4FCE0101967E
:100FD0000115110549F40E944E1BBE016F5F7F4F42
:100FE000C3010E94541A09C00E944E1B89819A8134
:100FF0000E946220F40171836083CE0101960E94F9
:10100000D0192B853C85A7014F5F5F4FBE01695FFB
:101010007F4FCE0101960E944E1BBE016F5F7F4F36
:10102000CE0107960E94541ACE0101960E94D01953
:101030000F5F1F4FF2E08F0E911C9FCFC8010297E8
:10104000760121E4E20EF11CF70191838083B996C9
:101050009C010150110997FD980135952795318321
:1010600020838138FFE39F0718F4880F991F02C07F
:101070008FEF9FEF0E942C19F601FF9680839183DA
:10108000F60125AD36ADF801EE0FFF1FEA0DFB1D91
:10109000408151818C01D50180E090E01296F701EA
:1010A00060817181861797075CF401966D917C9140
:1010B0001197F801619371938F01260F371FEECFBF
:1010C00086010D5B1F4F2417350761F56BE671E054
:1010D000CE0101960E943E1A20E030E040E050E050
:1010E000BE016F5F7F4FC6010E945F01CE01019676
:1010F0000E94D0196FE771E0CE0101960E943E1A5E
:1011000020E030E041E050E0BE016F5F7F4FC6015C
:101110000E945F01CE0101960E94D01981E0F80182
:10112000808316C064E971E0CE0101960E943E1AE8
:1011300020E030E041E050E0BE016F5F7F4FC6012C
:101140000E945F01CE0101960E94D019F801108221
:101150000FB6F8945EBE0FBE4DBE8601055E1F4FF2
:10116000C8010E94731460E0C8010E9467150E94C4
:10117000611CF60177AB66AB69E971E0CE010196BF
:101180000E943E1A20E030E042E050E0BE016F5F76
:101190007F4FC6010E945F01CE0101960E94D019C7
:1011A000F60166A977A94AE0CE0101960E94A41A29
:1011B0002EE030E042E050E0BE016F5F7F4FC6019D
:1011C0000E945F01CE0101960E94D019F60160AD28
:1011D000CE0101960E948C1A20E130E042E050E0FE
:1011E000BE016F5F7F4FC6010E945F01CE01019675
:1011F0000E94D01968EA71E0CE0101960E943E1A61
:1012000021E130E042E050E0BE016F5F7F4FC60158
:101210000E945F01CE0101960E94D019F601EA5B9F
:10122000FF4F80810E9409175C01F601EC5BFF4FC4
:10123000918380834601F3E48F0E911CF401808139
:10124000882309F497C0F1E0AF16B10409F092C009
:10125000E12CF12C00E010E020E030E040E050E034
:1012600060E070E080E090E00E94A20C64E571E034
:10127000CE0101960E943E1A20E030E040E050E0AE
:10128000BE016F5F7F4FC6010E945F01CE010196D4
:101290000E94D01964E571E0CE0101960E943E1AC9
:1012A00020E030E041E050E0BE016F5F7F4FC601BB
:1012B0000E945F01CE0101960E94D01964E571E0A1
:1012C000CE0101960E943E1A20E030E042E050E05C
:1012D000BE016F5F7F4FC6010E945F01CE01019684
:1012E0000E94D019F601EC59FF4F118210823296FC
:1012F000B182A0823A9710821182128213823796AD
:1013000010823596B182A08286010E591F4F81E06E
:10131000F80180837601F8E4EF0EF11CF40180817E
:10132000882341F1F70180810E940917892BB1F0D0
:10133000F801108260E087E00E94D31660E086E04A
:101340000E94D31660E085E00E94D31660E084E03E
:101350000E94D31660E083E00E94D316F8018081DA
:10136000882321F0C6010E946B03D8CFC6010E94DA
:10137000E701D4CFCE0107960E94D0190FB6F8949A
:101380003EBE0FBE2DBE2C960FB6F894DEBF0FBE2C
:10139000CDBFDF91CF911F910F91FF90EF90DF9024
:1013A000CF90BF90AF909F908F907F906F905F9005
:1013B0004F903F902F9008950F931F93CF93DF93FB
:1013C00000D000D000D0CDB7DEB78C018EE293E024
:1013D0000E943217892BB9F064E670E080E090E05B
:1013E0000E9404166EE273E0CE0101960E949219EB
:1013F000BE016F5F7F4FC8010E946B1ACE0101963C
:101400000E94D01905C068E671E0C8010E943E1A2A
:10141000C80126960FB6F894DEBF0FBECDBFDF9190
:10142000CF911F910F9108956F927F928F929F920B
:10143000AF92BF92CF92DF92EF92FF920F931F93E2
:10144000CF93DF93EA012CE3C22ED12CE12CF12CB7
:10145000A70196010E94971D6883CA01B901A701DF
:1014600096010E94971D6983CA01B90128E130E005
:1014700040E050E00E94971D49015A016A83CA0169
:10148000B9016C5F7F4F8F4F9F4F27E030E040E006
:1014900050E00E94971D6F5F6B8300E010E09801A1
:1014A00040E054E6652E712C60E9C62EDD24D3940D
:1014B000E42FF0E0EE54F84F7F0183E0E822FF24B0
:1014C000E114F10489F4CF01B3010E94831D892B3B
:1014D00029F08EE691E0A0E0B0E00AC0CF01B601AD
:1014E0000E94831D892BA9F38DE691E0A0E0B0E076
:1014F000080F191F2A1F3B1FD901C801AA27BB27A4
:1015000088169906AA06BB0610F04F5FD1CF4E830E
:10151000E114F10499F4CF0164E670E00E94831DA8
:10152000892B29F08EE691E0A0E0B0E00BC0CF015E
:1015300060E971E00E94831D892BA1F38DE691E0A3
:10154000A0E0B0E0081B190B2A0B3B0B801A910A94
:10155000A20AB30ACF0164E670E00E94831D9C01D9
:10156000CF0160E971E00E94831DEAEAF1E0A0E0AA
:10157000A13059F4E114F10451F42115310511F0B1
:101580004DE106C00097E1F302C0408101C04CE18B
:1015900050E060E070E084169506A606B70640F0BD
:1015A000841A950AA60AB70AAF5F3196AC3001F7E4
:1015B000AF5FAD8383948C82DF91CF911F910F91A8
:1015C000FF90EF90DF90CF90BF90AF909F908F9063
:1015D0007F906F900895CF92DF92EF92FF926B0110
:1015E0007C0180915A0290915B02A0915C02B091C3
:1015F0005D02C816D906EA06FB0671F04EE552E018
:10160000C701B6010E94140AC0925A02D0925B022E
:10161000E0925C02F0925D02FF90EF90DF90CF903D
:1016200008950E94EB0A80915F0290E008950E9465
:10163000EB0A80915E0290E008956F927F928F9204
:101640009F92AF92BF92CF92DF92EF92FF920F9351
:101650001F93CF93DF93FC01C680AC2DB0E020E850
:1016600033E341EE51E00E94E71D4B015C0122EBA8
:1016700037E06D01C4E6D0E000E911E0C901825B0A
:1016800097408C159D05DCF4C90183709927892B3F
:1016900099F4C901BE010E94831D892B31F4C9014F
:1016A000B8010E94831D892B39F480E8880E81E5FA
:1016B000981E81E0A81EB11C2F5F3F4FDFCF6580D1
:1016C000712C8EE4C81A88EFD80AC60164E670E06F
:1016D0000E94831D8C01C60160E971E00E94831D98
:1016E0007C01C1E0D0E083E0C822DD24C615D70527
:1016F0002CF5C230D10589F4C114D10471F401155F
:10170000110519F4E114F10441F480E8880E8BE32B
:10171000981E86E2A81EB11C0FC0DE01A755BE4F61
:10172000AC91B0E020E831E541E050E00E94E71DD7
:10173000860E971EA81EB91E2196D8CF4181228100
:1017400030E0A0E1BEE00E94D81D6B017C01242F97
:1017500030E0ACE3B0E00E94D81DC60ED71EE81EF4
:10176000F91E8081C80ED11CE11CF11CA481B0E0DF
:10177000119720E831E541E050E00E94F21DC60ECD
:10178000D71EE81EF91EC80CD91CEA1CFB1CC70199
:10179000B601DF91CF911F910F91FF90EF90DF90F5
:1017A000CF90BF90AF909F908F907F906F90089553
:1017B0000F931F93609356027093570280935802C1
:1017C0009093590200910A0110910B0120910C0194
:1017D00030910D01060F171F281F391F00934E026D
:1017E00010934F02209350023093510282E090E018
:1017F00090934D0280934C020E94D5156093520243
:101800007093530280935402909355021F910F914D
:101810000895CF92DF92EF92FF920F931F930E9451
:10182000D515C0905202D0905302E0905402F0902F
:1018300055026C197D098E099F090091560210917D
:1018400057022091580230915902683E7340810539
:101850009105D8F00F5F1F4F2F4F3F4F0093560257
:1018600010935702209358023093590248EEC40E49
:1018700043E0D41EE11CF11CC0925202D0925302EC
:10188000E0925402F0925502CACF80914E0290919C
:101890004F02A0915002B0915102081719072A0770
:1018A0003B07C8F1E0914A02F0914B02309799F161
:1018B0000995611571058105910519F00E94D80BF4
:1018C0002AC080910A0190910B01A0910C01B09166
:1018D0000D0140915602509157026091580270914B
:1018E0005902840F951FA61FB71F80934E02909335
:1018F0004F02A0935002B093510281E090E02091FA
:101900004C0230914D02232B11F480E090E0909333
:101910004D0280934C026091560270915702809163
:101920005802909159021F910F91FF90EF90DF9014
:10193000CF9008950E94090C0E94EB0A80915E02EC
:1019400090E00895EF92FF920F9394E6E916F10468
:101950002CF092EBE91A97E0F90A03C09EE1E90E38
:10196000F11CE09264020093630220936202809370
:10197000600260935F0240935E028EE592E00E94F7
:101980001D0B0F91FF90EF900C94D80BFF920F93CB
:101990001F93CF93DF93FC010081C181D281F89422
:1019A0008981F02EF0948F21898378941DE711505E
:1019B00029F182E090E00E942C1688818023B9F3FF
:1019C000F8948A818F218A838981802B89837894F6
:1019D00080EE91E00E942C16F89489818F218983F2
:1019E00086E490E00E942C168881802311E009F0A3
:1019F00010E078948AE991E00E942C16812FDF9103
:101A0000CF911F910F91FF9008951F93CF93DF9374
:101A1000FC011081C181D281912F909560FF12C08D
:101A2000F8948A8189238A838981812B89838AE03A
:101A300090E00E942C168A81812B8A83789487E318
:101A400090E011C0F8948A8189238A838981812B4F
:101A5000898381E490E00E942C168A81812B8A83FD
:101A6000789485E090E0DF91CF911F910C942C1633
:101A70000F931F93CF93DF93FC011081C181D2811B
:101A8000F8948981812B89838A81012F0095802395
:101A90008A8383E090E00E942C16898180238983C9
:101AA0008AE090E00E942C16C881789485E390E04B
:101AB0000E942C161C2381E009F480E0DF91CF9175
:101AC0001F910F910895CF92DF92EF92FF920F93A3
:101AD0001F93CF93DF931F92CDB7DEB76C01E62E35
:101AE00008E010E0FF24F39461E09F2D9E2109F4AB
:101AF00060E0C60149830E94050DFF0C01501109E9
:101B000049810115110581F7411115C0F894D601DD
:101B10001196ED91FC91129791818C91809589237A
:101B200081831196ED91FC91129792818C91809511
:101B30008923828378940F90DF91CF911F910F9129
:101B4000FF90EF90DF90CF900895EF92FF920F9368
:101B50001F93CF93DF938C01C8E0D0E0F12CEE24EB
:101B6000E394C8010E94380D8111FE28EE0C2197E4
:101B7000C1F78F2DDF91CF911F910F91FF90EF90C3
:101B80000895CF92DF92FF920F931F93CF93DF932D
:101B90001F92CDB7DEB78C01F62E40E065E5798364
:101BA0000E94630DCF2C7981D72E88E0F82EF601A4
:101BB00061916F0140E0C8010E94630DFA94B9F78A
:101BC0000F90DF91CF911F910F91FF90DF90CF90F9
:101BD000089540E06CEC0C94630DFC0113861586AF
:101BE000148627E030E0DF01A20FB31F13961C928A
:101BF0002115310519F021503109F5CF08951F93B2
:101C0000CF93DF93EC01162F60E0812F0E949A168C
:101C1000612F70E0FB01E458FE4FE491E883FB0183
:101C2000E057FE4FE491F0E0EE0FFF1FEC55FE4F42
:101C3000859194919A838983CE01DF91CF911F91F1
:101C40000C94ED0DAF92BF92CF92DF92EF92FF9284
:101C50000F931F93CF93DF931F92CDB7DEB75C0135
:101C6000E62ED72EFC01858581115DC0C5010E943D
:101C7000C60C811105C0F5011386158614866EC049
:101C800040E060EFC5010E94630D01E0F12CC12C22
:101C900011E0C5010E94380D682FC50169830E94BB
:101CA000380D6981613019F48130B9F433C02F2DBA
:101CB00030E068131BC0F5018385181730F4E20F7C
:101CC000F31F8381802349F402C0181731F060E0CC
:101CD000193058F4F501148708C0F501EF0DF11D16
:101CE0008381802B838361E009C0C12EF501E20F5F
:101CF000F31F8381902F909589238383C5010E94D0
:101D0000050D1F5F000F11F4F39401E0F7E0FF15DC
:101D100008F0BFCF113438F0F501C386C11018C0E8
:101D200081E0858715C0F50113861586148680E04D
:101D3000EE2DFD2D20E030E0D501A20FB31F13964C
:101D40009C9191932F5F3F4F28303105A9F706C032
:101D5000F5018381882339F381E0EACF0F90DF9189
:101D6000CF911F910F91FF90EF90DF90CF90BF9098
:101D7000AF900895DC0180E0615038F0ED91E827E4
:101D8000F0E0E859FF4F8491F7CF089580919502D4
:101D900090E020919602821B91090895209196026D
:101DA00080919502281750F4E22FF0E0E956FD4F9C
:101DB000808190E02F5F2093960208958FEF9FEF30
:101DC0000895E091960280919502E81730F4F0E0D2
:101DD000E956FD4F808190E008958FEF9FEF0895C1
:101DE0000895CF92DF92EF92FF920F931F93CF93BC
:101DF000DF937C01CB018A0120917102222389F0BB
:101E0000EB016B01C40ED51ECC15DD0569F069919F
:101E1000D701ED91FC910190F081E02DC70109956A
:101E2000F3CF642F0E94FC0FC801DF91CF911F9167
:101E30000F91FF90EF90DF90CF900895CF93DF93B5
:101E40001F92CDB7DEB76983209171022223D1F0B2
:101E500020917202203240F021E030E0FC01338317
:101E6000228380E090E015C080917302E82FF0E0BB
:101E7000EC58FD4F998190838F5F8093730280931C
:101E8000720205C061E0CE0101960E94FC0F81E064
:101E900090E00F90DF91CF910895FC0113821282A0
:101EA00048EE53E060E070E04483558366837783B7
:101EB0008AEB91E0918380830895109296021092AC
:101EC000950210927302109272020C948B0F81E0B3
:101ED00080937102609394021092730210927202C6
:101EE00008950F93062F21E04091720264E772E09B
:101EF000809194020E94A90F1092730210927202B4
:101F0000109271020F91089561E00C94710F85E6B3
:101F100092E00C944D0F1092240381E080932203F1
:101F20001092210361E082E10E94D31661E083E117
:101F30000E94D316E9EBF0E080818E7F8083808160
:101F40008D7F808388E48093B80085E48093BC0013
:101F500008950F93413208F046C0909124039111E7
:101F6000FCCF92E090932403009322039FEF909381
:101F7000B7021092FC024093FB02FB016DEF72E08E
:101F8000DB019A2F961B941718F491919D93F9CF2A
:101F90001092230390912303880F892B80932303AE
:101FA00080912103813041F4109221038091230319
:101FB0008093BB0085EC01C085EE8093BC0022239A
:101FC00021F0809124038230E1F38091B7028F3FAA
:101FD00061F08091B702803251F08091B702803376
:101FE00041F483E007C081E005C080E003C082E0E7
:101FF00001C084E00F910895613298F42091240388
:10200000243089F46093D902FC018BED92E0DC016D
:102010002A2F281B261718F421912D93F9CF80E041
:10202000089581E0089582E0089585ED8093BC00D5
:102030008091BC0084FDFCCF10922403089585ECB0
:102040008093BC001092240308951F920F920FB644
:102050000F9211242F933F934F935F936F937F932E
:102060008F939F93AF93BF93EF93FF938091B900AA
:10207000887F803609F49CC068F5883209F45BC01B
:1020800090F4803109F454C038F4882309F4F5C081
:10209000883009F44DC0F5C0883109F44CC0803255
:1020A00009F45DC0EEC0803409F468C048F48033A0
:1020B00009F455C0883309F0E4C08093B702A8C082
:1020C000803509F44FC0883509F45DC0883409F0C3
:1020D000D8C0D5C0883909F4C6C0A8F4883709F437
:1020E00067C038F4883609F463C0803709F460C0EB
:1020F000C8C0883809F4B7C0803909F45FC0803897
:1021000009F0BFC05BC0803B09F485C038F4803A59
:1021100009F466C0883A09F47EC0B3C0803C09F473
:10212000A6C0883C09F4A3C0883B09F489C0A9C0B3
:102130008091230310C09091FC028091FB029817BC
:1021400070F5E091FC0281E08E0F8093FC02F0E0DC
:10215000E350FD4F80818093BB0085EC85C0809368
:10216000B7028DC0E091FC0281E08E0F8093FC02EB
:102170008091BB00F0E0E350FD4F80839091FC0222
:102180008091FB026DC0E091FC0281E08E0F809394
:10219000FC028091BB00F0E0E350FD4F8083809112
:1021A000220381116CC081E08093210384EA60C026
:1021B00083E0809324031092B802CFCF8091B802BD
:1021C000803208F050C0E091B80281E08E0F809319
:1021D000B8028091BB00F0E0E754FD4F8083BDCF93
:1021E0008091B802803230F4E091B802F0E0E75418
:1021F000FD4F10820E9415106091B80270E0E091CE
:102200001D03F0911E0389EB92E009951092B8022C
:102210000E941F1036C084E0809324031092DA02DB
:102220001092D902E0911F03F0912003099580914B
:10223000D902811105C081E08093D9021092DB029E
:10224000E091DA0281E08E0F8093DA02F0E0E5524D
:10225000FD4F80818093BB009091DA028091D9027A
:10226000981708F47ACF85E88093BC000AC085EC03
:102270008093BC001092240304C01092B7020E9405
:102280001510FF91EF91BF91AF919F918F917F9129
:102290006F915F914F913F912F910F900FBE0F90D3
:1022A0001F901895FC01138212828AEC91E09183B1
:1022B0008083648341872287138608951F93CF9379
:1022C000DF93EC01162F6C8185E692E00E94670F88
:1022D000E0916502F09166026B85612B0190F081BF
:1022E000E02D85E692E0099585E692E0DF91CF91B9
:1022F0001F910C94840F28E0FC01238760E00C946C
:102300005E111F93CF93DF93EC01162F64600E9440
:102310005E1181E090E00E942C16612F6B7FCE0150
:102320000E945E1182E390E0DF91CF911F910C94A7
:102330002C161F93CF93DF93EC01162F0E945E1192
:10234000612FCE01DF91CF911F910C948111EF92FB
:10235000FF921F93CF93DF931F92CDB7DEB77C011F
:10236000162F607F642B49830E94991180E1189F8A
:10237000B00111244981642BC7010F90DF91CF91E7
:102380001F91FF90EF900C94991141E00E94A711CA
:1023900080E090E0089540E00C94A71161E00E9475
:1023A000CB1180ED97E00C942C1662E00E94CB11CB
:1023B00080ED97E00C942C16CF93DF93CDB7DEB76A
:1023C00028970FB6F894DEBF0FBECDBF28E0EEE031
:1023D000F1E0DE01119601900D922A95E1F7FC01E2
:1023E0002085241710F44FEF420FFE013196E40FC1
:1023F000F11DE40FF11D2081260F2068622F289621
:102400000FB6F894DEBF0FBECDBFDF91CF910C9415
:10241000CB11FC016681262F246026836C600C940E
:10242000CB11CF93DF93EC01423018F08D8188609F
:102430008D834887222329F0413019F48D818460EF
:102440008D8362E370E080E090E00E9404166B856B
:10245000CE010E945E1168EE73E080E090E00E9481
:10246000041660E3CE010E94991184E991E10E9473
:102470002C1660E3CE010E94991184E991E10E943B
:102480002C1660E3CE010E94991186E990E00E942B
:102490002C1660E2CE010E9499116D816062CE011E
:1024A0000E94CB1184E08E83CE010E940912CE01DE
:1024B0000E94CE1182E08F8366E0CE010E94CB1194
:1024C000CE01DF91CF910C94D511CF93DF93EC0126
:1024D00085E692E00E945D0F1D8220E04A856985B5
:1024E000CE01DF91CF910C9411120C9465120895D6
:1024F000FC0187E792E1928B818B7683658314825E
:10250000108289E0818381E0828383830895CF9361
:10251000DF93EB0167E0CE010E94BA0E91E02F81BC
:10252000821390E0892FDF91CF910895EF92FF926F
:102530000F931F93CF93DF93EC018B01E42E8D81DA
:102540009E810E94ED0DF12CB8018D819E810E942B
:10255000220E882359F0FE1006C0B801CE010E9459
:102560008712811104C0F394EF1470F780E0DF91BB
:10257000CF911F910F91FF90EF900895EF92FF92EE
:102580000F931F93CF93DF9300D0CDB7DEB77C01BD
:102590008A01FC018581968169837A830E94C60C39
:1025A00069817A81F701858196810E94C10D40E0A1
:1025B0006EEBF701858196810E94630DF70185819D
:1025C00096810E94A50DF8018083F701858196818F
:1025D0000E94A50DF8018183F701858196810E94F3
:1025E000A50DF8018283F701858196810E94A50DD2
:1025F000F8018383F701858196810E94A50DF8017A
:102600008483F701858196810E94A50DF801858359
:10261000F701858196810E94A50DF8018683F70157
:10262000858196810E94A50DF8018783F701858138
:1026300096810E94A50DF8018087F701858196811A
:102640000F900F90DF91CF911F910F91FF90EF901E
:102650000C94C60CCF93DF93EA010E94BE1268E08F
:10266000CE010E94BA0E91E02885821390E0892F56
:10267000DF91CF910895EF92FF921F93CF93DF9355
:1026800000D0CDB7DEB77C01FC01858196816983DE
:102690007A830E94C60C69817A81F70185819681CF
:1026A0000E94C10D40E064EBF701858196810E9494
:1026B000630DF701858196810E94380D182FF7016F
:1026C000858196810E94C60C81E0111180E00F90F7
:1026D0000F90DF91CF911F91FF90EF900895CF93CE
:1026E000DF93CDB7DEB729970FB6F894DEBF0FBEE4
:1026F000CDBFFB0120812031D1F0AE014F5F5F4F94
:102700000E942A13882379F08D818F3351F018F4B9
:102710008F3169F008C08F3541F08F3721F48CE09C
:1027200007C08AE005C080E003C08BE001C089E0FB
:1027300029960FB6F894DEBF0FBECDBFDF91CF91C3
:102740000895EF92FF920F931F93CF93DF93CDB72E
:10275000DEB761970FB6F894DEBF0FBECDBF8C0118
:10276000FC01858196810E94ED0DF8011482FF2401
:10277000F394BE01665F7F4FF801858196810E94C8
:10278000220E8823C9F1BE01665F7F4FC8010E94F7
:102790008712882371F3F8018081811108C0BE017E
:1027A000665F7F4FC8010E943B13811122C0AE01BA
:1027B0004F5F5F4FBE01665F7F4FC8010E94BE1230
:1027C000F801E180BE01665F7F4FC8010E946F1370
:1027D0008E1518F4F801818106C0BE01665F7F4F37
:1027E000C8010E946F13F801818384818F5F848305
:1027F000C0CFF801F082DBCF61960FB6F894DEBF50
:102800000FBECDBFDF91CF911F910F91FF90EF9041
:102810000895CF93DF93CDB7DEB729970FB6F8941D
:10282000DEBF0FBECDBFAE014F5F5F4F0E94BE1235
:1028300081E09981911101C080E029960FB6F8944A
:10284000DEBF0FBECDBFDF91CF910895CF92DF9253
:10285000EF92FF920F931F93CF93DF93EC018B01C5
:10286000452BE1F08B818823C9F08881811116C046
:102870000E94D5156B017C0160E070E0CE010E94E2
:10288000091481110BC00E94D5156C197D098E09A0
:102890009F096E3E72408105910570F3F8018081B9
:1028A0008A3049F08B3061F0893079F46EE570E060
:1028B00080E090E00EC06CEB70E080E090E009C03A
:1028C00067E771E080E090E004C06EEE72E080E0C7
:1028D00090E0DF91CF911F910F91FF90EF90DF90EB
:1028E000CF900C940416CF93DF93EC018D819E81E1
:1028F0000E94C60C8D819E810E94E90D488164E48E
:102900008D819E810E94630D8A81882351F0BE01D2
:102910006F5F7F4F40E050E0CE01DF91CF910C948C
:102920002614DF91CF9108958F929F92AF92BF921C
:10293000CF92DF92EF92FF921F93CF93DF93FB0131
:10294000EA01698170E0762F66278881682B808193
:102950008232B1F18832A1F1803109F078C01F8153
:1029600075956795882777FD8095982F0E94941C10
:1029700020E030E040E85EE30E94941B6B017C01A4
:10298000612F70E08E81681B7109882777FD809523
:10299000982F0E94941C4B015C01612F70E080E035
:1029A00090E00E94921C9B01AC01C501B4010E9401
:1029B000F91B9B01AC01C701B6010E94951B43C0E6
:1029C0008C818F3381F198F48F3109F040C093E00E
:1029D000759567959A95E1F7882777FD8095982FEB
:1029E0000E94941C20E030E040E05FE32AC08F3575
:1029F00069F08F3761F5882777FD8095982F0E94C1
:102A0000941C20E030E040E85DE31BC075956795BD
:102A1000882777FD8095982F0E94941C20E030E055
:102A200040E05EE30EC075956795759567958827BC
:102A300077FD8095982F0E94941C20E030E040E8BC
:102A40005EE30E94201D562F472F382F292F652F18
:102A5000742F832F922FDF91CF911F91FF90EF90D2
:102A6000DF90CF90BF90AF909F908F900895EF929E
:102A7000FF920F931F93CF93DF93CDB7DEB72997C4
:102A80000FB6F894DEBF0FBECDBF8C017B01AE0147
:102A90004F5F5F4F0E942A13882341F0AE014F5FC2
:102AA0005F4FB701C8010E94941404C060E070E059
:102AB0008EEF92EC29960FB6F894DEBF0FBECDBF15
:102AC000DF91CF911F910F91FF90EF9008950F9399
:102AD0001F93CF93DF93CDB7DEB728970FB6F89447
:102AE000DEBF0FBECDBF8C01462FBE016F5F7F4F93
:102AF0000E949612BE016F5F7F4FC8010E9437157A
:102B000028960FB6F894DEBF0FBECDBFDF91CF91F0
:102B10001F910F9108951F920F920FB60F921124DB
:102B20002F933F938F939F93AF93BF9380912603EF
:102B300090912703A0912803B09129033091250398
:102B400023E0230F2D3720F40196A11DB11D05C0F0
:102B500026E8230F0296A11DB11D20932503809323
:102B6000260390932703A0932803B0932903809111
:102B70002A0390912B03A0912C03B0912D03019671
:102B8000A11DB11D80932A0390932B03A0932C03C6
:102B9000B0932D03BF91AF919F918F913F912F9152
:102BA0000F900FBE0F901F9018952FB7F89460915B
:102BB00026037091270380912803909129032FBF4A
:102BC00008953FB7F89480912A0390912B03A09128
:102BD0002C03B0912D0326B5A89B05C02F3F19F0FB
:102BE0000196A11DB11D3FBF6627782F892F9A2F0F
:102BF000620F711D811D911D42E0660F771F881FB6
:102C0000991F4A95D1F70895CF92DF92EF92FF92E4
:102C1000CF93DF936B017C010E94E115EB01C1149E
:102C2000D104E104F10489F00E94931B0E94E11594
:102C30006C1B7D0B683E734090F381E0C81AD1088D
:102C4000E108F108C851DC4FEACFDF91CF91FF9046
:102C5000EF90DF90CF900895019739F0880F991F7A
:102C6000880F991F02970197F1F70895789484B51A
:102C7000826084BD84B5816084BD85B5826085BD78
:102C800085B5816085BDEEE6F0E08081816080835E
:102C9000E1E8F0E010828081826080838081816041
:102CA0008083E0E8F0E0808181608083E1EBF0E008
:102CB000808184608083E0EBF0E0808181608083AC
:102CC000EAE7F0E080818460808380818260808395
:102CD0008081816080838081806880831092C100C0
:102CE0000895833081F028F4813099F08230A1F08A
:102CF00008958730A9F08830B9F08430D1F48091FC
:102D000080008F7D03C0809180008F77809380004A
:102D1000089584B58F7702C084B58F7D84BD0895F2
:102D20008091B0008F7703C08091B0008F7D809339
:102D3000B0000895CF93DF9390E0FC01E458FE4F7C
:102D40002491FC01E057FE4F8491882349F190E0E3
:102D5000880F991FFC01E854FE4FA591B49182554C
:102D60009E4FFC01C591D4919FB7611108C0F894A2
:102D70008C91209582238C93888182230AC06230B3
:102D800051F4F8948C91322F309583238C93888161
:102D9000822B888304C0F8948C91822B8C939FBFE4
:102DA000DF91CF9108950F931F93CF93DF931F92DD
:102DB000CDB7DEB7282F30E0F901E859FE4F8491F6
:102DC000F901E458FE4F1491F901E057FE4F0491C8
:102DD0000023C9F0882321F069830E94711669815C
:102DE000E02FF0E0EE0FFF1FE255FE4FA591B491EA
:102DF0009FB7F8948C91611103C01095812301C095
:102E0000812B8C939FBF0F90DF91CF911F910F91DA
:102E10000895CF93DF93282F30E0F901E859FE4F52
:102E20008491F901E458FE4FD491F901E057FE4F27
:102E3000C491CC2391F081110E947116EC2FF0E027
:102E4000EE0FFF1FEC55FE4FA591B4912C912D2351
:102E500081E090E021F480E002C080E090E0DF912A
:102E6000CF910895FC01818D228D90E0805C9F4F71
:102E7000821B91098F7399270895FC01918D828D92
:102E8000981731F0828DE80FF11D858D90E008953F
:102E90008FEF9FEF0895FC01918D828D981761F05F
:102EA000828DDF01A80FB11D5D968C91928D9F5F81
:102EB0009F73928F90E008958FEF9FEF08958FECAE
:102EC00098E1892B49F080E090E0892B29F00E945D
:102ED000CF1881110C9400000895FC01848DDF014E
:102EE000A80FB11DA35ABF4F2C91848D90E001967D
:102EF0008F739927848FA689B7892C93A089B1896C
:102F00008C9180648C93938D848D981306C0028875
:102F1000F389E02D80818F7D80830895CF93DF93A7
:102F2000EC01888D8823C9F0EA89FB89808185FDC1
:102F300005C0A889B9898C9186FD0FC00FB607FC22
:102F4000F5CF808185FFF2CFA889B9898C9185FF63
:102F5000EDCFCE010E946D17E7CFDF91CF9108959D
:102F6000CF92DF92FF920F931F93CF93DF931F9225
:102F7000CDB7DEB76C01DC015B969C915B975C96EC
:102F80008C915C97981307C05096ED91FC915197E6
:102F9000808185FD32C0F601038D10E00F5F1F4F69
:102FA0000F731127F02EF601848DF81211C00FB6A1
:102FB00007FCF9CFD6015096ED91FC915197808195
:102FC00085FFF1CFC60169830E946D176981EBCF40
:102FD000838DE80FF11DE35AFF4F6083D6015B96A6
:102FE0000C935B975296ED91FC9153978081806290
:102FF000808381E058968C930DC0D6015696ED9152
:10300000FC91579760835096ED91FC915197808188
:103010008064808381E090E00F90DF91CF911F91D9
:103020000F91FF90DF90CF900895BF92CF92DF92E3
:10303000EF92FF92CF93DF93EC016A017B01B22EF6
:10304000E889F98982E08083411581EE580761059E
:103050007105A1F060E079E08DE390E0A7019601B1
:103060000E94971D215031094109510956954795F4
:1030700037952795211580E1380798F0E889F98977
:10308000108260E874E88EE190E0A70196010E944A
:10309000971D21503109410951095695479537959A
:1030A0002795EC85FD853083EE85FF852083188E7E
:1030B000EC89FD89B082EA89FB8980818061808307
:1030C000EA89FB89808188608083EA89FB89808125
:1030D00080688083EA89FB8980818F7D8083DF918E
:1030E000CF91FF90EF90DF90CF90BF9008951F9207
:1030F0000F920FB60F9211242F938F939F93EF93FC
:10310000FF93E0913E03F0913F038081E0914403FF
:10311000F091450382FD12C09081809147038F5F3B
:103120008F7320914803821751F0E0914703F0E03C
:10313000E25DFC4F958F8093470301C08081FF9132
:10314000EF919F918F912F910F900FBE0F901F9035
:1031500018951F920F920FB60F9211242F933F9341
:103160004F935F936F937F938F939F93AF93BF938F
:10317000EF93FF938EE293E00E946D17FF91EF9122
:10318000BF91AF919F918F917F916F915F914F917F
:103190003F912F910F900FBE0F901F9018958EE2C8
:1031A00093E00E94321721E0892B09F420E0822F5E
:1031B0000895109231031092300388EE93E0A0E05E
:1031C000B0E08093320390933303A0933403B09321
:1031D000350382ED91E090932F0380932E0385ECCD
:1031E00090E090933B0380933A0384EC90E09093BB
:1031F0003D0380933C0380EC90E090933F038093E9
:103200003E0381EC90E0909341038093400382EC75
:1032100090E0909343038093420386EC90E0909378
:103220004503809344031092470310924803109281
:10323000490310924A03089508950E9436160E9489
:103240001C190E940F01CFE5D7E10E941C012097B5
:10325000E1F30E945F17F9CF0C94141ECF92DF9216
:10326000EF92FF920F931F93CF93DF936C017A013C
:10327000EB01E60EF71E00E010E0CE15DF0561F071
:103280006991D601ED91FC910190F081E02DC6018C
:103290000995080F191FF1CFC801DF91CF911F9138
:1032A0000F91FF90EF90DF90CF900895DC01ED91AA
:1032B000FC91DB0114964D915C9115976D917C9179
:1032C0000280F381E02D09940F931F93CF93DF9336
:1032D000EC010E94D515688779878A879B87E881EA
:1032E000F9810680F781E02DCE01099597FF15C081
:1032F0000E94D515088519852A853B85601B710BB1
:10330000820B930B0C811D812E813F816017710709
:103310008207930720F38FEF9FEFDF91CF911F91EB
:103320000F9108950F931F93CF93DF93EC018B01BF
:1033300068E671E00E943E1AC8010E94641997FD78
:1033400005C0682FCE010E94FC1AF6CFCE01DF9196
:10335000CF911F910F910895CF93DF9300D000D0AC
:10336000CDB7DEB79B01AC016115710581059105F3
:1033700069F069833A834B835C830E948A1F2981A9
:103380003A814B815C810E94B91D03C060E070E00E
:10339000CB010F900F900F900F90DF91CF91089578
:1033A000FC01808191810C94AC1ECF93DF93EC01E2
:1033B00088819981009711F00E94AC1E19821882B1
:1033C0001D821C821B821A82DF91CF9108950F9378
:1033D0001F93CF93DF93EC018B016F5F7F4F888149
:1033E00099810E94981F009731F0998388831B83ED
:1033F0000A8381E001C080E0DF91CF911F910F919E
:103400000895CF93DF93EC0188819981892B29F06E
:103410008A819B818617970760F4CE010E94E71985
:10342000882341F08C819D81892B19F4E881F981F1
:10343000108281E0DF91CF910895EF92FF920F9378
:103440001F93CF93DF93EC017B018A01BA010E94A5
:10345000011A811104C0CE010E94D51907C01D8335
:103460000C83B701888199810E949B20CE01DF9156
:10347000CF911F910F91FF90EF900895FC01118261
:10348000108213821282158214826115710559F01F
:10349000FB0101900020E9F7AF0141505109461BA3
:1034A000570B0C941D1A0895CF93DF93EC01FB0189
:1034B0008617970761F0608171816115710529F0A8
:1034C000448155810E941D1A02C00E94D519CE0167
:1034D000DF91CF910895FC01118210821382128234
:1034E000158214820C94541ACF93DF93EC0161156A
:1034F000710561F0FB0101900020E9F7AF01415037
:103500005109461B570B0E941D1A02C00E94D51973
:10351000CE01DF91CF910895CF93DF9300D0CDB747
:10352000DEB7FC011182108213821282158214828E
:1035300069831A82BE016F5F7F4F0E94741A0F90D9
:103540000F90DF91CF9108950F931F93CF93DF9347
:10355000CDB7DEB762970FB6F894DEBF0FBECDBF12
:103560008C01CB01F8011182108213821282158224
:10357000148250E0BE016F5F7F4F0E94BC20BE01ED
:103580006F5F7F4FC8010E94741A62960FB6F8945D
:10359000DEBF0FBECDBFDF91CF911F910F91089578
:1035A000EF92FF920F931F93CF93DF93EC017B0178
:1035B0000C811D816115710511F480E016C0411563
:1035C000510591F0040F151FB8010E94011A8823BC
:1035D000A1F3288139818C819D81B701820F931FCE
:1035E0000E949B201D830C8381E0DF91CF911F916E
:1035F0000F91FF90EF900895CF93DF9300D0CDB758
:10360000DEB769831A8241E050E0BE016F5F7F4FF1
:103610000E94D01A0F900F90DF91CF910895FC0176
:1036200024813581232B31F421E061157105A1F04E
:10363000FB0108C0FC01808191816115710531F4A5
:1036400021E0FC018081882339F005C00E9492208E
:1036500021E0892B09F020E0822F0895CF93DF939A
:10366000FC01848195814817590778F4C081D18184
:10367000FB0160817181CE01840F951F0E94A22001
:10368000009719F08C1B9D0B02C08FEF9FEFDF910D
:10369000CF91089540E050E00C942E1BBF92CF9242
:1036A000DF92EF92FF920F931F93CF93DF936C0102
:1036B0007B01EA0189012417350720F48D2FE901E8
:1036C000042F182F68E671E0C6010E943E1AD70148
:1036D00014968D919C911597C817D907C8F4801737
:1036E000910708F48C01D701ED91FC911197E00F3F
:1036F000F11FB08010826D917C916C0F7D1FC6010F
:103700000E94741AD701ED91FC91E00FF11FB08275
:10371000C601DF91CF911F910F91FF90EF90DF9045
:10372000CF90BF90089508955058BB27AA270ED078
:103730004DC13ED130F043D120F031F49F3F11F420
:103740001EF433C10EF4E095E7FB29C1E92F4FD1F8
:1037500080F3BA17620773078407950718F071F4AE
:103760009EF567C10EF4E0950B2EBA2FA02D0B012C
:10377000B90190010C01CA01A0011124FF27591BB6
:1037800099F0593F50F4503E68F11A16F040A22FBC
:10379000232F342F4427585FF3CF4695379527952D
:1037A000A795F0405395C9F77EF41F16BA0B620B2C
:1037B000730B840BBAF09150A1F0FF0FBB1F661F73
:1037C000771F881FC2F70EC0BA0F621F731F841FB6
:1037D00048F4879577956795B795F7959E3F08F0DC
:1037E000B3CF9395880F08F09927EE0F979587959B
:1037F00008950CD0EBC0E3D040F0DAD030F021F4E3
:103800005F3F19F0CCC0511115C1CFC0F0D098F373
:103810009923C9F35523B1F3951B550BBB27AA2751
:1038200062177307840738F09F5F5F4F220F331FC3
:10383000441FAA1FA9F333D00E2E3AF0E0E830D08F
:1038400091505040E695001CCAF729D0FE2F27D092
:10385000660F771F881FBB1F261737074807AB0760
:10386000B0E809F0BB0B802DBF01FF2793585F4FD5
:103870002AF09E3F510568F092C0DCC05F3FECF338
:10388000983EDCF3869577956795B795F7959F5F9A
:10389000C9F7880F911D9695879597F90895E1E0EE
:1038A000660F771F881FBB1F621773078407BA074D
:1038B00020F0621B730B840BBA0BEE1F88F7E095A8
:1038C000089504D06894B111B5C0089598D088F0D7
:1038D0009F5790F0B92F9927B751A0F0D1F0660FFC
:1038E000771F881F991F1AF0BA95C9F712C0B13017
:1038F00081F09FD0B1E008959CC0672F782F882772
:10390000B85F39F0B93FCCF3869577956795B39555
:10391000D9F73EF490958095709561957F4F8F4FC4
:103920009F4F0895E89409C097FB3EF490958095C9
:10393000709561957F4F8F4F9F4F9923A9F0F92F75
:1039400096E9BB279395F695879577956795B795F3
:10395000F111F8CFFAF4BB0F11F460FF1BC06F5FD9
:103960007F4F8F4F9F4F16C0882311F096E911C0EB
:10397000772321F09EE8872F762F05C0662371F00C
:1039800096E8862F70E060E02AF09A95660F771F20
:10399000881FDAF7880F9695879597F9089597F914
:1039A0009F6780E870E060E008959FEF80EC0895E5
:1039B00000240A941616170618060906089500240E
:1039C0000A9412161306140605060895092E039488
:1039D000000C11F4882352F0BB0F40F4BF2B11F4FC
:1039E00060FF04C06F5F7F4F8F4F9F4F089557FD5B
:1039F0009058440F551F59F05F3F71F04795880F5D
:103A000097FB991F61F09F3F79F0879508951216F3
:103A100013061406551FF2CF4695F1DF08C016169F
:103A200017061806991FF1CF869571056105089450
:103A30000895E894BB2766277727CB0197F9089567
:103A40000BD0C4CFB5DF28F0BADF18F0952309F00A
:103A5000A6CFABCF1124EECFCADFA0F3959FD1F351
:103A6000950F50E0551F629FF001729FBB27F00D2C
:103A7000B11D639FAA27F00DB11DAA1F649F662781
:103A8000B00DA11D661F829F2227B00DA11D621FD0
:103A9000739FB00DA11D621F839FA00D611D221F8A
:103AA000749F3327A00D611D231F849F600D211D6E
:103AB000822F762F6A2F11249F5750408AF0E1F011
:103AC00088234AF0EE0FFF1FBB1F661F771F881F5A
:103AD00091505040A9F79E3F510570F060CFAACF9A
:103AE0005F3FECF3983EDCF3869577956795B79545
:103AF000F795E7959F5FC1F7FE2B880F911D96956F
:103B0000879597F9089597FB072E16F4009407D030
:103B100077FD09D00E94FA1D07FC05D03EF4909570
:103B200081959F4F0895709561957F4F0895A1E20B
:103B30001A2EAA1BBB1BFD010DC0AA1FBB1FEE1F27
:103B4000FF1FA217B307E407F50720F0A21BB30B72
:103B5000E40BF50B661F771F881F991F1A9469F7EE
:103B600060957095809590959B01AC01BD01CF014A
:103B70000895052E97FB1EF400940E94D01D57FD5A
:103B800007D00E94971D07FC03D04EF40C94D01D63
:103B900050954095309521953F4F4F4F5F4F089579
:103BA00090958095709561957F4F8F4F9F4F0895A9
:103BB000A29FB001B39FC001A39F700D811D11246E
:103BC000911DB29F700D811D1124911D08950E94B9
:103BD000D81DA59F900DB49F900DA49F800D911DA1
:103BE00011240895B7FF0C94E71D0E94E71D821B66
:103BF000930B0895AA1BBB1B51E107C0AA1FBB1F53
:103C0000A617B70710F0A61BB70B881F991F5A9568
:103C1000A9F780959095BC01CD010895EE0FFF1F87
:103C20000590F491E02D0994CF93DF9382309105B4
:103C300010F482E090E0E091CD03F091CE0320E01B
:103C400030E0A0E0B0E0309739F140815181481771
:103C50005907B8F04817590771F48281938110977A
:103C600029F013969C938E9312972CC09093CE03B9
:103C70008093CD0327C02115310531F0421753073A
:103C800018F0A901DB0101C0EF019A01BD01DF01BC
:103C90000280F381E02DD7CF21153105F9F0281BE3
:103CA000390B2430310580F48A819B8161157105BF
:103CB00021F0FB019383828304C09093CE03809311
:103CC000CD03FE01329644C0FE01E20FF31F819343
:103CD000919322503109398328833AC02091CB0334
:103CE0003091CC03232B41F4209102013091030148
:103CF0003093CC032093CB0320910001309101013C
:103D00002115310541F42DB73EB740910401509182
:103D10000501241B350BE091CB03F091CC03E21796
:103D2000F307A0F42E1B3F0B2817390778F0AC01DE
:103D30004E5F5F4F2417350748F04E0F5F1F5093BB
:103D4000CC034093CB038193919302C0E0E0F0E079
:103D5000CF01DF91CF910895CF93DF93009709F4BE
:103D600087C0FC01329713821282C091CD03D0919B
:103D7000CE03209781F420813181280F391F809153
:103D8000CB039091CC038217930779F5F093CC0382
:103D9000E093CB036DC0DE0120E030E0AE17BF073B
:103DA00050F412964D915C9113979D014115510568
:103DB00009F1DA01F3CFB383A28340815181840FEB
:103DC000951F8A179B0771F48D919C911197840F11
:103DD000951F02969183808312968D919C911397E3
:103DE000938382832115310529F4F093CE03E09368
:103DF000CD033EC0D9011396FC93EE9312974D91DB
:103E00005D91A40FB51FEA17FB0779F480819181BA
:103E1000840F951F0296D90111969C938E938281EF
:103E2000938113969C938E931297E0E0F0E08A8141
:103E30009B81009719F0FE01EC01F9CFCE010296AB
:103E400028813981820F931F2091CB033091CC03BD
:103E50002817390769F4309729F41092CE0310928D
:103E6000CD0302C013821282D093CC03C093CB0344
:103E7000DF91CF9108958F929F92AF92BF92CF9290
:103E8000DF92EF92FF92CF93DF93EC01688179810B
:103E90008A819B81611571058105910521F464E298
:103EA00079ED8BE597E02DE133EF41E050E00E94A2
:103EB000B91D49015A019B01AC01A7EAB1E40E9476
:103EC000E71D6B017C01ACEEB4EFA50194010E94EB
:103ED000F51DC60ED71EE81EF91EF7FE06C081E0CE
:103EE000C81AD108E10880E8F80AC882D982EA82B3
:103EF000FB82C701B6019F77DF91CF91FF90EF90D2
:103F0000DF90CF90BF90AF909F908F9008950E94C8
:103F10003B1F089586E091E00E943B1F0895609347
:103F20000601709307018093080190930901089599
:103F3000A0E0B0E0EEE9FFE10C941521EC01CB012B
:103F4000209719F40E94141EB8C0FE01E60FF71F57
:103F50009E0122503109E217F30708F4ACC0D901E1
:103F60000D911C91119706171707B8F00530110530
:103F700008F49FC0A801445051094617570708F498
:103F800098C002501109061B170B019311936D93F2
:103F90007C93CF010E94AC1E8CC05B01A01AB10AB9
:103FA0004E01800E911EA091CD03B091CE03612CE5
:103FB000712C60E070E0109709F449C0A815B905AC
:103FC000C9F5ED90FC901197670142E0C40ED11C39
:103FD000CA14DB0478F147018A189B08640142E0A7
:103FE000C40ED11C1296BC9012971396AC91B5E0FA
:103FF000CB16D10440F0B282A38391828082D90192
:104000008D939C9309C00E5F1F4F0E0D1F1DF9016C
:1040100011830083EB2DFA2F6115710531F0DB015F
:104020001396FC93EE93129744C0F093CE03E09363
:10403000CD033FC06D917C9111976616770608F409
:104040003B01BD0112960D90BC91A02DB4CF6091A3
:10405000CB037091CC0368157905E9F468167906ED
:10406000D0F440910001509101014115510541F4F6
:104070004DB75EB76091040170910501461B570B67
:10408000E417F507C0F4F093CC03E093CB03F901F8
:10409000918380830EC00E94141E7C01009759F00A
:1040A000A801BE010E948920CE010E94AC1EC7015A
:1040B00004C0CE0102C080E090E0CDB7DEB7EEE0F4
:1040C0000C9431211F93FC0199278827BC01E894A7
:1040D00011911032E9F3193010F01E30C8F31B3281
:1040E00051F01D3249F4689406C00E94D220610F3D
:1040F000711D811D911D119110531A30B0F33EF4C2
:1041000090958095709561957F4F8F4F9F4F1F9130
:104110000895FB01DC0102C001900D924150504016
:10412000D8F70895FB01DC018D91019080190110F1
:10413000D9F3990B0895FB01DC0101900D92002049
:10414000E1F70895FB0151915523A9F0BF01DC016E
:104150004D9145174111E1F759F4CD01019000202F
:1041600049F04D9140154111C9F3FB014111EFCFC9
:1041700081E090E0019708954532510520F44230E6
:1041800010F00C94C720FB011082CB010895BB27CF
:104190004A3031F4992322F4BDE2909581959F4FE6
:1041A0000C94E820592F482F372F262F660F771FA2
:1041B000881F991F660F771F881F991F620F731F33
:1041C000841F951F660F771F881F991F0895BB27AF
:1041D000FB015527AA27880F991FAA1FA41710F0C3
:1041E000A41B83955051B9F7A05DAA3308F0A95DCF
:1041F000A193009779F7B111B1931192CB010C946F
:104200000121DC01FC01672F71917723E1F73297DF
:1042100004C07C916D9370836291AE17BF07C8F3A1
:1042200008952F923F924F925F926F927F928F925A
:104230009F92AF92BF92CF92DF92EF92FF920F9335
:104240001F93CF93DF93CDB7DEB7CA1BDB0B0FB63F
:10425000F894DEBF0FBECDBF09942A8839884888FC
:104260005F846E847D848C849B84AA84B984C88492
:10427000DF80EE80FD800C811B81AA81B981CE0F89
:10428000D11D0FB6F894DEBF0FBECDBFED0108956E
:1042900011E0C8ECD1E004C0FE010E94101E22967D
:0A42A000CA3CD107C9F7F894FFCF1C
:1042AA000000CF038000010000002C010000000084
:1042BA0040001400540057616974696E6720666F84
:1042CA00722070726F6772616D00546F74616C74E2
:1042DA003A006D696E20002073656B00416B74753E
:1042EA00656C6C743A0043200053746567200020A3
:1042FA006D696E00202020202020202020202020F0
:10430A002020202020202020002C00506175736579
:10431A006420202020202020202020202020004D42
:10432A00617368736368656D65642075706C6F612D
:10433A00646564004661696C0043757272656E74E7
:10434A002074656D703A200043001F1C1F1E1F1E3B
:10435A001F1F1E1F1E1F000000001E0FF10EC60E9B
:10436A00CE0EE10EF00E00000000C5112E1900005D
:0E437A000000B0172E1932174B173D178E1783
:00000001FF
