:100000000C94E5000C940D010C940D010C940D0161
:100010000C940D010C940D010C940D010C940D0128
:100020000C940D010C940D010C940D010C940D0118
:100030000C940D010C940D010C940D010C940D0108
:100040000C943F140C940D010C942B170C945D1719
:100050000C940D010C940D010C940D010C940D01E8
:100060000C94D90E0C940D01005EBCE2613FDD835F
:10007000C29C7E20A3FD1F419DC3217FFCA2401E88
:100080005F01E3BD3E6082DC237D9FC1421CFEA078
:10009000E1BF5D0380DE3C62BEE0025CDF81633D68
:1000A0007C22C09E1D43A1FF4618FAA427799BC558
:1000B00084DA3866E5BB5907DB856739BAE4065848
:1000C0001947A5FB7826C49A653BD987045AB8E638
:1000D000A7F91B45C6987A24F8A6441A99C7257B28
:1000E0003A6486D85B05E7B98CD2306EEDB3510F18
:1000F0004E10F2AC2F7193CD114FADF3702ECC9208
:10010000D38D6F31B2EC0E50AFF1134DCE90722CF7
:100110006D33D18F0C52B0EE326C8ED0530DEFB1E7
:10012000F0AE4C1291CF2D73CA947628ABF51749D7
:100130000856B4EA6937D58B5709EBB536688AD4C7
:1001400095CB2977F4AA4816E9B7550B88D6346AB7
:100150002B7597C94A14F6A8742AC896154BA9F7A7
:10016000B6E80A54D7896B35000000080002010088
:100170000003040700000000000000000102040862
:100180001020408001020408102001020408102001
:10019000040404040404040402020202020203032D
:1001A00003030303000000002300260029000000D1
:1001B0000000250028002B0000000000240027007C
:1001C0002A0020013B0E8D17560111241FBECFEFD0
:1001D000D8E0DEBFCDBF11E0A0E0B1E0E2E1F0E4A5
:1001E00002C005900D92AE3DB107D9F723E0AEED08
:1001F000B1E001C01D92AC3CB207E1F711E0C8ECE0
:10020000D1E004C02297FE010E94C41CC23CD10769
:10021000C9F70E94D1170C94FC1F0C94000026E033
:1002200040E855E260E070E08BE293E00E94C9167E
:100230008EED91E00C9482018EED91E00C944706D6
:100240008EED91E00E945A016EE08BEE91E00E94EB
:10025000B30C6BEE71E089EF91E00E942C1180E20B
:1002600090E090930D0280930C0283E090E09093D5
:100270001302809312028FED8093160268E671E0FC
:1002800087E192E00E94F21882E090E090932502CC
:100290008093240287E090E09093270280932602C7
:1002A00081E080933C0280933D02089587E192E0D3
:1002B0000C94841824E044E167E20C9406100F9338
:1002C0001F93CF93DF93EC018B01622F0E9490105C
:1002D000B801CE01DF91CF911F910F910C940A18B4
:1002E000CF93DF93EC010E942911CE010E942F10C1
:1002F00040E060E0CE010E949010CE01DF91CF91EE
:100300000C9482100F931F93CF93DF9300D000D0F3
:1003100000D0CDB7DEB78C014B960E94551261E03C
:1003200086E00E944E1561E085E00E944E1561E076
:1003300084E00E944E1561E083E00E944E1560E06B
:1003400088E00E944E1560E089E00E944E1560E052
:100350008AE00E944E1560E08BE00E944E1560E03E
:100360008CE00E944E15F801EA5BFF4F61E080814E
:100370000E944E15F801E85BFF4F61E080810E940A
:100380004E15C8010E94700166E171E0CE01019630
:100390000E94F21820E030E040E050E0BE016F5FC4
:1003A0007F4FC8010E945F01CE0101960E94841810
:1003B00026960FB6F894DEBF0FBECDBFDF91CF916A
:1003C0001F910F910895CF93DF93EC0161E086E0D8
:1003D0000E94871561E085E00E94871561E084E056
:1003E0000E94871561E083E00E948715C25ADF4FA3
:1003F0001882DF91CF9108950F931F93CF93DF93CE
:10040000EC018C01015A1F4FF8018081882361F0B3
:1004100064E070E080E090E00E94601868AB79AB27
:100420008AAB9BABF801108288A999A9AAA9BBA99C
:1004300081309105A105B105A1F03CF4892B8A2BEF
:100440008B2BD1F461E086E011C082309105A105CB
:10045000B10551F00397A105B10571F461E083E0A6
:1004600005C061E085E002C061E084E0DF91CF91EA
:100470001F910F910C948715DF91CF911F910F91D0
:100480000895815A9F4F21E0FC01208360E086E0BF
:100490000E94871560E085E00E94871560E084E097
:1004A0000E94871560E083E00C9487152F923F929D
:1004B0004F925F926F927F928F929F92AF92BF9274
:1004C000CF92DF92EF92FF920F931F93CF93DF9320
:1004D00000D000D000D0CDB7DEB78C010E94BD0A9D
:1004E000480122E5820E911CD4016D937D938D937A
:1004F0009C9313975801B6E5AB0EB11C2801EAE5B1
:100500004E0E511CD201CD90DD90ED90FC90DC019F
:10051000CB018C199D09AE09BF09F5018083918338
:10052000A283B3830E944E0B80FD12C07801FBE1D1
:10053000EF0EF11CC7010E94271360E0C7010E9463
:100540001B140E94151BD801D7967C936E93D697E7
:100550006AE271E0CE0101960E94F21820E030E0DC
:1005600040E050E0BE016F5F7F4FC8010E945F0115
:10057000CE0101960E948418F4016081718182810C
:1005800093810E94C5094AE0BC01CE0101960E94F8
:10059000581927E030E040E050E0BE016F5F7F4F28
:1005A000C8010E945F01CE0101960E94841862E397
:1005B00071E0CE0101960E94F21829E030E040E09F
:1005C00050E0BE016F5F7F4FC8010E945F01CE0106
:1005D00001960E94841866E671E0CE0101960E94A1
:1005E000F2182EE030E040E050E0BE016F5F7F4F38
:1005F000C8010E945F01CE0101960E948418D401B7
:100600006D917D918D919C910E94CB094AE0BC0136
:10061000CE0101960E9458192EE030E040E050E0F3
:10062000BE016F5F7F4FC8010E945F01CE0101963E
:100630000E94841867E371E0CE0101960E94F218CF
:1006400020E130E040E050E0BE016F5F7F4FC80125
:100650000E945F01CE0101960E9484187801B0E6E5
:10066000EB0EF11CF701808198012F593F4F690172
:1006700081112AC0D9018D919C91880F991FB19742
:100680000190F081E02DE80FF91FD801D6962D9149
:100690003C91D7978081918128173907ACF0F401FC
:1006A00080819181A281B381F20180839183A283B1
:1006B000B383D5011D921D921D921C92139781E068
:1006C000F7018083329710826CE371E0CE010196CE
:1006D0000E94F21820E030E041E050E0BE016F5F80
:1006E0007F4FC8010E945F01CE0101960E948418CD
:1006F000D801D6966D917C91D7974AE0CE010196AC
:100700000E94581929E030E041E050E0BE016F5FDF
:100710007F4FC8010E945F01CE0101960E9484189C
:10072000F80160ADCE0101960E9440192BE030E047
:1007300041E050E0BE016F5F7F4FC8010E945F0142
:10074000CE0101960E94841866E471E0CE01019604
:100750000E94F2182CE030E041E050E0BE016F5FF3
:100760007F4FC8010E945F01CE0101960E9484184C
:1007700069E471E0CE0101960E94F21820E030E0B9
:1007800042E050E0BE016F5F7F4FC8010E945F01F1
:10079000CE0101960E9484183801F5E66F0E711C97
:1007A000D3016D917C914AE0CE0101960E945819C7
:1007B00025E030E042E050E0BE016F5F7F4FC801AE
:1007C0000E945F01CE0101960E94841865EA71E0E3
:1007D000CE0101960E94F21826E030E042E050E09F
:1007E000BE016F5F7F4FC8010E945F01CE0101967D
:1007F0000E948418F60180819181880F991F480119
:10080000FFE38F0E911CD401ED91FC91E80FF91FCD
:10081000608171814AE0CE0101960E94581928E05A
:1008200030E042E050E0BE016F5F7F4FC8010E94A0
:100830005F01CE0101960E94841866E471E0CE014A
:1008400001960E94F2182AE030E042E050E0BE013A
:100850006F5F7F4FC8010E945F01CE0101960E9429
:1008600084181801B3E62B0E311CF10180819181AF
:10087000880F991FD401ED91FC91E80FF91F608159
:1008800071814AE0CE0101960E9458192CE030E0B7
:1008900042E050E0BE016F5F7F4FC8010E945F01E0
:1008A000CE0101960E9484186FE471E0CE0101969A
:1008B0000E94F2182EE030E042E050E0BE016F5F8F
:1008C0007F4FC8010E945F01CE0101960E948418EB
:1008D000F301208131813296808191812817390777
:1008E0000CF0A8C069E471E0CE0101960E94F218F4
:1008F00020E030E043E050E0BE016F5F7F4FC80171
:100900000E945F01CE0101960E948418D3016D916F
:100910007C916F5F7F4F4AE0CE0101960E9458198B
:1009200025E030E043E050E0BE016F5F7F4FC8013B
:100930000E945F01CE0101960E94841865EA71E071
:10094000CE0101960E94F21826E030E043E050E02C
:10095000BE016F5F7F4FC8010E945F01CE0101960B
:100960000E948418F601808191810296880F991F58
:10097000D401ED91FC91E80FF91F608171814AE08B
:10098000CE0101960E94581928E030E043E050E083
:10099000BE016F5F7F4FC8010E945F01CE010196CB
:1009A0000E94841866E471E0CE0101960E94F2185C
:1009B0002AE030E043E050E0BE016F5F7F4FC801A6
:1009C0000E945F01CE0101960E948418F10180818E
:1009D00091810296880F991FD401ED91FC91E80F47
:1009E000F91F608171814AE0CE0101960E94581979
:1009F0002CE030E043E050E0BE016F5F7F4FC80164
:100A00000E945F01CE0101960E9484186FE471E09C
:100A1000CE0101960E94F2182EE030E043E050E053
:100A2000BE016F5F7F4FC8010E945F01CE0101963A
:100A30000E948418F50160817181828193810E94F6
:100A4000C5091816190624F0D7018C918111E8C048
:100A5000F7018081882309F443C067E671E0CE0185
:100A600001960E94F2182FE030E041E050E0BE0114
:100A70006F5F7F4FC8010E945F01CE0101960E9407
:100A80008418F50160817181828193810E94C5097A
:100A90004AE0BC01CE0101960E9458192EE030E0D8
:100AA00041E050E0BE016F5F7F4FC8010E945F01CF
:100AB000CE0101960E9484186FE471E0CE01019688
:100AC0000E94F21820E130E041E050E0BE016F5F8B
:100AD0007F4FC8010E945F01CE0101960E948418D9
:100AE000D6018D919C91880F991F4801BFE38B0E11
:100AF000911CD401ED91FC91E80FF91FD801D69615
:100B00002D913C91D797808191812817390744F026
:100B1000F7018081882389F0C8010E9441020DC03D
:100B2000F801E25AFF4F8081811104C0C8010E9480
:100B3000FC0103C0C8010E94E301D5016D917D91C4
:100B40008D919C910E94C509B8016D597F4FFB01A1
:100B500020813181A901440F551FD401ED91FC91F1
:100B6000E40FF51F40815181841795070CF476C07E
:100B7000F801EB59FF4F80819181A80149595F4FDE
:100B8000DA014D915C91841795070CF067C0D7018D
:100B90004C91442309F462C0019691838083F6014D
:100BA000808191810296918380832E5F3F4FDB018C
:100BB0002D933C93F801E25AFF4F81E08083F701C7
:100BC0001082D2011D921D921D921C92139764E512
:100BD00071E0CE0101960E94F21820E030E041E081
:100BE00050E0BE016F5F7F4FC8010E945F01CE01E0
:100BF00001960E94841864E571E0CE0101960E947E
:100C0000F21820E030E043E050E0BE016F5F7F4F1C
:100C1000C8010E945F01CE0101960E9484181EC087
:100C2000D5016D917D918D919C910E94CB094AE0F7
:100C3000BC01CE0101960E9458192EE030E041E03F
:100C400050E0BE016F5F7F4FC8010E945F01CE017F
:100C500001960E94841867E371E030CF26960FB6A4
:100C6000F894DEBF0FBECDBFDF91CF911F910F91E2
:100C7000FF90EF90DF90CF90BF90AF909F908F90BC
:100C80007F906F905F904F903F902F9008952F929C
:100C90003F924F925F926F927F928F929F92AF920C
:100CA000BF92CF92DF92EF92FF920F931F93CF9359
:100CB000DF93CDB7DEB72C970FB6F894DEBF0FBE2B
:100CC000CDBF6C012DB63EB668E671E0CE01079649
:100CD0000E94F218B601645F7F4FCE0101960E9418
:100CE0009008BE016F5F7F4FCE0107960E940819E2
:100CF000CE0101960E94841868E671E0CE01079645
:100D00000E94C31981110BC14DB65EB6F60186A5CE
:100D100097A5880F991F2DB73EB7281B390B0FB623
:100D2000F8943EBF0FBE2DBF8DB79EB701965C01F4
:100D30004C0100E010E0360199E3690E711C68E691
:100D400071E0CE0107960E94C319811159C069E66E
:100D500071E0CE0101960E94F218BE016F5F7F4FD5
:100D6000CE0107960E94FE197C01CE0101960E94D9
:100D70008418F7FE07C068E671E0CE0107960E946E
:100D800028193EC0970140E050E0BE01695F7F4FE7
:100D9000CE0101960115110549F40E94021ABE0107
:100DA0006F5F7F4FC3010E94081909C00E94021A99
:100DB00089819A810E94161FF40171836083CE019C
:100DC00001960E9484182B853C85A7014F5F5F4FD9
:100DD000BE01695F7F4FCE0101960E94021ABE01DB
:100DE0006F5F7F4FCE0107960E940819CE010196D2
:100DF0000E9484180F5F1F4FF2E08F0E911C9FCF4F
:100E0000C8010297760121E4E20EF11CF7019183FB
:100E10008083B6969C010150110997FD9801359584
:100E20002795318320838138FFE39F0718F4880FCB
:100E3000991F02C08FEF9FEF0E94E017F601FF9607
:100E400080839183F60125AD36ADF801EE0FFF1FCB
:100E5000EA0DFB1D408151818C01D50180E090E0BD
:100E60001296F70160817181861797075CF40196ED
:100E70006D917C911197F801619371938F01260F09
:100E8000371FEECF86010D5B1F4F2417350761F525
:100E90006BE671E0CE0101960E94F21820E030E08E
:100EA00040E050E0BE016F5F7F4FC6010E945F01CE
:100EB000CE0101960E9484186FE771E0CE01019681
:100EC0000E94F21820E030E041E050E0BE016F5F88
:100ED0007F4FC6010E945F01CE0101960E948418D7
:100EE00081E0F801808316C064E971E0CE010196CB
:100EF0000E94F21820E030E041E050E0BE016F5F58
:100F00007F4FC6010E945F01CE0101960E948418A6
:100F1000F80110820FB6F8945EBE0FBE4DBE86017A
:100F2000055E1F4FC8010E94271360E0C8010E94A0
:100F30001B140E94151BF60177AB66AB69E971E0E3
:100F4000CE0101960E94F21820E030E042E050E02D
:100F5000BE016F5F7F4FC6010E945F01CE01019607
:100F60000E948418F60166A977A94AE0CE0101968D
:100F70000E9458192EE030E042E050E0BE016F5F61
:100F80007F4FC6010E945F01CE0101960E94841826
:100F9000F60160ADCE0101960E94401920E130E0DB
:100FA00042E050E0BE016F5F7F4FC6010E945F01CB
:100FB000CE0101960E94841868EA71E0CE01019684
:100FC0000E94F21821E130E042E050E0BE016F5F84
:100FD0007F4FC6010E945F01CE0101960E948418D6
:100FE000F601EA5BFF4F80810E94BD155C01F601AE
:100FF000EC5BFF4F918380834601F3E48F0E911CDD
:10100000F4018081882309F469C0F1E0AF16B104CE
:1010100009F064C0E12CF12C00E010E020E030E0A9
:1010200040E050E060E070E080E090E00E94560B0D
:1010300064E571E0CE0101960E94F21820E030E0F4
:1010400040E050E0BE016F5F7F4FC6010E945F012C
:10105000CE0101960E94841864E571E0CE010196EC
:101060000E94F21820E030E041E050E0BE016F5FE6
:101070007F4FC6010E945F01CE0101960E94841835
:1010800064E571E0CE0101960E94F21820E030E0A4
:1010900042E050E0BE016F5F7F4FC6010E945F01DA
:1010A000CE0101960E948418F601EF59FF4F11827C
:1010B00010823296B182A0823997108211821282F8
:1010C0001382369610823596B182A082F401808117
:1010D000882321F0C6010E945602F8CFCE01079660
:1010E0000E9484180FB6F8943EBE0FBE2DBE2C96FB
:1010F0000FB6F894DEBF0FBECDBFDF91CF911F9129
:101100000F91FF90EF90DF90CF90BF90AF909F90A6
:101110008F907F906F905F904F903F902F900895A9
:101120000F931F93CF93DF9300D000D000D0CDB7A3
:10113000DEB78C018BE293E00E94E615892BB9F0B3
:1011400064E670E080E090E00E94B8146BE273E027
:10115000CE0101960E944618BE016F5F7F4FC80105
:101160000E941F19CE0101960E94841805C068E6EE
:1011700071E0C8010E94F218C80126960FB6F894D3
:10118000DEBF0FBECDBFDF91CF911F910F910895AC
:101190006F927F928F929F92AF92BF92CF92DF9287
:1011A000EF92FF920F931F93CF93DF93EA012CE30B
:1011B000C22ED12CE12CF12CA70196010E944B1CD0
:1011C0006883CA01B901A70196010E944B1C69837B
:1011D000CA01B90128E130E040E050E00E944B1C18
:1011E00049015A016A83CA01B9016C5F7F4F8F4F71
:1011F0009F4F27E030E040E050E00E944B1C6F5FC3
:101200006B8300E010E0980140E054E6652E712CFD
:1012100060E9C62EDD24D394E42FF0E0EE54F84FBD
:101220007F0183E0E822FF24E114F10489F4CF0177
:10123000B3010E94371C892B29F08EE691E0A0E0D3
:10124000B0E00AC0CF01B6010E94371C892BA9F378
:101250008DE691E0A0E0B0E0080F191F2A1F3B1FA8
:10126000D901C801AA27BB2788169906AA06BB067A
:1012700010F04F5FD1CF4E83E114F10499F4CF0108
:1012800064E670E00E94371C892B29F08EE691E01D
:10129000A0E0B0E00BC0CF0160E971E00E94371C14
:1012A000892BA1F38DE691E0A0E0B0E0081B190BBB
:1012B0002A0B3B0B801A910AA20AB30ACF0164E6FB
:1012C00070E00E94371C9C01CF0160E971E00E9430
:1012D000371CEAEAF1E0A0E0A13059F4E114F1048E
:1012E00051F42115310511F04DE106C00097E1F3ED
:1012F00002C0408101C04CE150E060E070E0841623
:101300009506A606B70640F0841A950AA60AB70AFB
:10131000AF5F3196AC3001F7AF5FAD8383948C82C1
:10132000DF91CF911F910F91FF90EF90DF90CF90C1
:10133000BF90AF909F908F907F906F900895CF92C5
:10134000DF92EF92FF926B017C01809157029091A6
:101350005802A0915902B0915A02C816D906EA065D
:10136000FB0671F04BE552E0C701B6010E94C808C8
:10137000C0925702D0925802E0925902F0925A025B
:10138000FF90EF90DF90CF9008950E949F09809189
:101390005C0290E008950E949F0980915B0290E0BA
:1013A00008956F927F928F929F92AF92BF92CF9249
:1013B000DF92EF92FF920F931F93CF93DF93FC0185
:1013C000C680AC2DB0E020E833E341EE51E00E944E
:1013D0009B1C4B015C0122EB37E06D01C4E6D0E0C1
:1013E00000E911E0C901825B97408C159D05DCF492
:1013F000C90183709927892B99F4C901BE010E9404
:10140000371C892B31F4C901B8010E94371C892B84
:1014100039F480E8880E81E5981E81E0A81EB11C91
:101420002F5F3F4FDFCF6580712C8EE4C81A88EFA5
:10143000D80AC60164E670E00E94371C8C01C60120
:1014400060E971E00E94371C7C01C1E0D0E083E0DC
:10145000C822DD24C615D7052CF5C230D10589F484
:10146000C114D10471F40115110519F4E114F1044A
:1014700041F480E8880E8BE3981E86E2A81EB11C1A
:101480000FC0DE01A755BE4FAC91B0E020E831E5BA
:1014900041E050E00E949B1C860E971EA81EB91EBC
:1014A0002196D8CF4181228130E0A0E1BEE00E94A8
:1014B0008C1C6B017C01242F30E0ACE3B0E00E9477
:1014C0008C1CC60ED71EE81EF91E8081C80ED11CCA
:1014D000E11CF11CA481B0E0119720E831E541E066
:1014E00050E00E94A61CC60ED71EE81EF91EC80CAE
:1014F000D91CEA1CFB1CC701B601DF91CF911F91DB
:101500000F91FF90EF90DF90CF90BF90AF909F90A2
:101510008F907F906F9008950F931F936093530265
:1015200070935402809355029093560200910A01E1
:1015300010910B0120910C0130910D01060F171F26
:10154000281F391F00934B0210934C0220934D0229
:1015500030934E0282E090E090934A0280934902D9
:101560000E94891460934F0270935002809351023D
:10157000909352021F910F910895CF92DF92EF92B4
:10158000FF920F931F930E948914C0904F02D09036
:101590005002E0905102F09052026C197D098E09C0
:1015A0009F090091530210915402209155023091ED
:1015B0005602683E734081059105D8F00F5F1F4FBA
:1015C0002F4F3F4F00935302109354022093550224
:1015D0003093560248EEC40E43E0D41EE11CF11CC9
:1015E000C0924F02D0925002E0925102F092520209
:1015F000CACF80914B0290914C02A0914D02B091C4
:101600004E02081719072A073B07C8F1E091470265
:10161000F0914802309799F109956115710581059E
:10162000910519F00E948C0A2AC080910A019091BC
:101630000B01A0910C01B0910D014091530250910A
:1016400054026091550270915602840F951FA61F97
:10165000B71F80934B0290934C02A0934D02B0931E
:101660004E0281E090E02091490230914A02232B02
:1016700011F480E090E090934A02809349026091D7
:1016800053027091540280915502909156021F911D
:101690000F91FF90EF90DF90CF9008950E94BD0AC8
:1016A0000E949F0980915B0290E00895EF92FF9263
:1016B0000F9394E6E916F1042CF092EBE91A97E007
:1016C000F90A03C09EE1E90EF11CE0926102009369
:1016D000600220935F0280935D0260935C024093FE
:1016E0005B028BE592E00E94D1090F91FF90EF9091
:1016F0000C948C0AFF920F931F93CF93DF93FC01FE
:101700000081C181D281F8948981F02EF0948F21DB
:10171000898378941DE7115029F182E090E00E94BE
:10172000E01488818023B9F3F8948A818F218A8319
:101730008981802B8983789480EE91E00E94E01467
:10174000F89489818F21898386E490E00E94E014D7
:101750008881802311E009F010E078948AE991E013
:101760000E94E014812FDF91CF911F910F91FF9084
:1017700008951F93CF93DF93FC011081C181D28123
:10178000912F909560FF12C0F8948A8189238A83F3
:101790008981812B89838AE090E00E94E0148A810C
:1017A000812B8A83789487E390E011C0F8948A8132
:1017B00089238A838981812B898381E490E00E9437
:1017C000E0148A81812B8A83789485E090E0DF9110
:1017D000CF911F910C94E0140F931F93CF93DF933D
:1017E000FC011081C181D281F8948981812B898388
:1017F0008A81012F009580238A8383E090E00E94F4
:10180000E0148981802389838AE090E00E94E014BB
:10181000C881789485E390E00E94E0141C2381E065
:1018200009F480E0DF91CF911F910F910895CF923D
:10183000DF92EF92FF920F931F93CF93DF931F924C
:10184000CDB7DEB76C01E62E08E010E0FF24F3947C
:1018500061E09F2D9E2109F460E0C60149830E944A
:10186000B90BFF0C0150110949810115110581F7D0
:10187000411115C0F894D6011196ED91FC91129783
:1018800091818C918095892381831196ED91FC91B2
:10189000129792818C9180958923828378940F90FE
:1018A000DF91CF911F910F91FF90EF90DF90CF903C
:1018B0000895EF92FF920F931F93CF93DF938C01C4
:1018C000C8E0D0E0F12CEE24E394C8010E94EC0BB8
:1018D0008111FE28EE0C2197C1F78F2DDF91CF915A
:1018E0001F910F91FF90EF900895CF92DF92FF929A
:1018F0000F931F93CF93DF931F92CDB7DEB78C0169
:10190000F62E40E065E579830E94170CCF2C798193
:10191000D72E88E0F82EF60161916F0140E0C801F2
:101920000E94170CFA94B9F70F90DF91CF911F9195
:101930000F91FF90DF90CF90089540E06CEC0C94F5
:10194000170CFC0113861586148627E030E0DF01B2
:10195000A20FB31F13961C922115310519F02150C7
:101960003109F5CF08951F93CF93DF93EC01162F24
:1019700060E0812F0E944E15612F70E0FB01E4585A
:10198000FE4FE491E883FB01E057FE4FE491F0E065
:10199000EE0FFF1FEC55FE4F859194919A8389833A
:1019A000CE01DF91CF911F910C94A10CAF92BF9209
:1019B000CF92DF92EF92FF920F931F93CF93DF931B
:1019C0001F92CDB7DEB75C01E62ED72EFC018585D0
:1019D00081115DC0C5010E947A0B811105C0F5011E
:1019E0001386158614866EC040E060EFC5010E9424
:1019F000170C01E0F12CC12C11E0C5010E94EC0B89
:101A0000682FC50169830E94EC0B6981613019F46C
:101A10008130B9F433C02F2D30E068131BC0F501BD
:101A20008385181730F4E20FF31F8381802349F474
:101A300002C0181731F060E0193058F4F50114872E
:101A400008C0F501EF0DF11D8381802B838361E0D8
:101A500009C0C12EF501E20FF31F8381902F9095ED
:101A600089238383C5010E94B90B1F5F000F11F406
:101A7000F39401E0F7E0FF1508F0BFCF113438F020
:101A8000F501C386C11018C081E0858715C0F50136
:101A900013861586148680E0EE2DFD2D20E030E0C3
:101AA000D501A20FB31F13969C9191932F5F3F4FC7
:101AB00028303105A9F706C0F5018381882339F361
:101AC00081E0EACF0F90DF91CF911F910F91FF90AE
:101AD000EF90DF90CF90BF90AF900895DC0180E051
:101AE000615038F0ED91E827F0E0E859FF4F84911C
:101AF000F7CF08958091920290E020919302821B8B
:101B0000910908952091930280919202281750F430
:101B1000E22FF0E0EC56FD4F808190E02F5F2093A4
:101B2000930208958FEF9FEF0895E09193028091C3
:101B30009202E81730F4F0E0EC56FD4F808190E01F
:101B400008958FEF9FEF08950895CF92DF92EF925F
:101B5000FF920F931F93CF93DF937C01CB018A01F8
:101B600020916E02222389F0EB016B01C40ED51E79
:101B7000CC15DD0569F06991D701ED91FC910190DB
:101B8000F081E02DC7010995F3CF642F0E94B00EBC
:101B9000C801DF91CF911F910F91FF90EF90DF90DF
:101BA000CF900895CF93DF931F92CDB7DEB76983AF
:101BB00020916E022223D1F020916F02203240F05A
:101BC00021E030E0FC013383228380E090E015C007
:101BD00080917002E82FF0E0EF58FD4F99819083DB
:101BE0008F5F8093700280936F0205C061E0CE0129
:101BF00001960E94B00E81E090E00F90DF91CF91AE
:101C00000895FC011382128248EE53E060E070E018
:101C100044835583668377838AEB91E09183808345
:101C200008951092930210929202109270021092F4
:101C30006F020C943F0E81E080936E0260939102DC
:101C40001092700210926F0208950F93062F21E0F8
:101C500040916F0261E772E0809191020E945D0EF7
:101C60001092700210926F0210926E020F910895FE
:101C700061E00C94250E82E692E00C94010E109225
:101C8000210381E080931F0310921E0361E082E133
:101C90000E94871561E083E10E948715E9EBF0E07F
:101CA00080818E7F808380818D7F808388E4809394
:101CB000B80085E48093BC0008950F93413208F08A
:101CC00046C0909121039111FCCF92E090932103A3
:101CD00000931F039FEF9093B4021092F902409378
:101CE000F802FB016AEF72E0DB019A2F961B941752
:101CF00018F491919D93F9CF1092200390912003B5
:101D0000880F892B8093200380911E03813041F43A
:101D100010921E03809120038093BB0085EC01C0CC
:101D200085EE8093BC00222321F080912103823034
:101D3000E1F38091B4028F3F61F08091B402803270
:101D400051F08091B402803341F483E007C081E018
:101D500005C080E003C082E001C084E00F910895D7
:101D6000613298F420912103243089F46093D602E3
:101D7000FC0188ED92E0DC012A2F281B261718F4BD
:101D800021912D93F9CF80E0089581E0089582E0BC
:101D9000089585ED8093BC008091BC0084FDFCCF4C
:101DA00010922103089585EC8093BC0010922103CA
:101DB00008951F920F920FB60F9211242F933F9305
:101DC0004F935F936F937F938F939F93AF93BF9343
:101DD000EF93FF938091B900887F803609F49CC00F
:101DE00068F5883209F45BC090F4803109F454C07E
:101DF00038F4882309F4F5C0883009F44DC0F5C0E3
:101E0000883109F44CC0803209F45DC0EEC08034E2
:101E100009F468C048F4803309F455C0883309F0E8
:101E2000E4C08093B402A8C0803509F44FC088355F
:101E300009F45DC0883409F0D8C0D5C0883909F4E8
:101E4000C6C0A8F4883709F467C038F4883609F4A6
:101E500063C0803709F460C0C8C0883809F4B7C0CF
:101E6000803909F45FC0803809F0BFC05BC0803B97
:101E700009F485C038F4803A09F466C0883A09F458
:101E80007EC0B3C0803C09F4A6C0883C09F4A3C05E
:101E9000883B09F489C0A9C08091200310C09091AB
:101EA000F9028091F802981770F5E091F90281E04B
:101EB0008E0F8093F902F0E0E650FD4F8081809311
:101EC000BB0085EC85C08093B4028DC0E091F9021F
:101ED00081E08E0F8093F9028091BB00F0E0E65024
:101EE000FD4F80839091F9028091F8026DC0E091DE
:101EF000F90281E08E0F8093F9028091BB00F0E03F
:101F0000E650FD4F808380911F0381116CC081E0FA
:101F100080931E0384EA60C083E0809321031092C3
:101F2000B502CFCF8091B502803208F050C0E09169
:101F3000B50281E08E0F8093B5028091BB00F0E086
:101F4000EA54FD4F8083BDCF8091B502803230F4DA
:101F5000E091B502F0E0EA54FD4F10820E94C90EF4
:101F60006091B50270E0E0911A03F0911B0386EBDB
:101F700092E009951092B5020E94D30E36C084E01B
:101F8000809321031092D7021092D602E0911C0395
:101F9000F0911D0309958091D602811105C081E061
:101FA0008093D6021092D802E091D70281E08E0F82
:101FB0008093D702F0E0E852FD4F80818093BB0010
:101FC0009091D7028091D602981708F47ACF85E8CD
:101FD0008093BC000AC085EC8093BC001092210362
:101FE00004C01092B4020E94C90EFF91EF91BF91FC
:101FF000AF919F918F917F916F915F914F913F91A1
:102000002F910F900FBE0F901F901895FC01138217
:1020100012828AEC91E091838083648341872287D6
:10202000138608951F93CF93DF93EC01162F6C81D5
:1020300082E692E00E941B0EE0916202F091630240
:102040006B85612B0190F081E02D82E692E009958D
:1020500082E692E0DF91CF911F910C94380E28E038
:10206000FC01238760E00C9412101F93CF93DF9341
:10207000EC01162F64600E94121081E090E00E9433
:10208000E014612F6B7FCE010E94121082E390E07A
:10209000DF91CF911F910C94E0141F93CF93DF93A6
:1020A000EC01162F0E941210612FCE01DF91CF910B
:1020B0001F910C943510EF92FF921F93CF93DF93F3
:1020C0001F92CDB7DEB77C01162F607F642B49834A
:1020D0000E944D1080E1189FB00111244981642BAA
:1020E000C7010F90DF91CF911F91FF90EF900C945B
:1020F0004D1041E00E945B1080E090E0089540E0C8
:102100000C945B1061E00E947F1080ED97E00C94CE
:10211000E01462E00E947F1080ED97E00C94E014E0
:10212000CF93DF93CDB7DEB728970FB6F894DEBF15
:102130000FBECDBF28E0EEE0F1E0DE011196019088
:102140000D922A95E1F7FC012085241710F44FEF3A
:10215000420FFE013196E40FF11DE40FF11D2081C5
:10216000260F2068622F28960FB6F894DEBF0FBEA8
:10217000CDBFDF91CF910C947F10FC016681262F9B
:10218000246026836C600C947F10CF93DF93EC0166
:10219000423018F08D8188608D834887222329F092
:1021A000413019F48D8184608D8362E370E080E0BA
:1021B00090E00E94B8146B85CE010E94121068EE68
:1021C00073E080E090E00E94B81460E3CE010E94CA
:1021D0004D1084E991E10E94E01460E3CE010E9479
:1021E0004D1084E991E10E94E01460E3CE010E9469
:1021F0004D1086E990E00E94E01460E2CE010E945A
:102200004D106D816062CE010E947F1084E08E834C
:10221000CE010E94BD10CE010E94821082E08F8309
:1022200066E0CE010E947F10CE01DF91CF910C9429
:102230008910CF93DF93EC0182E692E00E94110EA9
:102240001D8220E04A856985CE01DF91CF910C94F3
:10225000C5100C9419110895FC018BE291E1928B49
:10226000818B768365831482108289E0818381E08B
:10227000828383830895CF93DF93EB0167E0CE01E0
:102280000E946E0D91E02F81821390E0892FDF91E3
:10229000CF910895EF92FF920F931F93CF93DF9307
:1022A000EC018B01E42E8D819E810E94A10CF12C0A
:1022B000B8018D819E810E94D60C882359F0FE10B2
:1022C00006C0B801CE010E943B11811104C0F394F5
:1022D000EF1470F780E0DF91CF911F910F91FF9085
:1022E000EF900895EF92FF920F931F93CF93DF9398
:1022F00000D0CDB7DEB77C018A01FC0185819681D3
:1023000069837A830E947A0B69817A81F7018581DA
:1023100096810E94750C40E06EEBF70185819681F5
:102320000E94170CF701858196810E94590CF801D3
:102330008083F701858196810E94590CF801818381
:10234000F701858196810E94590CF8018283F7017B
:10235000858196810E94590CF8018383F70185815C
:1023600096810E94590CF8018483F701858196813A
:102370000E94590CF8018583F701858196810E949E
:10238000590CF8018683F701858196810E94590CCA
:10239000F8018783F701858196810E94590CF80125
:1023A0008087F701858196810F900F90DF91CF9103
:1023B0001F910F91FF90EF900C947A0BCF93DF93C6
:1023C000EA010E94721168E0CE010E946E0D91E058
:1023D0002885821390E0892FDF91CF910895EF92A5
:1023E000FF921F93CF93DF9300D0CDB7DEB77C0170
:1023F000FC018581968169837A830E947A0B6981C9
:102400007A81F701858196810E94750C40E064EB2A
:10241000F701858196810E94170CF70185819681CD
:102420000E94EC0B182FF701858196810E947A0B90
:1024300081E0111180E00F900F90DF91CF911F91FB
:10244000FF90EF900895CF93DF93CDB7DEB7299734
:102450000FB6F894DEBF0FBECDBFFB012081203147
:10246000D1F0AE014F5F5F4F0E94DE11882379F0FB
:102470008D818F3351F018F48F3169F008C08F359A
:1024800041F08F3721F48CE007C08AE005C080E07E
:1024900003C08BE001C089E029960FB6F894DEBF37
:1024A0000FBECDBFDF91CF910895EF92FF920F93B2
:1024B0001F93CF93DF93CDB7DEB761970FB6F89434
:1024C000DEBF0FBECDBF8C01FC01858196810E94CD
:1024D000A10CF8011482FF24F394BE01665F7F4FC4
:1024E000F801858196810E94D60C8823C9F1BE012E
:1024F000665F7F4FC8010E943B11882371F3F8018A
:102500008081811108C0BE01665F7F4FC8010E94B3
:10251000EF11811122C0AE014F5F5F4FBE01665FB8
:102520007F4FC8010E947211F801E180BE01665F11
:102530007F4FC8010E9423128E1518F4F801818183
:1025400006C0BE01665F7F4FC8010E942312F801DA
:10255000818384818F5F8483C0CFF801F082DBCFD9
:1025600061960FB6F894DEBF0FBECDBFDF91CF915D
:102570001F910F91FF90EF900895CF93DF93CDB708
:10258000DEB729970FB6F894DEBF0FBECDBFAE0100
:102590004F5F5F4F0E94721181E09981911101C0DC
:1025A00080E029960FB6F894DEBF0FBECDBFDF9155
:1025B000CF910895CF92DF92EF92FF920F931F93E6
:1025C000CF93DF93EC018B01452BE1F08B818823C6
:1025D000C9F08881811116C00E9489146B017C01A9
:1025E00060E070E0CE010E94BD1281110BC00E941C
:1025F00089146C197D098E099F096E3E7240810510
:10260000910570F3F80180818A3049F08B3061F0D8
:10261000893079F46EE570E080E090E00EC06CEBFC
:1026200070E080E090E009C067E771E080E090E052
:1026300004C06EEE72E080E090E0DF91CF911F91D8
:102640000F91FF90EF90DF90CF900C94B814CF9340
:10265000DF93EC018D819E810E947A0B8D819E819A
:102660000E949D0C488164E48D819E810E94170C1C
:102670008A81882351F0BE016F5F7F4F40E050E0B8
:10268000CE01DF91CF910C94DA12DF91CF910895B2
:102690008F929F92AF92BF92CF92DF92EF92FF9272
:1026A0001F93CF93DF93FB01EA01698170E0762FDE
:1026B00066278881682B80818232B1F18832A1F14E
:1026C000803109F078C01F8175956795882777FD5F
:1026D0008095982F0E94481B20E030E040E85EE3A0
:1026E0000E94481A6B017C01612F70E08E81681B8B
:1026F0007109882777FD8095982F0E94481B4B0110
:102700005C01612F70E080E090E00E94461B9B011D
:10271000AC01C501B4010E94AD1A9B01AC01C70117
:10272000B6010E94491A43C08C818F3381F198F41D
:102730008F3109F040C093E0759567959A95E1F760
:10274000882777FD8095982F0E94481B20E030E075
:1027500040E05FE32AC08F3569F08F3761F5882745
:1027600077FD8095982F0E94481B20E030E040E8DC
:102770005DE31BC075956795882777FD8095982F39
:102780000E94481B20E030E040E05EE30EC07595FB
:10279000679575956795882777FD8095982F0E9496
:1027A000481B20E030E040E85EE30E94D41B562F37
:1027B000472F382F292F652F742F832F922FDF91CA
:1027C000CF911F91FF90EF90DF90CF90BF90AF908F
:1027D0009F908F900895EF92FF920F931F93CF9346
:1027E000DF93CDB7DEB729970FB6F894DEBF0FBEE3
:1027F000CDBF8C017B01AE014F5F5F4F0E94DE11A8
:10280000882341F0AE014F5F5F4FB701C8010E94BE
:10281000481304C060E070E08EEF92EC29960FB68A
:10282000F894DEBF0FBECDBFDF91CF911F910F9106
:10283000FF90EF9008950F931F93CF93DF93CDB741
:10284000DEB728970FB6F894DEBF0FBECDBF8C0160
:10285000462FBE016F5F7F4F0E944A11BE016F5F1E
:102860007F4FC8010E94EB1328960FB6F894DEBF85
:102870000FBECDBFDF91CF911F910F9108951F9291
:102880000F920FB60F9211242F933F938F939F9324
:10289000AF93BF938091230390912403A0912503CC
:1028A000B09126033091220323E0230F2D3720F42B
:1028B0000196A11DB11D05C026E8230F0296A11D9A
:1028C000B11D209322038093230390932403A093AC
:1028D0002503B09326038091270390912803A091AC
:1028E0002903B0912A030196A11DB11D80932703EE
:1028F00090932803A0932903B0932A03BF91AF912B
:102900009F918F913F912F910F900FBE0F901F902D
:1029100018952FB7F8946091230370912403809148
:102920002503909126032FBF08953FB7F894809117
:10293000270390912803A0912903B0912A0326B57B
:10294000A89B05C02F3F19F00196A11DB11D3FBFE7
:102950006627782F892F9A2F620F711D811D911D77
:1029600042E0660F771F881F991F4A95D1F7089597
:10297000CF92DF92EF92FF92CF93DF936B017C01B6
:102980000E949514EB01C114D104E104F10489F013
:102990000E94471A0E9495146C1B7D0B683E734081
:1029A00090F381E0C81AD108E108F108C851DC4F62
:1029B000EACFDF91CF91FF90EF90DF90CF90089515
:1029C000019739F0880F991F880F991F0297019777
:1029D000F1F70895789484B5826084BD84B58160F0
:1029E00084BD85B5826085BD85B5816085BDEEE617
:1029F000F0E0808181608083E1E8F0E010828081F6
:102A000082608083808181608083E0E8F0E0808163
:102A100081608083E1EBF0E0808184608083E0EB83
:102A2000F0E0808181608083EAE7F0E0808184606B
:102A300080838081826080838081816080838081C7
:102A4000806880831092C1000895833081F028F45B
:102A5000813099F08230A1F008958730A9F0883054
:102A6000B9F08430D1F4809180008F7D03C08091D3
:102A700080008F7780938000089584B58F7702C09F
:102A800084B58F7D84BD08958091B0008F7703C099
:102A90008091B0008F7D8093B0000895CF93DF9335
:102AA00090E0FC01E458FE4F2491FC01E057FE4FFA
:102AB0008491882349F190E0880F991FFC01E85424
:102AC000FE4FA591B49182559E4FFC01C591D491C2
:102AD0009FB7611108C0F8948C91209582238C9344
:102AE000888182230AC0623051F4F8948C91322F8D
:102AF000309583238C938881822B888304C0F8943B
:102B00008C91822B8C939FBFDF91CF9108950F936F
:102B10001F93CF93DF931F92CDB7DEB7282F30E0FE
:102B2000F901E859FE4F8491F901E458FE4F1491E0
:102B3000F901E057FE4F04910023C9F0882321F0EA
:102B400069830E9425156981E02FF0E0EE0FFF1FD9
:102B5000E255FE4FA591B4919FB7F8948C91611105
:102B600003C01095812301C0812B8C939FBF0F90D0
:102B7000DF91CF911F910F910895CF93DF93282F6D
:102B800030E0F901E859FE4F8491F901E458FE4F15
:102B9000D491F901E057FE4FC491CC2391F08111FB
:102BA0000E942515EC2FF0E0EE0FFF1FEC55FE4FB5
:102BB000A591B4912C912D2381E090E021F480E047
:102BC00002C080E090E0DF91CF910895FC01818DFB
:102BD000228D90E0805C9F4F821B91098F73992713
:102BE0000895FC01918D828D981731F0828DE80F48
:102BF000F11D858D90E008958FEF9FEF0895FC0102
:102C0000918D828D981761F0828DDF01A80FB11D23
:102C10005D968C91928D9F5F9F73928F90E0089547
:102C20008FEF9FEF089583E897E1892B49F080E0CB
:102C300090E0892B29F00E94831781110C940000E9
:102C40000895FC01848DDF01A80FB11DA35ABF4F69
:102C50002C91848D90E001968F739927848FA6899B
:102C6000B7892C93A089B1898C9180648C93938DC2
:102C7000848D981306C00288F389E02D80818F7DB2
:102C800080830895CF93DF93EC01888D8823C9F06A
:102C9000EA89FB89808185FD05C0A889B9898C9165
:102CA00086FD0FC00FB607FCF5CF808185FFF2CF00
:102CB000A889B9898C9185FFEDCFCE010E9421169C
:102CC000E7CFDF91CF910895CF92DF92FF920F93DC
:102CD0001F93CF93DF931F92CDB7DEB76C01DC015A
:102CE0005B969C915B975C968C915C97981307C060
:102CF0005096ED91FC915197808185FD32C0F6018F
:102D0000038D10E00F5F1F4F0F731127F02EF60198
:102D1000848DF81211C00FB607FCF9CFD60150967A
:102D2000ED91FC915197808185FFF1CFC6016983B8
:102D30000E9421166981EBCF838DE80FF11DE35AC4
:102D4000FF4F6083D6015B960C935B975296ED9193
:102D5000FC91539780818062808381E058968C93A8
:102D60000DC0D6015696ED91FC9157976083509611
:102D7000ED91FC91519780818064808381E090E0A7
:102D80000F90DF91CF911F910F91FF90DF90CF9027
:102D90000895BF92CF92DF92EF92FF92CF93DF938D
:102DA000EC016A017B01B22EE889F98982E0808317
:102DB000411581EE580761057105A1F060E079E0E9
:102DC0008DE390E0A70196010E944B1C2150310930
:102DD000410951095695479537952795211580E169
:102DE000380798F0E889F989108260E874E88EE184
:102DF00090E0A70196010E944B1C21503109410926
:102E000051095695479537952795EC85FD85308373
:102E1000EE85FF852083188EEC89FD89B082EA89D2
:102E2000FB89808180618083EA89FB898081886059
:102E30008083EA89FB89808180688083EA89FB89B5
:102E400080818F7D8083DF91CF91FF90EF90DF9025
:102E5000CF90BF9008951F920F920FB60F9211243A
:102E60002F938F939F93EF93FF93E0913B03F09108
:102E70003C038081E0914103F091420382FD12C046
:102E80009081809144038F5F8F7320914503821757
:102E900051F0E0914403F0E0E55DFC4F958F8093A5
:102EA000440301C08081FF91EF919F918F912F91F9
:102EB0000F900FBE0F901F9018951F920F920FB694
:102EC0000F9211242F933F934F935F936F937F93B0
:102ED0008F939F93AF93BF93EF93FF938BE293E016
:102EE0000E942116FF91EF91BF91AF919F918F9119
:102EF0007F916F915F914F913F912F910F900FBEF6
:102F00000F901F9018958BE293E00E94E61521E048
:102F1000892B09F420E0822F089510922E0310923D
:102F20002D0388EE93E0A0E0B0E080932F03909310
:102F30003003A0933103B093320382ED91E090937C
:102F40002C0380932B0385EC90E0909338038093BF
:102F5000370384EC90E090933A038093390380EC3C
:102F600090E090933C0380933B0381EC90E090933E
:102F70003E0380933D0382EC90E090934003809366
:102F80003F0386EC90E090934203809341031092BC
:102F9000440310924503109246031092470308958C
:102FA00008950E94EA140E94D0170E940F01C3E105
:102FB000D6E10E941C012097E1F30E941316F9CF7D
:102FC0000C94C81CCF92DF92EF92FF920F931F9345
:102FD000CF93DF936C017A01EB01E60EF71E00E060
:102FE00010E0CE15DF0561F06991D601ED91FC91FD
:102FF0000190F081E02DC6010995080F191FF1CF4E
:10300000C801DF91CF911F910F91FF90EF90DF905A
:10301000CF900895DC01ED91FC91DB0114964D9168
:103020005C9115976D917C910280F381E02D09945C
:103030000F931F93CF93DF93EC010E94891468874D
:1030400079878A879B87E881F9810680F781E02D5F
:10305000CE01099597FF15C00E948914088519852E
:103060002A853B85601B710B820B930B0C811D81A4
:103070002E813F81601771078207930720F38FEF3E
:103080009FEFDF91CF911F910F9108950F931F93A1
:10309000CF93DF93EC018B0168E671E00E94F21898
:1030A000C8010E94181897FD05C0682FCE010E9424
:1030B000B019F6CFCE01DF91CF911F910F910895F6
:1030C000CF93DF9300D000D0CDB7DEB79B01AC012A
:1030D000611571058105910569F069833A834B8318
:1030E0005C830E943E1E29813A814B815C810E9453
:1030F0006D1C03C060E070E0CB010F900F900F904B
:103100000F90DF91CF910895FC01808191810C9403
:10311000601DCF93DF93EC0188819981009711F0B6
:103120000E94601D198218821D821C821B821A82D5
:10313000DF91CF9108950F931F93CF93DF93EC010D
:103140008B016F5F7F4F888199810E944C1E009791
:1031500031F0998388831B830A8381E001C080E07A
:10316000DF91CF911F910F910895CF93DF93EC01E1
:1031700088819981892B29F08A819B8186179707FD
:1031800060F4CE010E949B18882341F08C819D81C0
:10319000892B19F4E881F981108281E0DF91CF91C8
:1031A0000895EF92FF920F931F93CF93DF93EC015B
:1031B0007B018A01BA010E94B518811104C0CE01B9
:1031C0000E94891807C01D830C83B70188819981EB
:1031D0000E944F1FCE01DF91CF911F910F91FF9061
:1031E000EF900895FC0111821082138212821582E1
:1031F00014826115710559F0FB0101900020E9F777
:10320000AF0141505109461B570B0C94D11808953A
:10321000CF93DF93EC01FB018617970761F0608184
:1032200071816115710529F0448155810E94D11881
:1032300002C00E948918CE01DF91CF910895FC0150
:103240001182108213821282158214820C94081942
:10325000CF93DF93EC016115710561F0FB010190E3
:103260000020E9F7AF0141505109461B570B0E945E
:10327000D11802C00E948918CE01DF91CF91089524
:10328000CF93DF9300D0CDB7DEB7FC01118210825F
:10329000138212821582148269831A82BE016F5FC3
:1032A0007F4F0E9428190F900F90DF91CF910895C2
:1032B0000F931F93CF93DF93CDB7DEB762970FB60F
:1032C000F894DEBF0FBECDBF8C01CB01F801118297
:1032D0001082138212821582148250E0BE016F5F49
:1032E0007F4F0E94701FBE016F5F7F4FC8010E9419
:1032F000281962960FB6F894DEBF0FBECDBFDF91DE
:10330000CF911F910F910895EF92FF920F931F930A
:10331000CF93DF93EC017B010C811D816115710559
:1033200011F480E016C04115510591F0040F151FEE
:10333000B8010E94B5188823A1F3288139818C81B6
:103340009D81B701820F931F0E944F1F1D830C8325
:1033500081E0DF91CF911F910F91FF90EF90089541
:10336000CF93DF9300D0CDB7DEB769831A8241E0F7
:1033700050E0BE016F5F7F4F0E9484190F900F9045
:10338000DF91CF910895FC0124813581232B31F405
:1033900021E061157105A1F0FB0108C0FC018081ED
:1033A00091816115710531F421E0FC018081882350
:1033B00039F005C00E94461F21E0892B09F020E06A
:1033C000822F0895CF93DF93FC0184819581481764
:1033D000590778F4C081D181FB0160817181CE01F0
:1033E000840F951F0E94561F009719F08C1B9D0B90
:1033F00002C08FEF9FEFDF91CF91089540E050E042
:103400000C94E219BF92CF92DF92EF92FF920F934A
:103410001F93CF93DF936C017B01EA01890124178D
:10342000350720F48D2FE901042F182F68E671E08D
:10343000C6010E94F218D70114968D919C911597A0
:10344000C817D907C8F48017910708F48C01D70171
:10345000ED91FC911197E00FF11FB08010826D91FA
:103460007C916C0F7D1FC6010E942819D701ED9138
:10347000FC91E00FF11FB082C601DF91CF911F9147
:103480000F91FF90EF90DF90CF90BF900895089537
:103490005058BB27AA270ED04DC13ED130F043D1A2
:1034A00020F031F49F3F11F41EF433C10EF4E09587
:1034B000E7FB29C1E92F4FD180F3BA1762077307E1
:1034C0008407950718F071F49EF567C10EF4E09536
:1034D0000B2EBA2FA02D0B01B90190010C01CA01CE
:1034E000A0011124FF27591B99F0593F50F4503E79
:1034F00068F11A16F040A22F232F342F4427585F6B
:10350000F3CF469537952795A795F0405395C9F782
:103510007EF41F16BA0B620B730B840BBAF091503A
:10352000A1F0FF0FBB1F661F771F881FC2F70EC0D9
:10353000BA0F621F731F841F48F4879577956795AC
:10354000B795F7959E3F08F0B3CF9395880F08F095
:103550009927EE0F9795879508950CD0EBC0E3D08F
:1035600040F0DAD030F021F45F3F19F0CCC05111B7
:1035700015C1CFC0F0D098F39923C9F35523B1F307
:10358000951B550BBB27AA2762177307840738F0D2
:103590009F5F5F4F220F331F441FAA1FA9F333D031
:1035A0000E2E3AF0E0E830D091505040E695001CE5
:1035B000CAF729D0FE2F27D0660F771F881FBB1FA1
:1035C000261737074807AB07B0E809F0BB0B802D7B
:1035D000BF01FF2793585F4F2AF09E3F510568F0C7
:1035E00092C0DCC05F3FECF3983EDCF386957795A4
:1035F0006795B795F7959F5FC9F7880F911D9695C9
:10360000879597F90895E1E0660F771F881FBB1F24
:10361000621773078407BA0720F0621B730B840BD1
:10362000BA0BEE1F88F7E095089504D06894B111A5
:10363000B5C0089598D088F09F5790F0B92F99277A
:10364000B751A0F0D1F0660F771F881F991F1AF0AD
:10365000BA95C9F712C0B13081F09FD0B1E008959A
:103660009CC0672F782F8827B85F39F0B93FCCF31B
:10367000869577956795B395D9F73EF490958095A3
:10368000709561957F4F8F4F9F4F0895E89409C0C3
:1036900097FB3EF490958095709561957F4F8F4F85
:1036A0009F4F9923A9F0F92F96E9BB279395F6959B
:1036B000879577956795B795F111F8CFFAF4BB0F19
:1036C00011F460FF1BC06F5F7F4F8F4F9F4F16C07D
:1036D000882311F096E911C0772321F09EE8872F07
:1036E000762F05C0662371F096E8862F70E060E0C3
:1036F0002AF09A95660F771F881FDAF7880F96953C
:10370000879597F9089597F99F6780E870E060E0E2
:1037100008959FEF80EC089500240A94161617066A
:1037200018060906089500240A94121613061406B2
:1037300005060895092E0394000C11F4882352F015
:10374000BB0F40F4BF2B11F460FF04C06F5F7F4FCD
:103750008F4F9F4F089557FD9058440F551F59F0B4
:103760005F3F71F04795880F97FB991F61F09F3F6E
:1037700079F087950895121613061406551FF2CF97
:103780004695F1DF08C0161617061806991FF1CFE7
:1037900086957105610508940895E894BB2766270E
:1037A0007727CB0197F908950BD0C4CFB5DF28F068
:1037B000BADF18F0952309F0A6CFABCF1124EECFD6
:1037C000CADFA0F3959FD1F3950F50E0551F629F7C
:1037D000F001729FBB27F00DB11D639FAA27F00D6A
:1037E000B11DAA1F649F6627B00DA11D661F829F91
:1037F0002227B00DA11D621F739FB00DA11D621F76
:10380000839FA00D611D221F749F3327A00D611D92
:10381000231F849F600D211D822F762F6A2F112474
:103820009F5750408AF0E1F088234AF0EE0FFF1FC7
:10383000BB1F661F771F881F91505040A9F79E3FFE
:10384000510570F060CFAACF5F3FECF3983EDCF3F8
:10385000869577956795B795F795E7959F5FC1F73B
:10386000FE2B880F911D9695879597F9089597FBE4
:10387000072E16F4009407D077FD09D00E94AE1CE5
:1038800007FC05D03EF4909581959F4F0895709563
:1038900061957F4F0895A1E21A2EAA1BBB1BFD0163
:1038A0000DC0AA1FBB1FEE1FFF1FA217B307E4071F
:1038B000F50720F0A21BB30BE40BF50B661F771F77
:1038C000881F991F1A9469F7609570958095909557
:1038D0009B01AC01BD01CF010895052E97FB1EF49D
:1038E00000940E94841C57FD07D00E944B1C07FCCB
:1038F00003D04EF40C94841C50954095309521953E
:103900003F4F4F4F5F4F089590958095709561950B
:103910007F4F8F4F9F4F0895A29FB001B39FC0016B
:10392000A39F700D811D1124911DB29F700D811DEB
:103930001124911D08950E948C1CA59F900DB49F89
:10394000900DA49F800D911D11240895B7FF0C9434
:103950009B1C0E949B1C821B930B0895AA1BBB1BE4
:1039600051E107C0AA1FBB1FA617B70710F0A61B7F
:10397000B70B881F991F5A95A9F780959095BC01A0
:10398000CD010895EE0FFF1F0590F491E02D0994ED
:10399000CF93DF938230910510F482E090E0E091C4
:1039A000CA03F091CB0320E030E0A0E0B0E0309714
:1039B00039F14081518148175907B8F04817590724
:1039C00071F482819381109729F013969C938E93C2
:1039D00012972CC09093CB038093CA0327C0211564
:1039E000310531F04217530718F0A901DB0101C07E
:1039F000EF019A01BD01DF010280F381E02DD7CFF5
:103A000021153105F9F0281B390B2430310580F4DC
:103A10008A819B816115710521F0FB01938382836B
:103A200004C09093CB038093CA03FE01329644C036
:103A3000FE01E20FF31F81939193225031093983E4
:103A400028833AC02091C8033091C903232B41F445
:103A500020910201309103013093C9032093C803E0
:103A600020910001309101012115310541F42DB75C
:103A70003EB74091040150910501241B350BE091A4
:103A8000C803F091C903E217F307A0F42E1B3F0B04
:103A90002817390778F0AC014E5F5F4F24173507C0
:103AA00048F04E0F5F1F5093C9034093C8038193A2
:103AB000919302C0E0E0F0E0CF01DF91CF91089553
:103AC000CF93DF93009709F487C0FC0132971382EC
:103AD0001282C091CA03D091CB03209781F4208138
:103AE0003181280F391F8091C8039091C903821733
:103AF000930779F5F093C903E093C8036DC0DE0125
:103B000020E030E0AE17BF0750F412964D915C9163
:103B100013979D014115510509F1DA01F3CFB383E4
:103B2000A28340815181840F951F8A179B0771F4EE
:103B30008D919C911197840F951F0296918380839C
:103B400012968D919C911397938382832115310551
:103B500029F4F093CB03E093CA033EC0D901139636
:103B6000FC93EE9312974D915D91A40FB51FEA1748
:103B7000FB0779F480819181840F951F0296D9010A
:103B800011969C938E938281938113969C938E932E
:103B90001297E0E0F0E08A819B81009719F0FE0126
:103BA000EC01F9CFCE01029628813981820F931F53
:103BB0002091C8033091C9032817390769F4309759
:103BC00029F41092CB031092CA0302C0138212820E
:103BD000D093C903C093C803DF91CF9108958F920A
:103BE0009F92AF92BF92CF92DF92EF92FF92CF93CC
:103BF000DF93EC01688179818A819B816115710570
:103C00008105910521F464E279ED8BE597E02DE1E2
:103C100033EF41E050E00E946D1C49015A019B01C5
:103C2000AC01A7EAB1E40E949B1C6B017C01ACEEE5
:103C3000B4EFA50194010E94A91CC60ED71EE81E70
:103C4000F91EF7FE06C081E0C81AD108E10880E835
:103C5000F80AC882D982EA82FB82C701B6019F773F
:103C6000DF91CF91FF90EF90DF90CF90BF90AF901A
:103C70009F908F9008950E94EF1D089586E091E037
:103C80000E94EF1D089560930601709307018093D1
:103C90000801909309010895A0E0B0E0E2E5FEE19B
:103CA0000C94C91FEC01CB01209719F40E94C81C89
:103CB000B8C0FE01E60FF71F9E0122503109E2173E
:103CC000F30708F4ACC0D9010D911C9111970617A8
:103CD0001707B8F00530110508F49FC0A80144503B
:103CE00051094617570708F498C002501109061BDE
:103CF000170B019311936D937C93CF010E94601D6C
:103D00008CC05B01A01AB10A4E01800E911EA091D9
:103D1000CA03B091CB03612C712C60E070E0109766
:103D200009F449C0A815B905C9F5ED90FC901197A3
:103D3000670142E0C40ED11CCA14DB0478F14701CC
:103D40008A189B08640142E0C40ED11C1296BC90F4
:103D500012971396AC91B5E0CB16D10440F0B28225
:103D6000A38391828082D9018D939C9309C00E5FB9
:103D70001F4F0E0D1F1DF90111830083EB2DFA2F2C
:103D80006115710531F0DB011396FC93EE931297E8
:103D900044C0F093CB03E093CA033FC06D917C9184
:103DA00011976616770608F43B01BD0112960D9037
:103DB000BC91A02DB4CF6091C8037091C903681560
:103DC0007905E9F468167906D0F440910001509124
:103DD00001014115510541F44DB75EB760910401F1
:103DE00070910501461B570BE417F507C0F4F093DB
:103DF000C903E093C803F901918380830EC00E9438
:103E0000C81C7C01009759F0A801BE010E943D1F0B
:103E1000CE010E94601DC70104C0CE0102C080E037
:103E200090E0CDB7DEB7EEE00C94E51F1F93FC01E8
:103E300099278827BC01E89411911032E9F31930D1
:103E400010F01E30C8F31B3251F01D3249F4689453
:103E500006C00E94861F610F711D811D911D119169
:103E600010531A30B0F33EF490958095709561959B
:103E70007F4F8F4F9F4F1F910895FB01DC0102C0C0
:103E800001900D9241505040D8F70895FB01DC019C
:103E90008D91019080190110D9F3990B0895FB01C0
:103EA000DC0101900D920020E1F70895FB01519192
:103EB0005523A9F0BF01DC014D9145174111E1F7F0
:103EC00059F4CD010190002049F04D914015411168
:103ED000C9F3FB014111EFCF81E090E00197089514
:103EE0004532510520F4423010F00C947B1FFB0149
:103EF0001082CB010895BB274A3031F4992322F474
:103F0000BDE2909581959F4F0C949C1F592F482F8F
:103F1000372F262F660F771F881F991F660F771F71
:103F2000881F991F620F731F841F951F660F771FCD
:103F3000881F991F0895BB27FB015527AA27880FC3
:103F4000991FAA1FA41710F0A41B83955051B9F70D
:103F5000A05DAA3308F0A95DA193009779F7B1118C
:103F6000B1931192CB010C94B51FDC01FC01672FBA
:103F700071917723E1F7329704C07C916D93708340
:103F80006291AE17BF07C8F308952F923F924F92E8
:103F90005F926F927F928F929F92AF92BF92CF92D9
:103FA000DF92EF92FF920F931F93CF93DF93CDB7E2
:103FB000DEB7CA1BDB0B0FB6F894DEBF0FBECDBF5A
:103FC00009942A88398848885F846E847D848C842B
:103FD0009B84AA84B984C884DF80EE80FD800C8134
:103FE0001B81AA81B981CE0FD11D0FB6F894DEBF17
:103FF0000FBECDBFED01089511E0C8ECD1E004C0C3
:10400000FE010E94C41C2296CA3CD107C9F7F8944D
:02401000FFCFE0
:104012000000CC038000010000002C010000000021
:1040220040001400540057616974696E6720666F1E
:10403200722070726F6772616D00546F74616C747C
:104042003A006D696E20002073656B00416B7475D8
:10405200656C6C743A00432000537465672000203D
:104062006D696E002020202020202020202020208A
:104072002020202020202020002C00506175736514
:104082006420202020202020202020202020004DDD
:10409200617368736368656D65642075706C6F61C8
:1040A200646564004661696C0043757272656E7482
:1040B2002074656D703A200043001F1C1F1E1F1ED6
:1040C2001F1F1E1F1E1F00000000D20DA50D7A0D1E
:1040D200820D950DA40D000000007910E21700007A
:0E40E20000006416E217E615FF15F1154216F0
:00000001FF
