:100000000C94E5000C940D010C940D010C940D0161
:100010000C940D010C940D010C940D010C940D0128
:100020000C940D010C940D010C940D010C940D0118
:100030000C940D010C940D010C940D010C940D0108
:100040000C94F7140C940D010C94E3170C941518F0
:100050000C940D010C940D010C940D010C940D01E8
:100060000C94910F0C940D01005EBCE2613FDD83A6
:10007000C29C7E20A3FD1F419DC3217FFCA2401E88
:100080005F01E3BD3E6082DC237D9FC1421CFEA078
:10009000E1BF5D0380DE3C62BEE0025CDF81633D68
:1000A0007C22C09E1D43A1FF4618FAA427799BC558
:1000B00084DA3866E5BB5907DB856739BAE4065848
:1000C0001947A5FB7826C49A653BD987045AB8E638
:1000D000A7F91B45C6987A24F8A6441A99C7257B28
:1000E0003A6486D85B05E7B98CD2306EEDB3510F18
:1000F0004E10F2AC2F7193CD114FADF3702ECC9208
:10010000D38D6F31B2EC0E50AFF1134DCE90722CF7
:100110006D33D18F0C52B0EE326C8ED0530DEFB1E7
:10012000F0AE4C1291CF2D73CA947628ABF51749D7
:100130000856B4EA6937D58B5709EBB536688AD4C7
:1001400095CB2977F4AA4816E9B7550B88D6346AB7
:100150002B7597C94A14F6A8742AC896154BA9F7A7
:10016000B6E80A54D7896B35000000080002010088
:100170000003040700000000000000000102040862
:100180001020408001020408102001020408102001
:10019000040404040404040402020202020203032D
:1001A00003030303000000002300260029000000D1
:1001B0000000250028002B0000000000240027007C
:1001C0002A002001F30E45183B0111241FBECFEF7A
:1001D000D8E0DEBFCDBF11E0A0E0B1E0E2EBF1E49A
:1001E00002C005900D92A23EB107D9F723E0A2EE1E
:1001F000B1E001C01D92AC3CB207E1F711E0C8ECE0
:10020000D1E004C02297FE010E94941DC23CD10798
:10021000C9F70E9489180C94CC200C94000026E0A9
:1002200040E855E260E070E08BE293E00E948117C5
:1002300082EE91E00C94790382EE91E00C945407E5
:1002400082EE91E00E943F016EE08FEE91E00E940D
:100250006B0D6FEE71E08DEF91E00E94E4116BEA9F
:1002600071E086E192E00E94C21981E080933B0236
:1002700080933C02089586E192E00C94541924E0A6
:1002800044E167E20C94BE100F931F93CF93DF936A
:10029000EC018B01622F0E944811B801CE01DF9161
:1002A000CF911F910F910C94D818CF93DF93EC014D
:1002B0000E94E111CE010E94E71040E060E0CE0113
:1002C0000E944811CE010E943A1166E171E0CE0110
:1002D000DF91CF910C94E618DF92EF92FF920F938B
:1002E0001F93CF93DF9300D000D000D0CDB7DEB7FF
:1002F0008C01D62E7A01462F60E00E9448116AE2F6
:1003000071E0C8010E94E6184D2D69E0C8010E9405
:1003100048114AE0B701CE0101960E94281ABE0199
:100320006F5F7F4FC8010E94D818CE0101960E94CE
:1003300054194D2D6BE0C8010E9448116FEDCE019C
:1003400001960E94101ABE016F5F7F4FC8010E9484
:10035000D818CE0101960E9454194D2D6CE0C801A9
:100360000E94481164E371E0C8010E94E6182696D5
:100370000FB6F894DEBF0FBECDBFDF91CF911F91B6
:100380000F91FF90EF90DF900895CF93DF93EC01F2
:1003900040E060E00E94481166E371E0CE010E94F7
:1003A000E61841E060E0CE010E9448116BE471E084
:1003B000CE01DF91CF910C94E618CF93DF93EC013F
:1003C00041E060E00E94481160E671E0CE01DF91FB
:1003D000CF910C94E618CF92DF92EF92FF920F9399
:1003E0001F93CF93DF9300D000D000D0CDB7DEB7FE
:1003F0008C016A017B0140E060E00E94481165E7E2
:1004000071E0C8010E94E61840E067E0C8010E9460
:100410004811C701B6010E947D0A4AE0BC01CE0125
:1004200001960E94281ABE016F5F7F4FC8010E948B
:10043000D818CE0101960E94541940E06AE0C80124
:100440000E9448116DE771E0C8010E94E61840E083
:100450006EE0C8010E944811C701B6010E94830ADC
:100460004AE0BC01CE0101960E94281ABE016F5FCE
:100470007F4FC8010E94D818CE0101960E945419DE
:1004800040E060E1C8010E94481164E871E0C801E1
:100490000E94E61826960FB6F894DEBF0FBECDBFB9
:1004A000DF91CF911F910F91FF90EF90DF90CF9050
:1004B0000895AF92BF92CF92DF92EF92FF920F9387
:1004C000CF93DF9300D000D000D0CDB7DEB75C0172
:1004D00069017A01AB0161E070E00E946C01C70123
:1004E000B6010E947D0A1816190624F1002309F4AA
:1004F00050C041E06EE0C5010E944811C701B6013D
:100500000E94830A4AE0BC01CE0101960E94281A8B
:10051000BE016F5F7F4FC5010E94D818CE010196C2
:100520000E94541941E060E1C5010E94481164E84D
:1005300071E02CC0002369F141E06FE0C5010E9429
:1005400048116AEA71E0C5010E94E61841E06EE0D8
:10055000C5010E944811C701B6010E947D0A4AE008
:10056000BC01CE0101960E94281ABE016F5F7F4F29
:10057000C5010E94D818CE0101960E94541941E08D
:1005800060E1C5010E94481169E871E0C5010E945F
:10059000E61826960FB6F894DEBF0FBECDBFDF91EA
:1005A000CF910F91FF90EF90DF90CF90BF90AF90E1
:1005B00008959F92AF92BF92CF92DF92EF92FF92F7
:1005C0000F931F93CF93DF9300D000D000D0CDB70F
:1005D000DEB77C01962E6A015901462F60E00E9429
:1005E00048116EE871E0C7010E94E618492D65E0E8
:1005F000C7010E9448114AE0B601CE0101960E944F
:10060000281ABE016F5F7F4FC7010E94D818CE0124
:1006100001960E945419492D66E0C7010E944811B5
:100620006AE771E0C7010E94E618492D68E0C7013A
:100630000E9448114AE0B501CE0101960E94281A95
:10064000BE016F5F7F4FC7010E94D818CE0101968F
:100650000E945419492D6AE0C7010E9448116FEDAC
:10066000CE0101960E94101ABE016F5F7F4FC70135
:100670000E94D818CE0101960E945419492D6BE0B2
:10068000C7010E94481164E971E0C7010E94E618A1
:10069000492D6DE0C7010E9448114AE0B801CE0122
:1006A00001960E94281ABE016F5F7F4FC7010E940A
:1006B000D818CE0101960E945419492D6FE0C70148
:1006C0000E94481169E871E0C7010E94E618269669
:1006D0000FB6F894DEBF0FBECDBFDF91CF911F9153
:1006E0000F91FF90EF90DF90CF90BF90AF909F90D1
:1006F0000895CF93DF93EC014B960E940D1361E0B8
:1007000086E00E94061661E085E00E94061661E020
:1007100084E00E94061661E083E00E94061661E014
:1007200087E00E94061660E08DE00E94061661E0F8
:1007300088E00E94061661E089E00E94061661E0EA
:100740008AE00E94061661E08BE00E94061661E0D6
:100750008CE00E94061660E082E00E940616CE0140
:10076000DF91CF910C9455010F931F93CF93DF939B
:10077000EC014AA95BA961E070E00E946C010E9453
:10078000060C80FD13C08E01055E1F4FC8010E943C
:10079000DF1360E0C8010E94D31420E030E0A9011B
:1007A0000E94191B0E94E51B7BAB6AAB82E00E9492
:1007B0007516892B89F0FE01E55AFF4F81E0808391
:1007C000C35BDF4F688179818A819B81DF91CF9103
:1007D0001F910F910C94440BDF91CF911F910F91BA
:1007E0000895CF92DF92EF92FF920F931F93CF93D2
:1007F000DF93EC0188E00E9475166E0123E4C20EBF
:10080000D11CF6019183808389E00E9475167E01D8
:10081000F5E4EF0EF11CF701918380838AE00E94DA
:1008200075168E01095B1F4FF801918380838BE061
:100830000E947516C75BDF4F99838883F60180811C
:100840009181019711F461E001C060E086E00E94AF
:100850003F16F70180819181019711F461E001C099
:1008600060E085E00E943F16F80180819181019748
:1008700011F461E001C060E084E00E943F168881CD
:100880009981019711F461E001C060E083E0DF919C
:10089000CF911F910F91FF90EF90DF90CF900C942C
:1008A0003F16CF93DF93EC0164E070E080E090E0CE
:1008B0000E94301920E030E0CF5BDF4FE881F98102
:1008C000C901880F991FE80FF91F8081918168176E
:1008D000790749F464E070E080E090E00E9430190C
:1008E00020E030E0EBCF232B19F421E030E0E6CF1D
:1008F000CB01DF91CF9108954F925F926F927F92DB
:100900008F929F92AF92BF92CF92DF92EF92FF921F
:100910000F931F93CF93DF93EC018C01065A1F4F67
:10092000D8018C918823E9F06E01B1E4CB0ED11C83
:10093000F601E080F18064E070E080E090E00E94E9
:100940003019D7016D937C93F601E080F180CE01E0
:100950000E945104D70113969C938E931297F8012D
:10096000108200E010E03E01F3E46F0E711C6E0196
:1009700085E4C80ED11C5E01A7E4AA0EB11C4E018D
:10098000B9E48B0E911C7E01E1E4EE0EF11C88E0CF
:100990000E947516D3018D939C9389E00E94751671
:1009A000F601918380838AE00E947516D5018D93AC
:1009B0009C938BE00E947516F40191838083D30190
:1009C0008D919C91892BD1F4D701ED91FC91E00F91
:1009D000F11F80819181892B89F460E086E00E947B
:1009E0003F16F70140805180400E511ECE010E94FB
:1009F0005104D2018D939C9321E001C020E0F601C7
:100A000080819181892BC9F4D701ED91FC91E00F90
:100A1000F11F80819181019781F460E085E00E945F
:100A20003F16F70140805180400E511ECE010E94BA
:100A30005104D2018D939C9321E0F5018081918135
:100A4000892BC9F4D701ED91FC91E00FF11F808152
:100A50009181029781F460E084E00E943F16F701E3
:100A600040805180400E511ECE010E945104D2019F
:100A70008D939C9321E0F40180819181892BC9F4AD
:100A8000D701ED91FC91E00FF11F808191810397D7
:100A900081F460E083E00E943F16F70140805180BE
:100AA000400E511ECE010E945104D2018D939C93A1
:100AB0006ECF21116CCFD701ED91FC91E00FF11FAA
:100AC000808191818130910571F02CF4892B91F412
:100AD00061E086E00DC08230910541F0039751F44A
:100AE00061E083E005C061E085E002C061E084E090
:100AF0000E943F160E5F1F4F0430110509F047CFCB
:100B0000DF91CF911F910F91FF90EF90DF90CF90E9
:100B1000BF90AF909F908F907F906F905F904F901D
:100B20000895865A9F4F21E0FC01208360E086E013
:100B30000E943F1660E085E00E943F1660E084E07E
:100B40000E943F1660E083E00C943F162F923F9284
:100B50004F925F926F927F928F929F92AF92BF92CD
:100B6000CF92DF92EF92FF920F931F93CF93DF9379
:100B7000CDB7DEB728970FB6F894DEBF0FBECDBF56
:100B80007C010E94750B47012DE4820E911CD4015B
:100B90006D937D938D939C9313973701B1E56B0E05
:100BA000711C1701E5E52E0E311CD1010D911D912F
:100BB0002D913C91DC01CB01801B910BA20BB30B5F
:100BC000F30180839183A283B3830E94060C80FD8E
:100BD00016C08701055E1F4FC8010E94DF1360E049
:100BE000C8010E94D31420E030E0A9010E94191B23
:100BF0000E94E51BD701D3967C936E93D297F401A4
:100C00004081518162817381C7010E94EB016701BC
:100C1000FCE5CF0ED11CD6018C91F701E35AFF4FB2
:100C20005F01D701D2966D917C91D397811124C039
:100C300080819181880F991FDA96ED91FC91DB9765
:100C4000E80FF91F8081918168177907ACF0F401F2
:100C500080819181A281B381F10180839183A283FC
:100C6000B383D3011D921D921D921C92139781E0B4
:100C7000F601808333971082D3012D913D914D91E0
:100C80005C91F6010081C7010E945902D701DA96F2
:100C90008D919C91DB972701BFE54B0E511CD20132
:100CA000ED91FC91EE0FFF1FE80FF91F00811181FC
:100CB000D501ED91FC91EE0FFF1FE80FF91F208188
:100CC00031814701B1E68B0E911CF40140815181C5
:100CD00062E070E0C7010E94D902D4014D915C919D
:100CE000F701ED59FF4FF887EF8380819181481715
:100CF000590704F5D701DA968D919C91DB97D201C3
:100D0000ED91FC913296EE0FFF1FE80FF91F008165
:100D10001181D501ED91FC913296EE0FFF1FE80F86
:100D2000F91F208131814F5F5F4F63E070E0C701A1
:100D30000E94D902F50180819181880F991FD70106
:100D4000DA96ED91FC91DB97E80FF91FD2962D9181
:100D50003C91D397808191812817390744F0F6019F
:100D60008081882361F0C7010E9491050BC0D601E4
:100D70008C91882321F0C7010E947C0403C0C70125
:100D80000E94F1038CE00E947516892B11F061E03E
:100D900001C060E087E00E943F16F301608171812D
:100DA000828193810E947D0AD2012D913C91A901FB
:100DB000440F551FD701DA96ED91FC91DB97E40FB4
:100DC000F51F40815181841795070CF454C0F4013C
:100DD00080819181AF81B8854D915C918417950791
:100DE0000CF049C0F6014081442309F444C0019647
:100DF000D4018D939C93F50180819181029691831A
:100E000080832E5F3F4FD2012D933C93F701E75A29
:100E1000FF4F81E08083F6011082D1011D921D9267
:100E20001D921C92139767E971E0CE0101960E9412
:100E3000C21920E030E041E050E0BE016F5F7F4F1B
:100E4000C7010E944401CE0101960E94541967E92E
:100E500071E0CE0101960E94C21920E030E043E02B
:100E600050E0BE016F5F7F4FC7010E944401CE0179
:100E700001960E94541928960FB6F894DEBF0FBE53
:100E8000CDBFDF91CF911F910F91FF90EF90DF9039
:100E9000CF90BF90AF909F908F907F906F905F901A
:100EA0004F903F902F9008958F929F92AF92BF9254
:100EB000CF92DF92EF92FF920F931F93CF93DF9326
:100EC000CDB7DEB7CC54D1090FB6F894DEBF0FBE54
:100ED000CDBF6C016BEA71E0CE01895B9F4F0E9430
:100EE000C219B601645F7F4FCE0101960E94480986
:100EF000BE016F5F7F4FCE01895B9F4F0E94D81963
:100F0000CE0101960E9454196BEA71E0CE01895B13
:100F10009F4F0E94931A8111C7C0AE014F5F5F4F70
:100F20005A0100E010E0460154E3850E911C6BEA83
:100F300071E0CE01895B9F4F0E94931A811166C0B8
:100F40006CEA71E0CE018F5B9F4F0E94C219BE0117
:100F50006F5B7F4FCE01895B9F4F0E94CE1A7C0151
:100F6000CE018F5B9F4F0E945419F7FE08C06BEAB9
:100F700071E0CE01895B9F4F0E94F81947C097012D
:100F800040E050E0BE01695B7F4FCE018F5B9F4F19
:100F90000115110549F40E94D21ABE016F5B7F4F03
:100FA000C4010E94D8190BC00E94D21A23968EAD9C
:100FB0009FAD23970E94E61FF50171836083CE01E8
:100FC0008F5B9F4F0E9454192D962EAD3FAD2D97EC
:100FD000A7014F5F5F4FBE01695B7F4FCE018F5B03
:100FE0009F4F0E94D21ABE016F5B7F4FCE01895B7B
:100FF0009F4F0E94D819CE018F5B9F4F0E945419BA
:101000000F5F1F4FF2E0AF0EB11C91CFC8010297E6
:10101000F60195AF84AFED59FF4F9C0101501109C6
:1010200097FD980135952795318320838138FFE31B
:101030009F0718F4880F991F02C08FEF9FEF0E943F
:101040009818F60182AF93AF20AD31ADF801EE0FE5
:10105000FF1F41E050E04C0F5D1FE40FF51F608162
:101060007181DE0113968C0180E090E0F60144ADC1
:1010700055AD8417950754F401964D915D91F80193
:10108000419351938F01240F351FF0CFC6012617CE
:10109000370731F40E94C50181E0F60186AF04C034
:1010A0000E94DD01F60116AE8601055E1F4FC801E4
:1010B0000E94DF1360E0C8010E94D31420E030E0FA
:1010C000A9010E94191B0E94E51BF60173AB62ABDC
:1010D000AB0162E070E0C6010E946C0182E00E94F8
:1010E00075165C01F601FF9691838083F60186AD4B
:1010F000811119C0CE01895B9F4F0E945419C45BB6
:10110000DF4F0FB6F894DEBF0FBECDBFDF91CF919A
:101110001F910F91FF90EF90DF90CF90BF90AF9015
:101120009F908F900895F1E0AF16B10419F7E12C6C
:10113000F12C00E010E020E030E040E050E060E022
:1011400070E080E090E00E940E0C67E971E0CE0153
:1011500001960E94C21920E030E040E050E0BE015C
:101160006F5F7F4FC6010E944401CE0101960E942D
:10117000541967E971E0CE0101960E94C21920E07E
:1011800030E041E050E0BE016F5F7F4FC6010E943A
:101190004401CE0101960E94541967E971E0CE0125
:1011A00001960E94C21920E030E042E050E0BE010A
:1011B0006F5F7F4FC6010E944401CE0101960E94DD
:1011C0005419F601E35AFF4F118210823296B18210
:1011D000A0823A971082118212821382379610826F
:1011E0003596B182A0828601055A1F4F81E0F80131
:1011F000808384E090E00E949818F601EF5BFF4F37
:1012000091838083F60186AD882309F473CF8DE046
:101210000E947516892B51F1F801108260E087E079
:101220000E943F1660E086E00E943F1660E085E085
:101230000E943F1660E084E00E943F1660E083E079
:101240000E943F1666E371E0CE0101960E94C2192A
:1012500020E030E043E050E0BE016F5F7F4FC60109
:101260000E944401CE0101960E945419F801808128
:10127000882321F0C6010E94A605C4CF8DE00E94FC
:101280007516892B09F0BECFC6010E94B403BACFF0
:101290000F931F93CF93DF9300D000D000D0CDB732
:1012A000DEB78C018BE293E00E949E16892BB9F089
:1012B00064E670E080E090E00E9470156BE273E0FD
:1012C000CE0101960E941619BE016F5F7F4FC801C3
:1012D0000E94EF19CE0101960E94541905C06BEAD5
:1012E00071E0C8010E94C219C80126960FB6F89491
:1012F000DEBF0FBECDBFDF91CF911F910F9108953B
:101300006F927F928F929F92AF92BF92CF92DF9215
:10131000EF92FF920F931F93CF93DF93EA012CE399
:10132000C22ED12CE12CF12CA70196010E941B1D8D
:101330006883CA01B901A70196010E941B1D698338
:10134000CA01B90128E130E040E050E00E941B1DD5
:1013500049015A016A83CA01B9016C5F7F4F8F4FFF
:101360009F4F27E030E040E050E00E941B1D6F5F80
:101370006B8300E010E0980140E054E6652E712C8C
:1013800060E9C62EDD24D394E42FF0E0EE54F84F4C
:101390007F0183E0E822FF24E114F10489F4CF0106
:1013A000B3010E94071D892B29F08EE691E0A0E091
:1013B000B0E00AC0CF01B6010E94071D892BA9F336
:1013C0008DE691E0A0E0B0E0080F191F2A1F3B1F37
:1013D000D901C801AA27BB2788169906AA06BB0609
:1013E00010F04F5FD1CF4E83E114F10499F4CF0197
:1013F00064E670E00E94071D892B29F08EE691E0DB
:10140000A0E0B0E00BC0CF0160E971E00E94071DD1
:10141000892BA1F38DE691E0A0E0B0E0081B190B49
:101420002A0B3B0B801A910AA20AB30ACF0164E689
:1014300070E00E94071D9C01CF0160E971E00E94ED
:10144000071DEEEAF1E0A0E0A13059F4E114F10447
:1014500051F42115310511F04DE106C00097E1F37B
:1014600002C0408101C04CE150E060E070E08416B1
:101470009506A606B70640F0841A950AA60AB70A8A
:10148000AF5F3196AC3001F7AF5FAD8383948C8250
:10149000DF91CF911F910F91FF90EF90DF90CF9050
:1014A000BF90AF909F908F907F906F900895CF9254
:1014B000DF92EF92FF926B017C0180915702909135
:1014C0005802A0915902B0915A02C816D906EA06EC
:1014D000FB0671F04BE552E0C701B6010E9480099E
:1014E000C0925702D0925802E0925902F0925A02EA
:1014F000FF90EF90DF90CF9008950E94570A80915F
:101500005C0290E008950E94570A80915B0290E08F
:1015100008956F927F928F929F92AF92BF92CF92D7
:10152000DF92EF92FF920F931F93CF93DF93FC0113
:10153000C680AC2DB0E020E833E341EE51E00E94DC
:101540006B1D4B015C0122EB37E06D01C4E6D0E07E
:1015500000E911E0C901825B97408C159D05DCF420
:10156000C90183709927892B99F4C901BE010E9492
:10157000071D892B31F4C901B8010E94071D892B71
:1015800039F480E8880E81E5981E81E0A81EB11C20
:101590002F5F3F4FDFCF6580712C8EE4C81A88EF34
:1015A000D80AC60164E670E00E94071D8C01C601DE
:1015B00060E971E00E94071D7C01C1E0D0E083E09A
:1015C000C822DD24C615D7052CF5C230D10589F413
:1015D000C114D10471F40115110519F4E114F104D9
:1015E00041F480E8880E8BE3981E86E2A81EB11CA9
:1015F0000FC0DE01A355BE4FAC91B0E020E831E54D
:1016000041E050E00E946B1D860E971EA81EB91E79
:101610002196D8CF4181228130E0A0E1BEE00E9436
:101620005C1D6B017C01242F30E0ACE3B0E00E9434
:101630005C1DC60ED71EE81EF91E8081C80ED11C87
:10164000E11CF11CA481B0E0119720E831E541E0F4
:1016500050E00E94761DC60ED71EE81EF91EC80C6B
:10166000D91CEA1CFB1CC701B601DF91CF911F9169
:101670000F91FF90EF90DF90CF90BF90AF909F9031
:101680008F907F906F9008950F931F9360935302F4
:1016900070935402809355029093560200910A0170
:1016A00010910B0120910C0130910D01060F171FB5
:1016B000281F391F00934B0210934C0220934D02B8
:1016C00030934E0282E090E090934A028093490268
:1016D0000E94411560934F02709350028093510213
:1016E000909352021F910F910895CF92DF92EF9243
:1016F000FF920F931F930E944115C0904F02D0900C
:101700005002E0905102F09052026C197D098E094E
:101710009F0900915302109154022091550230917B
:101720005602683E734081059105D8F00F5F1F4F48
:101730002F4F3F4F009353021093540220935502B2
:101740003093560248EEC40E43E0D41EE11CF11C57
:10175000C0924F02D0925002E0925102F092520297
:10176000CACF80914B0290914C02A0914D02B09152
:101770004E02081719072A073B07C8F1E0914702F4
:10178000F0914802309799F109956115710581052D
:10179000910519F00E94440B2AC080910A01909192
:1017A0000B01A0910C01B0910D0140915302509199
:1017B00054026091550270915602840F951FA61F26
:1017C000B71F80934B0290934C02A0934D02B093AD
:1017D0004E0281E090E02091490230914A02232B91
:1017E00011F480E090E090934A0280934902609166
:1017F00053027091540280915502909156021F91AC
:101800000F91FF90EF90DF90CF9008950E94750B9D
:101810000E94570A80915B0290E00895EF92FF9238
:101820000F9394E6E916F1042CF092EBE91A97E095
:10183000F90A03C09EE1E90EF11CE09261020093F7
:10184000600220935F0280935D0260935C0240938C
:101850005B028BE592E00E94890A0F91FF90EF9066
:101860000C94440BFF920F931F93CF93DF93FC01D3
:101870000081C181D281F8948981F02EF0948F216A
:10188000898378941DE7115029F182E090E00E944D
:10189000981588818023B9F3F8948A818F218A83EF
:1018A0008981802B8983789480EE91E00E9498153D
:1018B000F89489818F21898386E490E00E949815AD
:1018C0008881802311E009F010E078948AE991E0A2
:1018D0000E949815812FDF91CF911F910F91FF905A
:1018E00008951F93CF93DF93FC011081C181D281B2
:1018F000912F909560FF12C0F8948A8189238A8382
:101900008981812B89838AE090E00E9498158A81E1
:10191000812B8A83789487E390E011C0F8948A81C0
:1019200089238A838981812B898381E490E00E94C5
:1019300098158A81812B8A83789485E090E0DF91E5
:10194000CF911F910C9498150F931F93CF93DF9312
:10195000FC011081C181D281F8948981812B898316
:101960008A81012F009580238A8383E090E00E9482
:1019700098158981802389838AE090E00E949815D8
:10198000C881789485E390E00E9498151C2381E03B
:1019900009F480E0DF91CF911F910F910895CF92CC
:1019A000DF92EF92FF920F931F93CF93DF931F92DB
:1019B000CDB7DEB76C01E62E08E010E0FF24F3940B
:1019C00061E09F2D9E2109F460E0C60149830E94D9
:1019D000710CFF0C0150110949810115110581F7A6
:1019E000411115C0F894D6011196ED91FC91129712
:1019F00091818C918095892381831196ED91FC9141
:101A0000129792818C9180958923828378940F908C
:101A1000DF91CF911F910F91FF90EF90DF90CF90CA
:101A20000895EF92FF920F931F93CF93DF938C0152
:101A3000C8E0D0E0F12CEE24E394C8010E94A40C8D
:101A40008111FE28EE0C2197C1F78F2DDF91CF91E8
:101A50001F910F91FF90EF900895CF92DF92FF9228
:101A60000F931F93CF93DF931F92CDB7DEB78C01F7
:101A7000F62E40E065E579830E94CF0CCF2C79816A
:101A8000D72E88E0F82EF60161916F0140E0C80181
:101A90000E94CF0CFA94B9F70F90DF91CF911F916C
:101AA0000F91FF90DF90CF90089540E06CEC0C9484
:101AB000CF0CFC0113861586148627E030E0DF0189
:101AC000A20FB31F13961C922115310519F0215056
:101AD0003109F5CF08951F93CF93DF93EC01162FB3
:101AE00060E0812F0E940616612F70E0FB01E45830
:101AF000FE4FE491E883FB01E057FE4FE491F0E0F4
:101B0000EE0FFF1FEC55FE4F859194919A838983C8
:101B1000CE01DF91CF911F910C94590DAF92BF92DE
:101B2000CF92DF92EF92FF920F931F93CF93DF93A9
:101B30001F92CDB7DEB75C01E62ED72EFC0185855E
:101B400081115DC0C5010E94320C811105C0F501F3
:101B50001386158614866EC040E060EFC5010E94B2
:101B6000CF0C01E0F12CC12C11E0C5010E94A40CA6
:101B7000682FC50169830E94A40C6981613019F442
:101B80008130B9F433C02F2D30E068131BC0F5014C
:101B90008385181730F4E20FF31F8381802349F403
:101BA00002C0181731F060E0193058F4F5011487BD
:101BB00008C0F501EF0DF11D8381802B838361E067
:101BC00009C0C12EF501E20FF31F8381902F90957C
:101BD00089238383C5010E94710C1F5F000F11F4DC
:101BE000F39401E0F7E0FF1508F0BFCF113438F0AF
:101BF000F501C386C11018C081E0858715C0F501C5
:101C000013861586148680E0EE2DFD2D20E030E051
:101C1000D501A20FB31F13969C9191932F5F3F4F55
:101C200028303105A9F706C0F5018381882339F3EF
:101C300081E0EACF0F90DF91CF911F910F91FF903C
:101C4000EF90DF90CF90BF90AF900895DC0180E0DF
:101C5000615038F0ED91E827F0E0E859FF4F8491AA
:101C6000F7CF08958091920290E020919302821B19
:101C7000910908952091930280919202281750F4BF
:101C8000E22FF0E0EC56FD4F808190E02F5F209333
:101C9000930208958FEF9FEF0895E0919302809152
:101CA0009202E81730F4F0E0EC56FD4F808190E0AE
:101CB00008958FEF9FEF08950895CF92DF92EF92EE
:101CC000FF920F931F93CF93DF937C01CB018A0187
:101CD00020916E02222389F0EB016B01C40ED51E08
:101CE000CC15DD0569F06991D701ED91FC9101906A
:101CF000F081E02DC7010995F3CF642F0E94680F92
:101D0000C801DF91CF911F910F91FF90EF90DF906D
:101D1000CF900895CF93DF931F92CDB7DEB769833D
:101D200020916E022223D1F020916F02203240F0E8
:101D300021E030E0FC013383228380E090E015C095
:101D400080917002E82FF0E0EF58FD4F9981908369
:101D50008F5F8093700280936F0205C061E0CE01B7
:101D600001960E94680F81E090E00F90DF91CF9183
:101D70000895FC011382128248EE53E060E070E0A7
:101D800044835583668377838EEB91E091838083D0
:101D90000895109293021092920210927002109283
:101DA0006F020C94F70E81E080936E0260939102B3
:101DB0001092700210926F0208950F93062F21E087
:101DC00040916F0261E772E0809191020E94150FCD
:101DD0001092700210926F0210926E020F9108958D
:101DE00061E00C94DD0E82E692E00C94B90E109244
:101DF000210381E080931F0310921E0361E082E1C2
:101E00000E943F1661E083E10E943F16E9EBF0E09B
:101E100080818E7F808380818D7F808388E4809322
:101E2000B80085E48093BC0008950F93413208F018
:101E300046C0909121039111FCCF92E09093210331
:101E400000931F039FEF9093B4021092F902409306
:101E5000F802FB016AEF72E0DB019A2F961B9417E0
:101E600018F491919D93F9CF109220039091200343
:101E7000880F892B8093200380911E03813041F4C9
:101E800010921E03809120038093BB0085EC01C05B
:101E900085EE8093BC00222321F0809121038230C3
:101EA000E1F38091B4028F3F61F08091B4028032FF
:101EB00051F08091B402803341F483E007C081E0A7
:101EC00005C080E003C082E001C084E00F91089566
:101ED000613298F420912103243089F46093D60272
:101EE000FC0188ED92E0DC012A2F281B261718F44C
:101EF00021912D93F9CF80E0089581E0089582E04B
:101F0000089585ED8093BC008091BC0084FDFCCFDA
:101F100010922103089585EC8093BC001092210358
:101F200008951F920F920FB60F9211242F933F9393
:101F30004F935F936F937F938F939F93AF93BF93D1
:101F4000EF93FF938091B900887F803609F49CC09D
:101F500068F5883209F45BC090F4803109F454C00C
:101F600038F4882309F4F5C0883009F44DC0F5C071
:101F7000883109F44CC0803209F45DC0EEC0803471
:101F800009F468C048F4803309F455C0883309F077
:101F9000E4C08093B402A8C0803509F44FC08835EE
:101FA00009F45DC0883409F0D8C0D5C0883909F477
:101FB000C6C0A8F4883709F467C038F4883609F435
:101FC00063C0803709F460C0C8C0883809F4B7C05E
:101FD000803909F45FC0803809F0BFC05BC0803B26
:101FE00009F485C038F4803A09F466C0883A09F4E7
:101FF0007EC0B3C0803C09F4A6C0883C09F4A3C0ED
:10200000883B09F489C0A9C08091200310C0909139
:10201000F9028091F802981770F5E091F90281E0D9
:102020008E0F8093F902F0E0E650FD4F808180939F
:10203000BB0085EC85C08093B4028DC0E091F902AD
:1020400081E08E0F8093F9028091BB00F0E0E650B2
:10205000FD4F80839091F9028091F8026DC0E0916C
:10206000F90281E08E0F8093F9028091BB00F0E0CD
:10207000E650FD4F808380911F0381116CC081E089
:1020800080931E0384EA60C083E080932103109252
:10209000B502CFCF8091B502803208F050C0E091F8
:1020A000B50281E08E0F8093B5028091BB00F0E015
:1020B000EA54FD4F8083BDCF8091B502803230F469
:1020C000E091B502F0E0EA54FD4F10820E94810FCA
:1020D0006091B50270E0E0911A03F0911B0386EB6A
:1020E00092E009951092B5020E948B0F36C084E0F1
:1020F000809321031092D7021092D602E0911C0324
:10210000F0911D0309958091D602811105C081E0EF
:102110008093D6021092D802E091D70281E08E0F10
:102120008093D702F0E0E852FD4F80818093BB009E
:102130009091D7028091D602981708F47ACF85E85B
:102140008093BC000AC085EC8093BC0010922103F0
:1021500004C01092B4020E94810FFF91EF91BF91D1
:10216000AF919F918F917F916F915F914F913F912F
:102170002F910F900FBE0F901F901895FC011382A6
:1021800012828EEC91E09183808364834187228761
:10219000138608951F93CF93DF93EC01162F6C8164
:1021A00082E692E00E94D30EE0916202F091630217
:1021B0006B85612B0190F081E02D82E692E009951C
:1021C00082E692E0DF91CF911F910C94F00E28E00F
:1021D000FC01238760E00C94CA101F93CF93DF9318
:1021E000EC01162F64600E94CA1081E090E00E940A
:1021F0009815612F6B7FCE010E94CA1082E390E098
:10220000DF91CF911F910C9498151F93CF93DF937B
:10221000EC01162F0E94CA10612FCE01DF91CF91E1
:102220001F910C94ED10EF92FF921F93CF93DF93C9
:102230001F92CDB7DEB77C01162F607F642B4983D8
:102240000E94051180E1189FB00111244981642B7F
:10225000C7010F90DF91CF911F91FF90EF900C94E9
:10226000051141E00E94131180E090E0089540E0E4
:102270000C94131161E00E94371180ED97E00C94EB
:10228000981562E00E94371180ED97E00C94981544
:10229000CF93DF93CDB7DEB728970FB6F894DEBFA4
:1022A0000FBECDBF28E0EEE0F1E0DE011196019017
:1022B0000D922A95E1F7FC012085241710F44FEFC9
:1022C000420FFE013196E40FF11DE40FF11D208154
:1022D000260F2068622F28960FB6F894DEBF0FBE37
:1022E000CDBFDF91CF910C943711FC016681262F71
:1022F000246026836C600C943711CF93DF93EC013C
:10230000423018F08D8188608D834887222329F020
:10231000413019F48D8184608D8362E370E080E048
:1023200090E00E9470156B85CE010E94CA1068EE85
:1023300073E080E090E00E94701560E3CE010E949F
:10234000051184E991E10E94981560E3CE010E9495
:10235000051184E991E10E94981560E3CE010E9485
:10236000051186E990E00E94981560E2CE010E9476
:1023700005116D816062CE010E94371184E08E8369
:10238000CE010E947511CE010E943A1182E08F8326
:1023900066E0CE010E943711CE01DF91CF910C94FF
:1023A0004111CF93DF93EC0182E692E00E94C90EC7
:1023B0001D8220E04A856985CE01DF91CF910C9482
:1023C0007D110C94D1110895FC0183EE91E1928B63
:1023D000818B768365831482108289E0818381E01A
:1023E000828383830895CF93DF93EB0167E0CE016F
:1023F0000E94260E91E02F81821390E0892FDF91B9
:10240000CF910895EF92FF920F931F93CF93DF9395
:10241000EC018B01E42E8D819E810E94590DF12CDF
:10242000B8018D819E810E948E0D882359F0FE1087
:1024300006C0B801CE010E94F311811104C0F394CB
:10244000EF1470F780E0DF91CF911F910F91FF9013
:10245000EF900895EF92FF920F931F93CF93DF9326
:1024600000D0CDB7DEB77C018A01FC018581968161
:1024700069837A830E94320C69817A81F7018581B0
:1024800096810E942D0D40E06EEBF70185819681CB
:102490000E94CF0CF701858196810E94110DF801F1
:1024A0008083F701858196810E94110DF801818357
:1024B000F701858196810E94110DF8018283F70151
:1024C000858196810E94110DF8018383F701858132
:1024D00096810E94110DF8018483F7018581968110
:1024E0000E94110DF8018583F701858196810E9474
:1024F000110DF8018683F701858196810E94110DE7
:10250000F8018783F701858196810E94110DF801FA
:102510008087F701858196810F900F90DF91CF9191
:102520001F910F91FF90EF900C94320CCF93DF939B
:10253000EA010E942A1268E0CE010E94260E91E074
:102540002885821390E0892FDF91CF910895EF9233
:10255000FF921F93CF93DF9300D0CDB7DEB77C01FE
:10256000FC018581968169837A830E94320C69819E
:102570007A81F701858196810E942D0D40E064EB00
:10258000F701858196810E94CF0CF70185819681A4
:102590000E94A40C182FF701858196810E94320CAD
:1025A00081E0111180E00F900F90DF91CF911F918A
:1025B000FF90EF900895CF93DF93CDB7DEB72997C3
:1025C0000FB6F894DEBF0FBECDBFFB0120812031D6
:1025D000D1F0AE014F5F5F4F0E949612882379F0D1
:1025E0008D818F3351F018F48F3169F008C08F3529
:1025F00041F08F3721F48CE007C08AE005C080E00D
:1026000003C08BE001C089E029960FB6F894DEBFC5
:102610000FBECDBFDF91CF910895EF92FF920F9340
:102620001F93CF93DF93CDB7DEB761970FB6F894C2
:10263000DEBF0FBECDBF8C01FC01858196810E945B
:10264000590DF8011482FF24F394BE01665F7F4F99
:10265000F801858196810E948E0D8823C9F1BE0103
:10266000665F7F4FC8010E94F311882371F3F80160
:102670008081811108C0BE01665F7F4FC8010E9442
:10268000A712811122C0AE014F5F5F4FBE01665F8E
:102690007F4FC8010E942A12F801E180BE01665FE7
:1026A0007F4FC8010E94DB128E1518F4F80181815A
:1026B00006C0BE01665F7F4FC8010E94DB12F801B1
:1026C000818384818F5F8483C0CFF801F082DBCF68
:1026D00061960FB6F894DEBF0FBECDBFDF91CF91EC
:1026E0001F910F91FF90EF900895CF93DF93CDB797
:1026F000DEB729970FB6F894DEBF0FBECDBFAE018F
:102700004F5F5F4F0E942A1281E09981911101C0B1
:1027100080E029960FB6F894DEBF0FBECDBFDF91E3
:10272000CF910895CF92DF92EF92FF920F931F9374
:10273000CF93DF93EC018B01452BE1F08B81882354
:10274000C9F08881811116C00E9441156B017C017E
:1027500060E070E0CE010E94751381110BC00E94F1
:1027600041156C197D098E099F096E3E72408105E5
:10277000910570F3F80180818A3049F08B3061F067
:10278000893079F46EE570E080E090E00EC06CEB8B
:1027900070E080E090E009C067E771E080E090E0E1
:1027A00004C06EEE72E080E090E0DF91CF911F9167
:1027B0000F91FF90EF90DF90CF900C947015CF9316
:1027C000DF93EC018D819E810E94320C8D819E8170
:1027D0000E94550D488164E48D819E810E94CF0C3A
:1027E0008A81882351F0BE016F5F7F4F40E050E047
:1027F000CE01DF91CF910C949213DF91CF91089588
:102800008F929F92AF92BF92CF92DF92EF92FF9200
:102810001F93CF93DF93FB01EA01698170E0762F6C
:1028200066278881682B80818232B1F18832A1F1DC
:10283000803109F078C01F8175956795882777FDED
:102840008095982F0E94181C20E030E040E85EE35D
:102850000E94181B6B017C01612F70E08E81681B48
:102860007109882777FD8095982F0E94181C4B01CD
:102870005C01612F70E080E090E00E94161C9B01DB
:10288000AC01C501B4010E947D1B9B01AC01C701D5
:10289000B6010E94191B43C08C818F3381F198F4DB
:1028A0008F3109F040C093E0759567959A95E1F7EF
:1028B000882777FD8095982F0E94181C20E030E033
:1028C00040E05FE32AC08F3569F08F3761F58827D4
:1028D00077FD8095982F0E94181C20E030E040E89A
:1028E0005DE31BC075956795882777FD8095982FC8
:1028F0000E94181C20E030E040E05EE30EC07595B9
:10290000679575956795882777FD8095982F0E9424
:10291000181C20E030E040E85EE30E94A41C562F23
:10292000472F382F292F652F742F832F922FDF9158
:10293000CF911F91FF90EF90DF90CF90BF90AF901D
:102940009F908F900895EF92FF920F931F93CF93D4
:10295000DF93CDB7DEB729970FB6F894DEBF0FBE71
:10296000CDBF8C017B01AE014F5F5F4F0E9496127D
:10297000882341F0AE014F5F5F4FB701C8010E944D
:10298000001404C060E070E08EEF92EC29960FB660
:10299000F894DEBF0FBECDBFDF91CF911F910F9195
:1029A000FF90EF9008950F931F93CF93DF93CDB7D0
:1029B000DEB728970FB6F894DEBF0FBECDBF8C01EF
:1029C000462FBE016F5F7F4F0E940212BE016F5FF4
:1029D0007F4FC8010E94A31428960FB6F894DEBF5B
:1029E0000FBECDBFDF91CF911F910F9108951F9220
:1029F0000F920FB60F9211242F933F938F939F93B3
:102A0000AF93BF938091230390912403A09125035A
:102A1000B09126033091220323E0230F2D3720F4B9
:102A20000196A11DB11D05C026E8230F0296A11D28
:102A3000B11D209322038093230390932403A0933A
:102A40002503B09326038091270390912803A0913A
:102A50002903B0912A030196A11DB11D809327037C
:102A600090932803A0932903B0932A03BF91AF91B9
:102A70009F918F913F912F910F900FBE0F901F90BC
:102A800018952FB7F89460912303709124038091D7
:102A90002503909126032FBF08953FB7F8948091A6
:102AA000270390912803A0912903B0912A0326B50A
:102AB000A89B05C02F3F19F00196A11DB11D3FBF76
:102AC0006627782F892F9A2F620F711D811D911D06
:102AD00042E0660F771F881F991F4A95D1F7089526
:102AE000CF92DF92EF92FF92CF93DF936B017C0145
:102AF0000E944D15EB01C114D104E104F10489F0E9
:102B00000E94171B0E944D156C1B7D0B683E734085
:102B100090F381E0C81AD108E108F108C851DC4FF0
:102B2000EACFDF91CF91FF90EF90DF90CF900895A3
:102B3000019739F0880F991F880F991F0297019705
:102B4000F1F70895789484B5826084BD84B581607E
:102B500084BD85B5826085BD85B5816085BDEEE6A5
:102B6000F0E0808181608083E1E8F0E01082808184
:102B700082608083808181608083E0E8F0E08081F2
:102B800081608083E1EBF0E0808184608083E0EB12
:102B9000F0E0808181608083EAE7F0E080818460FA
:102BA0008083808182608083808181608083808156
:102BB000806880831092C1000895833081F028F4EA
:102BC000813099F08230A1F008958730A9F08830E3
:102BD000B9F08430D1F4809180008F7D03C0809162
:102BE00080008F7780938000089584B58F7702C02E
:102BF00084B58F7D84BD08958091B0008F7703C028
:102C00008091B0008F7D8093B0000895CF93DF93C3
:102C100090E0FC01E458FE4F2491FC01E057FE4F88
:102C20008491882349F190E0880F991FFC01E854B2
:102C3000FE4FA591B49182559E4FFC01C591D49150
:102C40009FB7611108C0F8948C91209582238C93D2
:102C5000888182230AC0623051F4F8948C91322F1B
:102C6000309583238C938881822B888304C0F894C9
:102C70008C91822B8C939FBFDF91CF9108950F93FE
:102C80001F93CF93DF931F92CDB7DEB7282F30E08D
:102C9000F901E859FE4F8491F901E458FE4F14916F
:102CA000F901E057FE4F04910023C9F0882321F079
:102CB00069830E94DD156981E02FF0E0EE0FFF1FB0
:102CC000E255FE4FA591B4919FB7F8948C91611194
:102CD00003C01095812301C0812B8C939FBF0F905F
:102CE000DF91CF911F910F910895CF93DF93282FFC
:102CF00030E0F901E859FE4F8491F901E458FE4FA4
:102D0000D491F901E057FE4FC491CC2391F0811189
:102D10000E94DD15EC2FF0E0EE0FFF1FEC55FE4F8B
:102D2000A591B4912C912D2381E090E021F480E0D5
:102D300002C080E090E0DF91CF910895FC01818D89
:102D4000228D90E0805C9F4F821B91098F739927A1
:102D50000895FC01918D828D981731F0828DE80FD6
:102D6000F11D858D90E008958FEF9FEF0895FC0190
:102D7000918D828D981761F0828DDF01A80FB11DB2
:102D80005D968C91928D9F5F9F73928F90E00895D6
:102D90008FEF9FEF08958BE398E1892B49F080E056
:102DA00090E0892B29F00E943B1881110C940000BF
:102DB0000895FC01848DDF01A80FB11DA35ABF4FF8
:102DC0002C91848D90E001968F739927848FA6892A
:102DD000B7892C93A089B1898C9180648C93938D51
:102DE000848D981306C00288F389E02D80818F7D41
:102DF00080830895CF93DF93EC01888D8823C9F0F9
:102E0000EA89FB89808185FD05C0A889B9898C91F3
:102E100086FD0FC00FB607FCF5CF808185FFF2CF8E
:102E2000A889B9898C9185FFEDCFCE010E94D91672
:102E3000E7CFDF91CF910895CF92DF92FF920F936A
:102E40001F93CF93DF931F92CDB7DEB76C01DC01E8
:102E50005B969C915B975C968C915C97981307C0EE
:102E60005096ED91FC915197808185FD32C0F6011D
:102E7000038D10E00F5F1F4F0F731127F02EF60127
:102E8000848DF81211C00FB607FCF9CFD601509609
:102E9000ED91FC915197808185FFF1CFC601698347
:102EA0000E94D9166981EBCF838DE80FF11DE35A9B
:102EB000FF4F6083D6015B960C935B975296ED9122
:102EC000FC91539780818062808381E058968C9337
:102ED0000DC0D6015696ED91FC91579760835096A0
:102EE000ED91FC91519780818064808381E090E036
:102EF0000F90DF91CF911F910F91FF90DF90CF90B6
:102F00000895BF92CF92DF92EF92FF92CF93DF931B
:102F1000EC016A017B01B22EE889F98982E08083A5
:102F2000411581EE580761057105A1F060E079E077
:102F30008DE390E0A70196010E941B1D21503109ED
:102F4000410951095695479537952795211580E1F7
:102F5000380798F0E889F989108260E874E88EE112
:102F600090E0A70196010E941B1D215031094109E3
:102F700051095695479537952795EC85FD85308302
:102F8000EE85FF852083188EEC89FD89B082EA8961
:102F9000FB89808180618083EA89FB8980818860E8
:102FA0008083EA89FB89808180688083EA89FB8944
:102FB00080818F7D8083DF91CF91FF90EF90DF90B4
:102FC000CF90BF9008951F920F920FB60F921124C9
:102FD0002F938F939F93EF93FF93E0913B03F09197
:102FE0003C038081E0914103F091420382FD12C0D5
:102FF0009081809144038F5F8F73209145038217E6
:1030000051F0E0914403F0E0E55DFC4F958F809333
:10301000440301C08081FF91EF919F918F912F9187
:103020000F900FBE0F901F9018951F920F920FB622
:103030000F9211242F933F934F935F936F937F933E
:103040008F939F93AF93BF93EF93FF938BE293E0A4
:103050000E94D916FF91EF91BF91AF919F918F91EF
:103060007F916F915F914F913F912F910F900FBE84
:103070000F901F9018958BE293E00E949E1621E01E
:10308000892B09F420E0822F089510922E031092CC
:103090002D0388EE93E0A0E0B0E080932F0390939F
:1030A0003003A0933103B093320386ED91E0909307
:1030B0002C0380932B0385EC90E09093380380934E
:1030C000370384EC90E090933A038093390380ECCB
:1030D00090E090933C0380933B0381EC90E09093CD
:1030E0003E0380933D0382EC90E0909340038093F5
:1030F0003F0386EC90E0909342038093410310924B
:10310000440310924503109246031092470308951A
:1031100008950E94A2150E9488180E940F01CBEC0E
:10312000D6E10E941C012097E1F30E94CB16F9CF53
:103130000C94981DCF92DF92EF92FF920F931F9302
:10314000CF93DF936C017A01EB01E60EF71E00E0EE
:1031500010E0CE15DF0561F06991D601ED91FC918B
:103160000190F081E02DC6010995080F191FF1CFDC
:10317000C801DF91CF911F910F91FF90EF90DF90E9
:10318000CF9008956115710581F0DB010D9000204D
:10319000E9F7AD0141505109461B570BDC01ED9198
:1031A000FC910280F381E02D099480E090E0089585
:1031B000DC01ED91FC91DB0114964D915C9115972A
:1031C0006D917C910280F381E02D09940C94C218DA
:1031D0000F931F93CF93DF93EC010E9441156887F3
:1031E00079878A879B87E881F9810680F781E02DBE
:1031F000CE01099597FF15C00E94411508851985D4
:103200002A853B85601B710B820B930B0C811D8102
:103210002E813F81601771078207930720F38FEF9C
:103220009FEFDF91CF911F910F9108950F931F93FF
:10323000CF93DF93EC018B016BEA71E00E94C2191E
:10324000C8010E94E81897FD05C0682FCE010E94B2
:10325000801AF6CFCE01DF91CF911F910F91089583
:10326000CF93DF9300D000D0CDB7DEB79B01AC0188
:10327000611571058105910569F069833A834B8376
:103280005C830E940E1F29813A814B815C810E94E0
:103290003D1D03C060E070E0CB010F900F900F90D8
:1032A0000F90DF91CF910895FC01808191810C9462
:1032B000301ECF93DF93EC0188819981009711F044
:1032C0000E94301E198218821D821C821B821A8263
:1032D000DF91CF9108950F931F93CF93DF93EC016C
:1032E0008B016F5F7F4F888199810E941C1F00971F
:1032F00031F0998388831B830A8381E001C080E0D9
:10330000DF91CF911F910F910895CF93DF93EC013F
:1033100088819981892B29F08A819B81861797075B
:1033200060F4CE010E946B19882341F08C819D814D
:10333000892B19F4E881F981108281E0DF91CF9126
:103340000895EF92FF920F931F93CF93DF93EC01B9
:103350007B018A01BA010E948519811104C0CE0146
:103360000E94591907C01D830C83B7018881998178
:103370000E941F20CE01DF91CF911F910F91FF90EE
:10338000EF900895FC01118210821382128215823F
:1033900014826115710559F0FB0101900020E9F7D5
:1033A000AF0141505109461B570B0C94A1190895C8
:1033B000CF93DF93EC01FB018617970761F06081E3
:1033C00071816115710529F0448155810E94A1190F
:1033D00002C00E945919CE01DF91CF910895FC01DE
:1033E0001182108213821282158214820C94D819D1
:1033F000CF93DF93EC016115710561F0FB01019042
:103400000020E9F7AF0141505109461B570B0E94BC
:10341000A11902C00E945919CE01DF91CF910895E0
:10342000CF93DF9300D0CDB7DEB7FC0111821082BD
:10343000138212821582148269831A82BE016F5F21
:103440007F4F0E94F8190F900F90DF91CF91089550
:103450000F931F93CF93DF93CDB7DEB762970FB66D
:10346000F894DEBF0FBECDBF8C01CB01F8011182F5
:103470001082138212821582148250E0BE016F5FA7
:103480007F4F0E944020BE016F5F7F4FC8010E94A6
:10349000F81962960FB6F894DEBF0FBECDBFDF916C
:1034A000CF911F910F910895EF92FF920F931F9369
:1034B000CF93DF93EC017B010C811D8161157105B8
:1034C00011F480E016C04115510591F0040F151F4D
:1034D000B8010E9485198823A1F3288139818C8144
:1034E0009D81B701820F931F0E941F201D830C83B3
:1034F00081E0DF91CF911F910F91FF90EF900895A0
:10350000CF93DF9300D0CDB7DEB769831A8241E055
:1035100050E0BE016F5F7F4F0E94541A0F900F90D2
:10352000DF91CF910895FC0124813581232B31F463
:1035300021E061157105A1F0FB0108C0FC0180814B
:1035400091816115710531F421E0FC0180818823AE
:1035500039F005C00E94162021E0892B09F020E0F7
:10356000822F0895CF93DF93FC01848195814817C2
:10357000590778F4C081D181FB0160817181CE014E
:10358000840F951F0E942620009719F08C1B9D0B1D
:1035900002C08FEF9FEFDF91CF91089540E050E0A0
:1035A0000C94B21ABF92CF92DF92EF92FF920F93D8
:1035B0001F93CF93DF936C017B01EA0189012417EC
:1035C000350720F48D2FE901042F182F6BEA71E0E5
:1035D000C6010E94C219D70114968D919C9115972E
:1035E000C817D907C8F48017910708F48C01D701D0
:1035F000ED91FC911197E00FF11FB08010826D9159
:103600007C916C0F7D1FC6010E94F819D701ED91C6
:10361000FC91E00FF11FB082C601DF91CF911F91A5
:103620000F91FF90EF90DF90CF90BF900895089595
:103630005058BB27AA270ED04DC13ED130F043D100
:1036400020F031F49F3F11F41EF433C10EF4E095E5
:10365000E7FB29C1E92F4FD180F3BA17620773073F
:103660008407950718F071F49EF567C10EF4E09594
:103670000B2EBA2FA02D0B01B90190010C01CA012C
:10368000A0011124FF27591B99F0593F50F4503ED7
:1036900068F11A16F040A22F232F342F4427585FC9
:1036A000F3CF469537952795A795F0405395C9F7E1
:1036B0007EF41F16BA0B620B730B840BBAF0915099
:1036C000A1F0FF0FBB1F661F771F881FC2F70EC038
:1036D000BA0F621F731F841F48F48795779567950B
:1036E000B795F7959E3F08F0B3CF9395880F08F0F4
:1036F0009927EE0F9795879508950CD0EBC0E3D0EE
:1037000040F0DAD030F021F45F3F19F0CCC0511115
:1037100015C1CFC0F0D098F39923C9F35523B1F365
:10372000951B550BBB27AA2762177307840738F030
:103730009F5F5F4F220F331F441FAA1FA9F333D08F
:103740000E2E3AF0E0E830D091505040E695001C43
:10375000CAF729D0FE2F27D0660F771F881FBB1FFF
:10376000261737074807AB07B0E809F0BB0B802DD9
:10377000BF01FF2793585F4F2AF09E3F510568F025
:1037800092C0DCC05F3FECF3983EDCF38695779502
:103790006795B795F7959F5FC9F7880F911D969527
:1037A000879597F90895E1E0660F771F881FBB1F83
:1037B000621773078407BA0720F0621B730B840B30
:1037C000BA0BEE1F88F7E095089504D06894B11104
:1037D000B5C0089598D088F09F5790F0B92F9927D9
:1037E000B751A0F0D1F0660F771F881F991F1AF00C
:1037F000BA95C9F712C0B13081F09FD0B1E00895F9
:103800009CC0672F782F8827B85F39F0B93FCCF379
:10381000869577956795B395D9F73EF49095809501
:10382000709561957F4F8F4F9F4F0895E89409C021
:1038300097FB3EF490958095709561957F4F8F4FE3
:103840009F4F9923A9F0F92F96E9BB279395F695F9
:10385000879577956795B795F111F8CFFAF4BB0F77
:1038600011F460FF1BC06F5F7F4F8F4F9F4F16C0DB
:10387000882311F096E911C0772321F09EE8872F65
:10388000762F05C0662371F096E8862F70E060E021
:103890002AF09A95660F771F881FDAF7880F96959A
:1038A000879597F9089597F99F6780E870E060E041
:1038B00008959FEF80EC089500240A9416161706C9
:1038C00018060906089500240A9412161306140611
:1038D00005060895092E0394000C11F4882352F074
:1038E000BB0F40F4BF2B11F460FF04C06F5F7F4F2C
:1038F0008F4F9F4F089557FD9058440F551F59F013
:103900005F3F71F04795880F97FB991F61F09F3FCC
:1039100079F087950895121613061406551FF2CFF5
:103920004695F1DF08C0161617061806991FF1CF45
:1039300086957105610508940895E894BB2766276C
:103940007727CB0197F908950BD0C4CFB5DF28F0C6
:10395000BADF18F0952309F0A6CFABCF1124EECF34
:10396000CADFA0F3959FD1F3950F50E0551F629FDA
:10397000F001729FBB27F00DB11D639FAA27F00DC8
:10398000B11DAA1F649F6627B00DA11D661F829FEF
:103990002227B00DA11D621F739FB00DA11D621FD4
:1039A000839FA00D611D221F749F3327A00D611DF1
:1039B000231F849F600D211D822F762F6A2F1124D3
:1039C0009F5750408AF0E1F088234AF0EE0FFF1F26
:1039D000BB1F661F771F881F91505040A9F79E3F5D
:1039E000510570F060CFAACF5F3FECF3983EDCF357
:1039F000869577956795B795F795E7959F5FC1F79A
:103A0000FE2B880F911D9695879597F9089597FB42
:103A1000072E16F4009407D077FD09D00E947E1D72
:103A200007FC05D03EF4909581959F4F08957095C1
:103A300061957F4F0895A1E21A2EAA1BBB1BFD01C1
:103A40000DC0AA1FBB1FEE1FFF1FA217B307E4077D
:103A5000F50720F0A21BB30BE40BF50B661F771FD5
:103A6000881F991F1A9469F76095709580959095B5
:103A70009B01AC01BD01CF010895052E97FB1EF4FB
:103A800000940E94541D57FD07D00E941B1D07FC87
:103A900003D04EF40C94541D5095409530952195CB
:103AA0003F4F4F4F5F4F089590958095709561956A
:103AB0007F4F8F4F9F4F0895A29FB001B39FC001CA
:103AC000A39F700D811D1124911DB29F700D811D4A
:103AD0001124911D08950E945C1DA59F900DB49F17
:103AE000900DA49F800D911D11240895B7FF0C9493
:103AF0006B1D0E946B1D821B930B0895AA1BBB1BA1
:103B000051E107C0AA1FBB1FA617B70710F0A61BDD
:103B1000B70B881F991F5A95A9F780959095BC01FE
:103B2000CD010895EE0FFF1F0590F491E02D09944B
:103B3000CF93DF938230910510F482E090E0E09122
:103B4000CA03F091CB0320E030E0A0E0B0E0309772
:103B500039F14081518148175907B8F04817590782
:103B600071F482819381109729F013969C938E9320
:103B700012972CC09093CB038093CA0327C02115C2
:103B8000310531F04217530718F0A901DB0101C0DC
:103B9000EF019A01BD01DF010280F381E02DD7CF53
:103BA00021153105F9F0281B390B2430310580F43B
:103BB0008A819B816115710521F0FB0193838283CA
:103BC00004C09093CB038093CA03FE01329644C095
:103BD000FE01E20FF31F8193919322503109398343
:103BE00028833AC02091C8033091C903232B41F4A4
:103BF00020910201309103013093C9032093C8033F
:103C000020910001309101012115310541F42DB7BA
:103C10003EB74091040150910501241B350BE09102
:103C2000C803F091C903E217F307A0F42E1B3F0B62
:103C30002817390778F0AC014E5F5F4F241735071E
:103C400048F04E0F5F1F5093C9034093C803819300
:103C5000919302C0E0E0F0E0CF01DF91CF910895B1
:103C6000CF93DF93009709F487C0FC01329713824A
:103C70001282C091CA03D091CB03209781F4208196
:103C80003181280F391F8091C8039091C903821791
:103C9000930779F5F093C903E093C8036DC0DE0183
:103CA00020E030E0AE17BF0750F412964D915C91C2
:103CB00013979D014115510509F1DA01F3CFB38343
:103CC000A28340815181840F951F8A179B0771F44D
:103CD0008D919C911197840F951F029691838083FB
:103CE00012968D919C9113979383828321153105B0
:103CF00029F4F093CB03E093CA033EC0D901139695
:103D0000FC93EE9312974D915D91A40FB51FEA17A6
:103D1000FB0779F480819181840F951F0296D90168
:103D200011969C938E938281938113969C938E938C
:103D30001297E0E0F0E08A819B81009719F0FE0184
:103D4000EC01F9CFCE01029628813981820F931FB1
:103D50002091C8033091C9032817390769F43097B7
:103D600029F41092CB031092CA0302C0138212826C
:103D7000D093C903C093C803DF91CF9108958F9268
:103D80009F92AF92BF92CF92DF92EF92FF92CF932A
:103D9000DF93EC01688179818A819B8161157105CE
:103DA0008105910521F464E279ED8BE597E02DE141
:103DB00033EF41E050E00E943D1D49015A019B0153
:103DC000AC01A7EAB1E40E946B1D6B017C01ACEE73
:103DD000B4EFA50194010E94791DC60ED71EE81EFE
:103DE000F91EF7FE06C081E0C81AD108E10880E894
:103DF000F80AC882D982EA82FB82C701B6019F779E
:103E0000DF91CF91FF90EF90DF90CF90BF90AF9078
:103E10009F908F9008950E94BF1E089586E091E0C4
:103E20000E94BF1E0895609306017093070180935E
:103E30000801909309010895A0E0B0E0E2E2FFE1FB
:103E40000C949920EC01CB01209719F40E94981D45
:103E5000B8C0FE01E60FF71F9E0122503109E2179C
:103E6000F30708F4ACC0D9010D911C911197061706
:103E70001707B8F00530110508F49FC0A801445099
:103E800051094617570708F498C002501109061B3C
:103E9000170B019311936D937C93CF010E94301EF9
:103EA0008CC05B01A01AB10A4E01800E911EA09138
:103EB000CA03B091CB03612C712C60E070E01097C5
:103EC00009F449C0A815B905C9F5ED90FC90119702
:103ED000670142E0C40ED11CCA14DB0478F147012B
:103EE0008A189B08640142E0C40ED11C1296BC9053
:103EF00012971396AC91B5E0CB16D10440F0B28284
:103F0000A38391828082D9018D939C9309C00E5F17
:103F10001F4F0E0D1F1DF90111830083EB2DFA2F8A
:103F20006115710531F0DB011396FC93EE93129746
:103F300044C0F093CB03E093CA033FC06D917C91E2
:103F400011976616770608F43B01BD0112960D9095
:103F5000BC91A02DB4CF6091C8037091C9036815BE
:103F60007905E9F468167906D0F440910001509182
:103F700001014115510541F44DB75EB7609104014F
:103F800070910501461B570BE417F507C0F4F09339
:103F9000C903E093C803F901918380830EC00E9496
:103FA000981D7C01009759F0A801BE010E940D20C8
:103FB000CE010E94301EC70104C0CE0102C080E0C5
:103FC00090E0CDB7DEB7EEE00C94B5201F93FC0176
:103FD00099278827BC01E89411911032E9F3193030
:103FE00010F01E30C8F31B3251F01D3249F46894B2
:103FF00006C00E945620610F711D811D911D1191F7
:1040000010531A30B0F33EF49095809570956195F9
:104010007F4F8F4F9F4F1F910895FB01DC0102C01E
:1040200001900D9241505040D8F70895FB01DC01FA
:104030008D91019080190110D9F3990B0895FB011E
:10404000DC0101900D920020E1F70895FB015191F0
:104050005523A9F0BF01DC014D9145174111E1F74E
:1040600059F4CD010190002049F04D9140154111C6
:10407000C9F3FB014111EFCF81E090E00197089572
:104080004532510520F4423010F00C944B20FB01D6
:104090001082CB010895BB274A3031F4992322F4D2
:1040A000BDE2909581959F4F0C946C20592F482F1D
:1040B000372F262F660F771F881F991F660F771FD0
:1040C000881F991F620F731F841F951F660F771F2C
:1040D000881F991F0895BB27FB015527AA27880F22
:1040E000991FAA1FA41710F0A41B83955051B9F76C
:1040F000A05DAA3308F0A95DA193009779F7B111EB
:10410000B1931192CB010C948520DC01FC01672F47
:1041100071917723E1F7329704C07C916D9370839E
:104120006291AE17BF07C8F308952F923F924F9246
:104130005F926F927F928F929F92AF92BF92CF9237
:10414000DF92EF92FF920F931F93CF93DF93CDB740
:10415000DEB7CA1BDB0B0FB6F894DEBF0FBECDBFB8
:1041600009942A88398848885F846E847D848C8489
:104170009B84AA84B984C884DF80EE80FD800C8192
:104180001B81AA81B981CE0FD11D0FB6F894DEBF75
:104190000FBECDBFED01089511E0C8ECD1E004C021
:1041A000FE010E94941D2296CA3CD107C9F7F894DB
:0241B000FFCF3F
:1041B2000000CC038000010000002C010000000080
:1041C20040001400540057616974696E6720666F7D
:1041D200722070726F6772616D0043757272656EE4
:1041E200743A2000430050617573656420202020DA
:1041F20020202020202020202020004D6173687381
:104202006368656D65642075706C6F6164656400D8
:104212004661696C202020202020202020202020A0
:104222002020202000546F74616C3A20006D696E6A
:10423200202020002073656B00206D696E0053748E
:1042420065702000432000202020202020202020F4
:104252002020202020202020202020002C001F1C95
:104262001F1E1F1E1F1F1E1F1E1F000000008A0E82
:104272005D0E320E3A0E4D0E5C0E00000000311142
:104282009A18000000001C179A189E16B716A91655
:02429200FA161A
:00000001FF
