:100000000C9459000C9481000C9481000C94810094
:100010000C9481000C9481000C9481000C9481005C
:100020000C9481000C9481000C9481000C9481004C
:100030000C9481000C9481000C9481000C9481003C
:100040000C9450040C9481000C9481000C94810059
:100050000C9481000C9481000C9481000C9481001C
:100060000C94FE010C9481000000000800020100C5
:100070000003040700000000000000000102040863
:100080001020408001020408102001020408102002
:10009000040404040404040402020202020203032E
:1000A0000303030300000000250028002B00980034
:1000B000600111241FBECFEFD8E0DEBFCDBF11E03D
:1000C000A0E0B1E0E4ECFBE002C005900D92AC32A0
:1000D000B107D9F722E0ACE2B1E001C01D92A13036
:1000E000B207E1F710E0C2EBD0E004C02297FE01B6
:1000F0000E94DC05CE3AD107C9F70E948A050C940C
:10010000E0050C9400008CE291E00E944E048CE229
:1001100091E00E94540340E060E08CE291E00E9494
:10012000B50368E071E08CE291E00C94D705089586
:1001300024E044E167E28CE291E00C942B0380918F
:10014000680190E020916901821B91090895209136
:10015000690180916801281750F4E22FF0E0E65918
:10016000FE4F808190E02F5F2093690108958FEF0B
:100170009FEF0895E091690180916801E81730F4DC
:10018000F0E0E659FE4F808190E008958FEF9FEFF9
:1001900008950895CF92DF92EF92FF920F931F93ED
:1001A000CF93DF937C01CB018A012091440122236C
:1001B00089F0EB016B01C40ED51ECC15DD0569F08D
:1001C0006991D701ED91FC910190F081E02DC7017B
:1001D0000995F3CF642F0E94D501C801DF91CF911B
:1001E0001F910F91FF90EF90DF90CF900895CF93E4
:1001F000DF931F92CDB7DEB769832091440122239C
:10020000D1F020914501203240F021E030E0FC01A6
:100210003383228380E090E015C080914601E82F6F
:10022000F0E0E95BFE4F998190838F5F80934601F8
:100230008093450105C061E0CE0101960E94D50181
:1002400081E090E00F90DF91CF910895FC0113823F
:10025000128248EE53E060E070E044835583668389
:10026000778388E191E091838083089510926901FA
:100270001092680110924601109245010C9464019D
:1002800081E08093440160936701109246011092CF
:10029000450108950F93062F21E04091450167E441
:1002A00071E0809167010E948201109246011092D4
:1002B0004501109244010F91089561E00C944A01A8
:1002C00088E391E00C9426011092F70181E080937D
:1002D000F5011092F40161E082E10E94530561E0B2
:1002E00083E10E945305E9EBF0E080818E7F8083FB
:1002F00080818D7F808388E48093B80085E480933B
:10030000BC0008950F93413208F046C09091F70168
:100310009111FCCF92E09093F7010093F5019FEFCC
:1003200090938A011092CF014093CE01FB0160EDC2
:1003300071E0DB019A2F961B941718F491919D930D
:10034000F9CF1092F6019091F601880F892B8093D6
:10035000F6018091F401813041F41092F401809112
:10036000F6018093BB0085EC01C085EE8093BC0054
:10037000222321F08091F7018230E1F380918A01FC
:100380008F3F61F080918A01803251F080918A0123
:10039000803341F483E007C081E005C080E003C002
:1003A00082E001C084E00F910895613298F42091B9
:1003B000F701243089F46093AC01FC018EEA91E0EE
:1003C000DC012A2F281B261718F421912D93F9CF31
:1003D00080E0089581E0089582E0089585ED80939E
:1003E000BC008091BC0084FDFCCF1092F701089501
:1003F00085EC8093BC001092F70108951F920F9234
:100400000FB60F9211242F933F934F935F936F93E7
:100410007F938F939F93AF93BF93EF93FF938091BD
:10042000B900887F803609F49CC068F5883209F4E9
:100430005BC090F4803109F454C038F4882309F487
:10044000F5C0883009F44DC0F5C0883109F44CC0BE
:10045000803209F45DC0EEC0803409F468C048F40D
:10046000803309F455C0883309F0E4C080938A01D1
:10047000A8C0803509F44FC0883509F45DC08834C0
:1004800009F0D8C0D5C0883909F4C6C0A8F48837A7
:1004900009F467C038F4883609F463C0803709F47A
:1004A00060C0C8C0883809F4B7C0803909F45FC09B
:1004B000803809F0BFC05BC0803B09F485C038F4C8
:1004C000803A09F466C0883A09F47EC0B3C0803C23
:1004D00009F4A6C0883C09F4A3C0883B09F489C08C
:1004E000A9C08091F60110C09091CF018091CE01FA
:1004F000981770F5E091CF0181E08E0F8093CF01C6
:10050000F0E0E053FE4F80818093BB0085EC85C016
:1005100080938A018DC0E091CF0181E08E0F80939E
:10052000CF018091BB00F0E0E053FE4F80839091BB
:10053000CF018091CE016DC0E091CF0181E08E0F9F
:100540008093CF018091BB00F0E0E053FE4F8083A9
:100550008091F50181116CC081E08093F40184EAFF
:1005600060C083E08093F70110928B01CFCF809120
:100570008B01803208F050C0E0918B0181E08E0F3A
:1005800080938B018091BB00F0E0E457FE4F8083A5
:10059000BDCF80918B01803230F4E0918B01F0E08F
:1005A000E457FE4F10820E94EE0160918B0170E0D3
:1005B000E091F001F091F1018CE891E00995109241
:1005C0008B010E94F80136C084E08093F7011092FD
:1005D000AD011092AC01E091F201F091F3010995A7
:1005E0008091AC01811105C081E08093AC01109233
:1005F000AE01E091AD0181E08E0F8093AD01F0E09E
:10060000E255FE4F80818093BB009091AD018091B7
:10061000AC01981708F47ACF85E88093BC000AC033
:1006200085EC8093BC001092F70104C010928A01FF
:100630000E94EE01FF91EF91BF91AF919F918F9139
:100640007F916F915F914F913F912F910F900FBECE
:100650000F901F901895FC011382128288E291E09E
:1006600091838083648341872287138608951F9333
:10067000CF93DF93EC01162F6C8188E391E00E9409
:100680004001E0913801F09139016B85612B0190B7
:10069000F081E02D88E391E0099588E391E0DF9116
:1006A000CF911F910C945D0128E0FC01238760E04D
:1006B0000C9437031F93CF93DF93EC01162F6460E4
:1006C0000E94370381E090E00E94E504612F6B7F78
:1006D000CE010E94370382E390E0DF91CF911F911A
:1006E0000C94E5041F93CF93DF93EC01162F0E9427
:1006F0003703612FCE01DF91CF911F910C945A03E4
:10070000EF92FF921F93CF93DF931F92CDB7DEB787
:100710007C01162F607F642B49830E94720380E165
:10072000189FB00111244981642BC7010F90DF91FC
:10073000CF911F91FF90EF900C94720341E00E94C3
:10074000800380E090E0089540E00C94800361E035
:100750000E94A40380ED97E00C94E50462E00E94FF
:10076000A40380ED97E00C94E504CF93DF93CDB71D
:10077000DEB728970FB6F894DEBF0FBECDBF28E0D6
:10078000E0E0F1E0DE01119601900D922A95E1F78B
:10079000FC012085241710F44FEF420FFE01319623
:1007A000E40FF11DE40FF11D2081260F2068622F58
:1007B00028960FB6F894DEBF0FBECDBFDF91CF9164
:1007C0000C94A403FC016681262F246026836C60B0
:1007D0000C94A403CF93DF93EC01423018F08D8189
:1007E00088608D834887222329F0413019F48D8158
:1007F00084608D8362E370E080E090E00E94BD043D
:100800006B85CE010E94370368EE73E080E090E0D4
:100810000E94BD0460E3CE010E94720384E991E16D
:100820000E94E50460E3CE010E94720384E991E135
:100830000E94E50460E3CE010E94720386E990E025
:100840000E94E50460E2CE010E9472036D81606245
:10085000CE010E94A40384E08E83CE010E94E203B5
:10086000CE010E94A70382E08F8366E0CE010E9442
:10087000A403CE01DF91CF910C94AE03CF93DF930D
:10088000EC0188E391E00E9436011D8220E04A8558
:100890006985CE01DF91CF910C94EA030C943E045C
:1008A0001F920F920FB60F9211242F933F938F93A5
:1008B0009F93AF93BF938091F9019091FA01A0911A
:1008C000FB01B091FC013091F80123E0230F2D379B
:1008D00020F40196A11DB11D05C026E8230F029644
:1008E000A11DB11D2093F8018093F9019093FA01A5
:1008F000A093FB01B093FC018091FD019091FE015A
:10090000A091FF01B09100020196A11DB11D80933D
:10091000FD019093FE01A093FF01B0930002BF91EF
:10092000AF919F918F913F912F910F900FBE0F909C
:100930001F9018953FB7F8948091FD019091FE01AA
:10094000A091FF01B091000226B5A89B05C02F3FE2
:1009500019F00196A11DB11D3FBF6627782F892F81
:100960009A2F620F711D811D911D42E0660F771F46
:10097000881F991F4A95D1F70895CF92DF92EF9281
:10098000FF92CF93DF936B017C010E949A04EB01ED
:10099000C114D104E104F10489F00E94D9050E9438
:1009A0009A046C1B7D0B683E734090F381E0C81A7B
:1009B000D108E108F108C851DC4FEACFDF91CF91AF
:1009C000FF90EF90DF90CF900895019739F0880F56
:1009D000991F880F991F02970197F1F7089578944E
:1009E00084B5826084BD84B5816084BD85B5826034
:1009F00085BD85B5816085BDEEE6F0E080818160D2
:100A00008083E1E8F0E010828081826080838081D1
:100A100081608083E0E8F0E0808181608083E1EBA9
:100A2000F0E0808184608083E0EBF0E08081816091
:100A30008083EAE7F0E08081846080838081826047
:100A40008083808181608083808180688083109230
:100A5000C1000895833081F028F4813099F082300C
:100A6000A1F008958730A9F08830B9F08430D1F42E
:100A7000809180008F7D03C0809180008F7780936C
:100A80008000089584B58F7702C084B58F7D84BDC2
:100A900008958091B0008F7703C08091B0008F7D62
:100AA0008093B00008950F931F93CF93DF931F920D
:100AB000CDB7DEB7282F30E0F901E859FF4F849118
:100AC000F901E458FF4F1491F901E057FF4F0491E9
:100AD0000023C9F0882321F069830E942A056981D7
:100AE000E02FF0E0EE0FFF1FEC55FF4FA591B49102
:100AF0009FB7F8948C91611103C01095812301C0B8
:100B0000812B8C939FBF0F90DF91CF911F910F91FD
:100B1000089508950E94EF040E9489050E948300B1
:100B2000C0E0D0E00E9497002097E1F30E9400000F
:100B3000F9CFCF92DF92EF92FF920F931F93CF9353
:100B4000DF936C017A01EB01E60EF71E00E010E086
:100B5000CE15DF0561F06991D601ED91FC91019010
:100B6000F081E02DC6010995080F191FF1CFC801CA
:100B7000DF91CF911F910F91FF90EF90DF90CF9079
:100B800008956115710581F0DB010D900020E9F7F2
:100B9000AD0141505109461B570BDC01ED91FC9111
:100BA0000280F381E02D099480E090E008950C9498
:100BB000C1050895EE0FFF1F0590F491E02D0994F3
:040BC000F894FFCFD7
:100BC400000040001400540048656C6C6F20576F9F
:100BD400726C640000000000F700CA009F00A700C8
:0C0BE400BA00C900000000009E03990543
:00000001FF
