:100000000C94E4000C940C010C940C010C940C0165
:100010000C940C010C940C010C940C010C940C012C
:100020000C940C010C940C010C940C010C940C011C
:100030000C940C010C940C010C940C010C940C010C
:100040000C94A80C0C940C010C946B0F0C949D0F49
:100050000C940C010C940C010C940C010C940C01EC
:100060000C9442050C940C01005EBCE2613FDD8300
:10007000C29C7E20A3FD1F419DC3217FFCA2401E88
:100080005F01E3BD3E6082DC237D9FC1421CFEA078
:10009000E1BF5D0380DE3C62BEE0025CDF81633D68
:1000A0007C22C09E1D43A1FF4618FAA427799BC558
:1000B00084DA3866E5BB5907DB856739BAE4065848
:1000C0001947A5FB7826C49A653BD987045AB8E638
:1000D000A7F91B45C6987A24F8A6441A99C7257B28
:1000E0003A6486D85B05E7B98CD2306EEDB3510F18
:1000F0004E10F2AC2F7193CD114FADF3702ECC9208
:10010000D38D6F31B2EC0E50AFF1134DCE90722CF7
:100110006D33D18F0C52B0EE326C8ED0530DEFB1E7
:10012000F0AE4C1291CF2D73CA947628ABF51749D7
:100130000856B4EA6937D58B5709EBB536688AD4C7
:1001400095CB2977F4AA4816E9B7550B88D6346AB7
:100150002B7597C94A14F6A8742AC896154BA9F7A7
:10016000B6E80A54D7896B35000000080002010088
:100170000003040700000000000000000102040862
:100180001020408001020408102001020408102001
:10019000040404040404040402020202020203032D
:1001A00003030303000000002300260029000000D1
:1001B0000000250028002B0000000000240027007C
:1001C0002A002301A404CD0F11241FBECFEFD8E0D5
:1001D000DEBFCDBF11E0A0E0B1E0E8EAF6E202C088
:1001E00005900D92A636B107D9F723E0A6E6B1E057
:1001F00001C01D92AC31B207E1F711E0C8ECD1E0CB
:1002000004C02297FE010E944E13C23CD107C9F7D9
:100210000E9411100C9452130C94000026E040E848
:1002200055E260E070E08FE792E00E94090F8FE8EE
:1002300091E00E9492098FE891E00E9498088EE672
:1002400091E00C94BE0A24E044E167E28FE891E07B
:100250000E946F086EE081E891E00E94A80761E8C3
:1002600071E08EE691E00C9495098EE691E00E9493
:10027000900B60E08EE691E00E94840C0E94E011F9
:1002800070936D0160936C016DE071E08FE891E017
:100290000E945E100E94D3034AE050E0BC018FE848
:1002A00091E00E940A1165E171E08FE891E00E94FF
:1002B0005E100E94DB034AE050E0BC018FE891E051
:1002C0000E940A116BE171E08FE891E00E945E10DC
:1002D0008FE792E00E94260E892B09F48FC080914F
:1002E0000001882351F00E944203609366017093DD
:1002F00067018093680190936901109200010E9448
:1003000042032091660130916701621B730B709369
:100310006B0160936A01882777FD8095982F0E9472
:10032000050341E060E0892B99F58FE891E00E9498
:10033000F90860E271E08FE891E00E945E10609140
:100340006C0170916D014AE050E08FE891E00E94ED
:100350000A116BE271E08FE891E00E945E106FED90
:100360008FE891E00E94601060916A0170916B01CA
:10037000882777FD8095982F0E940B034AE050E074
:10038000BC018FE891E00E940A116BE171E032C07C
:100390008FE891E00E94F90860E271E08FE891E057
:1003A0000E945E1060916C0170916D014AE050E016
:1003B0008FE891E00E940A116BE271E08FE891E012
:1003C0000E945E106FED8FE891E00E9460106091D6
:1003D0006A0170916B01882777FD8095982F0E94A4
:1003E00005034AE050E0BC018FE891E00E940A1149
:1003F0006DE271E08FE891E00E945E1060ED77E0C1
:1004000080E090E00E94210D8FE891E00C94EB08D1
:100410006F927F928F929F92AF92BF92CF92DF9214
:10042000EF92FF920F931F93CF93DF93EA012CE398
:10043000C22ED12CE12CF12CA70196010E9416139B
:100440006883CA01B901A70196010E941613698346
:10045000CA01B90128E130E040E050E00E941613E3
:1004600049015A016A83CA01B9016C5F7F4F8F4FFE
:100470009F4F27E030E040E050E00E9416136F5F8E
:100480006B8300E010E0980140E054E6652E712C8B
:1004900060E9C62EDD24D394E42FF0E0EE54F84F4B
:1004A0007F0183E0E822FF24E114F10489F4CF0105
:1004B000B3010E940213892B29F08EE691E0A0E09F
:1004C000B0E00AC0CF01B6010E940213892BA9F344
:1004D0008DE691E0A0E0B0E0080F191F2A1F3B1F36
:1004E000D901C801AA27BB2788169906AA06BB0608
:1004F00010F04F5FD1CF4E83E114F10499F4CF0196
:1005000064E670E00E940213892B29F08EE691E0E8
:10051000A0E0B0E00BC0CF0160E971E00E940213DF
:10052000892BA1F38DE691E0A0E0B0E0081B190B48
:100530002A0B3B0B801A910AA20AB30ACF0164E688
:1005400070E00E9402139C01CF0160E971E00E94FB
:100550000213E2E3F1E0A0E0A13059F4E114F10468
:1005600051F42115310511F04DE106C00097E1F37A
:1005700002C0408101C04CE150E060E070E08416B0
:100580009506A606B70640F0841A950AA60AB70A89
:10059000AF5F3196AC3001F7AF5FAD8383948C824F
:1005A000DF91CF911F910F91FF90EF90DF90CF904F
:1005B000BF90AF909F908F907F906F900895CF9253
:1005C000DF92EF92FF926B017C018091AB019091E1
:1005D000AC01A091AD01B091AE01C816D906EA06F2
:1005E000FB0671F04FEA51E0C701B6010E94080214
:1005F000C092AB01D092AC01E092AD01F092AE019D
:10060000FF90EF90DF90CF9008950E94DF028091DD
:10061000B00190E008950E94DF028091AF0190E068
:1006200008950F931F936093A7017093A80180937F
:10063000A9019093AA01009101011091020120915A
:10064000030130910401060F171F281F391F009363
:100650009F011093A0012093A1013093A20182E099
:1006600090E090939E0180939D010E94F20C609314
:10067000A3017093A4018093A5019093A6011F91FB
:100680000F910895CF92DF92EF92FF920F931F93F5
:100690000E94F20CC090A301D090A401E090A501AB
:1006A000F090A6016C197D098E099F090091A701A0
:1006B0001091A8012091A9013091AA01683E7340D0
:1006C00081059105D8F00F5F1F4F2F4F3F4F0093CB
:1006D000A7011093A8012093A9013093AA0148EE25
:1006E000C40E43E0D41EE11CF11CC092A301D092C1
:1006F000A401E092A501F092A601CACF80919F01CA
:100700009091A001A091A101B091A2010817190731
:100710002A073B07C8F1E0919B01F0919C013097BB
:1007200099F10995611571058105910519F00E94EE
:1007300011032AC08091010190910201A09103014F
:10074000B09104014091A7015091A8016091A901C5
:100750007091AA01840F951FA61FB71F80939F0158
:100760009093A001A093A101B093A20181E090E039
:1007700020919D0130919E01232B11F480E090E0A7
:1007800090939E0180939D016091A7017091A801B3
:100790008091A9019091AA011F910F91FF90EF9074
:1007A000DF90CF9008950E9442030E94DF02809163
:1007B000B00190E008950E9442030E94DF02809100
:1007C000AF0190E008958091E60190E02091E7016B
:1007D000821B910908952091E7018091E601281775
:1007E00050F4E22FF0E0E851FE4F808190E02F5F5F
:1007F0002093E70108958FEF9FEF0895E091E701BF
:100800008091E601E81730F4F0E0E851FE4F808176
:1008100090E008958FEF9FEF08950895CF92DF92B3
:10082000EF92FF920F931F93CF93DF937C01CB0145
:100830008A012091C201222389F0EB016B01C40ED1
:10084000D51ECC15DD0569F06991D701ED91FC91BC
:100850000190F081E02DC7010995F3CF642F0E942C
:100860001905C801DF91CF911F910F91FF90EF9073
:10087000DF90CF900895CF93DF931F92CDB7DEB76F
:1008800069832091C2012223D1F02091C30120323B
:1008900040F021E030E0FC013383228380E090E0EF
:1008A00015C08091C401E82FF0E0EB53FE4F998111
:1008B00090838F5F8093C4018093C30105C061E082
:1008C000CE0101960E94190581E090E00F90DF9122
:1008D000CF910895FC011382128248EE53E060E04C
:1008E00070E0448355836683778382E491E091834B
:1008F000808308951092E7011092E6011092C401DE
:100900001092C3010C94A80481E08093C20160930B
:10091000E5011092C4011092C30108950F93062FB0
:1009200021E04091C30165EC71E08091E5010E94F6
:10093000C6041092C4011092C3011092C2010F911B
:10094000089561E00C948E0486EB91E00C946A04A7
:100950001092750281E0809373021092720261E03E
:1009600082E10E94F00D61E083E10E94F00DE9EB6D
:10097000F0E080818E7F808380818D7F808388E41A
:100980008093B80085E48093BC0008950F934132B2
:1009900008F046C0909175029111FCCF92E09093BF
:1009A0007502009373029FEF9093080210924D021C
:1009B00040934C02FB016EE472E0DB019A2F961B20
:1009C000941718F491919D93F9CF1092740290911D
:1009D0007402880F892B8093740280917202813097
:1009E00041F410927202809174028093BB0085ECF6
:1009F00001C085EE8093BC00222321F08091750216
:100A00008230E1F3809108028F3F61F0809108020B
:100A1000803251F080910802803341F483E007C0B6
:100A200081E005C080E003C082E001C084E00F9156
:100A30000895613298F420917502243089F460930E
:100A40002A02FC018CE292E0DC012A2F281B2617E7
:100A500018F421912D93F9CF80E0089581E0089555
:100A600082E0089585ED8093BC008091BC0084FDF8
:100A7000FCCF10927502089585EC8093BC00109213
:100A8000750208951F920F920FB60F9211242F93A3
:100A90003F934F935F936F937F938F939F93AF9306
:100AA000BF93EF93FF938091B900887F803609F45C
:100AB0009CC068F5883209F45BC090F4803109F479
:100AC00054C038F4882309F4F5C0883009F44DC0C7
:100AD000F5C0883109F44CC0803209F45DC0EEC025
:100AE000803409F468C048F4803309F455C0883371
:100AF00009F0E4C080930802A8C0803509F44FC013
:100B0000883509F45DC0883409F0D8C0D5C088396B
:100B100009F4C6C0A8F4883709F467C038F48836E9
:100B200009F463C0803709F460C0C8C0883809F48C
:100B3000B7C0803909F45FC0803809F0BFC05BC01E
:100B4000803B09F485C038F4803A09F466C0883ADD
:100B500009F47EC0B3C0803C09F4A6C0883C09F407
:100B6000A3C0883B09F489C0A9C08091740210C059
:100B700090914D0280914C02981770F5E0914D02D2
:100B800081E08E0F80934D02F0E0E25BFD4F8081AB
:100B90008093BB0085EC85C0809308028DC0E091F6
:100BA0004D0281E08E0F80934D028091BB00F0E0FA
:100BB000E25BFD4F808390914D0280914C026DC0AD
:100BC000E0914D0281E08E0F80934D028091BB0039
:100BD000F0E0E25BFD4F80838091730281116CC075
:100BE00081E08093720284EA60C083E080937502A2
:100BF00010920902CFCF80910902803208F050C0D4
:100C0000E091090281E08E0F809309028091BB0080
:100C1000F0E0E65FFD4F8083BDCF80910902803216
:100C200030F4E0910902F0E0E65FFD4F10820E948F
:100C300032056091090270E0E0916E02F0916F025E
:100C40008AE092E00995109209020E943C0536C0A4
:100C500084E08093750210922B0210922A02E09198
:100C60007002F0917102099580912A02811105C0EC
:100C700081E080932A0210922C02E0912B0281E005
:100C80008E0F80932B02F0E0E45DFD4F8081809316
:100C9000BB0090912B0280912A02981708F47ACF1A
:100CA00085E88093BC000AC085EC8093BC0010925C
:100CB000750204C0109208020E943205FF91EF9164
:100CC000BF91AF919F918F917F916F915F914F9164
:100CD0003F912F910F900FBE0F901F901895FF928C
:100CE0000F931F93CF93DF93FC010081C181D281C9
:100CF000F8948981F02EF0948F21898378941DE7F0
:100D0000115029F182E090E00E94490D88818023F2
:100D1000B9F3F8948A818F218A838981802B898312
:100D2000789480EE91E00E94490DF89489818F219A
:100D3000898386E490E00E94490D8881802311E038
:100D400009F010E078948AE991E00E94490D812F22
:100D5000DF91CF911F910F91FF9008951F93CF9333
:100D6000DF93FC011081C181D281912F909560FFAA
:100D700012C0F8948A8189238A838981812B89838F
:100D80008AE090E00E94490D8A81812B8A837894C1
:100D900087E390E011C0F8948A8189238A8389814E
:100DA000812B898381E490E00E94490D8A81812B07
:100DB0008A83789485E090E0DF91CF911F910C9425
:100DC000490D0F931F93CF93DF93FC011081C181D5
:100DD000D281F8948981812B89838A81012F0095A2
:100DE00080238A8383E090E00E94490D89818023DB
:100DF00089838AE090E00E94490DC881789485E358
:100E000090E00E94490D1C2381E009F480E0DF910D
:100E1000CF911F910F910895CF92DF92EF92FF92A1
:100E20000F931F93CF93DF931F92CDB7DEB76C0163
:100E3000E62E08E010E0FF24F39461E09F2D9E2150
:100E400009F460E0C60149830E94AE06FF0C015020
:100E5000110949810115110581F7411115C0F89457
:100E6000D6011196ED91FC91129791818C9180950C
:100E7000892381831196ED91FC91129792818C9137
:100E800080958923828378940F90DF91CF911F9171
:100E90000F91FF90EF90DF90CF900895EF92FF9227
:100EA0000F931F93CF93DF938C01C8E0D0E0F12C18
:100EB000EE24E394C8010E94E1068111FE28EE0CA5
:100EC0002197C1F78F2DDF91CF911F910F91FF9047
:100ED000EF900895CF92DF92FF920F931F93CF93DD
:100EE000DF931F92CDB7DEB78C01F62E40E065E5AB
:100EF00079830E940C07CF2C7981D72E88E0F82EB9
:100F0000F60161916F0140E0C8010E940C07FA945C
:100F1000B9F70F90DF91CF911F910F91FF90DF9064
:100F2000CF90089540E06CEC0C940C07FC01138604
:100F30001586148627E030E0DF01A20FB31F139659
:100F40001C922115310519F021503109F5CF089572
:100F50001F93CF93DF93EC01162F60E0812F0E9447
:100F6000B70D612F70E0FB01E458FE4FE491E88378
:100F7000FB01E057FE4FE491F0E0EE0FFF1FEC5550
:100F8000FE4F859194919A838983CE01DF91CF9111
:100F90001F910C949607AF92BF92CF92DF92EF927F
:100FA000FF920F931F93CF93DF931F92CDB7DEB7BE
:100FB0005C01E62ED72EFC01858581115DC0C5013F
:100FC0000E946F06811105C0F501138615861486EF
:100FD0006EC040E060EFC5010E940C0701E0F12CFB
:100FE000C12C11E0C5010E94E106682FC50169838B
:100FF0000E94E1066981613019F48130B9F433C08F
:101000002F2D30E068131BC0F5018385181730F4CD
:10101000E20FF31F8381802349F402C0181731F0D7
:1010200060E0193058F4F501148708C0F501EF0DA0
:10103000F11D8381802B838361E009C0C12EF501FE
:10104000E20FF31F8381902F909589238383C5013D
:101050000E94AE061F5F000F11F4F39401E0F7E069
:10106000FF1508F0BFCF113438F0F501C386C11069
:1010700018C081E0858715C0F50113861586148692
:1010800080E0EE2DFD2D20E030E0D501A20FB31F52
:1010900013969C9191932F5F3F4F28303105A9F70C
:1010A00006C0F5018381882339F381E0EACF0F90F0
:1010B000DF91CF911F910F91FF90EF90DF90CF9034
:1010C000BF90AF900895DC0180E0615038F0ED9161
:1010D000E827F0E0E859FF4F8491F7CF0895FC012D
:1010E0001382128282E591E0918380836483418739
:1010F0002287138608951F93CF93DF93EC01162F59
:101100006C8186EB91E00E948404E091B601F0913D
:10111000B7016B85612B0190F081E02D86EB91E0AA
:10112000099586EB91E0DF91CF911F910C94A1047A
:1011300028E0FC01238760E00C947B081F93CF9389
:10114000DF93EC01162F64600E947B0881E090E041
:101150000E94490D612F6B7FCE010E947B0882E3C4
:1011600090E0DF91CF911F910C94490D1F93CF9385
:10117000DF93EC01162F0E947B08612FCE01DF91D7
:10118000CF911F910C949E08EF92FF921F93CF93E3
:10119000DF931F92CDB7DEB77C01162F607F642BE3
:1011A00049830E94B60880E1189FB001112449814B
:1011B000642BC7010F90DF91CF911F91FF90EF90AB
:1011C0000C94B60841E00E94C40880E090E00895C5
:1011D00040E00C94C40861E00E94E80880ED97E0CC
:1011E0000C94490D62E00E94E80880ED97E00C94B1
:1011F000490DCF93DF93CDB7DEB728970FB6F8949C
:10120000DEBF0FBECDBF28E0E5E0F1E0DE011196C4
:1012100001900D922A95E1F7FC012085241710F426
:101220004FEF420FFE013196E40FF11DE40FF11D67
:101230002081260F2068622F28960FB6F894DEBF13
:101240000FBECDBFDF91CF910C94E808FC01668101
:10125000262F246026836C600C94E808CF93DF93DC
:10126000EC01423018F08D8188608D8348872223FD
:1012700029F0413019F48D8184608D8362E370E040
:1012800080E090E00E94210D6B85CE010E947B08DA
:1012900068EE73E080E090E00E94210D60E3CE01F3
:1012A0000E94B60884E991E10E94490D60E3CE01F5
:1012B0000E94B60884E991E10E94490D60E3CE01E5
:1012C0000E94B60886E990E00E94490D60E2CE01D6
:1012D0000E94B6086D816062CE010E94E80884E039
:1012E0008E83CE010E942609CE010E94EB0882E087
:1012F0008F8366E0CE010E94E808CE01DF91CF9196
:101300000C94F208CF93DF93EC0186EB91E00E94FE
:101310007A041D8220E04A856985CE01DF91CF9154
:101320000C942E090C9482090895FC0184E999E03B
:10133000928B818B768365831482108289E081830E
:1013400081E0828383830895CF93DF93EB0167E08D
:10135000CE010E94630891E02F81821390E0892FD3
:10136000DF91CF910895EF92FF920F931F93CF9348
:10137000DF93EC018B01E42E8D819E810E94960704
:10138000F12CB8018D819E810E94CB07882359F0F2
:10139000FE1006C0B801CE010E94A409811104C04C
:1013A000F394EF1470F780E0DF91CF911F910F91CC
:1013B000FF90EF900895EF92FF920F931F93CF93BA
:1013C000DF9300D0CDB7DEB77C018A01FC018581B7
:1013D000968169837A830E946F0669817A81F70119
:1013E000858196810E946A0740E06EEBF701858156
:1013F00096810E940C07F701858196810E944E0715
:10140000F8018083F701858196810E944E07F801DB
:101410008183F701858196810E944E07F8018283BE
:10142000F701858196810E944E07F8018383F701B9
:10143000858196810E944E07F8018483F70185819A
:1014400096810E944E07F8018583F7018581968178
:101450000E944E07F8018683F701858196810E94DC
:101460004E07F8018783F701858196810E944E0718
:10147000F8018087F701858196810F900F90DF91A9
:10148000CF911F910F91FF90EF900C946F06CF9327
:10149000DF93EA010E94DB0968E0CE010E94630845
:1014A00091E02885821390E0892FDF91CF910895F4
:1014B000EF92FF921F93CF93DF9300D0CDB7DEB7AB
:1014C0007C01FC018581968169837A830E946F0685
:1014D00069817A81F701858196810E946A0740E0DF
:1014E00064EBF701858196810E940C07F7018581E5
:1014F00096810E94E106182FF701858196810E944E
:101500006F0681E0111180E00F900F90DF91CF9175
:101510001F91FF90EF900895CF93DF93CDB7DEB783
:1015200029970FB6F894DEBF0FBECDBFFB01208117
:101530002031D1F0AE014F5F5F4F0E94470A8823F0
:1015400079F08D818F3351F018F48F3169F008C034
:101550008F3541F08F3721F48CE007C08AE005C059
:1015600080E003C08BE001C089E029960FB6F894B3
:10157000DEBF0FBECDBFDF91CF910895EF92FF92F6
:101580000F931F93CF93DF93CDB7DEB761970FB65D
:10159000F894DEBF0FBECDBF8C01FC018581968122
:1015A0000E949607F8011482FF24F394BE01665F3F
:1015B0007F4FF801858196810E94CB078823C9F16E
:1015C000BE01665F7F4FC8010E94A409882371F3A2
:1015D000F8018081811108C0BE01665F7F4FC8019C
:1015E0000E94580A811122C0AE014F5F5F4FBE01B9
:1015F000665F7F4FC8010E94DB09F801E180BE01F0
:10160000665F7F4FC8010E948C0A8E1518F4F8019E
:10161000818106C0BE01665F7F4FC8010E948C0AAF
:10162000F801818384818F5F8483C0CFF801F082C9
:10163000DBCF61960FB6F894DEBF0FBECDBFDF9152
:10164000CF911F910F91FF90EF900895CF93DF936B
:10165000CDB7DEB729970FB6F894DEBF0FBECDBF6A
:10166000AE014F5F5F4F0E94DB0981E099819111CC
:1016700001C080E029960FB6F894DEBF0FBECDBF43
:10168000DF91CF910895CF92DF92EF92FF920F9367
:101690001F93CF93DF93EC018B01452BE1F08B81FE
:1016A0008823C9F08881811116C00E94F20C6B0159
:1016B0007C0160E070E0CE010E94260B81110BC01E
:1016C0000E94F20C6C197D098E099F096E3E7240D2
:1016D0008105910570F3F80180818A3049F08B30E3
:1016E00061F0893079F46EE570E080E090E00EC042
:1016F0006CEB70E080E090E009C067E771E080E0AB
:1017000090E004C06EEE72E080E090E0DF91CF9157
:101710001F910F91FF90EF90DF90CF900C94210DCF
:10172000CF93DF93EC018D819E810E946F068D81A6
:101730009E810E949207488164E48D819E810E946F
:101740000C078A81882351F0BE016F5F7F4F40E014
:1017500050E0CE01DF91CF910C94430BDF91CF91FC
:1017600008958F929F92AF92BF92CF92DF92EF92A5
:10177000FF921F93CF93DF93FB01EA01698170E031
:10178000762F66278881682B80818232B1F188327A
:10179000A1F1803109F078C01F8175956795882780
:1017A00077FD8095982F0E94131220E030E040E8EA
:1017B0005EE30E9413116B017C01612F70E08E814A
:1017C000681B7109882777FD8095982F0E94131256
:1017D0004B015C01612F70E080E090E00E941112EB
:1017E0009B01AC01C501B4010E9478119B01AC01C1
:1017F000C701B6010E94141143C08C818F3381F15F
:1018000098F48F3109F040C093E0759567959A95EB
:10181000E1F7882777FD8095982F0E94131220E02A
:1018200030E040E05FE32AC08F3569F08F3761F523
:10183000882777FD8095982F0E94131220E030E0D2
:1018400040E85DE31BC075956795882777FD809517
:10185000982F0E94131220E030E040E05EE30EC0BB
:101860007595679575956795882777FD8095982F6D
:101870000E94131220E030E040E85EE30E949F12D5
:10188000562F472F382F292F652F742F832F922FF4
:10189000DF91CF911F91FF90EF90DF90CF90BF909D
:1018A000AF909F908F900895EF92FF920F931F93A8
:1018B000CF93DF93CDB7DEB729970FB6F894DEBF8D
:1018C0000FBECDBF8C017B01AE014F5F5F4F0E9409
:1018D000470A882341F0AE014F5F5F4FB701C8014F
:1018E0000E94B10B04C060E070E08EEF92EC29968C
:1018F0000FB6F894DEBF0FBECDBFDF91CF911F9121
:101900000F91FF90EF9008950F931F93CF93DF9364
:10191000CDB7DEB728970FB6F894DEBF0FBECDBFA8
:101920008C01462FBE016F5F7F4F0E94B309BE013D
:101930006F5F7F4FC8010E94540C28960FB6F89431
:10194000DEBF0FBECDBFDF91CF911F910F910895E4
:101950001F920F920FB60F9211242F933F938F93E4
:101960009F93AF93BF938091770290917802A0915B
:101970007902B0917A023091760223E0230F2D375D
:1019800020F40196A11DB11D05C026E8230F029683
:10199000A11DB11D20937602809377029093780267
:1019A000A0937902B0937A0280917B0290917C029D
:1019B000A0917D02B0917E020196A11DB11D809380
:1019C0007B0290937C02A0937D02B0937E02BF9134
:1019D000AF919F918F913F912F910F900FBE0F90DC
:1019E0001F9018952FB7F894609177027091780244
:1019F0008091790290917A022FBF08953FB7F894B1
:101A000080917B0290917C02A0917D02B0917E0238
:101A100026B5A89B05C02F3F19F00196A11DB11D49
:101A20003FBF6627782F892F9A2F620F711D811D66
:101A3000911D42E0660F771F881F991F4A95D1F7C5
:101A40000895CF92DF92EF92FF92CF93DF936B01D5
:101A50007C010E94FE0CEB01C114D104E104F104ED
:101A600089F00E9412110E94FE0C6C1B7D0B683ED7
:101A7000734090F381E0C81AD108E108F108C85119
:101A8000DC4FEACFDF91CF91FF90EF90DF90CF90C6
:101A90000895019739F0880F991F880F991F0297B1
:101AA0000197F1F70895789484B5826084BD84B578
:101AB000816084BD85B5826085BD85B5816085BD49
:101AC000EEE6F0E0808181608083E1E8F0E0108262
:101AD000808182608083808181608083E0E8F0E0A3
:101AE000808181608083E1EBF0E08081846080838D
:101AF000E0EBF0E0808181608083EAE7F0E08081C4
:101B00008460808380818260808380818160808323
:101B10008081806880831092C1000895833081F0B5
:101B200028F4813099F08230A1F008958730A9F02F
:101B30008830B9F08430D1F4809180008F7D03C06B
:101B4000809180008F7780938000089584B58F778F
:101B500002C084B58F7D84BD08958091B0008F77D9
:101B600003C08091B0008F7D8093B0000895CF9323
:101B7000DF9390E0FC01E458FE4F2491FC01E05714
:101B8000FE4F8491882349F190E0880F991FFC0152
:101B9000E854FE4FA591B49182559E4FFC01C5912A
:101BA000D4919FB7611108C0F8948C91209582233D
:101BB0008C93888182230AC0623051F4F8948C910E
:101BC000322F309583238C938881822B888304C0A5
:101BD000F8948C91822B8C939FBFDF91CF910895C5
:101BE0000F931F93CF93DF931F92CDB7DEB7282FAC
:101BF00030E0F901E859FE4F8491F901E458FE4FB5
:101C00001491F901E057FE4F04910023C9F0882395
:101C100021F069830E948E0D6981E02FF0E0EE0FC4
:101C2000FF1FE255FE4FA591B4919FB7F8948C9198
:101C3000611103C01095812301C0812B8C939FBF3C
:101C40000F90DF91CF911F910F910895FC01818D2D
:101C5000228D90E0805C9F4F821B91098F739927A2
:101C60000895FC01918D828D981731F0828DE80FD7
:101C7000F11D858D90E008958FEF9FEF0895FC0191
:101C8000918D828D981761F0828DDF01A80FB11DB3
:101C90005D968C91928D9F5F9F73928F90E00895D7
:101CA0008FEF9FEF089583EC9FE0892B49F080E050
:101CB00090E0892B29F00E94C30F81110C94000041
:101CC0000895FC01848DDF01A80FB11DA35ABF4FF9
:101CD0002C91848D90E001968F739927848FA6892B
:101CE000B7892C93A089B1898C9180648C93938D52
:101CF000848D981306C00288F389E02D80818F7D42
:101D000080830895CF93DF93EC01888D8823C9F0F9
:101D1000EA89FB89808185FD05C0A889B9898C91F4
:101D200086FD0FC00FB607FCF5CF808185FFF2CF8F
:101D3000A889B9898C9185FFEDCFCE010E94610EF3
:101D4000E7CFDF91CF910895CF92DF92FF920F936B
:101D50001F93CF93DF931F92CDB7DEB76C01DC01E9
:101D60005B969C915B975C968C915C97981307C0EF
:101D70005096ED91FC915197808185FD32C0F6011E
:101D8000038D10E00F5F1F4F0F731127F02EF60128
:101D9000848DF81211C00FB607FCF9CFD60150960A
:101DA000ED91FC915197808185FFF1CFC601698348
:101DB0000E94610E6981EBCF838DE80FF11DE35A1C
:101DC000FF4F6083D6015B960C935B975296ED9123
:101DD000FC91539780818062808381E058968C9338
:101DE0000DC0D6015696ED91FC91579760835096A1
:101DF000ED91FC91519780818064808381E090E037
:101E00000F90DF91CF911F910F91FF90DF90CF90B6
:101E10000895BF92CF92DF92EF92FF92CF93DF931C
:101E2000EC016A017B01B22EE889F98982E08083A6
:101E3000411581EE580761057105A1F060E079E078
:101E40008DE390E0A70196010E94161321503109FD
:101E5000410951095695479537952795211580E1F8
:101E6000380798F0E889F989108260E874E88EE113
:101E700090E0A70196010E941613215031094109F3
:101E800051095695479537952795EC85FD85308303
:101E9000EE85FF852083188EEC89FD89B082EA8962
:101EA000FB89808180618083EA89FB8980818860E9
:101EB0008083EA89FB89808180688083EA89FB8945
:101EC00080818F7D8083DF91CF91FF90EF90DF90B5
:101ED000CF90BF9008951F920F920FB60F921124CA
:101EE0002F938F939F93EF93FF93E0918F02F09145
:101EF00090028081E0919502F091960282FD12C0DD
:101F00009081809198028F5F8F7320919902821740
:101F100051F0E0919802F0E0E158FD4F958F8093E9
:101F2000980201C08081FF91EF919F918F912F9135
:101F30000F900FBE0F901F9018951F920F920FB623
:101F40000F9211242F933F934F935F936F937F933F
:101F50008F939F93AF93BF93EF93FF938FE792E09D
:101F60000E94610EFF91EF91BF91AF919F918F9170
:101F70007F916F915F914F913F912F910F900FBE85
:101F80000F901F9018958FE792E00E94260E21E097
:101F9000892B09F420E0822F08951092820210927A
:101FA000810288EE93E0A0E0B0E0809383029093FA
:101FB0008402A0938502B09386028AE591E0909313
:101FC000800280937F0285EC90E090938C02809356
:101FD0008B0284EC90E090938E0280938D0280ECD3
:101FE00090E09093900280938F0281EC90E0909328
:101FF00092028093910282EC90E0909394028093FD
:10200000930286EC90E09093960280939502109252
:1020100098021092990210929A0210929B020895CF
:1020200008950E94530D0E9410100E940E01C3E5F6
:10203000DEE00E9435012097E1F30E94530EF9CFB4
:10204000CF92DF92EF92FF920F931F93CF93DF9384
:102050006C017A01EB01E60EF71E00E010E0CE15F0
:10206000DF0561F06991D601ED91FC910190F0815D
:10207000E02DC6010995080F191FF1CFC801DF91A6
:10208000CF911F910F91FF90EF90DF90CF90089527
:102090006115710581F0DB010D900020E9F7AD01BC
:1020A00041505109461B570BDC01ED91FC91028018
:1020B000F381E02D099480E090E008950C9448109D
:1020C000DC01ED91FC910190F081E02D09948F925B
:1020D0009F92AF92BF92CF92DF92EF92FF920F93B7
:1020E0001F93CF93DF93CDB7DEB7A1970FB6F894C8
:1020F000DEBF0FBECDBF7C01C42EE52FCB01D22E9B
:1021000019A221E02D1510F02AE0D22E8E010F5DCC
:102110001F4F8D2C912CA12CB12C6C2D7E2FA50145
:1021200094010E9416138C2DD29E80191124015007
:1021300011098A3014F4805D01C0895CF801808344
:10214000211531054105510521F0C22EE32FCA01A9
:10215000E4CFB801C7010E944810A1960FB6F894C9
:10216000DEBF0FBECDBFDF91CF911F910F91FF90CA
:10217000EF90DF90CF90BF90AF909F908F90089599
:10218000CF92DF92EF92FF920F931F93CF93DF9343
:10219000EC016A017B012115310579F4E881F981AF
:1021A0000190F081E02D642FDF91CF911F910F916D
:1021B000FF90EF90DF90CF9009942A303105E9F439
:1021C00077FF1AC06DE20E9460108C0144275527EA
:1021D000BA014C195D096E097F092AE0CE010E94FF
:1021E0006710800F911FDF91CF911F910F91FF908A
:1021F000EF90DF90CF9008952AE0B701A601CE01BD
:10220000DF91CF911F910F91FF90EF90DF90CF90D2
:102210000C9467109A01AB01662757FD6095762FE5
:102220000C94C01008955058BB27AA270ED04DC15A
:102230003ED130F043D120F031F49F3F11F41EF431
:1022400033C10EF4E095E7FB29C1E92F4FD180F3AC
:10225000BA17620773078407950718F071F49EF5A3
:1022600067C10EF4E0950B2EBA2FA02D0B01B9011A
:1022700090010C01CA01A0011124FF27591B99F0FC
:10228000593F50F4503E68F11A16F040A22F232F08
:10229000342F4427585FF3CF469537952795A79558
:1022A000F0405395C9F77EF41F16BA0B620B730BFF
:1022B000840BBAF09150A1F0FF0FBB1F661F771F70
:1022C000881FC2F70EC0BA0F621F731F841F48F425
:1022D000879577956795B795F7959E3F08F0B3CFAB
:1022E0009395880F08F09927EE0F97958795089595
:1022F0000CD0EBC0E3D040F0DAD030F021F45F3FF7
:1023000019F0CCC0511115C1CFC0F0D098F399236A
:10231000C9F35523B1F3951B550BBB27AA276217A9
:102320007307840738F09F5F5F4F220F331F441FEE
:10233000AA1FA9F333D00E2E3AF0E0E830D0915026
:102340005040E695001CCAF729D0FE2F27D0660F13
:10235000771F881FBB1F261737074807AB07B0E852
:1023600009F0BB0B802DBF01FF2793585F4F2AF068
:102370009E3F510568F092C0DCC05F3FECF3983E91
:10238000DCF3869577956795B795F7959F5FC9F7C5
:10239000880F911D9695879597F90895E1E0660F4E
:1023A000771F881FBB1F621773078407BA0720F0C7
:1023B000621B730B840BBA0BEE1F88F7E095089530
:1023C00004D06894B111B5C0089598D088F09F5793
:1023D00090F0B92F9927B751A0F0D1F0660F771F71
:1023E000881F991F1AF0BA95C9F712C0B13081F051
:1023F0009FD0B1E008959CC0672F782F8827B85FE1
:1024000039F0B93FCCF3869577956795B395D9F7B1
:102410003EF490958095709561957F4F8F4F9F4FBB
:102420000895E89409C097FB3EF4909580957095C7
:1024300061957F4F8F4F9F4F9923A9F0F92F96E910
:10244000BB279395F695879577956795B795F11185
:10245000F8CFFAF4BB0F11F460FF1BC06F5F7F4F22
:102460008F4F9F4F16C0882311F096E911C0772334
:1024700021F09EE8872F762F05C0662371F096E83D
:10248000862F70E060E02AF09A95660F771F881F0C
:10249000DAF7880F9695879597F9089597F99F67CA
:1024A00080E870E060E008959FEF80EC08950024DC
:1024B0000A941616170618060906089500240A94A9
:1024C00012161306140605060895092E0394000C2F
:1024D00011F4882352F0BB0F40F4BF2B11F460FFBE
:1024E00004C06F5F7F4F8F4F9F4F089557FD9058E7
:1024F000440F551F59F05F3F71F04795880F97FBC8
:10250000991F61F09F3F79F0879508951216130681
:102510001406551FF2CF4695F1DF08C016161706B0
:102520001806991FF1CF86957105610508940895E5
:10253000E894BB2766277727CB0197F908950BD03E
:10254000C4CFB5DF28F0BADF18F0952309F0A6CF85
:10255000ABCF1124EECFCADFA0F3959FD1F3950F37
:1025600050E0551F629FF001729FBB27F00DB11D17
:10257000639FAA27F00DB11DAA1F649F6627B00DA7
:10258000A11D661F829F2227B00DA11D621F739F90
:10259000B00DA11D621F839FA00D611D221F749F9E
:1025A0003327A00D611D231F849F600D211D822FE5
:1025B000762F6A2F11249F5750408AF0E1F088232C
:1025C0004AF0EE0FFF1FBB1F661F771F881F915039
:1025D0005040A9F79E3F510570F060CFAACF5F3FF2
:1025E000ECF3983EDCF3869577956795B795F7956C
:1025F000E7959F5FC1F7FE2B880F911D96958795F4
:1026000097F9089597FB072E16F4009407D077FDED
:1026100009D00E94381307FC05D03EF490958195AF
:102620009F4F0895709561957F4F0895A1E21A2EEE
:10263000AA1BBB1BFD010DC0AA1FBB1FEE1FFF1F66
:10264000A217B307E407F50720F0A21BB30BE40BB6
:10265000F50B661F771F881F991F1A9469F76095FD
:102660007095809590959B01AC01BD01CF010895B7
:10267000AA1BBB1B51E107C0AA1FBB1FA617B707A8
:1026800010F0A61BB70B881F991F5A95A9F78095C4
:102690009095BC01CD010895EE0FFF1F0590F491B8
:0826A000E02D0994F894FFCF2E
:1026A800012C0100000000400014005400546F7415
:1026B800616C3A2000206D696E20002073656B0004
:1026C800416B7475656C6C743A20004300206D6929
:1026D8006E001F1C1F1E1F1E1F1F1E1F1E1F000017
:1026E80000003B040E04E303EB03FE030D040000AB
:1026F8000000E208201000000000A40E2010260EA2
:062708003F0E310E820EAF
:00000001FF
