:100000000C94E4000C940C010C940C010C940C0165
:100010000C940C010C940C010C940C010C940C012C
:100020000C940C010C940C010C940C010C940C011C
:100030000C940C010C940C010C940C010C940C010C
:100040000C94DE0D0C940C010C94CA100C94FC1052
:100050000C940C010C940C010C940C010C940C01EC
:100060000C9478060C940C01005EBCE2613FDD83C9
:10007000C29C7E20A3FD1F419DC3217FFCA2401E88
:100080005F01E3BD3E6082DC237D9FC1421CFEA078
:10009000E1BF5D0380DE3C62BEE0025CDF81633D68
:1000A0007C22C09E1D43A1FF4618FAA427799BC558
:1000B00084DA3866E5BB5907DB856739BAE4065848
:1000C0001947A5FB7826C49A653BD987045AB8E638
:1000D000A7F91B45C6987A24F8A6441A99C7257B28
:1000E0003A6486D85B05E7B98CD2306EEDB3510F18
:1000F0004E10F2AC2F7193CD114FADF3702ECC9208
:10010000D38D6F31B2EC0E50AFF1134DCE90722CF7
:100110006D33D18F0C52B0EE326C8ED0530DEFB1E7
:10012000F0AE4C1291CF2D73CA947628ABF51749D7
:100130000856B4EA6937D58B5709EBB536688AD4C7
:1001400095CB2977F4AA4816E9B7550B88D6346AB7
:100150002B7597C94A14F6A8742AC896154BA9F7A7
:10016000B6E80A54D7896B35000000080002010088
:100170000003040700000000000000000102040862
:100180001020408001020408102001020408102001
:10019000040404040404040402020202020203032D
:1001A00003030303000000002300260029000000D1
:1001B0000000250028002B0000000000240027007C
:1001C0002A00C001DA052C1111241FBECFEFD8E0A0
:1001D000DEBFCDBF11E0A0E0B1E0EAEAF9E202C083
:1001E00005900D92A238B107D9F723E0A2E8B1E05B
:1001F00001C01D92AA33B207E1F711E0C8ECD1E0CB
:1002000004C02297FE010E94CF14C23CD107C9F757
:100210000E9470110C94D3140C94000026E040E866
:1002200055E260E070E08DE992E00E9468108DEA8E
:1002300091E00E94C80A8DEA91E00E94CE098CE804
:1002400091E00E94F40B61E0809103010E94ED0EA9
:1002500061E0809100010E94ED0E61E171E08DEAA4
:1002600091E00C94BD1160918801709189018827FB
:1002700077FD8095982F0E945C0341E060E0892B18
:1002800099F58DEA91E00E942F0A63E271E08DEA10
:1002900091E00E94BD1160918A0170918B014AE04A
:1002A00050E08DEA91E00E9469126FED8DEA91E0D5
:1002B0000E94BF116DE271E08DEA91E00E94BD11D4
:1002C0006091880170918901882777FD8095982F2A
:1002D0000E9462034AE050E0BC018DEA91E00E9476
:1002E000691260E371E038C08DEA91E00E942F0A44
:1002F00063E271E08DEA91E00E94BD1160918A0194
:1003000070918B014AE050E08DEA91E00E94691201
:100310006FED8DEA91E00E94BF116DE271E08DEA10
:1003200091E00E94BD116091880170918901882738
:1003300077FD8095982F0E945C034AE050E0BC0155
:100340008DEA91E00E94691265E371E08DEA91E027
:100350000E94BD116AE371E08DEA91E00C94BD1139
:100360008CE891E00E94C60C60E08CE891E00E946D
:10037000BA0D0E943F1370938B0160938A01089518
:1003800024E044E167E28DEA91E00E94A5096EE075
:100390008FE991E00E94DE086FE971E08CE891E05E
:1003A0000C94CB0AEF92FF920F931F93E12CF12C48
:1003B00000E010E020E030E040E050E060E070E07D
:1003C00080E090E00E94F5048DE992E00E94850FA4
:1003D000892B09F46FC040E060E08DEA91E00E9453
:1003E0002F0A6FE371E08DEA91E00E94BD110E9437
:1003F000E5044AE050E0BC018DEA91E00E946912F8
:1004000067E471E08DEA91E00E94BD110E94ED0465
:100410004AE050E0BC018DEA91E00E94691260E37D
:1004200071E08DEA91E00E94BD116DE371E08DEA0B
:1004300091E00E94BD11809103010E945C0F909396
:10044000830180938201019761F40E9454046093B8
:1004500084017093850180938601909387011092A7
:1004600002010E9454042091840130918501621B95
:10047000730B70938901609388018091020181114F
:1004800007C00E9433010E94ED0480FF0E94B0016A
:1004900080918A0190918B018132910511F461E084
:1004A00004C04B9709F090CF60E0809100010E945A
:1004B000260F8ACF1F910F91FF90EF9008956F92B2
:1004C0007F928F929F92AF92BF92CF92DF92EF92E4
:1004D000FF920F931F93CF93DF93EA012CE3C22E79
:1004E000D12CE12CF12CA70196010E947514688390
:1004F000CA01B901A70196010E9475146983CA0156
:10050000B90128E130E040E050E00E947514490153
:100510005A016A83CA01B9016C5F7F4F8F4F9F4FA9
:1005200027E030E040E050E00E9475146F5F6B837D
:1005300000E010E0980140E054E6652E712C60E97F
:10054000C62EDD24D394E42FF0E0EE54F84F7F0163
:1005500083E0E822FF24E114F10489F4CF01B30120
:100560000E946114892B29F08EE691E0A0E0B0E0B2
:100570000AC0CF01B6010E946114892BA9F38DE650
:1005800091E0A0E0B0E0080F191F2A1F3B1FD9011E
:10059000C801AA27BB2788169906AA06BB0610F031
:1005A0004F5FD1CF4E83E114F10499F4CF0164E69B
:1005B00070E00E946114892B29F08EE691E0A0E0A2
:1005C000B0E00BC0CF0160E971E00E946114892B9B
:1005D000A1F38DE691E0A0E0B0E0081B190B2A0B17
:1005E0003B0B801A910AA20AB30ACF0164E670E0BD
:1005F0000E9461149C01CF0160E971E00E946114C6
:10060000EDE4F1E0A0E0A13059F4E114F10451F47B
:100610002115310511F04DE106C00097E1F302C04C
:10062000408101C04CE150E060E070E08416950626
:10063000A606B70640F0841A950AA60AB70AAF5F65
:100640003196AC3001F7AF5FAD8383948C82DF913C
:10065000CF911F910F91FF90EF90DF90CF90BF90BF
:10066000AF909F908F907F906F900895CF92DF9280
:10067000EF92FF926B017C018091C9019091CA01B8
:10068000A091CB01B091CC01C816D906EA06FB06B1
:1006900071F04DEC51E0C701B6010E945F02C092BB
:1006A000C901D092CA01E092CB01F092CC01FF9037
:1006B000EF90DF90CF9008950E9436038091CE0195
:1006C00090E008950E9436038091CD0190E0089556
:1006D0006F927F928F929F92AF92BF92CF92DF9252
:1006E000EF92FF920F931F93CF93DF93FC01C6808D
:1006F000AC2DB0E020E833E341EE51E00E94A614B7
:100700004B015C0122EB37E06D01C4E6D0E000E96B
:1007100011E0C901825B97408C159D05DCF4C9018D
:1007200083709927892B99F4C901BE010E94611435
:10073000892B31F4C901B8010E946114892B39F465
:1007400080E8880E81E5981E81E0A81EB11C2F5F0D
:100750003F4FDFCF6580712C8EE4C81A88EFD80A2E
:10076000C60164E670E00E9461148C01C60160E974
:1007700071E00E9461147C01C1E0D0E083E0C822F6
:10078000DD24C615D7052CF5C230D10589F4C11476
:10079000D10471F40115110519F4E114F10441F4C7
:1007A00080E8880E8BE3981E86E2A81EB11C0FC05D
:1007B000DE01A45BBE4FAC91B0E020E831E541E042
:1007C00050E00E94A614860E971EA81EB91E219600
:1007D000D8CF4181228130E0A0E1BEE00E94971491
:1007E0006B017C01242F30E0ACE3B0E00E94971451
:1007F000C60ED71EE81EF91E8081C80ED11CE11C52
:10080000F11CA481B0E0119720E831E541E050E00F
:100810000E94B114C60ED71EE81EF91EC80CD91CC2
:10082000EA1CFB1CC701B601DF91CF911F910F910C
:10083000FF90EF90DF90CF90BF90AF909F908F9000
:100840007F906F9008950F931F936093C5017093ED
:10085000C6018093C7019093C801009105011091D2
:1008600006012091070130910801060F171F281F6C
:10087000391F0093BD011093BE012093BF01309337
:10088000C00182E090E09093BC018093BB010E9484
:10089000280E6093C1017093C2018093C3019093AD
:1008A000C4011F910F910895CF92DF92EF92FF92B2
:1008B0000F931F930E94280EC090C101D090C201D7
:1008C000E090C301F090C4016C197D098E099F0965
:1008D0000091C5011091C6012091C7013091C80156
:1008E000683E734081059105D8F00F5F1F4F2F4F71
:1008F0003F4F0093C5011093C6012093C701309369
:10090000C80148EEC40E43E0D41EE11CF11CC092A5
:10091000C101D092C201E092C301F092C401CACFDA
:100920008091BD019091BE01A091BF01B091C00125
:10093000081719072A073B07C8F1E091B901F091A0
:10094000BA01309799F109956115710581059105F5
:1009500019F00E9423042AC080910501909106019C
:10096000A0910701B09108014091C5015091C601C5
:100970006091C7017091C801840F951FA61FB71F12
:100980008093BD019093BE01A093BF01B093C001BD
:1009900081E090E02091BB013091BC01232B11F448
:1009A00080E090E09093BC018093BB016091C50111
:1009B0007091C6018091C7019091C8011F910F915C
:1009C000FF90EF90DF90CF9008950E9454040E9412
:1009D00036038091CE0190E008950E9454040E9455
:1009E00036038091CD0190E00895EF92FF920F932E
:1009F00094E6E916F1042CF092EBE91A97E0F90A73
:100A000003C09EE1E90EF11CE092D3010093D201F4
:100A10002093D1018093CF016093CE014093CD010B
:100A20008DEC91E00E9468030F91FF90EF900C9481
:100A300023048091040290E020910502821B910919
:100A400008952091050280910402281750F4E22FA6
:100A5000F0E0EA5FFD4F808190E02F5F2093050278
:100A600008958FEF9FEF0895E091050280910402B1
:100A7000E81730F4F0E0EA5FFD4F808190E00895E0
:100A80008FEF9FEF08950895CF92DF92EF92FF923C
:100A90000F931F93CF93DF937C01CB018A012091A9
:100AA000E001222389F0EB016B01C40ED51ECC15A9
:100AB000DD0569F06991D701ED91FC910190F0811C
:100AC000E02DC7010995F3CF642F0E944F06C8019E
:100AD000DF91CF911F910F91FF90EF90DF90CF901A
:100AE0000895CF93DF931F92CDB7DEB7698320912E
:100AF000E0012223D1F02091E101203240F021E0F9
:100B000030E0FC013383228380E090E015C08091C7
:100B1000E201E82FF0E0ED51FE4F998190838F5F65
:100B20008093E2018093E10105C061E0CE0101966E
:100B30000E944F0681E090E00F90DF91CF910895E1
:100B4000FC011382128248EE53E060E070E04483BF
:100B50005583668377838DE591E091838083089543
:100B600010920502109204021092E2011092E1012B
:100B70000C94DE0581E08093E00160930302109203
:100B8000E2011092E10108950F93062F21E04091B8
:100B9000E10163EE71E0809103020E94FC05109276
:100BA000E2011092E1011092E0010F91089561E0DD
:100BB0000C94C40584ED91E00C94A005109293026E
:100BC00081E0809391021092900261E082E10E94A4
:100BD000260F61E083E10E94260FE9EBF0E08081BF
:100BE0008E7F808380818D7F808388E48093B800AE
:100BF00085E48093BC0008950F93413208F046C00D
:100C0000909193029111FCCF92E090939302009304
:100C100091029FEF9093260210926B0240936A021A
:100C2000FB016CE672E0DB019A2F961B941718F417
:100C300091919D93F9CF1092920290919202880F18
:100C4000892B8093920280919002813041F410921E
:100C50009002809192028093BB0085EC01C085EEEA
:100C60008093BC00222321F0809193028230E1F333
:100C7000809126028F3F61F080912602803251F0F0
:100C800080912602803341F483E007C081E005C0F3
:100C900080E003C082E001C084E00F9108956132DA
:100CA00098F420919302243089F460934802FC0167
:100CB0008AE492E0DC012A2F281B261718F42191E0
:100CC0002D93F9CF80E0089581E0089582E00895A2
:100CD00085ED8093BC008091BC0084FDFCCF109218
:100CE0009302089585EC8093BC00109293020895BE
:100CF0001F920F920FB60F9211242F933F934F9391
:100D00005F936F937F938F939F93AF93BF93EF9373
:100D1000FF938091B900887F803609F49CC068F504
:100D2000883209F45BC090F4803109F454C038F47F
:100D3000882309F4F5C0883009F44DC0F5C0883126
:100D400009F44CC0803209F45DC0EEC0803409F46F
:100D500068C048F4803309F455C0883309F0E4C012
:100D600080932602A8C0803509F44FC0883509F465
:100D70005DC0883409F0D8C0D5C0883909F4C6C030
:100D8000A8F4883709F467C038F4883609F463C0DA
:100D9000803709F460C0C8C0883809F4B7C080390A
:100DA00009F45FC0803809F0BFC05BC0803B09F424
:100DB00085C038F4803A09F466C0883A09F47EC0E8
:100DC000B3C0803C09F4A6C0883C09F4A3C0883BAA
:100DD00009F489C0A9C08091920210C090916B0261
:100DE00080916A02981770F5E0916B0281E08E0F96
:100DF00080936B02F0E0E459FD4F80818093BB004B
:100E000085EC85C0809326028DC0E0916B0281E065
:100E10008E0F80936B028091BB00F0E0E459FD4F90
:100E2000808390916B0280916A026DC0E0916B02A9
:100E300081E08E0F80936B028091BB00F0E0E4595B
:100E4000FD4F80838091910281116CC081E080937D
:100E5000900284EA60C083E080939302109227029C
:100E6000CFCF80912702803208F050C0E091270256
:100E700081E08E0F809327028091BB00F0E0E85D57
:100E8000FD4F8083BDCF80912702803230F4E09106
:100E90002702F0E0E85DFD4F10820E946806609135
:100EA000270270E0E0918C02F0918D0288E292E0DE
:100EB0000995109227020E94720636C084E0809342
:100EC00093021092490210924802E0918E02F09132
:100ED0008F02099580914802811105C081E08093BD
:100EE000480210924A02E091490281E08E0F8093FD
:100EF0004902F0E0E65BFD4F80818093BB0090915A
:100F0000490280914802981708F47ACF85E88093C7
:100F1000BC000AC085EC8093BC001092930204C010
:100F2000109226020E946806FF91EF91BF91AF9147
:100F30009F918F917F916F915F914F913F912F91F1
:100F40000F900FBE0F901F901895FF920F931F9355
:100F5000CF93DF93FC010081C181D281F894898114
:100F6000F02EF0948F21898378941DE7115029F198
:100F700082E090E00E947F0E88818023B9F3F8948C
:100F80008A818F218A838981802B8983789480EE5E
:100F900091E00E947F0EF89489818F21898386E4F5
:100FA00090E00E947F0E8881802311E009F010E01C
:100FB00078948AE991E00E947F0E812FDF91CF9192
:100FC0001F910F91FF9008951F93CF93DF93FC0122
:100FD0001081C181D281912F909560FF12C0F89449
:100FE0008A8189238A838981812B89838AE090E0A1
:100FF0000E947F0E8A81812B8A83789487E390E018
:1010000011C0F8948A8189238A838981812B8983FD
:1010100081E490E00E947F0E8A81812B8A837894FC
:1010200085E090E0DF91CF911F910C947F0E0F939C
:101030001F93CF93DF93FC011081C181D281F8947B
:101040008981812B89838A81012F009580238A835E
:1010500083E090E00E947F0E8981802389838AE06B
:1010600090E00E947F0EC881789485E390E00E9412
:101070007F0E1C2381E009F480E0DF91CF911F9166
:101080000F910895CF92DF92EF92FF920F931F93EB
:10109000CF93DF931F92CDB7DEB76C01E62E08E049
:1010A00010E0FF24F39461E09F2D9E2109F460E09D
:1010B000C60149830E94E407FF0C015011094981D0
:1010C0000115110581F7411115C0F894D60111964B
:1010D000ED91FC91129791818C9180958923818368
:1010E0001196ED91FC91129792818C9180958923B4
:1010F000828378940F90DF91CF911F910F91FF9091
:10110000EF90DF90CF900895EF92FF920F931F938F
:10111000CF93DF938C01C8E0D0E0F12CEE24E39470
:10112000C8010E9417088111FE28EE0C2197C1F713
:101130008F2DDF91CF911F910F91FF90EF90089528
:10114000CF92DF92FF920F931F93CF93DF931F9263
:10115000CDB7DEB78C01F62E40E065E579830E94BD
:101160004208CF2C7981D72E88E0F82EF6016191C4
:101170006F0140E0C8010E944208FA94B9F70F904D
:10118000DF91CF911F910F91FF90DF90CF90089545
:1011900040E06CEC0C944208FC0113861586148622
:1011A00027E030E0DF01A20FB31F13961C92211538
:1011B000310519F021503109F5CF08951F93CF93D0
:1011C000DF93EC01162F60E0812F0E94ED0E612F5E
:1011D00070E0FB01E458FE4FE491E883FB01E05727
:1011E000FE4FE491F0E0EE0FFF1FEC55FE4F8591AE
:1011F00094919A838983CE01DF91CF911F910C94B2
:10120000CC08AF92BF92CF92DF92EF92FF920F93F2
:101210001F93CF93DF931F92CDB7DEB75C01E62E0D
:10122000D72EFC01858581115DC0C5010E94A507EF
:10123000811105C0F5011386158614866EC040E045
:1012400060EFC5010E94420801E0F12CC12C11E0C1
:10125000C5010E941708682FC50169830E941708FD
:101260006981613019F48130B9F433C02F2D30E039
:1012700068131BC0F5018385181730F4E20FF31FC4
:101280008381802349F402C0181731F060E01930DF
:1012900058F4F501148708C0F501EF0DF11D8381A5
:1012A000802B838361E009C0C12EF501E20FF31F9B
:1012B0008381902F909589238383C5010E94E40741
:1012C0001F5F000F11F4F39401E0F7E0FF1508F041
:1012D000BFCF113438F0F501C386C11018C081E0CA
:1012E000858715C0F50113861586148680E0EE2DDE
:1012F000FD2D20E030E0D501A20FB31F13969C9185
:1013000091932F5F3F4F28303105A9F706C0F501B3
:101310008381882339F381E0EACF0F90DF91CF9169
:101320001F910F91FF90EF90DF90CF90BF90AF9003
:101330000895DC0180E0615038F0ED91E827F0E09D
:10134000E859FF4F8491F7CF0895FC011382128270
:101350008DE691E0918380836483418722871386A1
:1013600008951F93CF93DF93EC01162F6C8184EDCA
:1013700091E00E94BA05E091D401F091D5016B850E
:10138000612B0190F081E02D84ED91E0099584EDD1
:1013900091E0DF91CF911F910C94D70528E0FC01DB
:1013A000238760E00C94B1091F93CF93DF93EC0186
:1013B000162F64600E94B10981E090E00E947F0EC8
:1013C000612F6B7FCE010E94B10982E390E0DF9133
:1013D000CF911F910C947F0E1F93CF93DF93EC015D
:1013E000162F0E94B109612FCE01DF91CF911F917D
:1013F0000C94D409EF92FF921F93CF93DF931F9227
:10140000CDB7DEB77C01162F607F642B49830E9425
:10141000EC0980E1189FB00111244981642BC701B8
:101420000F90DF91CF911F91FF90EF900C94EC09FA
:1014300041E00E94FA0980E090E0089540E00C94B9
:10144000FA0961E00E941E0A80ED97E00C947F0E7D
:1014500062E00E941E0A80ED97E00C947F0ECF930D
:10146000DF93CDB7DEB728970FB6F894DEBF0FBE77
:10147000CDBF28E0E9E0F1E0DE01119601900D9288
:101480002A95E1F7FC012085241710F44FEF420F55
:10149000FE013196E40FF11DE40FF11D2081260FAE
:1014A0002068622F28960FB6F894DEBF0FBECDBF1E
:1014B000DF91CF910C941E0AFC016681262F2460D7
:1014C00026836C600C941E0ACF93DF93EC014230AC
:1014D00018F08D8188608D834887222329F0413060
:1014E00019F48D8184608D8362E370E080E090E088
:1014F0000E94570E6B85CE010E94B10968EE73E021
:1015000080E090E00E94570E60E3CE010E94EC095B
:1015100084E991E10E947F0E60E3CE010E94EC0914
:1015200084E991E10E947F0E60E3CE010E94EC0904
:1015300086E990E00E947F0E60E2CE010E94EC09F5
:101540006D816062CE010E941E0A84E08E83CE010E
:101550000E945C0ACE010E94210A82E08F8366E02D
:10156000CE010E941E0ACE01DF91CF910C94280A71
:10157000CF93DF93EC0184ED91E00E94B0051D82D2
:1015800020E04A856985CE01DF91CF910C94640AF1
:101590000C94B80A0895FC018AEC9AE0928B818B36
:1015A000768365831482108289E0818381E082835F
:1015B00083830895CF93DF93EB0167E0CE010E9410
:1015C000990991E02F81821390E0892FDF91CF91CB
:1015D0000895EF92FF920F931F93CF93DF93EC0147
:1015E0008B01E42E8D819E810E94CC08F12CB801E4
:1015F0008D819E810E940109882359F0FE1006C04A
:10160000B801CE010E94DA0A811104C0F394EF14EC
:1016100070F780E0DF91CF911F910F91FF90EF90D5
:101620000895EF92FF920F931F93CF93DF9300D013
:10163000CDB7DEB77C018A01FC0185819681698383
:101640007A830E94A50769817A81F7018581968155
:101650000E94A00840E06EEBF701858196810E9410
:101660004208F701858196810E948408F8018083F1
:10167000F701858196810E948408F8018183F70132
:10168000858196810E948408F8018283F701858113
:1016900096810E948408F8018383F70185819681F1
:1016A0000E948408F8018483F701858196810E9455
:1016B0008408F8018583F701858196810E9484085A
:1016C000F8018683F701858196810E948408F801DC
:1016D0008783F701858196810E948408F8018087BD
:1016E000F701858196810F900F90DF91CF911F9127
:1016F0000F91FF90EF900C94A507CF93DF93EA0131
:101700000E94110B68E0CE010E94990991E02885A2
:10171000821390E0892FDF91CF910895EF92FF928D
:101720001F93CF93DF9300D0CDB7DEB77C01FC01D0
:101730008581968169837A830E94A50769817A8170
:10174000F701858196810E94A00840E064EBF701D3
:10175000858196810E944208F701858196810E94C9
:101760001708182FF701858196810E94A50781E04F
:10177000111180E00F900F90DF91CF911F91FF909A
:10178000EF900895CF93DF93CDB7DEB729970FB6CB
:10179000F894DEBF0FBECDBFFB0120812031D1F018
:1017A000AE014F5F5F4F0E947D0B882379F08D81E2
:1017B0008F3351F018F48F3169F008C08F3541F044
:1017C0008F3721F48CE007C08AE005C080E003C0B9
:1017D0008BE001C089E029960FB6F894DEBF0FBEFA
:1017E000CDBFDF91CF910895EF92FF920F931F939A
:1017F000CF93DF93CDB7DEB761970FB6F894DEBF16
:101800000FBECDBF8C01FC01858196810E94CC0862
:10181000F8011482FF24F394BE01665F7F4FF80144
:10182000858196810E9401098823C9F1BE01665F06
:101830007F4FC8010E94DA0A882371F3F801808182
:10184000811108C0BE01665F7F4FC8010E948E0BE8
:10185000811122C0AE014F5F5F4FBE01665F7F4FB7
:10186000C8010E94110BF801E180BE01665F7F4F45
:10187000C8010E94C20B8E1518F4F801818106C0C0
:10188000BE01665F7F4FC8010E94C20BF8018183D1
:1018900084818F5F8483C0CFF801F082DBCF6196B3
:1018A0000FB6F894DEBF0FBECDBFDF91CF911F9171
:1018B0000F91FF90EF900895CF93DF93CDB7DEB7F0
:1018C00029970FB6F894DEBF0FBECDBFAE014F5FB4
:1018D0005F4F0E94110B81E09981911101C080E05E
:1018E00029960FB6F894DEBF0FBECDBFDF91CF9122
:1018F0000895CF92DF92EF92FF920F931F93CF93B1
:10190000DF93EC018B01452BE1F08B818823C9F03B
:101910008881811116C00E94280E6B017C0160E055
:1019200070E0CE010E945C0C81110BC00E94280E59
:101930006C197D098E099F096E3E724081059105E3
:1019400070F3F80180818A3049F08B3061F0893082
:1019500079F46EE570E080E090E00EC06CEB70E032
:1019600080E090E009C067E771E080E090E004C0AB
:101970006EEE72E080E090E0DF91CF911F910F91C9
:10198000FF90EF90DF90CF900C94570ECF93DF93A2
:10199000EC018D819E810E94A5078D819E810E9410
:1019A000C808488164E48D819E810E9442088A8132
:1019B000882351F0BE016F5F7F4F40E050E0CE01C1
:1019C000DF91CF910C94790CDF91CF9108958F9294
:1019D0009F92AF92BF92CF92DF92EF92FF921F93AE
:1019E000CF93DF93FB01EA01698170E0762F6627D0
:1019F0008881682B80818232B1F18832A1F18031F7
:101A000009F078C01F8175956795882777FD8095C7
:101A1000982F0E94721320E030E040E85EE30E94BD
:101A200072126B017C01612F70E08E81681B71095D
:101A3000882777FD8095982F0E9472134B015C01D7
:101A4000612F70E080E090E00E9470139B01AC0178
:101A5000C501B4010E94D7129B01AC01C701B601B8
:101A60000E94731243C08C818F3381F198F48F31BF
:101A700009F040C093E0759567959A95E1F788273E
:101A800077FD8095982F0E94721320E030E040E0AF
:101A90005FE32AC08F3569F08F3761F5882777FDBE
:101AA0008095982F0E94721320E030E040E85DE3BB
:101AB0001BC075956795882777FD8095982F0E94A4
:101AC000721320E030E040E05EE30EC0759567954C
:101AD00075956795882777FD8095982F0E947213DA
:101AE00020E030E040E85EE30E94FE13562F472FCF
:101AF000382F292F652F742F832F922FDF91CF91AD
:101B00001F91FF90EF90DF90CF90BF90AF909F908C
:101B10008F900895EF92FF920F931F93CF93DF93CF
:101B2000CDB7DEB729970FB6F894DEBF0FBECDBF95
:101B30008C017B01AE014F5F5F4F0E947D0B8823BC
:101B400041F0AE014F5F5F4FB701C8010E94E70C43
:101B500004C060E070E08EEF92EC29960FB6F89426
:101B6000DEBF0FBECDBFDF91CF911F910F91FF90D0
:101B7000EF9008950F931F93CF93DF93CDB7DEB708
:101B800028970FB6F894DEBF0FBECDBF8C01462F4D
:101B9000BE016F5F7F4F0E94E90ABE016F5F7F4FFA
:101BA000C8010E948A0D28960FB6F894DEBF0FBEBA
:101BB000CDBFDF91CF911F910F9108951F920F928A
:101BC0000FB60F9211242F933F938F939F93AF9350
:101BD000BF938091950290919602A0919702B09147
:101BE00098023091940223E0230F2D3720F40196C0
:101BF000A11DB11D05C026E8230F0296A11DB11D30
:101C0000209394028093950290939602A09397025A
:101C1000B09398028091990290919A02A0919B02B0
:101C2000B0919C020196A11DB11D809399029093E1
:101C30009A02A0939B02B0939C02BF91AF919F9197
:101C40008F913F912F910F900FBE0F901F9018957D
:101C50002FB7F89460919502709196028091970247
:101C6000909198022FBF08953FB7F8948091990200
:101C700090919A02A0919B02B0919C0226B5A89BDC
:101C800005C02F3F19F00196A11DB11D3FBF66276A
:101C9000782F892F9A2F620F711D811D911D42E0AF
:101CA000660F771F881F991F4A95D1F70895CF9225
:101CB000DF92EF92FF92CF93DF936B017C010E9442
:101CC000340EEB01C114D104E104F10489F00E9447
:101CD00071120E94340E6C1B7D0B683E734090F3B2
:101CE00081E0C81AD108E108F108C851DC4FEACFF9
:101CF000DF91CF91FF90EF90DF90CF900895019703
:101D000039F0880F991F880F991F02970197F1F7F3
:101D10000895789484B5826084BD84B5816084BD63
:101D200085B5826085BD85B5816085BDEEE6F0E054
:101D3000808181608083E1E8F0E0108280818260B0
:101D40008083808181608083E0E8F0E08081816031
:101D50008083E1EBF0E0808184608083E0EBF0E061
:101D6000808181608083EAE7F0E080818460808305
:101D700080818260808380818160808380818068AF
:101D800080831092C1000895833081F028F481305F
:101D900099F08230A1F008958730A9F08830B9F029
:101DA0008430D1F4809180008F7D03C080918000C9
:101DB0008F7780938000089584B58F7702C084B5B3
:101DC0008F7D84BD08958091B0008F7703C080918E
:101DD000B0008F7D8093B0000895CF93DF9390E0A3
:101DE000FC01E458FE4F2491FC01E057FE4F849122
:101DF000882349F190E0880F991FFC01E854FE4FB9
:101E0000A591B49182559E4FFC01C591D4919FB785
:101E1000611108C0F8948C91209582238C9388815D
:101E200082230AC0623051F4F8948C91322F30959D
:101E300083238C938881822B888304C0F8948C91AF
:101E4000822B8C939FBFDF91CF9108950F931F93A7
:101E5000CF93DF931F92CDB7DEB7282F30E0F90183
:101E6000E859FE4F8491F901E458FE4F1491F901AD
:101E7000E057FE4F04910023C9F0882321F06983C5
:101E80000E94C40E6981E02FF0E0EE0FFF1FE255C3
:101E9000FE4FA591B4919FB7F8948C91611103C046
:101EA0001095812301C0812B8C939FBF0F90DF91F0
:101EB000CF911F910F910895CF93DF93282F30E09A
:101EC000F901E859FE4F8491F901E458FE4FD4918D
:101ED000F901E057FE4FC491CC2391F081110E948B
:101EE000C40EEC2FF0E0EE0FFF1FEC55FE4FA59156
:101EF000B4912C912D2381E090E021F480E002C088
:101F000080E090E0DF91CF910895FC01818D228DDA
:101F100090E0805C9F4F821B91098F7399270895F1
:101F2000FC01918D828D981731F0828DE80FF11DA3
:101F3000858D90E008958FEF9FEF0895FC01918DBE
:101F4000828D981761F0828DDF01A80FB11D5D961B
:101F50008C91928D9F5F9F73928F90E008958FEF89
:101F60009FEF089582E291E1892B49F080E090E0B3
:101F7000892B29F00E94221181110C9400000895F0
:101F8000FC01848DDF01A80FB11DA35ABF4F2C9116
:101F9000848D90E001968F739927848FA689B789E5
:101FA0002C93A089B1898C9180648C93938D848DBE
:101FB000981306C00288F389E02D80818F7D80838D
:101FC0000895CF93DF93EC01888D8823C9F0EA89C7
:101FD000FB89808185FD05C0A889B9898C9186FD22
:101FE0000FC00FB607FCF5CF808185FFF2CFA8891F
:101FF000B9898C9185FFEDCFCE010E94C00FE7CF4C
:10200000DF91CF910895CF92DF92FF920F931F93AC
:10201000CF93DF931F92CDB7DEB76C01DC015B96E7
:102020009C915B975C968C915C97981307C0509637
:10203000ED91FC915197808185FD32C0F601038DB1
:1020400010E00F5F1F4F0F731127F02EF601848DE4
:10205000F81211C00FB607FCF9CFD6015096ED91DA
:10206000FC915197808185FFF1CFC60169830E9461
:10207000C00F6981EBCF838DE80FF11DE35AFF4F4D
:102080006083D6015B960C935B975296ED91FC9121
:10209000539780818062808381E058968C930DC035
:1020A000D6015696ED91FC91579760835096ED912D
:1020B000FC91519780818064808381E090E00F9053
:1020C000DF91CF911F910F91FF90DF90CF900895F6
:1020D000BF92CF92DF92EF92FF92CF93DF93EC010A
:1020E0006A017B01B22EE889F98982E0808341157B
:1020F00081EE580761057105A1F060E079E08DE39C
:1021000090E0A70196010E94751421503109410900
:1021100051095695479537952795211580E1380740
:1021200098F0E889F989108260E874E88EE190E01F
:10213000A70196010E9475142150310941095109E6
:102140005695479537952795EC85FD853083EE8527
:10215000FF852083188EEC89FD89B082EA89FB898E
:10216000808180618083EA89FB89808188608083A7
:10217000EA89FB89808180688083EA89FB89808184
:102180008F7D8083DF91CF91FF90EF90DF90CF9094
:10219000BF9008951F920F920FB60F9211242F93A4
:1021A0008F939F93EF93FF93E091AD02F091AE0276
:1021B0008081E091B302F091B40282FD12C090815F
:1021C0008091B6028F5F8F732091B702821751F012
:1021D000E091B602F0E0E356FD4F958F8093B60292
:1021E00001C08081FF91EF919F918F912F910F906E
:1021F0000FBE0F901F9018951F920F920FB60F925F
:1022000011242F933F934F935F936F937F938F93FB
:102210009F93AF93BF93EF93FF938DE992E00E945A
:10222000C00FFF91EF91BF91AF919F918F917F91DF
:102230006F915F914F913F912F910F900FBE0F9033
:102240001F9018958DE992E00E94850F21E0892B5F
:1022500009F420E0822F08951092A00210929F02AC
:1022600088EE93E0A0E0B0E08093A1029093A202F8
:10227000A093A302B093A40285E791E090939E02FD
:1022800080939D0285EC90E09093AA028093A9022E
:1022900084EC90E09093AC028093AB0280EC90E0F1
:1022A0009093AE028093AD0281EC90E09093B002E7
:1022B0008093AF0282EC90E09093B2028093B102DF
:1022C00086EC90E09093B4028093B3021092B60231
:1022D0001092B7021092B8021092B90208950895B0
:1022E0000E94890E0E946F110E940E01C2EBDFE076
:1022F0000E94D2012097E1F30E94B20FF9CFCF9252
:10230000DF92EF92FF920F931F93CF93DF936C01B5
:102310007A01EB01E60EF71E00E010E0CE15DF05B6
:1023200061F06991D601ED91FC910190F081E02D71
:10233000C6010995080F191FF1CFC801DF91CF9190
:102340001F910F91FF90EF90DF90CF90089561154E
:10235000710581F0DB010D900020E9F7AD014150DE
:102360005109461B570BDC01ED91FC910280F38172
:10237000E02D099480E090E008950C94A711DC0111
:10238000ED91FC910190F081E02D09948F929F9244
:10239000AF92BF92CF92DF92EF92FF920F931F9373
:1023A000CF93DF93CDB7DEB7A1970FB6F894DEBF1A
:1023B0000FBECDBF7C01C42EE52FCB01D22E19A2BA
:1023C00021E02D1510F02AE0D22E8E010F5D1F4F57
:1023D0008D2C912CA12CB12C6C2D7E2FA50194015C
:1023E0000E9475148C2DD29E801911240150110960
:1023F0008A3014F4805D01C0895CF8018083211566
:1024000031054105510521F0C22EE32FCA01E4CF69
:10241000B801C7010E94A711A1960FB6F894DEBFBC
:102420000FBECDBFDF91CF911F910F91FF90EF9025
:10243000DF90CF90BF90AF909F908F900895CF92F4
:10244000DF92EF92FF920F931F93CF93DF93EC01F4
:102450006A017B012115310579F4E881F981019048
:10246000F081E02D642FDF91CF911F910F91FF90AC
:10247000EF90DF90CF9009942A303105E9F477FF8F
:102480001AC06DE20E94BF118C0144275527BA0182
:102490004C195D096E097F092AE0CE010E94C61120
:1024A000800F911FDF91CF911F910F91FF90EF90BF
:1024B000DF90CF9008952AE0B701A601CE01DF9109
:1024C000CF911F910F91FF90EF90DF90CF900C94E0
:1024D000C6119A01AB01662757FD6095762F0C94C3
:1024E0001F1208955058BB27AA270ED04DC13ED1C8
:1024F00030F043D120F031F49F3F11F41EF433C18A
:102500000EF4E095E7FB29C1E92F4FD180F3BA170C
:10251000620773078407950718F071F49EF567C189
:102520000EF4E0950B2EBA2FA02D0B01B9019001EE
:102530000C01CA01A0011124FF27591B99F0593F32
:1025400050F4503E68F11A16F040A22F232F342F7A
:102550004427585FF3CF469537952795A795F040C8
:102560005395C9F77EF41F16BA0B620B730B840BDD
:10257000BAF09150A1F0FF0FBB1F661F771F881F95
:10258000C2F70EC0BA0F621F731F841F48F48795ED
:1025900077956795B795F7959E3F08F0B3CF9395DC
:1025A000880F08F09927EE0F9795879508950CD01E
:1025B000EBC0E3D040F0DAD030F021F45F3F19F007
:1025C000CCC0511115C1CFC0F0D098F39923C9F3F5
:1025D0005523B1F3951B550BBB27AA276217730729
:1025E000840738F09F5F5F4F220F331F441FAA1FDD
:1025F000A9F333D00E2E3AF0E0E830D0915050409D
:10260000E695001CCAF729D0FE2F27D0660F771F4A
:10261000881FBB1F261737074807AB07B0E809F02C
:10262000BB0B802DBF01FF2793585F4F2AF09E3FC1
:10263000510568F092C0DCC05F3FECF3983EDCF3DC
:10264000869577956795B795F7959F5FC9F7880F3A
:10265000911D9695879597F90895E1E0660F771F8C
:10266000881FBB1F621773078407BA0720F0621B1D
:10267000730B840BBA0BEE1F88F7E095089504D016
:102680006894B111B5C0089598D088F09F5790F024
:10269000B92F9927B751A0F0D1F0660F771F881F87
:1026A000991F1AF0BA95C9F712C0B13081F09FD0C6
:1026B000B1E008959CC0672F782F8827B85F39F064
:1026C000B93FCCF3869577956795B395D9F73EF4E6
:1026D00090958095709561957F4F8F4F9F4F08958E
:1026E000E89409C097FB3EF49095809570956195AC
:1026F0007F4F8F4F9F4F9923A9F0F92F96E9BB2762
:102700009395F695879577956795B795F111F8CFDD
:10271000FAF4BB0F11F460FF1BC06F5F7F4F8F4F48
:102720009F4F16C0882311F096E911C0772321F03E
:102730009EE8872F762F05C0662371F096E8862FD6
:1027400070E060E02AF09A95660F771F881FDAF72D
:10275000880F9695879597F9089597F99F6780E870
:1027600070E060E008959FEF80EC089500240A94E3
:102770001616170618060906089500240A9412165C
:102780001306140605060895092E0394000C11F48F
:10279000882352F0BB0F40F4BF2B11F460FF04C03C
:1027A0006F5F7F4F8F4F9F4F089557FD9058440F95
:1027B000551F59F05F3F71F04795880F97FB991FA0
:1027C00061F09F3F79F0879508951216130614065D
:1027D000551FF2CF4695F1DF08C0161617061806EA
:1027E000991FF1CF86957105610508940895E894C5
:1027F000BB2766277727CB0197F908950BD0C4CF65
:10280000B5DF28F0BADF18F0952309F0A6CFABCFDB
:102810001124EECFCADFA0F3959FD1F3950F50E0BE
:10282000551F629FF001729FBB27F00DB11D639F82
:10283000AA27F00DB11DAA1F649F6627B00DA11D28
:10284000661F829F2227B00DA11D621F739FB00DCE
:10285000A11D621F839FA00D611D221F749F33273E
:10286000A00D611D231F849F600D211D822F762FD7
:102870006A2F11249F5750408AF0E1F088234AF0D4
:10288000EE0FFF1FBB1F661F771F881F9150504020
:10289000A9F79E3F510570F060CFAACF5F3FECF3E0
:1028A000983EDCF3869577956795B795F795E7950C
:1028B0009F5FC1F7FE2B880F911D9695879597F91D
:1028C000089597FB072E16F4009407D077FD09D0E2
:1028D0000E94B91407FC05D03EF4909581959F4F56
:1028E0000895709561957F4F0895A1E21A2EAA1B55
:1028F000BB1BFD010DC0AA1FBB1FEE1FFF1FA217B0
:10290000B307E407F50720F0A21BB30BE40BF50BAC
:10291000661F771F881F991F1A9469F76095709535
:10292000809590959B01AC01BD01CF010895A29FB8
:10293000B001B39FC001A39F700D811D1124911D93
:10294000B29F700D811D1124911D08950E9497144E
:10295000A59F900DB49F900DA49F800D911D1124F3
:102960000895B7FF0C94A6140E94A614821B930B23
:102970000895AA1BBB1B51E107C0AA1FBB1FA617C6
:10298000B70710F0A61BB70B881F991F5A95A9F718
:1029900080959095BC01CD010895EE0FFF1F059025
:0A29A000F491E02D0994F894FFCFA4
:1029AA0007000102002C010000000040001400543E
:1029BA00005761697420666F722070726F67726166
:1029CA006D3A00416B7475656C6C743A0043200073
:1029DA002073656B00206D696E0020202020005452
:1029EA006F74616C743A00206D696E20001F1C1FA1
:1029FA001E1F1E1F1F1E1F1E1F0000000071054400
:102A0A0005190521053405430500000000180A7F51
:102A1A00110000000003107F11850F9E0F900FE137
:022A2A000F009B
:00000001FF
