:100000000C9436000C945E000C945E000C945E0020
:100010000C945E000C945E000C945E000C945E00E8
:100020000C945E000C945E000C945E000C945E00D8
:100030000C945E000C945E000C945E000C945E00C8
:100040000C9491020C945E000C94C3040C94F5047F
:100050000C945E000C945E000C945E000C945E00A8
:100060000C9464010C945E003701250511241FBE19
:10007000CFEFD8E0DEBFCDBF11E0A0E0B1E0EAE510
:10008000F3E102C005900D92A034B107D9F722E048
:10009000A0E4B1E001C01D92AB3AB207E1F710E075
:1000A000CCE6D0E004C02297FE010E94A709C83622
:1000B000D107C9F70E9469050C94AB090C940000A4
:1000C00026E040E855E260E070E08EE092E00C94BB
:1000D0006104809140010E946103BC01882777FD83
:1000E0008095982F0E9468086093420170934301A5
:1000F000809344019093450161E071E08EE092E0CD
:100100000E94B60540914201509143016091440123
:100110007091450122E030E08EE092E00E9461079C
:100120006FE071E08EE092E00E94B6058EE092E012
:100130000E94BF0568EE73E080E090E00C94FE0240
:100140008091750190E020917601821B91090895BC
:100150002091760180917501281750F4E22FF0E08C
:10016000E958FE4F808190E02F5F2093760108953B
:100170008FEF9FEF0895E091760180917501E81768
:1001800030F4F0E0E958FE4F808190E008958FEF61
:100190009FEF08950895CF92DF92EF92FF920F9311
:1001A0001F93CF93DF937C01CB018A0120915201F1
:1001B000222389F0EB016B01C40ED51ECC15DD05A1
:1001C00069F06991D701ED91FC910190F081E02DEA
:1001D000C7010995F3CF642F0E943B01C801DF914D
:1001E000CF911F910F91FF90EF90DF90CF900895E6
:1001F000CF93DF931F92CDB7DEB769832091520171
:100200002223D1F020915301203240F021E030E050
:10021000FC013383228380E090E015C0809154017B
:10022000E82FF0E0EB5AFE4F998190838F5F809327
:1002300054018093530105C061E0CE0101960E94F4
:100240003B0181E090E00F90DF91CF910895FC0198
:100250001382128248EE53E060E070E044835583DD
:100260006683778386E191E091838083089586E4B5
:1002700091E00C942701613298F42091040224301B
:1002800089F46093B901FC018BEB91E0DC012A2F2A
:10029000281B261718F421912D93F9CF80E008959B
:1002A00081E0089582E0089585ED8093BC008091FF
:1002B000BC0084FDFCCF10920402089585EC80936D
:1002C000BC001092040208951F920F920FB60F9275
:1002D00011242F933F934F935F936F937F938F934B
:1002E0009F93AF93BF93EF93FF938091B900887F63
:1002F000803609F49CC068F5883209F45BC090F43C
:10030000803109F454C038F4882309F4F5C08830EA
:1003100009F44DC0F5C0883109F44CC0803209F4AD
:100320005DC0EEC0803409F468C048F4803309F43D
:1003300055C0883309F0E4C080939701A8C0803588
:1003400009F44FC0883509F45DC0883409F0D8C07D
:10035000D5C0883909F4C6C0A8F4883709F467C045
:1003600038F4883609F463C0803709F460C0C8C027
:10037000883809F4B7C0803909F45FC0803809F0C3
:10038000BFC05BC0803B09F485C038F4803A09F4F3
:1003900066C0883A09F47EC0B3C0803C09F4A6C0A8
:1003A000883C09F4A3C0883B09F489C0A9C08091A6
:1003B000030210C09091DC018091DB01981770F569
:1003C000E091DC0181E08E0F8093DC01F0E0E352EC
:1003D000FE4F80818093BB0085EC85C080939701A0
:1003E0008DC0E091DC0181E08E0F8093DC01809173
:1003F000BB00F0E0E352FE4F80839091DC018091DE
:10040000DB016DC0E091DC0181E08E0F8093DC01A7
:100410008091BB00F0E0E352FE4F808380910202A6
:1004200081116CC081E08093010284EA60C083E0A6
:100430008093040210929801CFCF8091980180326E
:1004400008F050C0E091980181E08E0F80939801F0
:100450008091BB00F0E0E756FE4F8083BDCF8091D6
:100460009801803230F4E0919801F0E0E756FE4FB9
:1004700010820E9454016091980170E0E091FD01AA
:10048000F091FE0189E991E00995109298010E948E
:100490005E0136C084E0809304021092BA0110928B
:1004A000B901E091FF01F091000209958091B90135
:1004B000811105C081E08093B9011092BB01E091E8
:1004C000BA0181E08E0F8093BA01F0E0E554FE4F4F
:1004D00080818093BB009091BA018091B9019817F7
:1004E00008F47ACF85E88093BC000AC085EC80933D
:1004F000BC001092040204C0109297010E945401A3
:10050000FF91EF91BF91AF919F918F917F916F91EB
:100510005F914F913F912F910F900FBE0F901F90C1
:1005200018951F920F920FB60F9211242F933F939D
:100530008F939F93AF93BF93809106029091070290
:10054000A0910802B09109023091050223E0230F27
:100550002D3720F40196A11DB11D05C026E8230FFB
:100560000296A11DB11D209305028093060290936F
:100570000702A0930802B093090280910A029091A9
:100580000B02A0910C02B0910D020196A11DB11DAC
:1005900080930A0290930B02A0930C02B0930D0279
:1005A000BF91AF919F918F913F912F910F900FBE6F
:1005B0000F901F9018953FB7F89480910A02909180
:1005C0000B02A0910C02B0910D0226B5A89B05C0AC
:1005D0002F3F19F00196A11DB11D3FBF6627782F4F
:1005E000892F9A2F620F711D811D911D42E0660FA8
:1005F000771F881F991F4A95D1F70895CF92DF92F0
:10060000EF92FF92CF93DF936B017C010E94DB029C
:10061000EB01C114D104E104F10489F00E946307E5
:100620000E94DB026C1B7D0B683E734090F381E0FF
:10063000C81AD108E108F108C851DC4FEACFDF91B0
:10064000CF91FF90EF90DF90CF900895789484B58C
:10065000826084BD84B5816084BD85B5826085BDBE
:1006600085B5816085BDEEE6F0E0808181608083A4
:10067000E1E8F0E010828081826080838081816087
:100680008083E0E8F0E0808181608083E1EBF0E04E
:10069000808184608083E0EBF0E0808181608083F2
:1006A000EAE7F0E0808184608083808182608083DB
:1006B0008081816080838081806880831092C10006
:1006C00008958E3008F08E5087702091000190E4DC
:1006D000299F90011124822B80937C0080917A00C5
:1006E000806480937A0080917A0086FDFCCF8091AF
:1006F00078002091790090E0922B0895FC01818D83
:10070000228D90E0805C9F4F821B91098F73992707
:100710000895FC01918D828D981731F0828DE80F3C
:10072000F11D858D90E008958FEF9FEF0895FC01F6
:10073000918D828D981761F0828DDF01A80FB11D18
:100740005D968C91928D9F5F9F73928F90E008953C
:100750008FEF9FEF08958BE195E0892B49F080E0C2
:1007600090E0892B29F00E941B0581110C94000058
:100770000895FC01848DDF01A80FB11DA35ABF4F5E
:100780002C91848D90E001968F739927848FA68990
:10079000B7892C93A089B1898C9180648C93938DB7
:1007A000848D981306C00288F389E02D80818F7DA7
:1007B00080830895CF93DF93EC01888D8823C9F05F
:1007C000EA89FB89808185FD05C0A889B9898C915A
:1007D00086FD0FC00FB607FCF5CF808185FFF2CFF5
:1007E000A889B9898C9185FFEDCFCE010E94B9030C
:1007F000E7CFDF91CF910895CF92DF92FF920F93D1
:100800001F93CF93DF931F92CDB7DEB76C01DC014E
:100810005B969C915B975C968C915C97981307C054
:100820005096ED91FC915197808185FD32C0F60183
:10083000038D10E00F5F1F4F0F731127F02EF6018D
:10084000848DF81211C00FB607FCF9CFD60150966F
:10085000ED91FC915197808185FFF1CFC6016983AD
:100860000E94B9036981EBCF838DE80FF11DE35A34
:10087000FF4F6083D6015B960C935B975296ED9188
:10088000FC91539780818062808381E058968C939D
:100890000DC0D6015696ED91FC9157976083509606
:1008A000ED91FC91519780818064808381E090E09C
:1008B0000F90DF91CF911F910F91FF90DF90CF901C
:1008C0000895BF92CF92DF92EF92FF92CF93DF9382
:1008D000EC016A017B01B22EE889F98982E080830C
:1008E000411581EE580761057105A1F060E079E0DE
:1008F0008DE390E0A70196010E9483092150310900
:10090000410951095695479537952795211580E15D
:10091000380798F0E889F989108260E874E88EE178
:1009200090E0A70196010E948309215031094109F5
:1009300051095695479537952795EC85FD85308368
:10094000EE85FF852083188EEC89FD89B082EA89C7
:10095000FB89808180618083EA89FB89808188604E
:100960008083EA89FB89808180688083EA89FB89AA
:1009700080818F7D8083DF91CF91FF90EF90DF901A
:10098000CF90BF9008951F920F920FB60F9211242F
:100990002F938F939F93EF93FF93E0911E02F0911B
:1009A0001F028081E0912402F091250282FD12C095
:1009B0009081809127028F5F8F7320912802821788
:1009C00051F0E0912702F0E0E25FFD4F958F8093B8
:1009D000270201C08081FF91EF919F918F912F910C
:1009E0000F900FBE0F901F9018951F920F920FB689
:1009F0000F9211242F933F934F935F936F937F93A5
:100A00008F939F93AF93BF93EF93FF938EE092E00A
:100A10000E94B903FF91EF91BF91AF919F918F9188
:100A20007F916F915F914F913F912F910F900FBEEA
:100A30000F901F9018958EE092E00E947E0321E0B7
:100A4000892B09F420E0822F089510921102109250
:100A5000100288EE93E0A0E0B0E080931202909341
:100A60001302A0931402B093150286E291E09093D2
:100A70000F0280930E0285EC90E090931B0280930E
:100A80001A0284EC90E090931D0280931C0280EC8B
:100A900090E090931F0280931E0281EC90E090936F
:100AA00021028093200282EC90E0909323028093B5
:100AB000220286EC90E0909325028093240210920B
:100AC0002702109228021092290210922A020895F9
:100AD00008950E9426030E9468050E946000CBEAE8
:100AE000D3E00E9469002097E1F30E94AB03F9CFA5
:100AF000CF92DF92EF92FF920F931F93CF93DF93EA
:100B00006C017A01EB01E60EF71E00E010E0CE1555
:100B1000DF0561F06991D601ED91FC910190F081C2
:100B2000E02DC6010995080F191FF1CFC801DF910B
:100B3000CF911F910F91FF90EF90DF90CF9008958C
:100B40006115710581F0DB010D900020E9F7AD0121
:100B500041505109461B570BDC01ED91FC9102807D
:100B6000F381E02D099480E090E008950C94A005B5
:100B7000DC01ED91FC910190F081E02D09940F933F
:100B80001F93CF93DF93EC016DE00E94B8058C01B9
:100B90006AE0CE010E94B805800F911FDF91CF91CE
:100BA0001F910F9108958F929F92AF92BF92CF9213
:100BB000DF92EF92FF920F931F93CF93DF93CDB706
:100BC000DEB7A1970FB6F894DEBF0FBECDBF7C0194
:100BD000C42EE52FCB01D22E19A221E02D1510F045
:100BE0002AE0D22E8E010F5D1F4F8D2C912CA12C4F
:100BF000B12C6C2D7E2FA50194010E9483098C2DB0
:100C0000D29E80191124015011098A3014F4805D9C
:100C100001C0895CF801808321153105410551052A
:100C200021F0C22EE32FCA01E4CFB801C7010E9410
:100C3000A005A1960FB6F894DEBF0FBECDBFDF9121
:100C4000CF911F910F91FF90EF90DF90CF90BF90C9
:100C5000AF909F908F900895CF92DF92EF92FF9286
:100C60000F931F93CF93DF93EC016A017B01211552
:100C7000310579F4E881F9810190F081E02D642F4C
:100C8000DF91CF911F910F91FF90EF90DF90CF9068
:100C900009942A303105E9F477FF1AC06DE20E9409
:100CA000B8058C0144275527BA014C195D096E0916
:100CB0007F092AE0CE010E94D305800F911FDF91AA
:100CC000CF911F910F91FF90EF90DF90CF900895FB
:100CD0002AE0B701A601CE01DF91CF911F910F91BC
:100CE000FF90EF90DF90CF900C94D3054F925F92DE
:100CF0006F927F928F929F92AF92BF92CF92DF922C
:100D0000EF92FF920F931F93CF93DF93EC016A0151
:100D10007B01B22E9A01AB01C701B6010E947F0987
:100D2000882319F062E371E027C026013701E894B7
:100D300077F82FEF3FEF4FE75FE7C301B2010E9463
:100D40007F0981110DC02FEF3FEF4FE75FE7C30130
:100D5000B2010E94C90718161CF466E371E00CC0CA
:100D60002FEF3FEF4FE75FE4C701B6010E9418097C
:100D70001816ACF46AE371E0CE01DF91CF911F91B8
:100D80000F91FF90EF90DF90CF90BF90AF909F902A
:100D90008F907F906F905F904F900C94A0052FEFF5
:100DA0003FEF4FE75FECC701B6010E94C90787FD1F
:100DB000E1CF20E030E0A901C701B6010E94C907D8
:100DC00087FF0AC06DE2CE010E94B8058C01F7FAD8
:100DD000F094F7F8F09402C000E010E0A12C60E07D
:100DE00070E080E09FE3AB1441F020E030E040E2AF
:100DF00051E40E94CD07A394F6CF9B01AC01C7013B
:100E0000B6010E9465076B017C010E943A082B0124
:100E10003C010E9466089B01AC01C701B6010E941B
:100E200064076B017C012AE0B301A201CE010E949C
:100E3000D305080F191FBB2039F06EE371E0CE0116
:100E40000E94A005080F191F7B2C772041F120E09C
:100E500030E040E251E4C701B6010E941C096B0179
:100E60007C010E9435084B01AA2497FCA094BA2C5F
:100E70002AE030E0B501A401CE010E942C06080F43
:100E8000191FC501B4010E9468089B01AC01C7018C
:100E9000B6010E9464076B017C017A94D6CFC80129
:100EA000DF91CF911F910F91FF90EF90DF90CF9046
:100EB000BF90AF909F908F907F906F905F904F907A
:100EC00008950C94760608955058BB27AA270ED093
:100ED00075C166D130F06BD120F031F49F3F11F431
:100EE0001EF45BC10EF4E095E7FB51C1E92F77D109
:100EF00080F3BA17620773078407950718F071F437
:100F00009EF58FC10EF4E0950B2EBA2FA02D0B018C
:100F1000B90190010C01CA01A0011124FF27591B3E
:100F200099F0593F50F4503E68F11A16F040A22F44
:100F3000232F342F4427585FF3CF469537952795B5
:100F4000A795F0405395C9F77EF41F16BA0B620BB4
:100F5000730B840BBAF09150A1F0FF0FBB1F661FFB
:100F6000771F881FC2F70EC0BA0F621F731F841F3E
:100F700048F4879577956795B795F7959E3F08F064
:100F8000B3CF9395880F08F09927EE0F9795879523
:100F90000895D9D008F481E008950CD00FC107D18D
:100FA00040F0FED030F021F45F3F19F0F0C0511155
:100FB00039C1F3C014D198F39923C9F35523B1F380
:100FC000951B550BBB27AA2762177307840738F0B8
:100FD0009F5F5F4F220F331F441FAA1FA9F333D017
:100FE0000E2E3AF0E0E830D091505040E695001CCB
:100FF000CAF729D0FE2F27D0660F771F881FBB1F87
:10100000261737074807AB07B0E809F0BB0B802D60
:10101000BF01FF2793585F4F2AF09E3F510568F0AC
:10102000B6C000C15F3FECF3983EDCF38695779540
:101030006795B795F7959F5FC9F7880F911D9695AE
:10104000879597F90895E1E0660F771F881FBB1F0A
:10105000621773078407BA0720F0621B730B840BB7
:10106000BA0BEE1F88F7E095089504D06894B1118B
:10107000D9C00895BCD088F09F5790F0B92F992718
:10108000B751A0F0D1F0660F771F881F991F1AF093
:10109000BA95C9F712C0B13081F0C3D0B1E008955C
:1010A000C0C0672F782F8827B85F39F0B93FCCF3DD
:1010B000869577956795B395D9F73EF49095809589
:1010C000709561957F4F8F4F9F4F0895E89409C0A9
:1010D00097FB3EF490958095709561957F4F8F4F6B
:1010E0009F4F9923A9F0F92F96E9BB279395F69581
:1010F000879577956795B795F111F8CFFAF4BB0FFF
:1011000011F460FF1BC06F5F7F4F8F4F9F4F16C062
:10111000882311F096E911C0772321F09EE8872FEC
:10112000762F05C0662371F096E8862F70E060E0A8
:101130002AF09A95660F771F881FDAF7880F969521
:10114000879597F90895990F0008550FAA0BE0E8C5
:10115000FEEF16161706E807F907C0F01216130679
:10116000E407F50798F0621B730B840B950B39F4B9
:101170000A2661F0232B242B252B21F408950A261F
:1011800009F4A140A6958FEF811D811D089597F95F
:101190009F6780E870E060E008959FEF80EC08951D
:1011A00000240A9416161706180609060895002446
:1011B0000A9412161306140605060895092E0394C0
:1011C000000C11F4882352F0BB0F40F4BF2B11F434
:1011D00060FF04C06F5F7F4F8F4F9F4F089557FD93
:1011E0009058440F551F59F05F3F71F04795880F95
:1011F00097FB991F61F09F3F79F08795089512162C
:1012000013061406551FF2CF4695F1DF08C01616D7
:1012100017061806991FF1CF869571056105089488
:101220000895E894BB2766277727CB0197F908959F
:101230008ADF08F48FEF08950BD0C0CFB1DF28F01C
:10124000B6DF18F0952309F0A2CFA7CF1124EACF7B
:10125000C6DFA0F3959FD1F3950F50E0551F629F15
:10126000F001729FBB27F00DB11D639FAA27F00DFF
:10127000B11DAA1F649F6627B00DA11D661F829F26
:101280002227B00DA11D621F739FB00DA11D621F0B
:10129000839FA00D611D221F749F3327A00D611D28
:1012A000231F849F600D211D822F762F6A2F11240A
:1012B0009F5750408AF0E1F088234AF0EE0FFF1F5D
:1012C000BB1F661F771F881F91505040A9F79E3F94
:1012D000510570F05CCFA6CF5F3FECF3983EDCF396
:1012E000869577956795B795F795E7959F5FC1F7D1
:1012F000FE2B880F911D9695879597F9089523DF0A
:10130000880B990B0895A1E21A2EAA1BBB1BFD01A5
:101310000DC0AA1FBB1FEE1FFF1FA217B307E407D4
:10132000F50720F0A21BB30BE40BF50B661F771F2C
:10133000881F991F1A9469F760957095809590950C
:101340009B01AC01BD01CF010895EE0FFF1F059079
:0A135000F491E02D0994F894FFCF0A
:10135A000154454D50524154555245203D20002AD2
:10136A00430000000000F800CB00A000A800BB006A
:10137A00CA0000000000FC0378057E039703890376
:10138A00DA036E616E00696E66006F7666002E0083
:00000001FF
