:100000000C9462000C948A000C948A000C948A0070
:100010000C948A000C948A000C948A000C948A0038
:100020000C948A000C948A000C948A000C948A0028
:100030000C948A000C948A000C948A000C948A0018
:100040000C94F8010C948A000C9443010C947501F3
:100050000C948A000C948A000C948A000C948A00F8
:100060000C948A000C948A00000000080002010031
:100070000003040700000000000000000102040863
:100080001020408001020408102001020408102002
:10009000040404040404040402020202020203032E
:1000A00003030303000000002300260029000000D2
:1000B0000000250028002B0000000000240027007D
:1000C0002A00A50111241FBECFEFD8E0DEBFCDBFAF
:1000D00011E0A0E0B1E0E0E2F7E002C005900D928F
:1000E000A831B107D9F721E0A8E1B1E001C01D9224
:1000F000A03CB207E1F710E0C4ECD0E004C02297C6
:10010000FE010E948A03C23CD107C9F70E94E9019F
:100110000C948E030C9400006115710581F0DB01D5
:100120000D900020E9F7AD0141505109461B570BD6
:10013000DC01ED91FC910280F381E02D099480E0D7
:1001400090E0089560E082E00C94E10082E00E947B
:100150001A019093190180931801019719F460E036
:1001600071E002C063E071E08AE191E00C948C00E0
:10017000833081F028F4813099F08230A1F0089525
:100180008730A9F08830B9F08430D1F480918000B4
:100190008F7D03C0809180008F77809380000895C9
:1001A00084B58F7702C084B58F7D84BD089580911A
:1001B000B0008F7703C08091B0008F7D8093B00036
:1001C0000895CF93DF9390E0FC01E458FF4F249112
:1001D000FC01E057FF4F8491882349F190E0880F9C
:1001E000991FFC01E854FF4FA591B49182559F4F90
:1001F000FC01C591D4919FB7611108C0F8948C910E
:10020000209582238C93888182230AC0623051F426
:10021000F8948C91322F309583238C938881822B94
:10022000888304C0F8948C91822B8C939FBFDF91BC
:10023000CF910895CF93DF93282F30E0F901E8594B
:10024000FF4F8491F901E458FF4FD491F901E05731
:10025000FF4FC491CC2391F081110E94B800EC2F84
:10026000F0E0EE0FFF1FEC55FF4FA591B4912C91DC
:100270002D2381E090E021F480E002C080E090E056
:10028000DF91CF9108951F920F920FB60F92112414
:100290002F938F939F93EF93FF93E0912A01F09117
:1002A0002B018081E0913001F091310182FD12C07B
:1002B0009081809133018F5F8F7320913401821779
:1002C00051F0E0913301F0E0E65EFE4F958F8093B0
:1002D000330101C08081FF91EF919F918F912F9108
:1002E0000F900FBE0F901F9018951F920F920FB690
:1002F0000F9211242F933F934F935F936F937F93AC
:100300008F939F93AF93BF93EF93FF938AE191E015
:100310000E94B802FF91EF91BF91AF919F918F9191
:100320007F916F915F914F913F912F910F900FBEF1
:100330000F901F9018958AE191E00E947D0221E0C4
:10034000892B09F420E0822F089510921D0110924C
:100350001C0188EE93E0A0E0B0E080931E01909332
:100360001F01A0932001B09321018BE091E09093B5
:100370001B0180931A0185EC90E0909327018093F4
:10038000260184EC90E0909329018093280180EC71
:1003900090E090932B0180932A0181EC90E0909360
:1003A0002D0180932C0182EC90E090932F0180939B
:1003B0002E0186EC90E090933101809330011092F1
:1003C00033011092340110923501109236010895D4
:1003D00008950E9442020E94E8010E94A200CAEA17
:1003E000D2E00E94A6002097E1F30E94AA02F9CF72
:1003F0001F920F920FB60F9211242F933F938F935A
:100400009F93AF93BF938091B8019091B901A09150
:10041000BA01B091BB013091B70123E0230F2D3712
:1004200020F40196A11DB11D05C026E8230F0296F8
:10043000A11DB11D2093B7018093B8019093B9011C
:10044000A093BA01B093BB018091BC019091BD0112
:10045000A091BE01B091BF010196A11DB11D809375
:10046000BC019093BD01A093BE01B093BF01BF91A9
:10047000AF919F918F913F912F910F900FBE0F9051
:100480001F901895789484B5826084BD84B581608E
:1004900084BD85B5826085BD85B5816085BDEEE68C
:1004A000F0E0808181608083E1E8F0E0108280816B
:1004B00082608083808181608083E0E8F0E08081D9
:1004C00081608083E1EBF0E0808184608083E0EBF9
:1004D000F0E0808181608083EAE7F0E080818460E1
:1004E000808380818260808380818160808380813D
:1004F000806880831092C1000895FC01818D228D57
:1005000090E0805C9F4F821B91098F73992708951B
:10051000FC01918D828D981731F0828DE80FF11DCD
:10052000858D90E008958FEF9FEF0895FC01918DE8
:10053000828D981761F0828DDF01A80FB11D5D9645
:100540008C91928D9F5F9F73928F90E008958FEFB3
:100550009FEF08958BE991E0892B49F080E090E0CE
:10056000892B29F00E949B0181110C9400000895B1
:10057000FC01848DDF01A80FB11DA35ABF4F2C9140
:10058000848D90E001968F739927848FA689B7890F
:100590002C93A089B1898C9180648C93938D848DE8
:1005A000981306C00288F389E02D80818F7D8083B7
:1005B0000895CF93DF93EC01888D8823C9F0EA89F1
:1005C000FB89808185FD05C0A889B9898C9186FD4C
:1005D0000FC00FB607FCF5CF808185FFF2CFA88949
:1005E000B9898C9185FFEDCFCE010E94B802E7CF8B
:1005F000DF91CF910895CF92DF92FF920F931F93D7
:10060000CF93DF931F92CDB7DEB76C01DC015B9611
:100610009C915B975C968C915C97981307C0509661
:10062000ED91FC915197808185FD32C0F601038DDB
:1006300010E00F5F1F4F0F731127F02EF601848D0E
:10064000F81211C00FB607FCF9CFD6015096ED9104
:10065000FC915197808185FFF1CFC60169830E948B
:10066000B8026981EBCF838DE80FF11DE35AFF4F8C
:100670006083D6015B960C935B975296ED91FC914B
:10068000539780818062808381E058968C930DC05F
:10069000D6015696ED91FC91579760835096ED9157
:1006A000FC91519780818064808381E090E00F907D
:1006B000DF91CF911F910F91FF90DF90CF90089520
:1006C000CF92DF92EF92FF920F931F93CF93DF931E
:1006D0006C017A01EB01E60EF71E00E010E0CE158A
:1006E000DF0561F06991D601ED91FC910190F081F7
:1006F000E02DC6010995080F191FF1CFC801DF9140
:10070000CF911F910F91FF90EF90DF90CF900895C0
:10071000EE0FFF1F0590F491E02D0994F894FFCFA0
:100720006F6E006F66660000000000FB0260037DD4
:080730000296028802D90200C2
:00000001FF
