:100000000C94E4000C940C010C940C010C940C0165
:100010000C940C010C940C010C940C010C940C012C
:100020000C940C010C940C010C940C010C940C011C
:100030000C940C010C940C010C940C010C940C010C
:100040000C948E0A0C940C010C947A0D0C94AC0D4B
:100050000C940C010C940C010C940C010C940C01EC
:100060000C9428030C940C01005EBCE2613FDD831C
:10007000C29C7E20A3FD1F419DC3217FFCA2401E88
:100080005F01E3BD3E6082DC237D9FC1421CFEA078
:10009000E1BF5D0380DE3C62BEE0025CDF81633D68
:1000A0007C22C09E1D43A1FF4618FAA427799BC558
:1000B00084DA3866E5BB5907DB856739BAE4065848
:1000C0001947A5FB7826C49A653BD987045AB8E638
:1000D000A7F91B45C6987A24F8A6441A99C7257B28
:1000E0003A6486D85B05E7B98CD2306EEDB3510F18
:1000F0004E10F2AC2F7193CD114FADF3702ECC9208
:10010000D38D6F31B2EC0E50AFF1134DCE90722CF7
:100110006D33D18F0C52B0EE326C8ED0530DEFB1E7
:10012000F0AE4C1291CF2D73CA947628ABF51749D7
:100130000856B4EA6937D58B5709EBB536688AD4C7
:1001400095CB2977F4AA4816E9B7550B88D6346AB7
:100150002B7597C94A14F6A8742AC896154BA9F7A7
:10016000B6E80A54D7896B35000000080002010088
:100170000003040700000000000000000102040862
:100180001020408001020408102001020408102001
:10019000040404040404040402020202020203032D
:1001A00003030303000000002300260029000000D1
:1001B0000000250028002B0000000000240027007C
:1001C0002A002E018A02DC0D11241FBECFEFD8E0D9
:1001D000DEBFCDBF11E0A0E0B1E0E0EAF4E202C092
:1001E00005900D92A639B107D9F723E0A6E9B1E051
:1001F00001C01D92AF32B207E1F711E0C8ECD1E0C7
:1002000004C02297FE010E944A12C23CD107C9F7DE
:100210000E94200E0C944E120C94000026E040E840
:1002200055E260E070E082E992E00E94180D8DEBEB
:1002300091E00E9478078DEB91E00E947E0640E0FD
:1002400060E08DEB91E00E94DF0661E080910001AB
:100250000E949D0B8CE991E00C94A40824E044E1F9
:1002600067E28DEB91E00E9455066EE08FEA91E027
:100270000E948E056FEA71E08CE991E00C947B0797
:100280008CE991E00E947609809100010E940C0C9B
:1002900090939701809396018DEB91E00E94D10697
:1002A00060E08CE991E00E946A0A60939801709383
:1002B000990180939A0190939B0182E992E00E94B8
:1002C000350C892B09F444C06AE071E08DEB91E0B4
:1002D0000E946D0E42E060E08DEB91E00E94DF062F
:1002E0006AE171E08DEB91E00E946D0E41E060E00B
:1002F0008DEB91E00E94DF066BE271E08DEB91E007
:100300000E946D0E409198015091990160919A015F
:1003100070919B0122E030E08DEB91E00E9404108F
:100320006AE371E08DEB91E00E946D0E8091960181
:1003300090919701019761F56CE371E08DEB91E08D
:100340000E946D0E60ED77E080E090E00C94070B6A
:100350006CE471E08DEB91E00E946D0E41E060E095
:100360008DEB91E00E94DF066BE271E08DEB91E096
:100370000E946D0E409198015091990160919A01EF
:1003800070919B0122E030E08DEB91E00C94041021
:1003900008958091F90190E02091FA01821B910962
:1003A00008952091FA018091F901281750F4E22F65
:1003B000F0E0E550FE4F808190E02F5F2093FA013E
:1003C00008958FEF9FEF0895E091FA018091F90170
:1003D000E81730F4F0E0E550FE4F808190E008959A
:1003E0008FEF9FEF08950895CF92DF92EF92FF92E3
:1003F0000F931F93CF93DF937C01CB018A01209150
:10040000D501222389F0EB016B01C40ED51ECC155A
:10041000DD0569F06991D701ED91FC910190F081C2
:10042000E02DC7010995F3CF642F0E94FF02C80198
:10043000DF91CF911F910F91FF90EF90DF90CF90C0
:100440000895CF93DF931F92CDB7DEB769832091D4
:10045000D5012223D1F02091D601203240F021E0B5
:1004600030E0FC013383228380E090E015C080916E
:10047000D701E82FF0E0E852FE4F998190838F5F1B
:100480008093D7018093D60105C061E0CE0101962B
:100490000E94FF0281E090E00F90DF91CF910895DC
:1004A000FC011382128248EE53E060E070E0448366
:1004B00055836683778384E691E0918380830895F2
:1004C0001092FA011092F9011092D7011092D60100
:1004D0000C948E0281E08093D5016093F801109214
:1004E000D7011092D60108950F93062F21E0409175
:1004F000D60168ED71E08091F8010E94AC02109283
:10050000D7011092D6011092D5010F91089561E0A4
:100510000C94740289EC91E00C94500210928802C1
:1005200081E0809386021092850261E082E10E9460
:10053000D60B61E083E10E94D60BE9EBF0E080810D
:100540008E7F808380818D7F808388E48093B80054
:1005500085E48093BC0008950F93413208F046C0B3
:10056000909188029111FCCF92E0909388020093C1
:1005700086029FEF90931B021092600240935F02ED
:10058000FB0161E672E0DB019A2F961B941718F4C9
:1005900091919D93F9CF1092870290918702880FD5
:1005A000892B8093870280918502813041F41092DB
:1005B0008502809187028093BB0085EC01C085EEA7
:1005C0008093BC00222321F0809188028230E1F3E5
:1005D00080911B028F3F61F080911B02803251F0AD
:1005E00080911B02803341F483E007C081E005C0A5
:1005F00080E003C082E001C084E00F910895613281
:1006000098F420918802243089F460933D02FC0123
:100610008FE392E0DC012A2F281B261718F4219182
:100620002D93F9CF80E0089581E0089582E0089548
:1006300085ED8093BC008091BC0084FDFCCF1092BE
:100640008802089585EC8093BC001092880208957A
:100650001F920F920FB60F9211242F933F934F9337
:100660005F936F937F938F939F93AF93BF93EF931A
:10067000FF938091B900887F803609F49CC068F5AB
:10068000883209F45BC090F4803109F454C038F426
:10069000882309F4F5C0883009F44DC0F5C08831CD
:1006A00009F44CC0803209F45DC0EEC0803409F416
:1006B00068C048F4803309F455C0883309F0E4C0B9
:1006C00080931B02A8C0803509F44FC0883509F417
:1006D0005DC0883409F0D8C0D5C0883909F4C6C0D7
:1006E000A8F4883709F467C038F4883609F463C081
:1006F000803709F460C0C8C0883809F4B7C08039B1
:1007000009F45FC0803809F0BFC05BC0803B09F4CA
:1007100085C038F4803A09F466C0883A09F47EC08E
:10072000B3C0803C09F4A6C0883C09F4A3C0883B50
:1007300009F489C0A9C08091870210C0909160021D
:1007400080915F02981770F5E091600281E08E0F52
:1007500080936002F0E0EF59FD4F80818093BB00F1
:1007600085EC85C080931B028DC0E091600281E022
:100770008E0F809360028091BB00F0E0EF59FD4F37
:1007800080839091600280915F026DC0E091600271
:1007900081E08E0F809360028091BB00F0E0EF5902
:1007A000FD4F80838091860281116CC081E080932F
:1007B000850284EA60C083E08093880210921C0264
:1007C000CFCF80911C02803208F050C0E0911C0213
:1007D00081E08E0F80931C028091BB00F0E0E35E0D
:1007E000FD4F8083BDCF80911C02803230F4E091B8
:1007F0001C02F0E0E35EFD4F10820E94180360913E
:100800001C0270E0E0918102F09182028DE192E0A1
:10081000099510921C020E94220336C084E0809346
:10082000880210923E0210923D02E0918302F09104
:100830008402099580913D02811105C081E0809379
:100840003D0210923F02E0913E0281E08E0F8093C4
:100850003E02F0E0E15CFD4F80818093BB0090910F
:100860003E0280913D02981708F47ACF85E8809384
:10087000BC000AC085EC8093BC001092880204C0C2
:1008800010921B020E941803FF91EF91BF91AF914C
:100890009F918F917F916F915F914F913F912F9198
:1008A0000F900FBE0F901F901895FF920F931F93FC
:1008B000CF93DF93FC010081C181D281F8948981BB
:1008C000F02EF0948F21898378941DE7115029F13F
:1008D00082E090E00E942F0B88818023B9F3F89486
:1008E0008A818F218A838981802B8983789480EE05
:1008F00091E00E942F0BF89489818F21898386E4EF
:1009000090E00E942F0B8881802311E009F010E015
:1009100078948AE991E00E942F0B812FDF91CF918B
:100920001F910F91FF9008951F93CF93DF93FC01C8
:100930001081C181D281912F909560FF12C0F894EF
:100940008A8189238A838981812B89838AE090E047
:100950000E942F0B8A81812B8A83789487E390E011
:1009600011C0F8948A8189238A838981812B8983A4
:1009700081E490E00E942F0B8A81812B8A837894F6
:1009800085E090E0DF91CF911F910C942F0B0F9396
:100990001F93CF93DF93FC011081C181D281F89422
:1009A0008981812B89838A81012F009580238A8305
:1009B00083E090E00E942F0B8981802389838AE065
:1009C00090E00E942F0BC881789485E390E00E940C
:1009D0002F0B1C2381E009F480E0DF91CF911F9160
:1009E0000F910895CF92DF92EF92FF920F931F9392
:1009F000CF93DF931F92CDB7DEB76C01E62E08E0F0
:100A000010E0FF24F39461E09F2D9E2109F460E043
:100A1000C60149830E949404FF0C015011094981C9
:100A20000115110581F7411115C0F894D6011196F1
:100A3000ED91FC91129791818C918095892381830E
:100A40001196ED91FC91129792818C91809589235A
:100A5000828378940F90DF91CF911F910F91FF9037
:100A6000EF90DF90CF900895EF92FF920F931F9336
:100A7000CF93DF938C01C8E0D0E0F12CEE24E39417
:100A8000C8010E94C7048111FE28EE0C2197C1F70E
:100A90008F2DDF91CF911F910F91FF90EF900895CF
:100AA000CF92DF92FF920F931F93CF93DF931F920A
:100AB000CDB7DEB78C01F62E40E065E579830E9464
:100AC000F204CF2C7981D72E88E0F82EF6016191BF
:100AD0006F0140E0C8010E94F204FA94B9F70F9048
:100AE000DF91CF911F910F91FF90DF90CF900895EC
:100AF00040E06CEC0C94F204FC011386158614861D
:100B000027E030E0DF01A20FB31F13961C922115DE
:100B1000310519F021503109F5CF08951F93CF9376
:100B2000DF93EC01162F60E0812F0E949D0B612F57
:100B300070E0FB01E458FE4FE491E883FB01E057CD
:100B4000FE4FE491F0E0EE0FFF1FEC55FE4F859154
:100B500094919A838983CE01DF91CF911F910C9458
:100B60007C05AF92BF92CF92DF92EF92FF920F93EC
:100B70001F93CF93DF931F92CDB7DEB75C01E62EB4
:100B8000D72EFC01858581115DC0C5010E945504E9
:100B9000811105C0F5011386158614866EC040E0EC
:100BA00060EFC5010E94F20401E0F12CC12C11E0BC
:100BB000C5010E94C704682FC50169830E94C7044C
:100BC0006981613019F48130B9F433C02F2D30E0E0
:100BD00068131BC0F5018385181730F4E20FF31F6B
:100BE0008381802349F402C0181731F060E0193086
:100BF00058F4F501148708C0F501EF0DF11D83814C
:100C0000802B838361E009C0C12EF501E20FF31F41
:100C10008381902F909589238383C5010E9494043A
:100C20001F5F000F11F4F39401E0F7E0FF1508F0E7
:100C3000BFCF113438F0F501C386C11018C081E070
:100C4000858715C0F50113861586148680E0EE2D84
:100C5000FD2D20E030E0D501A20FB31F13969C912B
:100C600091932F5F3F4F28303105A9F706C0F5015A
:100C70008381882339F381E0EACF0F90DF91CF9110
:100C80001F910F91FF90EF90DF90CF90BF90AF90AA
:100C90000895DC0180E0615038F0ED91E827F0E044
:100CA000E859FF4F8491F7CF0895FC011382128217
:100CB00084E791E091838083648341872287138650
:100CC00008951F93CF93DF93EC01162F6C8189EC6D
:100CD00091E00E946A02E091C901F091CA016B851E
:100CE000612B0190F081E02D89EC91E0099589EC70
:100CF00091E0DF91CF911F910C94870228E0FC01D5
:100D0000238760E00C9461061F93CF93DF93EC017F
:100D1000162F64600E94610681E090E00E942F0B14
:100D2000612F6B7FCE010E94610682E390E0DF912C
:100D3000CF911F910C942F0B1F93CF93DF93EC0156
:100D4000162F0E946106612FCE01DF91CF911F9176
:100D50000C948406EF92FF921F93CF93DF931F9220
:100D6000CDB7DEB77C01162F607F642B49830E94CC
:100D70009C0680E1189FB00111244981642BC701B2
:100D80000F90DF91CF911F91FF90EF900C949C06F4
:100D900041E00E94AA0680E090E0089540E00C94B3
:100DA000AA0661E00E94CE0680ED97E00C942F0B1E
:100DB00062E00E94CE0680ED97E00C942F0BCF935B
:100DC000DF93CDB7DEB728970FB6F894DEBF0FBE1E
:100DD000CDBF28E0E2E0F1E0DE01119601900D9236
:100DE0002A95E1F7FC012085241710F44FEF420FFC
:100DF000FE013196E40FF11DE40FF11D2081260F55
:100E00002068622F28960FB6F894DEBF0FBECDBFC4
:100E1000DF91CF910C94CE06FC016681262F2460D1
:100E200026836C600C94CE06CF93DF93EC014230A6
:100E300018F08D8188608D834887222329F0413006
:100E400019F48D8184608D8362E370E080E090E02E
:100E50000E94070B6B85CE010E94610668EE73E06D
:100E600080E090E00E94070B60E3CE010E949C06A8
:100E700084E991E10E942F0B60E3CE010E949C0661
:100E800084E991E10E942F0B60E3CE010E949C0651
:100E900086E990E00E942F0B60E2CE010E949C0642
:100EA0006D816062CE010E94CE0684E08E83CE0109
:100EB0000E940C07CE010E94D10682E08F8366E07B
:100EC000CE010E94CE06CE01DF91CF910C94D806C0
:100ED000CF93DF93EC0189EC91E00E9460021D82C8
:100EE00020E04A856985CE01DF91CF910C941407EB
:100EF0000C9468070895FC018AE797E0928B818B38
:100F0000768365831482108289E0818381E0828305
:100F100083830895CF93DF93EB0167E0CE010E94B6
:100F2000490691E02F81821390E0892FDF91CF91C4
:100F30000895EF92FF920F931F93CF93DF93EC01ED
:100F40008B01E42E8D819E810E947C05F12CB801DD
:100F50008D819E810E94B105882359F0FE1006C044
:100F6000B801CE010E948A07811104C0F394EF14E6
:100F700070F780E0DF91CF911F910F91FF90EF907C
:100F80000895EF92FF920F931F93CF93DF9300D0BA
:100F9000CDB7DEB77C018A01FC018581968169832A
:100FA0007A830E94550469817A81F701858196814F
:100FB0000E94500540E06EEBF701858196810E940A
:100FC000F204F701858196810E943405F80180833F
:100FD000F701858196810E943405F8018183F7012C
:100FE000858196810E943405F8018283F70185810D
:100FF00096810E943405F8018383F70185819681EB
:101000000E943405F8018483F701858196810E944E
:101010003405F8018583F701858196810E943405A6
:10102000F8018683F701858196810E943405F801D5
:101030008783F701858196810E943405F8018087B6
:10104000F701858196810F900F90DF91CF911F91CD
:101050000F91FF90EF900C945504CF93DF93EA012A
:101060000E94C10768E0CE010E94490691E02885F0
:10107000821390E0892FDF91CF910895EF92FF9234
:101080001F93CF93DF9300D0CDB7DEB77C01FC0177
:101090008581968169837A830E94550469817A816A
:1010A000F701858196810E94500540E064EBF701CD
:1010B000858196810E94F204F701858196810E94C4
:1010C000C704182FF701858196810E94550481E09D
:1010D000111180E00F900F90DF91CF911F91FF9041
:1010E000EF900895CF93DF93CDB7DEB729970FB672
:1010F000F894DEBF0FBECDBFFB0120812031D1F0BF
:10110000AE014F5F5F4F0E942D08882379F08D81DB
:101110008F3351F018F48F3169F008C08F3541F0EA
:101120008F3721F48CE007C08AE005C080E003C05F
:101130008BE001C089E029960FB6F894DEBF0FBEA0
:10114000CDBFDF91CF910895EF92FF920F931F9340
:10115000CF93DF93CDB7DEB761970FB6F894DEBFBC
:101160000FBECDBF8C01FC01858196810E947C055C
:10117000F8011482FF24F394BE01665F7F4FF801EB
:10118000858196810E94B1058823C9F1BE01665F01
:101190007F4FC8010E948A07882371F3F80180817C
:1011A000811108C0BE01665F7F4FC8010E943E08E2
:1011B000811122C0AE014F5F5F4FBE01665F7F4F5E
:1011C000C8010E94C107F801E180BE01665F7F4F40
:1011D000C8010E9472088E1518F4F801818106C0BA
:1011E000BE01665F7F4FC8010E947208F8018183CB
:1011F00084818F5F8483C0CFF801F082DBCF61965A
:101200000FB6F894DEBF0FBECDBFDF91CF911F9117
:101210000F91FF90EF900895CF93DF93CDB7DEB796
:1012200029970FB6F894DEBF0FBECDBFAE014F5F5A
:101230005F4F0E94C10781E09981911101C080E058
:1012400029960FB6F894DEBF0FBECDBFDF91CF91C8
:101250000895CF92DF92EF92FF920F931F93CF9357
:10126000DF93EC018B01452BE1F08B818823C9F0E2
:101270008881811116C00E94D80A6B017C0160E050
:1012800070E0CE010E940C0981110BC00E94D80AA7
:101290006C197D098E099F096E3E7240810591058A
:1012A00070F3F80180818A3049F08B3061F0893029
:1012B00079F46EE570E080E090E00EC06CEB70E0D9
:1012C00080E090E009C067E771E080E090E004C052
:1012D0006EEE72E080E090E0DF91CF911F910F9170
:1012E000FF90EF90DF90CF900C94070BCF93DF939C
:1012F000EC018D819E810E9455048D819E810E940A
:101300007805488164E48D819E810E94F2048A817F
:10131000882351F0BE016F5F7F4F40E050E0CE0167
:10132000DF91CF910C942909DF91CF9108958F928D
:101330009F92AF92BF92CF92DF92EF92FF921F9354
:10134000CF93DF93FB01EA01698170E0762F662776
:101350008881682B80818232B1F18832A1F180319D
:1013600009F078C01F8175956795882777FD80956E
:10137000982F0E940B1120E030E040E85EE30E94CD
:1013800007106B017C01612F70E08E81681B710971
:10139000882777FD8095982F0E940B114B015C01E7
:1013A000612F70E080E090E00E9409119B01AC0188
:1013B000C501B4010E9470109B01AC01C701B601C8
:1013C0000E94081043C08C818F3381F198F48F31D3
:1013D00009F040C093E0759567959A95E1F78827E5
:1013E00077FD8095982F0E940B1120E030E040E0BF
:1013F0005FE32AC08F3569F08F3761F5882777FD65
:101400008095982F0E940B1120E030E040E85DE3CA
:101410001BC075956795882777FD8095982F0E944A
:101420000B1120E030E040E05EE30EC0759567955B
:1014300075956795882777FD8095982F0E940B11E9
:1014400020E030E040E85EE30E94BF11562F472FB6
:10145000382F292F652F742F832F922FDF91CF9153
:101460001F91FF90EF90DF90CF90BF90AF909F9033
:101470008F900895EF92FF920F931F93CF93DF9376
:10148000CDB7DEB729970FB6F894DEBF0FBECDBF3C
:101490008C017B01AE014F5F5F4F0E942D088823B6
:1014A00041F0AE014F5F5F4FB701C8010E9497093D
:1014B00004C060E070E08EEF92EC29960FB6F894CD
:1014C000DEBF0FBECDBFDF91CF911F910F91FF9077
:1014D000EF9008950F931F93CF93DF93CDB7DEB7AF
:1014E00028970FB6F894DEBF0FBECDBF8C01462FF4
:1014F000BE016F5F7F4F0E949907BE016F5F7F4FF4
:10150000C8010E943A0A28960FB6F894DEBF0FBEB3
:10151000CDBFDF91CF911F910F9108951F920F9230
:101520000FB60F9211242F933F938F939F93AF93F6
:10153000BF9380918A0290918B02A0918C02B0910E
:101540008D023091890223E0230F2D3720F401967C
:10155000A11DB11D05C026E8230F0296A11DB11DD6
:101560002093890280938A0290938B02A0938C022D
:10157000B0938D0280918E0290918F02A091900283
:10158000B09191020196A11DB11D80938E0290939E
:101590008F02A0939002B0939102BF91AF919F915F
:1015A0008F913F912F910F900FBE0F901F90189524
:1015B0002FB7F89460918A0270918B0280918C020F
:1015C00090918D022FBF08953FB7F89480918E02BD
:1015D00090918F02A0919002B091910226B5A89BA4
:1015E00005C02F3F19F00196A11DB11D3FBF662711
:1015F000782F892F9A2F620F711D811D911D42E056
:10160000660F771F881F991F4A95D1F70895CF92CB
:10161000DF92EF92FF92CF93DF936B017C010E94E8
:10162000E40AEB01C114D104E104F10489F00E9441
:1016300006100E94E40A6C1B7D0B683E734090F319
:1016400081E0C81AD108E108F108C851DC4FEACF9F
:10165000DF91CF91FF90EF90DF90CF9008950197A9
:1016600039F0880F991F880F991F02970197F1F79A
:101670000895789484B5826084BD84B5816084BD0A
:1016800085B5826085BD85B5816085BDEEE6F0E0FB
:10169000808181608083E1E8F0E010828081826057
:1016A0008083808181608083E0E8F0E080818160D8
:1016B0008083E1EBF0E0808184608083E0EBF0E008
:1016C000808181608083EAE7F0E0808184608083AC
:1016D0008081826080838081816080838081806856
:1016E00080831092C1000895833081F028F4813006
:1016F00099F08230A1F008958730A9F08830B9F0D0
:101700008430D1F4809180008F7D03C0809180006F
:101710008F7780938000089584B58F7702C084B559
:101720008F7D84BD08958091B0008F7703C0809134
:10173000B0008F7D8093B0000895CF93DF9390E049
:10174000FC01E458FE4F2491FC01E057FE4F8491C8
:10175000882349F190E0880F991FFC01E854FE4F5F
:10176000A591B49182559E4FFC01C591D4919FB72C
:10177000611108C0F8948C91209582238C93888104
:1017800082230AC0623051F4F8948C91322F309544
:1017900083238C938881822B888304C0F8948C9156
:1017A000822B8C939FBFDF91CF9108950F931F934E
:1017B000CF93DF931F92CDB7DEB7282F30E0F9012A
:1017C000E859FE4F8491F901E458FE4F1491F90154
:1017D000E057FE4F04910023C9F0882321F069836C
:1017E0000E94740B6981E02FF0E0EE0FFF1FE255BD
:1017F000FE4FA591B4919FB7F8948C91611103C0ED
:101800001095812301C0812B8C939FBF0F90DF9196
:10181000CF911F910F910895CF93DF93282F30E040
:10182000F901E859FE4F8491F901E458FE4FD49133
:10183000F901E057FE4FC491CC2391F081110E9431
:10184000740BEC2FF0E0EE0FFF1FEC55FE4FA5914F
:10185000B4912C912D2381E090E021F480E002C02E
:1018600080E090E0DF91CF910895FC01818D228D81
:1018700090E0805C9F4F821B91098F739927089598
:10188000FC01918D828D981731F0828DE80FF11D4A
:10189000858D90E008958FEF9FEF0895FC01918D65
:1018A000828D981761F0828DDF01A80FB11D5D96C2
:1018B0008C91928D9F5F9F73928F90E008958FEF30
:1018C0009FEF089582ED9DE0892B49F080E090E044
:1018D000892B29F00E94D20D81110C9400000895EB
:1018E000FC01848DDF01A80FB11DA35ABF4F2C91BD
:1018F000848D90E001968F739927848FA689B7898C
:101900002C93A089B1898C9180648C93938D848D64
:10191000981306C00288F389E02D80818F7D808333
:101920000895CF93DF93EC01888D8823C9F0EA896D
:10193000FB89808185FD05C0A889B9898C9186FDC8
:101940000FC00FB607FCF5CF808185FFF2CFA889C5
:10195000B9898C9185FFEDCFCE010E94700CE7CF45
:10196000DF91CF910895CF92DF92FF920F931F9353
:10197000CF93DF931F92CDB7DEB76C01DC015B968E
:101980009C915B975C968C915C97981307C05096DE
:10199000ED91FC915197808185FD32C0F601038D58
:1019A00010E00F5F1F4F0F731127F02EF601848D8B
:1019B000F81211C00FB607FCF9CFD6015096ED9181
:1019C000FC915197808185FFF1CFC60169830E9408
:1019D000700C6981EBCF838DE80FF11DE35AFF4F47
:1019E0006083D6015B960C935B975296ED91FC91C8
:1019F000539780818062808381E058968C930DC0DC
:101A0000D6015696ED91FC91579760835096ED91D3
:101A1000FC91519780818064808381E090E00F90F9
:101A2000DF91CF911F910F91FF90DF90CF9008959C
:101A3000BF92CF92DF92EF92FF92CF93DF93EC01B0
:101A40006A017B01B22EE889F98982E08083411521
:101A500081EE580761057105A1F060E079E08DE342
:101A600090E0A70196010E942612215031094109F8
:101A700051095695479537952795211580E13807E7
:101A800098F0E889F989108260E874E88EE190E0C6
:101A9000A70196010E9426122150310941095109DE
:101AA0005695479537952795EC85FD853083EE85CE
:101AB000FF852083188EEC89FD89B082EA89FB8935
:101AC000808180618083EA89FB898081886080834E
:101AD000EA89FB89808180688083EA89FB8980812B
:101AE0008F7D8083DF91CF91FF90EF90DF90CF903B
:101AF000BF9008951F920F920FB60F9211242F934B
:101B00008F939F93EF93FF93E091A202F091A30232
:101B10008081E091A802F091A90282FD12C090811B
:101B20008091AB028F5F8F732091AC02821751F0CE
:101B3000E091AB02F0E0EE56FD4F958F8093AB0243
:101B400001C08081FF91EF919F918F912F910F9014
:101B50000FBE0F901F9018951F920F920FB60F9205
:101B600011242F933F934F935F936F937F938F93A2
:101B70009F93AF93BF93EF93FF9382E992E00E940C
:101B8000700CFF91EF91BF91AF919F918F917F91D9
:101B90006F915F914F913F912F910F900FBE0F90DA
:101BA0001F90189582E992E00E94350C21E0892B64
:101BB00009F420E0822F0895109295021092940269
:101BC00088EE93E0A0E0B0E08093960290939702B5
:101BD000A0939802B09399028CE791E090939302BE
:101BE0008093920285EC90E090939F0280939E02F6
:101BF00084EC90E09093A1028093A00280EC90E0AE
:101C00009093A3028093A20281EC90E09093A502AE
:101C10008093A40282EC90E09093A7028093A602A6
:101C200086EC90E09093A9028093A8021092AB02F8
:101C30001092AC021092AD021092AE020895089577
:101C40000E94390B0E941F0E0E940E01C2E6DCE0CA
:101C50000E9440012097E1F30E94620CF9CFCF92DD
:101C6000DF92EF92FF920F931F93CF93DF936C015C
:101C70007A01EB01E60EF71E00E010E0CE15DF055D
:101C800061F06991D601ED91FC910190F081E02D18
:101C9000C6010995080F191FF1CFC801DF91CF9137
:101CA0001F910F91FF90EF90DF90CF9008956115F5
:101CB000710581F0DB010D900020E9F7AD01415085
:101CC0005109461B570BDC01ED91FC910280F38119
:101CD000E02D099480E090E008950C94570EDC010B
:101CE000ED91FC910190F081E02D09948F929F92EB
:101CF000AF92BF92CF92DF92EF92FF920F931F931A
:101D0000CF93DF93CDB7DEB7A1970FB6F894DEBFC0
:101D10000FBECDBF7C01C42EE52FCB01D22E19A260
:101D200021E02D1510F02AE0D22E8E010F5D1F4FFD
:101D30008D2C912CA12CB12C6C2D7E2FA501940102
:101D40000E9426128C2DD29E801911240150110957
:101D50008A3014F4805D01C0895CF801808321150C
:101D600031054105510521F0C22EE32FCA01E4CF10
:101D7000B801C7010E94570EA1960FB6F894DEBFB6
:101D80000FBECDBFDF91CF911F910F91FF90EF90CC
:101D9000DF90CF90BF90AF909F908F900895CF929B
:101DA000DF92EF92FF920F931F93CF93DF93EC019B
:101DB0006A017B012115310579F4E881F9810190EF
:101DC000F081E02D642FDF91CF911F910F91FF9053
:101DD000EF90DF90CF9009942A303105E9F477FF36
:101DE0001AC06DE20E946F0E8C0144275527BA017C
:101DF0004C195D096E097F092AE0CE010E94760E1A
:101E0000800F911FDF91CF911F910F91FF90EF9065
:101E1000DF90CF9008952AE0B701A601CE01DF91AF
:101E2000CF911F910F91FF90EF90DF90CF900C9486
:101E3000760E4F925F926F927F928F929F92AF92A7
:101E4000BF92CF92DF92EF92FF920F931F93CF93A7
:101E5000DF93EC016A017B01B22E9A01AB01C7014D
:101E6000B6010E942212882319F068E871E027C0A9
:101E700026013701E89477F82FEF3FEF4FE75FE750
:101E8000C301B2010E94221281110DC02FEF3FEF5A
:101E90004FE75FE7C301B2010E946C1018161CF4F3
:101EA0006CE871E00CC02FEF3FEF4FE75FE4C70134
:101EB000B6010E94BB111816ACF460E971E0CE01C6
:101EC000DF91CF911F910F91FF90EF90DF90CF9016
:101ED000BF90AF909F908F907F906F905F904F904A
:101EE0000C94570E2FEF3FEF4FE75FECC701B601A1
:101EF0000E946C1087FDE1CF20E030E0A901C7010E
:101F0000B6010E946C1087FF0AC06DE2CE010E94EC
:101F10006F0E8C01F7FAF094F7F8F09402C000E02D
:101F200010E0A12C60E070E080E09FE3AB1441F092
:101F300020E030E040E251E40E947010A394F6CF1C
:101F40009B01AC01C701B6010E9408106B017C0126
:101F50000E94DD102B013C010E9409119B01AC0184
:101F6000C701B6010E9407106B017C012AE0B30192
:101F7000A201CE010E94760E080F191FBB2039F076
:101F800064E971E0CE010E94570E080F191F7B2CE7
:101F9000772041F120E030E040E251E4C701B60192
:101FA0000E94BF116B017C010E94D8104B01AA2432
:101FB00097FCA094BA2C2AE030E0B501A401CE0130
:101FC0000E94CF0E080F191FC501B4010E940B110A
:101FD0009B01AC01C701B6010E9407106B017C0197
:101FE0007A94D6CFC801DF91CF911F910F91FF90C6
:101FF000EF90DF90CF90BF90AF909F908F907F90A9
:102000006F905F904F9008950C94190F0895505859
:10201000BB27AA270ED075C166D130F06BD120F056
:1020200031F49F3F11F41EF45BC10EF4E095E7FB21
:1020300051C1E92F77D180F3BA176207730784077C
:10204000950718F071F49EF58FC10EF4E0950B2EF4
:10205000BA2FA02D0B01B90190010C01CA01A001FA
:102060001124FF27591B99F0593F50F4503E68F155
:102070001A16F040A22F232F342F4427585FF3CF96
:10208000469537952795A795F0405395C9F77EF467
:102090001F16BA0B620B730B840BBAF09150A1F0B0
:1020A000FF0FBB1F661F771F881FC2F70EC0BA0F36
:1020B000621F731F841F48F4879577956795B795BE
:1020C000F7959E3F08F0B3CF9395880F08F09927B6
:1020D000EE0F979587950895D9D008F481E008957B
:1020E0000CD00FC107D140F0FED030F021F45F3F9B
:1020F00019F0F0C0511139C1F3C014D198F39923EC
:10210000C9F35523B1F3951B550BBB27AA276217BB
:102110007307840738F09F5F5F4F220F331F441F00
:10212000AA1FA9F333D00E2E3AF0E0E830D0915038
:102130005040E695001CCAF729D0FE2F27D0660F25
:10214000771F881FBB1F261737074807AB07B0E864
:1021500009F0BB0B802DBF01FF2793585F4F2AF07A
:102160009E3F510568F0B6C000C15F3FECF3983E5A
:10217000DCF3869577956795B795F7959F5FC9F7D7
:10218000880F911D9695879597F90895E1E0660F60
:10219000771F881FBB1F621773078407BA0720F0D9
:1021A000621B730B840BBA0BEE1F88F7E095089542
:1021B00004D06894B111D9C00895BCD088F09F575D
:1021C00090F0B92F9927B751A0F0D1F0660F771F83
:1021D000881F991F1AF0BA95C9F712C0B13081F063
:1021E000C3D0B1E00895C0C0672F782F8827B85FAB
:1021F00039F0B93FCCF3869577956795B395D9F7C4
:102200003EF490958095709561957F4F8F4F9F4FCD
:102210000895E89409C097FB3EF4909580957095D9
:1022200061957F4F8F4F9F4F9923A9F0F92F96E922
:10223000BB279395F695879577956795B795F11197
:10224000F8CFFAF4BB0F11F460FF1BC06F5F7F4F34
:102250008F4F9F4F16C0882311F096E911C0772346
:1022600021F09EE8872F762F05C0662371F096E84F
:10227000862F70E060E02AF09A95660F771F881F1E
:10228000DAF7880F9695879597F90895990F0008C2
:10229000550FAA0BE0E8FEEF16161706E807F90738
:1022A000C0F012161306E407F50798F0621B730BD3
:1022B000840B950B39F40A2661F0232B242B252B54
:1022C00021F408950A2609F4A140A6958FEF811DF7
:1022D000811D089597F99F6780E870E060E0089598
:1022E0009FEF80EC089500240A941616170618062E
:1022F0000906089500240A9412161306140605060A
:102300000895092E0394000C11F4882352F0BB0F9A
:1023100040F4BF2B11F460FF04C06F5F7F4F8F4FFD
:102320009F4F089557FD9058440F551F59F05F3F38
:1023300071F04795880F97FB991F61F09F3F79F0E7
:1023400087950895121613061406551FF2CF469569
:10235000F1DF08C0161617061806991FF1CF8695EB
:102360007105610508940895E894BB2766277727CF
:10237000CB0197F908958ADF08F48FEF08950BD009
:10238000C0CFB1DF28F0B6DF18F0952309F0A2CF57
:10239000A7CF1124EACFC6DFA0F3959FD1F3950F05
:1023A00050E0551F629FF001729FBB27F00DB11DD9
:1023B000639FAA27F00DB11DAA1F649F6627B00D69
:1023C000A11D661F829F2227B00DA11D621F739F52
:1023D000B00DA11D621F839FA00D611D221F749F60
:1023E0003327A00D611D231F849F600D211D822FA7
:1023F000762F6A2F11249F5750408AF0E1F08823EE
:102400004AF0EE0FFF1FBB1F661F771F881F9150FA
:102410005040A9F79E3F510570F05CCFA6CF5F3FBB
:10242000ECF3983EDCF3869577956795B795F7952D
:10243000E7959F5FC1F7FE2B880F911D96958795B5
:1024400097F9089523DF880B990B0895A1E21A2EBE
:10245000AA1BBB1BFD010DC0AA1FBB1FEE1FFF1F48
:10246000A217B307E407F50720F0A21BB30BE40B98
:10247000F50B661F771F881F991F1A9469F76095DF
:102480007095809590959B01AC01BD01CF01089599
:10249000EE0FFF1F0590F491E02D0994F894FFCF03
:1024A0000200000040001400540050726F67726117
:1024B0006D207061757365643A0050726F67726168
:1024C0006D20656E67616765643A00437572726579
:1024D0006E742054656D703A2000430050726F672F
:1024E00072616D2073746172746564005761697400
:1024F000696E6720666F722070726F6772616D001F
:10250000000000002102F401C901D101E401F3013E
:1025100000000000C8062F0E00000000B30C2F0EB4
:10252000350C4E0C400C910C6E616E00696E6600AD
:062530006F7666002E002C
:00000001FF
