:100000000C94E5000C940D010C940D010C940D0161
:100010000C940D010C940D010C940D010C940D0128
:100020000C940D010C940D010C940D010C940D0118
:100030000C940D010C940D010C940D010C940D0108
:100040000C9430140C940D010C941C170C944E1746
:100050000C940D010C940D010C940D010C940D01E8
:100060000C94CA0E0C940D01005EBCE2613FDD836E
:10007000C29C7E20A3FD1F419DC3217FFCA2401E88
:100080005F01E3BD3E6082DC237D9FC1421CFEA078
:10009000E1BF5D0380DE3C62BEE0025CDF81633D68
:1000A0007C22C09E1D43A1FF4618FAA427799BC558
:1000B00084DA3866E5BB5907DB856739BAE4065848
:1000C0001947A5FB7826C49A653BD987045AB8E638
:1000D000A7F91B45C6987A24F8A6441A99C7257B28
:1000E0003A6486D85B05E7B98CD2306EEDB3510F18
:1000F0004E10F2AC2F7193CD114FADF3702ECC9208
:10010000D38D6F31B2EC0E50AFF1134DCE90722CF7
:100110006D33D18F0C52B0EE326C8ED0530DEFB1E7
:10012000F0AE4C1291CF2D73CA947628ABF51749D7
:100130000856B4EA6937D58B5709EBB536688AD4C7
:1001400095CB2977F4AA4816E9B7550B88D6346AB7
:100150002B7597C94A14F6A8742AC896154BA9F7A7
:10016000B6E80A54D7896B35000000080002010088
:100170000003040700000000000000000102040862
:100180001020408001020408102001020408102001
:10019000040404040404040402020202020203032D
:1001A00003030303000000002300260029000000D1
:1001B0000000250028002B0000000000240027007C
:1001C0002A0020012C0E7E17560111241FBECFEFEE
:1001D000D8E0DEBFCDBF11E0A0E0B1E0E4E0F0E4A4
:1001E00002C005900D92AE3DB107D9F723E0AEED08
:1001F000B1E001C01D92A43CB207E1F711E0C8ECE8
:10020000D1E004C02297FE010E94BD1CC23CD10770
:10021000C9F70E94C2170C94F51F0C94000026E049
:1002200040E855E260E070E083E293E00E94BA1695
:100230008EED91E00C9482018EED91E00C943306EA
:100240008EED91E00E945A016EE08BEE91E00E94EB
:10025000A40C6BEE71E089EF91E00E941D1180E229
:1002600090E090930D0280930C0283E090E09093D5
:100270001302809312028FED8093160268E671E0FC
:1002800087E192E00E94EB1882E090E090932502D3
:100290008093240287E090E09093270280932602C7
:1002A00081E08093340280933502089587E192E0E3
:1002B0000C947D1824E044E167E20C94F70F0F934F
:1002C0001F93CF93DF93EC018B01622F0E9481106B
:1002D000B801CE01DF91CF911F910F910C94FB17C4
:1002E000CF93DF93EC010E941A11CE010E942010DF
:1002F00040E060E0CE010E948110CE01DF91CF91FD
:100300000C9473100F931F93CF93DF9300D000D002
:1003100000D0CDB7DEB78C014B960E94461261E04B
:1003200086E00E943F1561E085E00E943F1561E094
:1003300084E00E943F1561E083E00E943F15F801D0
:10034000EA5BFF4F61E080810E943F15F801E85BA6
:10035000FF4F61E080810E943F15C8010E9470013B
:1003600066E171E0CE0101960E94EB1820E030E0DA
:1003700040E050E0BE016F5F7F4FC8010E945F0107
:10038000CE0101960E947D1826960FB6F894DEBF26
:100390000FBECDBFDF91CF911F910F910895CF93E5
:1003A000DF93EC0161E086E00E94781561E085E072
:1003B0000E94781561E084E00E94781561E083E096
:1003C0000E947815CA5ADF4F1882DF91CF910895A5
:1003D0000F931F93CF93DF93EC018C01095A1F4FAA
:1003E000F8018081882361F064E070E080E090E0B3
:1003F0000E94591868AB79AB8AAB9BABF8011082AD
:1004000088A999A9AAA9BBA981309105A105B1051F
:10041000A1F03CF4892B8A2B8B2BD1F461E086E090
:1004200011C082309105A105B10551F00397A105D6
:10043000B10571F461E083E005C061E085E002C0D0
:1004400061E084E0DF91CF911F910F910C947815BA
:10045000DF91CF911F910F910895895A9F4F21E00D
:10046000FC01208360E086E00E94781560E085E072
:100470000E94781560E084E00E94781560E083E0D7
:100480000C9478152F923F924F925F926F927F92C9
:100490008F929F92AF92BF92CF92DF92EF92FF9294
:1004A0000F931F93CF93DF9300D000D000D0CDB730
:1004B000DEB78C010E94AE0A48012AE4820E911C2C
:1004C000D4016D937D938D939C9313975801BEE453
:1004D000AB0EB11C2801E2E54E0E511CD201CD90AD
:1004E000DD90ED90FC90DC01CB018C199D09AE09EB
:1004F000BF09F50180839183A283B3830E943F0BE0
:1005000080FD12C07801FBE1EF0EF11CC7010E94D3
:10051000181360E0C7010E940C140E940E1BD80142
:10052000D7967C936E93D6976AE271E0CE010196DE
:100530000E94EB1820E030E040E050E0BE016F5F29
:100540007F4FC8010E945F01CE0101960E947D1875
:10055000F40160817181828193810E94B6094AE031
:10056000BC01CE0101960E94511927E030E040E025
:1005700050E0BE016F5F7F4FC8010E945F01CE0156
:1005800001960E947D1862E371E0CE0101960E94FF
:10059000EB1829E030E040E050E0BE016F5F7F4F94
:1005A000C8010E945F01CE0101960E947D1866E697
:1005B00071E0CE0101960E94EB182EE030E040E0A1
:1005C00050E0BE016F5F7F4FC8010E945F01CE0106
:1005D00001960E947D18D4016D917D918D919C9121
:1005E0000E94BC094AE0BC01CE0101960E9451194B
:1005F0002EE030E040E050E0BE016F5F7F4FC80169
:100600000E945F01CE0101960E947D1867E371E0B0
:10061000CE0101960E94EB1820E130E040E050E06E
:10062000BE016F5F7F4FC8010E945F01CE0101963E
:100630000E947D187801B8E5EB0EF11CF70180816E
:100640009801275A3F4F690181112AC0D9018D9124
:100650009C91880F991F79970190F081E02DE80F08
:10066000F91FD801D6962D913C91D7978081918121
:1006700028173907ACF0F40180819181A281B38100
:10068000F20180839183A283B383D5011D921D92D1
:100690001D921C92139781E0F7018083329710829C
:1006A0006CE371E0CE0101960E94EB1820E030E08F
:1006B00041E050E0BE016F5F7F4FC8010E945F01C3
:1006C000CE0101960E947D18D801D6966D917C913D
:1006D000D7974AE0CE0101960E94511929E030E0F7
:1006E00041E050E0BE016F5F7F4FC8010E945F0193
:1006F000CE0101960E947D18F80160ADCE010196F1
:100700000E9439192BE030E041E050E0BE016F5FFC
:100710007F4FC8010E945F01CE0101960E947D18A3
:1007200066E471E0CE0101960E94EB182CE030E007
:1007300041E050E0BE016F5F7F4FC8010E945F0142
:10074000CE0101960E947D1869E471E0CE01019608
:100750000E94EB1820E030E042E050E0BE016F5F05
:100760007F4FC8010E945F01CE0101960E947D1853
:100770003801FDE56F0E711CD3016D917C914AE04B
:10078000CE0101960E94511925E030E042E050E090
:10079000BE016F5F7F4FC8010E945F01CE010196CD
:1007A0000E947D1865EA71E0CE0101960E94EB1867
:1007B00026E030E042E050E0BE016F5F7F4FC801AD
:1007C0000E945F01CE0101960E947D18F601808192
:1007D0009181880F991F4801FFE38F0E911CD4016E
:1007E000ED91FC91E80FF91F608171814AE0CE0123
:1007F00001960E94511928E030E042E050E0BE012D
:100800006F5F7F4FC8010E945F01CE0101960E9479
:100810007D1866E471E0CE0101960E94EB182AE093
:1008200030E042E050E0BE016F5F7F4FC8010E94A0
:100830005F01CE0101960E947D181801BBE52B0EC9
:10084000311CF10180819181880F991FD401ED91B4
:10085000FC91E80FF91F608171814AE0CE01019699
:100860000E9451192CE030E042E050E0BE016F5F81
:100870007F4FC8010E945F01CE0101960E947D1842
:100880006FE471E0CE0101960E94EB182EE030E09B
:1008900042E050E0BE016F5F7F4FC8010E945F01E0
:1008A000CE0101960E947D18F3012081318132969C
:1008B00080819181281739070CF0A8C069E471E0A4
:1008C000CE0101960E94EB1820E030E043E050E0BA
:1008D000BE016F5F7F4FC8010E945F01CE0101968C
:1008E0000E947D18D3016D917C916F5F7F4F4AE02C
:1008F000CE0101960E94511925E030E043E050E01E
:10090000BE016F5F7F4FC8010E945F01CE0101965B
:100910000E947D1865EA71E0CE0101960E94EB18F5
:1009200026E030E043E050E0BE016F5F7F4FC8013A
:100930000E945F01CE0101960E947D18F601808120
:1009400091810296880F991FD401ED91FC91E80FD7
:10095000F91F608171814AE0CE0101960E94511910
:1009600028E030E043E050E0BE016F5F7F4FC801F8
:100970000E945F01CE0101960E947D1866E471E03D
:10098000CE0101960E94EB182AE030E043E050E0EF
:10099000BE016F5F7F4FC8010E945F01CE010196CB
:1009A0000E947D18F101808191810296880F991F24
:1009B000D401ED91FC91E80FF91F608171814AE04B
:1009C000CE0101960E9451192CE030E043E050E046
:1009D000BE016F5F7F4FC8010E945F01CE0101968B
:1009E0000E947D186FE471E0CE0101960E94EB1821
:1009F0002EE030E043E050E0BE016F5F7F4FC80162
:100A00000E945F01CE0101960E947D18F501608170
:100A10007181828193810E94B6091816190624F00B
:100A2000D7018C918111E8C0F7018081882309F4F6
:100A300043C067E671E0CE0101960E94EB182FE0FB
:100A400030E041E050E0BE016F5F7F4FC8010E947F
:100A50005F01CE0101960E947D18F50160817181D0
:100A6000828193810E94B6094AE0BC01CE010196C1
:100A70000E9451192EE030E041E050E0BE016F5F6E
:100A80007F4FC8010E945F01CE0101960E947D1830
:100A90006FE471E0CE0101960E94EB1820E130E096
:100AA00041E050E0BE016F5F7F4FC8010E945F01CF
:100AB000CE0101960E947D18D6018D919C91880FE0
:100AC000991F4801BFE38B0E911CD401ED91FC915D
:100AD000E80FF91FD801D6962D913C91D7978081C8
:100AE00091812817390744F0F7018081882321F08C
:100AF000C8010E942D020DC0F801EA5AFF4F808103
:100B0000811104C0C8010E94E80103C0C8010E940D
:100B1000CF01D5016D917D918D919C910E94B60977
:100B2000B801655A7F4FFB0120813181A901440F33
:100B3000551FD401ED91FC91E40FF51F40815181C7
:100B4000841795070CF476C0F801E35AFF4F8081B3
:100B50009181A801415A5F4FDA014D915C91841750
:100B600095070CF067C0D7014C91442309F462C08B
:100B7000019691838083F601808191810296918311
:100B800080832E5F3F4FDB012D933C93F801EA5A9F
:100B9000FF4F81E08083F7011082D2011D921D92E8
:100BA0001D921C92139764E571E0CE0101960E949C
:100BB000EB1820E030E041E050E0BE016F5F7F4F76
:100BC000C8010E945F01CE0101960E947D1864E574
:100BD00071E0CE0101960E94EB1820E030E043E086
:100BE00050E0BE016F5F7F4FC8010E945F01CE01E0
:100BF00001960E947D181EC0D5016D917D918D9149
:100C00009C910E94BC094AE0BC01CE0101960E9461
:100C100051192EE030E041E050E0BE016F5F7F4FA0
:100C2000C8010E945F01CE0101960E947D1867E312
:100C300071E030CF26960FB6F894DEBF0FBECDBF61
:100C4000DF91CF911F910F91FF90EF90DF90CF90A8
:100C5000BF90AF909F908F907F906F905F904F90DC
:100C60003F902F9008952F923F924F925F926F92F4
:100C70007F928F929F92AF92BF92CF92DF92EF922C
:100C8000FF920F931F93CF93DF93CDB7DEB72C97CF
:100C90000FB6F894DEBF0FBECDBF6C012DB63EB6C9
:100CA00068E671E0CE0107960E94EB18B601645F1A
:100CB0007F4FCE0101960E948108BE016F5F7F4F7A
:100CC000CE0107960E940119CE0101960E947D185F
:100CD00068E671E0CE0107960E94BC1981110BC134
:100CE0004DB65EB6F60186A597A5880F991F2DB75C
:100CF0003EB7281B390B0FB6F8943EBF0FBE2DBF71
:100D00008DB79EB701965C014C0100E010E0360102
:100D100099E3690E711C68E671E0CE0107960E94A6
:100D2000BC19811159C069E671E0CE0101960E949B
:100D3000EB18BE016F5F7F4FCE0107960E94F71937
:100D40007C01CE0101960E947D18F7FE07C068E67F
:100D500071E0CE0107960E9421193EC0970140E044
:100D600050E0BE01695F7F4FCE010196011511056C
:100D700049F40E94FB19BE016F5F7F4FC3010E94BF
:100D8000011909C00E94FB1989819A810E940F1FD5
:100D9000F40171836083CE0101960E947D182B853A
:100DA0003C85A7014F5F5F4FBE01695F7F4FCE015A
:100DB00001960E94FB19BE016F5F7F4FCE0107961F
:100DC0000E940119CE0101960E947D180F5F1F4FEE
:100DD000F2E08F0E911C9FCFC8010297760121E4AB
:100DE000E20EF11CF701918380837E969C010150F5
:100DF000110997FD98013595279531832083813816
:100E0000FFE39F0718F4880F991F02C08FEF9FEF31
:100E10000E94D117F601FF9680839183F60125ADDC
:100E200036ADF801EE0FFF1FEA0DFB1D4081518129
:100E30008C01D50180E090E01296F701608171810C
:100E4000861797075CF401966D917C911197F801D4
:100E5000619371938F01260F371FEECF86010D5BD3
:100E60001F4F2417350761F56BE671E0CE0101963F
:100E70000E94EB1820E030E040E050E0BE016F5FE0
:100E80007F4FC6010E945F01CE0101960E947D182E
:100E90006FE771E0CE0101960E94EB1820E030E090
:100EA00041E050E0BE016F5F7F4FC6010E945F01CD
:100EB000CE0101960E947D1881E0F801808316C062
:100EC00064E971E0CE0101960E94EB1820E030E069
:100ED00041E050E0BE016F5F7F4FC6010E945F019D
:100EE000CE0101960E947D18F80110820FB6F89489
:100EF0005EBE0FBE4DBE8601055E1F4FC8010E943B
:100F0000181360E0C8010E940C140E940E1BF60129
:100F100077AB66AB69E971E0CE0101960E94EB18F0
:100F200020E030E042E050E0BE016F5F7F4FC6013D
:100F30000E945F01CE0101960E947D18F60166A90C
:100F400077A94AE0CE0101960E9451192EE030E0C7
:100F500042E050E0BE016F5F7F4FC6010E945F011B
:100F6000CE0101960E947D18F60160ADCE0101967A
:100F70000E94391920E130E042E050E0BE016F5F8D
:100F80007F4FC6010E945F01CE0101960E947D182D
:100F900068EA71E0CE0101960E94EB1821E130E091
:100FA00042E050E0BE016F5F7F4FC6010E945F01CB
:100FB000CE0101960E947D18F601EA5BFF4F808109
:100FC0000E94AE155C01F601EC5BFF4F91838083BC
:100FD0004601F3E48F0E911CF4018081882309F40B
:100FE0006EC0F1E0AF16B10409F069C00E94AE0A0C
:100FF000CB010E945118E12CF12C00E010E020E020
:1010000030E040E050E060E070E080E090E00E947E
:10101000470B64E571E0CE0101960E94EB1820E0D9
:1010200030E040E050E0BE016F5F7F4FC6010E949C
:101030005F01CE0101960E947D1864E571E0CE014A
:1010400001960E94EB1820E030E041E050E0BE0144
:101050006F5F7F4FC6010E945F01CE0101960E9423
:101060007D1864E571E0CE0101960E94EB1820E046
:1010700030E042E050E0BE016F5F7F4FC6010E944A
:101080005F01CE0101960E947D18F601E75AFF4FDD
:10109000118210823296B182A08239971082118219
:1010A00012821382369610823596B182A082F401A4
:1010B0008081882321F0C6010E944202F8CFCE0130
:1010C00007960E947D180FB6F8943EBE0FBE2DBE47
:1010D0002C960FB6F894DEBF0FBECDBFDF91CF9137
:1010E0001F910F91FF90EF90DF90CF90BF90AF9046
:1010F0009F908F907F906F905F904F903F902F9038
:1011000008950F931F93CF93DF9300D000D000D0AA
:10111000CDB7DEB78C0183E293E00E94D715892B0F
:10112000B9F064E670E080E090E00E94A91463E208
:1011300073E0CE0101960E943718BE016F5F7F4FAA
:10114000C8010E941819CE0101960E947D1805C0A1
:1011500068E671E0C8010E94EB18C80126960FB638
:10116000F894DEBF0FBECDBFDF91CF911F910F91DD
:1011700008956F927F928F929F92AF92BF92CF927B
:10118000DF92EF92FF920F931F93CF93DF93EA01C9
:101190002CE3C22ED12CE12CF12CA70196010E9448
:1011A000441C6883CA01B901A70196010E94441C2E
:1011B0006983CA01B90128E130E040E050E00E94B3
:1011C000441C49015A016A83CA01B9016C5F7F4F0F
:1011D0008F4F9F4F27E030E040E050E00E94441CDA
:1011E0006F5F6B8300E010E0980140E054E6652EED
:1011F000712C60E9C62EDD24D394E42FF0E0EE5488
:10120000F84F7F0183E0E822FF24E114F10489F420
:10121000CF01B3010E94301C892B29F08EE691E0AA
:10122000A0E0B0E00AC0CF01B6010E94301C892BBB
:10123000A9F38DE691E0A0E0B0E0080F191F2A1F86
:101240003B1FD901C801AA27BB2788169906AA0601
:10125000BB0610F04F5FD1CF4E83E114F10499F437
:10126000CF0164E670E00E94301C892B29F08EE6E5
:1012700091E0A0E0B0E00BC0CF0160E971E00E9416
:10128000301C892BA1F38DE691E0A0E0B0E0081BB3
:10129000190B2A0B3B0B801A910AA20AB30ACF0141
:1012A00064E670E00E94301C9C01CF0160E971E0AF
:1012B0000E94301CEAEAF1E0A0E0A13059F4E11408
:1012C000F10451F42115310511F04DE106C00097EC
:1012D000E1F302C0408101C04CE150E060E070E009
:1012E00084169506A606B70640F0841A950AA60A43
:1012F000B70AAF5F3196AC3001F7AF5FAD8383942F
:101300008C82DF91CF911F910F91FF90EF90DF9032
:10131000CF90BF90AF909F908F907F906F900895E7
:10132000CF92DF92EF92FF926B017C0180914F028E
:1013300090915002A0915102B0915202C816D90664
:10134000EA06FB0671F043E552E0C701B6010E94D0
:10135000B908C0924F02D0925002E0925102F0922E
:101360005202FF90EF90DF90CF9008950E94900975
:101370008091540290E008950E9490098091530258
:1013800090E008956F927F928F929F92AF92BF925A
:10139000CF92DF92EF92FF920F931F93CF93DF9341
:1013A000FC01C680AC2DB0E020E833E341EE51E013
:1013B0000E94941C4B015C0122EB37E06D01C4E6F6
:1013C000D0E000E911E0C901825B97408C159D05D2
:1013D000DCF4C90183709927892B99F4C901BE01F6
:1013E0000E94301C892B31F4C901B8010E94301CC5
:1013F000892B39F480E8880E81E5981E81E0A81ECB
:10140000B11C2F5F3F4FDFCF6580712C8EE4C81A6F
:1014100088EFD80AC60164E670E00E94301C8C0197
:10142000C60160E971E00E94301C7C01C1E0D0E09F
:1014300083E0C822DD24C615D7052CF5C230D105BE
:1014400089F4C114D10471F40115110519F4E114E2
:10145000F10441F480E8880E8BE3981E86E2A81E12
:10146000B11C0FC0DE01A755BE4FAC91B0E020E823
:1014700031E541E050E00E94941C860E971EA81EA4
:10148000B91E2196D8CF4181228130E0A0E1BEE093
:101490000E94851C6B017C01242F30E0ACE3B0E09E
:1014A0000E94851CC60ED71EE81EF91E8081C80E3C
:1014B000D11CE11CF11CA481B0E0119720E831E5BA
:1014C00041E050E00E949F1CC60ED71EE81EF91E88
:1014D000C80CD91CEA1CFB1CC701B601DF91CF91D7
:1014E0001F910F91FF90EF90DF90CF90BF90AF9042
:1014F0009F908F907F906F9008950F931F936093AC
:101500004B0270934C0280934D0290934E020091D7
:101510000A0110910B0120910C0130910D01060F71
:10152000171F281F391F0093430210934402209372
:1015300045023093460282E090E09093420280930D
:1015400041020E947A14609347027093480280938C
:10155000490290934A021F910F910895CF92DF9212
:10156000EF92FF920F931F930E947A14C09047024C
:10157000D0904802E0904902F0904A026C197D092F
:101580008E099F0900914B0210914C0220914D024F
:1015900030914E02683E734081059105D8F00F5F8F
:1015A0001F4F2F4F3F4F00934B0210934C0220933D
:1015B0004D0230934E0248EEC40E43E0D41EE11CAF
:1015C000F11CC0924702D0924802E0924902F09288
:1015D0004A02CACF8091430290914402A0914502F1
:1015E000B0914602081719072A073B07C8F1E09196
:1015F0003F02F0914002309799F10995611571050C
:101600008105910519F00E947D0A2AC080910A0186
:1016100090910B01A0910C01B0910D0140914B02F2
:1016200050914C0260914D0270914E02840F951FB3
:10163000A61FB71F8093430290934402A0934502D4
:10164000B093460281E090E0209141023091420245
:10165000232B11F480E090E09093420280934102AA
:1016600060914B0270914C0280914D0290914E021C
:101670001F910F91FF90EF90DF90CF9008950E94FF
:10168000AE0A0E9490098091530290E00895EF9273
:10169000FF920F9394E6E916F1042CF092EBE91A0D
:1016A00097E0F90A03C09EE1E90EF11CE0925902AD
:1016B000009358022093570280935502609354027E
:1016C0004093530283E592E00E94C2090F91FF907C
:1016D000EF900C947D0AFF920F931F93CF93DF93AB
:1016E000FC010081C181D281F8948981F02EF094AF
:1016F0008F21898378941DE7115029F182E090E0D1
:101700000E94D11488818023B9F3F8948A818F21B3
:101710008A838981802B8983789480EE91E00E946E
:10172000D114F89489818F21898386E490E00E9406
:10173000D1148881802311E009F010E078948AE9BF
:1017400091E00E94D114812FDF91CF911F910F91D1
:10175000FF9008951F93CF93DF93FC011081C18107
:10176000D281912F909560FF12C0F8948A818923CD
:101770008A838981812B89838AE090E00E94D11439
:101780008A81812B8A83789487E390E011C0F89452
:101790008A8189238A838981812B898381E490E0EE
:1017A0000E94D1148A81812B8A83789485E090E00D
:1017B000DF91CF911F910C94D1140F931F93CF936E
:1017C000DF93FC011081C181D281F8948981812B42
:1017D00089838A81012F009580238A8383E090E0AA
:1017E0000E94D1148981802389838AE090E00E943D
:1017F000D114C881789485E390E00E94D1141C2311
:1018000081E009F480E0DF91CF911F910F9108955D
:10181000CF92DF92EF92FF920F931F93CF93DF93BC
:101820001F92CDB7DEB76C01E62E08E010E0FF2472
:10183000F39461E09F2D9E2109F460E0C601498385
:101840000E94AA0BFF0C01501109498101151105D5
:1018500081F7411115C0F894D6011196ED91FC91D4
:10186000129791818C918095892381831196ED91B6
:10187000FC91129792818C91809589238283789430
:101880000F90DF91CF911F910F91FF90EF90DF901C
:10189000CF900895EF92FF920F931F93CF93DF9312
:1018A0008C01C8E0D0E0F12CEE24E394C8010E9442
:1018B000DD0B8111FE28EE0C2197C1F78F2DDF91F2
:1018C000CF911F910F91FF90EF900895CF92DF92EB
:1018D000FF920F931F93CF93DF931F92CDB7DEB785
:1018E0008C01F62E40E065E579830E94080CCF2C30
:1018F0007981D72E88E0F82EF60161916F0140E0E2
:10190000C8010E94080CFA94B9F70F90DF91CF91AB
:101910001F910F91FF90DF90CF90089540E06CEC05
:101920000C94080CFC0113861586148627E030E021
:10193000DF01A20FB31F13961C922115310519F078
:1019400021503109F5CF08951F93CF93DF93EC0118
:10195000162F60E0812F0E943F15612F70E0FB0180
:10196000E458FE4FE491E883FB01E057FE4FE49119
:10197000F0E0EE0FFF1FEC55FE4F859194919A8396
:101980008983CE01DF91CF911F910C94920CAF927D
:10199000BF92CF92DF92EF92FF920F931F93CF935C
:1019A000DF931F92CDB7DEB75C01E62ED72EFC0188
:1019B000858581115DC0C5010E946B0B811105C039
:1019C000F5011386158614866EC040E060EFC501F0
:1019D0000E94080C01E0F12CC12C11E0C5010E940D
:1019E000DD0B682FC50169830E94DD0B69816130C1
:1019F00019F48130B9F433C02F2D30E068131BC0C7
:101A0000F5018385181730F4E20FF31F83818023DB
:101A100049F402C0181731F060E0193058F4F501AC
:101A2000148708C0F501EF0DF11D8381802B83839E
:101A300061E009C0C12EF501E20FF31F8381902FF1
:101A4000909589238383C5010E94AA0B1F5F000F15
:101A500011F4F39401E0F7E0FF1508F0BFCF113463
:101A600038F0F501C386C11018C081E0858715C024
:101A7000F50113861586148680E0EE2DFD2D20E0FD
:101A800030E0D501A20FB31F13969C9191932F5F65
:101A90003F4F28303105A9F706C0F501838188231F
:101AA00039F381E0EACF0F90DF91CF911F910F9131
:101AB000FF90EF90DF90CF90BF90AF900895DC0142
:101AC00080E0615038F0ED91E827F0E0E859FF4FF1
:101AD0008491F7CF089580918A0290E020918B0243
:101AE000821B9109089520918B0280918A02281708
:101AF00050F4E22FF0E0E457FD4F808190E02F5F3B
:101B000020938B0208958FEF9FEF0895E0918B0251
:101B100080918A02E81730F4F0E0E457FD4F8081AD
:101B200090E008958FEF9FEF08950895CF92DF9290
:101B3000EF92FF920F931F93CF93DF937C01CB0122
:101B40008A0120916602222389F0EB016B01C40E09
:101B5000D51ECC15DD0569F06991D701ED91FC9199
:101B60000190F081E02DC7010995F3CF642F0E9409
:101B7000A10EC801DF91CF911F910F91FF90EF90BF
:101B8000DF90CF900895CF93DF931F92CDB7DEB74C
:101B90006983209166022223D1F0209167022032CE
:101BA00040F021E030E0FC013383228380E090E0CC
:101BB00015C080916802E82FF0E0E759FD4F998148
:101BC00090838F5F809368028093670205C061E015
:101BD000CE0101960E94A10E81E090E00F90DF916E
:101BE000CF910895FC011382128248EE53E060E029
:101BF00070E044835583668377838AEB91E0918319
:101C00008083089510928B0210928A0210926802CB
:101C1000109267020C94300E81E08093660260930C
:101C20008902109268021092670208950F93062F9E
:101C300021E04091670269E672E0809189020E948A
:101C40004E0E1092680210926702109266020F9177
:101C5000089561E00C94160E8AE592E00C94F20D62
:101C60001092190381E0809317031092160361E02C
:101C700082E10E94781561E083E10E947815E9EB2A
:101C8000F0E080818E7F808380818D7F808388E4F7
:101C90008093B80085E48093BC0008950F9341328F
:101CA00008F046C0909119039111FCCF92E09093F7
:101CB0001903009317039FEF9093AC021092F10267
:101CC0004093F002FB0162EF72E0DB019A2F961B5A
:101CD000941718F491919D93F9CF10921803909155
:101CE0001803880F892B8093180380911603813085
:101CF00041F410921603809118038093BB0085EC89
:101D000001C085EE8093BC00222321F0809119034D
:101D10008230E1F38091AC028F3F61F08091AC02A0
:101D2000803251F08091AC02803341F483E007C0EF
:101D300081E005C080E003C082E001C084E00F9133
:101D40000895613298F420911903243089F4609346
:101D5000CE02FC0180ED92E0DC012A2F281B261721
:101D600018F421912D93F9CF80E0089581E0089532
:101D700082E0089585ED8093BC008091BC0084FDD5
:101D8000FCCF10921903089585EC8093BC0010924B
:101D9000190308951F920F920FB60F9211242F93DB
:101DA0003F934F935F936F937F938F939F93AF93E3
:101DB000BF93EF93FF938091B900887F803609F439
:101DC0009CC068F5883209F45BC090F4803109F456
:101DD00054C038F4882309F4F5C0883009F44DC0A4
:101DE000F5C0883109F44CC0803209F45DC0EEC002
:101DF000803409F468C048F4803309F455C088334E
:101E000009F0E4C08093AC02A8C0803509F44FC04B
:101E1000883509F45DC0883409F0D8C0D5C0883948
:101E200009F4C6C0A8F4883709F467C038F48836C6
:101E300009F463C0803709F460C0C8C0883809F469
:101E4000B7C0803909F45FC0803809F0BFC05BC0FB
:101E5000803B09F485C038F4803A09F466C0883ABA
:101E600009F47EC0B3C0803C09F4A6C0883C09F4E4
:101E7000A3C0883B09F489C0A9C08091180310C091
:101E80009091F1028091F002981770F5E091F102C3
:101E900081E08E0F8093F102F0E0EE50FD4F8081E3
:101EA0008093BB0085EC85C08093AC028DC0E0912F
:101EB000F10281E08E0F8093F1028091BB00F0E08F
:101EC000EE50FD4F80839091F1028091F0026DC041
:101ED000E091F10281E08E0F8093F1028091BB00CE
:101EE000F0E0EE50FD4F80838091170381116CC0AC
:101EF00081E08093160384EA60C083E08093190335
:101F00001092AD02CFCF8091AD02803208F050C068
:101F1000E091AD0281E08E0F8093AD028091BB0015
:101F2000F0E0E255FD4F8083BDCF8091AD0280325D
:101F300030F4E091AD02F0E0E255FD4F10820E94D6
:101F4000BA0E6091AD0270E0E0911203F0911303BC
:101F50008EEA92E009951092AD020E94C40E36C03E
:101F600084E0809319031092CF021092CE02E09188
:101F70001403F091150309958091CE02811105C0DB
:101F800081E08093CE021092D002E091CF0281E0F6
:101F90008E0F8093CF02F0E0E053FD4F808180935D
:101FA000BB009091CF028091CE02981708F47ACFAF
:101FB00085E88093BC000AC085EC8093BC00109239
:101FC000190304C01092AC020E94BA0EFF91EF9167
:101FD000BF91AF919F918F917F916F915F914F9141
:101FE0003F912F910F900FBE0F901F901895FC01FD
:101FF000138212828AEC91E091838083648341870B
:102000002287138608951F93CF93DF93EC01162F39
:102010006C818AE592E00E940C0EE0915A02F091E8
:102020005B026B85612B0190F081E02D8AE592E0E7
:1020300009958AE592E0DF91CF911F910C94290ECA
:1020400028E0FC01238760E00C9403101F93CF93DA
:10205000DF93EC01162F64600E94031081E090E092
:102060000E94D114612F6B7FCE010E94031082E386
:1020700090E0DF91CF911F910C94D1141F93CF93D7
:10208000DF93EC01162F0E940310612FCE01DF9128
:10209000CF911F910C942610EF92FF921F93CF9334
:1020A000DF931F92CDB7DEB77C01162F607F642BC4
:1020B00049830E943E1080E1189FB001112449819C
:1020C000642BC7010F90DF91CF911F91FF90EF908C
:1020D0000C943E1041E00E944C1080E090E0089586
:1020E00040E00C944C1061E00E94701080ED97E08D
:1020F0000C94D11462E00E94701080ED97E00C9473
:10210000D114CF93DF93CDB7DEB728970FB6F894ED
:10211000DEBF0FBECDBF28E0EEE0F1E0DE0111969C
:1021200001900D922A95E1F7FC012085241710F407
:102130004FEF420FFE013196E40FF11DE40FF11D48
:102140002081260F2068622F28960FB6F894DEBFF4
:102150000FBECDBFDF91CF910C947010FC01668152
:10216000262F246026836C600C947010CF93DF932D
:10217000EC01423018F08D8188608D8348872223DE
:1021800029F0413019F48D8184608D8362E370E021
:1021900080E090E00E94A9146B85CE010E9403109C
:1021A00068EE73E080E090E00E94A91460E3CE0145
:1021B0000E943E1084E991E10E94D11460E3CE01B7
:1021C0000E943E1084E991E10E94D11460E3CE01A7
:1021D0000E943E1086E990E00E94D11460E2CE0198
:1021E0000E943E106D816062CE010E94701084E0FA
:1021F0008E83CE010E94AE10CE010E94731082E049
:102200008F8366E0CE010E947010CE01DF91CF91E6
:102210000C947A10CF93DF93EC018AE592E00E9450
:10222000020E1D8220E04A856985CE01DF91CF91A3
:102230000C94B6100C940A110895FC018CE191E104
:10224000928B818B768365831482108289E08183EF
:1022500081E0828383830895CF93DF93EB0167E06E
:10226000CE010E945F0D91E02F81821390E0892FB3
:10227000DF91CF910895EF92FF920F931F93CF9329
:10228000DF93EC018B01E42E8D819E810E94920CE4
:10229000F12CB8018D819E810E94C70C882359F0D2
:1022A000FE1006C0B801CE010E942C11811104C09D
:1022B000F394EF1470F780E0DF91CF911F910F91AD
:1022C000FF90EF900895EF92FF920F931F93CF939B
:1022D000DF9300D0CDB7DEB77C018A01FC01858198
:1022E000968169837A830E946B0B69817A81F701F9
:1022F000858196810E94660C40E06EEBF701858136
:1023000096810E94080CF701858196810E944A0CF3
:10231000F8018083F701858196810E944A0CF801BB
:102320008183F701858196810E944A0CF80182839E
:10233000F701858196810E944A0CF8018383F70199
:10234000858196810E944A0CF8018483F70185817A
:1023500096810E944A0CF8018583F7018581968158
:102360000E944A0CF8018683F701858196810E94BC
:102370004A0CF8018783F701858196810E944A0CF7
:10238000F8018087F701858196810F900F90DF918A
:10239000CF911F910F91FF90EF900C946B0BCF9307
:1023A000DF93EA010E94631168E0CE010E945F0D95
:1023B00091E02885821390E0892FDF91CF910895D5
:1023C000EF92FF921F93CF93DF9300D0CDB7DEB78C
:1023D0007C01FC018581968169837A830E946B0B65
:1023E00069817A81F701858196810E94660C40E0BF
:1023F00064EBF701858196810E94080CF7018581C5
:1024000096810E94DD0B182FF701858196810E942D
:102410006B0B81E0111180E00F900F90DF91CF9155
:102420001F91FF90EF900895CF93DF93CDB7DEB764
:1024300029970FB6F894DEBF0FBECDBFFB012081F8
:102440002031D1F0AE014F5F5F4F0E94CF11882342
:1024500079F08D818F3351F018F48F3169F008C015
:102460008F3541F08F3721F48CE007C08AE005C03A
:1024700080E003C08BE001C089E029960FB6F89494
:10248000DEBF0FBECDBFDF91CF910895EF92FF92D7
:102490000F931F93CF93DF93CDB7DEB761970FB63E
:1024A000F894DEBF0FBECDBF8C01FC018581968103
:1024B0000E94920CF8011482FF24F394BE01665F1F
:1024C0007F4FF801858196810E94C70C8823C9F14E
:1024D000BE01665F7F4FC8010E942C11882371F3F3
:1024E000F8018081811108C0BE01665F7F4FC8017D
:1024F0000E94E011811122C0AE014F5F5F4FBE010B
:10250000665F7F4FC8010E946311F801E180BE0140
:10251000665F7F4FC8010E9414128E1518F4F801EF
:10252000818106C0BE01665F7F4FC8010E94141200
:10253000F801818384818F5F8483C0CFF801F082AA
:10254000DBCF61960FB6F894DEBF0FBECDBFDF9133
:10255000CF911F910F91FF90EF900895CF93DF934C
:10256000CDB7DEB729970FB6F894DEBF0FBECDBF4B
:10257000AE014F5F5F4F0E94631181E0998191111D
:1025800001C080E029960FB6F894DEBF0FBECDBF24
:10259000DF91CF910895CF92DF92EF92FF920F9348
:1025A0001F93CF93DF93EC018B01452BE1F08B81DF
:1025B0008823C9F08881811116C00E947A146B01AA
:1025C0007C0160E070E0CE010E94AE1281110BC070
:1025D0000E947A146C197D098E099F096E3E724023
:1025E0008105910570F3F80180818A3049F08B30C4
:1025F00061F0893079F46EE570E080E090E00EC023
:102600006CEB70E080E090E009C067E771E080E08B
:1026100090E004C06EEE72E080E090E0DF91CF9138
:102620001F910F91FF90EF90DF90CF900C94A91421
:10263000CF93DF93EC018D819E810E946B0B8D8186
:102640009E810E948E0C488164E48D819E810E944F
:10265000080C8A81882351F0BE016F5F7F4F40E0F4
:1026600050E0CE01DF91CF910C94CB12DF91CF914E
:1026700008958F929F92AF92BF92CF92DF92EF9286
:10268000FF921F93CF93DF93FB01EA01698170E012
:10269000762F66278881682B80818232B1F188325B
:1026A000A1F1803109F078C01F8175956795882761
:1026B00077FD8095982F0E94411B20E030E040E894
:1026C0005EE30E94411A6B017C01612F70E08E81F4
:1026D000681B7109882777FD8095982F0E94411B00
:1026E0004B015C01612F70E080E090E00E943F1B95
:1026F0009B01AC01C501B4010E94A61A9B01AC016B
:10270000C701B6010E94421A43C08C818F3381F108
:1027100098F48F3109F040C093E0759567959A95CC
:10272000E1F7882777FD8095982F0E94411B20E0D4
:1027300030E040E05FE32AC08F3569F08F3761F504
:10274000882777FD8095982F0E94411B20E030E07C
:1027500040E85DE31BC075956795882777FD8095F8
:10276000982F0E94411B20E030E040E05EE30EC065
:102770007595679575956795882777FD8095982F4E
:102780000E94411B20E030E040E85EE30E94CD1B48
:10279000562F472F382F292F652F742F832F922FD5
:1027A000DF91CF911F91FF90EF90DF90CF90BF907E
:1027B000AF909F908F900895EF92FF920F931F9389
:1027C000CF93DF93CDB7DEB729970FB6F894DEBF6E
:1027D0000FBECDBF8C017B01AE014F5F5F4F0E94EA
:1027E000CF11882341F0AE014F5F5F4FB701C801A1
:1027F0000E94391304C060E070E08EEF92EC2996DD
:102800000FB6F894DEBF0FBECDBFDF91CF911F9101
:102810000F91FF90EF9008950F931F93CF93DF9345
:10282000CDB7DEB728970FB6F894DEBF0FBECDBF89
:102830008C01462FBE016F5F7F4F0E943B11BE018E
:102840006F5F7F4FC8010E94DC1328960FB6F89483
:10285000DEBF0FBECDBFDF91CF911F910F910895C5
:102860001F920F920FB60F9211242F933F938F93C5
:102870009F93AF93BF9380911B0390911C03A091F2
:102880001D03B0911E0330911A0323E0230F2D374F
:1028900020F40196A11DB11D05C026E8230F029664
:1028A000A11DB11D20931A0380931B0390931C0359
:1028B000A0931D03B0931E0380911F0390912003EA
:1028C000A0912103B09122030196A11DB11D809317
:1028D0001F0390932003A0932103B0932203BF9181
:1028E000AF919F918F913F912F910F900FBE0F90BD
:1028F0001F9018952FB7F89460911B0370911C03DB
:1029000080911D0390911E032FBF08953FB7F89447
:1029100080911F0390912003A0912103B091220385
:1029200026B5A89B05C02F3F19F00196A11DB11D2A
:102930003FBF6627782F892F9A2F620F711D811D47
:10294000911D42E0660F771F881F991F4A95D1F7A6
:102950000895CF92DF92EF92FF92CF93DF936B01B6
:102960007C010E948614EB01C114D104E104F1043E
:1029700089F00E94401A0E9486146C1B7D0B683EF1
:10298000734090F381E0C81AD108E108F108C851FA
:10299000DC4FEACFDF91CF91FF90EF90DF90CF90A7
:1029A0000895019739F0880F991F880F991F029792
:1029B0000197F1F70895789484B5826084BD84B559
:1029C000816084BD85B5826085BD85B5816085BD2A
:1029D000EEE6F0E0808181608083E1E8F0E0108243
:1029E000808182608083808181608083E0E8F0E084
:1029F000808181608083E1EBF0E08081846080836E
:102A0000E0EBF0E0808181608083EAE7F0E08081A4
:102A10008460808380818260808380818160808304
:102A20008081806880831092C1000895833081F096
:102A300028F4813099F08230A1F008958730A9F010
:102A40008830B9F08430D1F4809180008F7D03C04C
:102A5000809180008F7780938000089584B58F7770
:102A600002C084B58F7D84BD08958091B0008F77BA
:102A700003C08091B0008F7D8093B0000895CF9304
:102A8000DF9390E0FC01E458FE4F2491FC01E057F5
:102A9000FE4F8491882349F190E0880F991FFC0133
:102AA000E854FE4FA591B49182559E4FFC01C5910B
:102AB000D4919FB7611108C0F8948C91209582231E
:102AC0008C93888182230AC0623051F4F8948C91EF
:102AD000322F309583238C938881822B888304C086
:102AE000F8948C91822B8C939FBFDF91CF910895A6
:102AF0000F931F93CF93DF931F92CDB7DEB7282F8D
:102B000030E0F901E859FE4F8491F901E458FE4F95
:102B10001491F901E057FE4F04910023C9F0882376
:102B200021F069830E9416156981E02FF0E0EE0F15
:102B3000FF1FE255FE4FA591B4919FB7F8948C9179
:102B4000611103C01095812301C0812B8C939FBF1D
:102B50000F90DF91CF911F910F910895CF93DF9345
:102B6000282F30E0F901E859FE4F8491F901E4582B
:102B7000FE4FD491F901E057FE4FC491CC2391F060
:102B800081110E941615EC2FF0E0EE0FFF1FEC559F
:102B9000FE4FA591B4912C912D2381E090E021F47A
:102BA00080E002C080E090E0DF91CF910895FC01C9
:102BB000818D228D90E0805C9F4F821B91098F73E5
:102BC00099270895FC01918D828D981731F0828D9F
:102BD000E80FF11D858D90E008958FEF9FEF089528
:102BE000FC01918D828D981761F0828DDF01A80F15
:102BF000B11D5D968C91928D9F5F9F73928F90E037
:102C000008958FEF9FEF089584E797E1892B49F0AE
:102C100080E090E0892B29F00E94741781110C94B8
:102C200000000895FC01848DDF01A80FB11DA35A97
:102C3000BF4F2C91848D90E001968F739927848FDC
:102C4000A689B7892C93A089B1898C9180648C93D3
:102C5000938D848D981306C00288F389E02D8081BE
:102C60008F7D80830895CF93DF93EC01888D882337
:102C7000C9F0EA89FB89808185FD05C0A889B989E9
:102C80008C9186FD0FC00FB607FCF5CF808185FFC4
:102C9000F2CFA889B9898C9185FFEDCFCE010E9432
:102CA0001216E7CFDF91CF910895CF92DF92FF9276
:102CB0000F931F93CF93DF931F92CDB7DEB76C01B5
:102CC000DC015B969C915B975C968C915C9798136A
:102CD00007C05096ED91FC915197808185FD32C0DF
:102CE000F601038D10E00F5F1F4F0F731127F02EB9
:102CF000F601848DF81211C00FB607FCF9CFD6018A
:102D00005096ED91FC915197808185FFF1CFC601DE
:102D100069830E9412166981EBCF838DE80FF11D44
:102D2000E35AFF4F6083D6015B960C935B975296F4
:102D3000ED91FC91539780818062808381E0589669
:102D40008C930DC0D6015696ED91FC9157976083F8
:102D50005096ED91FC91519780818064808381E051
:102D600090E00F90DF91CF911F910F91FF90DF9036
:102D7000CF900895BF92CF92DF92EF92FF92CF93C0
:102D8000DF93EC016A017B01B22EE889F98982E0C8
:102D90008083411581EE580761057105A1F060E05F
:102DA00079E08DE390E0A70196010E94441C215038
:102DB00031094109510956954795379527952115B0
:102DC00080E1380798F0E889F989108260E874E8B2
:102DD0008EE190E0A70196010E94441C2150310928
:102DE000410951095695479537952795EC85FD85FD
:102DF0003083EE85FF852083188EEC89FD89B082B3
:102E0000EA89FB89808180618083EA89FB898081EE
:102E100088608083EA89FB89808180688083EA8971
:102E2000FB8980818F7D8083DF91CF91FF90EF9030
:102E3000DF90CF90BF9008951F920F920FB60F9220
:102E400011242F938F939F93EF93FF93E09133037C
:102E5000F09134038081E0913903F0913A0382FDCF
:102E600012C0908180913C038F5F8F7320913D034E
:102E7000821751F0E0913C03F0E0ED5DFC4F958F3F
:102E800080933C0301C08081FF91EF919F918F91CE
:102E90002F910F900FBE0F901F9018951F920F92B9
:102EA0000FB60F9211242F933F934F935F936F931D
:102EB0007F938F939F93AF93BF93EF93FF9383E29F
:102EC00093E00E941216FF91EF91BF91AF919F91F5
:102ED0008F917F916F915F914F913F912F910F90C3
:102EE0000FBE0F901F90189583E293E00E94D715B4
:102EF00021E0892B09F420E0822F08951092260307
:102F00001092250388EE93E0A0E0B0E080932703C1
:102F100090932803A0932903B0932A0382ED91E0B4
:102F2000909324038093230385EC90E090933003E7
:102F300080932F0384EC90E09093320380933103CD
:102F400080EC90E0909334038093330381EC90E025
:102F5000909336038093350382EC90E0909338038E
:102F60008093370386EC90E090933A038093390383
:102F700010923C0310923D0310923E0310923F03C7
:102F8000089508950E94DB140E94C1170E940F014A
:102F9000C4E0D6E10E941C012097E1F30E940416D0
:102FA000F9CF0C94C11CCF92DF92EF92FF920F9356
:102FB0001F93CF93DF936C017A01EB01E60EF71EAE
:102FC00000E010E0CE15DF0561F06991D601ED91CA
:102FD000FC910190F081E02DC6010995080F191FA1
:102FE000F1CFC801DF91CF911F910F91FF90EF902A
:102FF000DF90CF900895DC01ED91FC91DB011496F8
:103000004D915C9115976D917C910280F381E02D3B
:1030100009940F931F93CF93DF93EC010E947A14CE
:10302000688779878A879B87E881F9810680F7819D
:10303000E02DCE01099597FF15C00E947A140885EE
:1030400019852A853B85601B710B820B930B0C81C4
:103050001D812E813F81601771078207930720F33E
:103060008FEF9FEFDF91CF911F910F9108950F93F5
:103070001F93CF93DF93EC018B0168E671E00E9410
:10308000EB18C8010E94091897FD05C0682FCE01F2
:103090000E94A919F6CFCE01DF91CF911F910F9118
:1030A0000895009729F0BC0180E090E00C943C1E4C
:1030B0000895CF93DF9300D000D0CDB7DEB79B014A
:1030C000AC01611571058105910569F069833A8349
:1030D0004B835C830E94371E29813A814B815C813E
:1030E0000E94661C03C060E070E0CB010F900F905F
:1030F0000F900F90DF91CF910895FC018081918115
:103100000C94591DCF93DF93EC018881998100972E
:1031100011F00E94591D198218821D821C821B8287
:103120001A82DF91CF9108950F931F93CF93DF936E
:10313000EC018B016F5F7F4F888199810E94451E52
:10314000009731F0998388831B830A8381E001C053
:1031500080E0DF91CF911F910F910895CF93DF937E
:10316000EC0188819981892B29F08A819B818617BE
:10317000970760F4CE010E949418882341F08C8157
:103180009D81892B19F4E881F981108281E0DF911A
:10319000CF910895EF92FF920F931F93CF93DF93F8
:1031A000EC017B018A01BA010E94AE18811104C0B2
:1031B000CE010E94821807C01D830C83B70188814D
:1031C00099810E94481FCE01DF91CF911F910F91ED
:1031D000FF90EF900895FC011182108213821282F9
:1031E000158214826115710559F0FB0101900020D0
:1031F000E9F7AF0141505109461B570B0C94CA180F
:103200000895CF93DF93EC01FB018617970761F0D8
:10321000608171816115710529F0448155810E9499
:10322000CA1802C00E948218CE01DF91CF91089582
:10323000FC011182108213821282158214820C9476
:103240000119CF93DF93EC016115710561F0FB016A
:1032500001900020E9F7AF0141505109461B570B7F
:103260000E94CA1802C00E948218CE01DF91CF913D
:103270000895CF93DF9300D0CDB7DEB7FC01118264
:103280001082138212821582148269831A82BE010F
:103290006F5F7F4F0E9421190F900F90DF91CF91A8
:1032A00008950F931F93CF93DF93CDB7DEB7629747
:1032B0000FB6F894DEBF0FBECDBF8C01CB01F80175
:1032C00011821082138212821582148250E0BE0194
:1032D0006F5F7F4F0E94691FBE016F5F7F4FC80104
:1032E0000E94211962960FB6F894DEBF0FBECDBFC3
:1032F000DF91CF911F910F910895EF92FF920F935D
:103300001F93CF93DF93EC017B010C811D8161152D
:10331000710511F480E016C04115510591F0040FBC
:10332000151FB8010E94AE188823A1F328813981A6
:103330008C819D81B701820F931F0E94481F1D83BE
:103340000C8381E0DF91CF911F910F91FF90EF905F
:103350000895CF93DF9300D0CDB7DEB769831A828B
:1033600041E050E0BE016F5F7F4F0E947D190F90DA
:103370000F90DF91CF910895FC0124813581232B9B
:1033800031F421E061157105A1F0FB0108C0FC01D9
:10339000808191816115710531F421E0FC0180810A
:1033A000882339F005C00E943F1F21E0892B09F0D6
:1033B00020E0822F0895CF93DF93FC0184819581D3
:1033C0004817590778F4C081D181FB016081718170
:1033D000CE01840F951F0E944F1F009719F08C1B80
:1033E0009D0B02C08FEF9FEFDF91CF91089540E0DA
:1033F00050E00C94DB19BF92CF92DF92EF92FF92D4
:103400000F931F93CF93DF936C017B01EA01890136
:103410002417350720F48D2FE901042F182F68E6B3
:1034200071E0C6010E94EB18D70114968D919C9112
:103430001597C817D907C8F48017910708F48C01AD
:10344000D701ED91FC911197E00FF11FB080108230
:103450006D917C916C0F7D1FC6010E942119D701CF
:10346000ED91FC91E00FF11FB082C601DF91CF9189
:103470001F910F91FF90EF90DF90CF90BF90089534
:1034800008955058BB27AA270ED04DC13ED130F029
:1034900043D120F031F49F3F11F41EF433C10EF4F8
:1034A000E095E7FB29C1E92F4FD180F3BA176207F6
:1034B00073078407950718F071F49EF567C10EF441
:1034C000E0950B2EBA2FA02D0B01B90190010C0134
:1034D000CA01A0011124FF27591B99F0593F50F44C
:1034E000503E68F11A16F040A22F232F342F4427A4
:1034F000585FF3CF469537952795A795F04053959C
:10350000C9F77EF41F16BA0B620B730B840BBAF06B
:103510009150A1F0FF0FBB1F661F771F881FC2F7D6
:103520000EC0BA0F621F731F841F48F487957795EA
:103530006795B795F7959E3F08F0B3CF9395880FA1
:1035400008F09927EE0F9795879508950CD0EBC05A
:10355000E3D040F0DAD030F021F45F3F19F0CCC076
:10356000511115C1CFC0F0D098F39923C9F3552359
:10357000B1F3951B550BBB27AA2762177307840766
:1035800038F09F5F5F4F220F331F441FAA1FA9F31C
:1035900033D00E2E3AF0E0E830D091505040E6950E
:1035A000001CCAF729D0FE2F27D0660F771F881F6F
:1035B000BB1F261737074807AB07B0E809F0BB0B5E
:1035C000802DBF01FF2793585F4F2AF09E3F510582
:1035D00068F092C0DCC05F3FECF3983EDCF3869568
:1035E00077956795B795F7959F5FC9F7880F911DF8
:1035F0009695879597F90895E1E0660F771F881FE4
:10360000BB1F621773078407BA0720F0621B730B96
:10361000840BBA0BEE1F88F7E095089504D06894E8
:10362000B111B5C0089598D088F09F5790F0B92F88
:103630009927B751A0F0D1F0660F771F881F991F07
:103640001AF0BA95C9F712C0B13081F09FD0B1E03D
:1036500008959CC0672F782F8827B85F39F0B93F4D
:10366000CCF3869577956795B395D9F73EF4909509
:103670008095709561957F4F8F4F9F4F0895E89487
:1036800009C097FB3EF490958095709561957F4FAA
:103690008F4F9F4F9923A9F0F92F96E9BB27939558
:1036A000F695879577956795B795F111F8CFFAF468
:1036B000BB0F11F460FF1BC06F5F7F4F8F4F9F4F99
:1036C00016C0882311F096E911C0772321F09EE8F7
:1036D000872F762F05C0662371F096E8862F70E05D
:1036E00060E02AF09A95660F771F881FDAF7880F37
:1036F0009695879597F9089597F99F6780E870E008
:1037000060E008959FEF80EC089500240A94161657
:10371000170618060906089500240A9412161306BF
:10372000140605060895092E0394000C11F488234D
:1037300052F0BB0F40F4BF2B11F460FF04C06F5F69
:103740007F4F8F4F9F4F089557FD9058440F551F3F
:1037500059F05F3F71F04795880F97FB991F61F013
:103760009F3F79F087950895121613061406551F8A
:10377000F2CF4695F1DF08C0161617061806991FF6
:10378000F1CF86957105610508940895E894BB27EB
:1037900066277727CB0197F908950BD0C4CFB5DF03
:1037A00028F0BADF18F0952309F0A6CFABCF11248B
:1037B000EECFCADFA0F3959FD1F3950F50E0551FD0
:1037C000629FF001729FBB27F00DB11D639FAA2776
:1037D000F00DB11DAA1F649F6627B00DA11D661FC5
:1037E000829F2227B00DA11D621F739FB00DA11DE6
:1037F000621F839FA00D611D221F749F3327A00DA0
:10380000611D231F849F600D211D822F762F6A2F3B
:1038100011249F5750408AF0E1F088234AF0EE0FC0
:10382000FF1FBB1F661F771F881F91505040A9F7CD
:103830009E3F510570F060CFAACF5F3FECF3983EFA
:10384000DCF3869577956795B795F795E7959F5F34
:10385000C1F7FE2B880F911D9695879597F90895CE
:1038600097FB072E16F4009407D077FD09D00E942D
:10387000A71C07FC05D03EF4909581959F4F0895B5
:10388000709561957F4F0895A1E21A2EAA1BBB1B6C
:10389000FD010DC0AA1FBB1FEE1FFF1FA217B3071C
:1038A000E407F50720F0A21BB30BE40BF50B661F32
:1038B000771F881F991F1A9469F7609570958095F6
:1038C00090959B01AC01BD01CF010895052E97FB9A
:1038D0001EF400940E947D1C57FD07D00E94441CDA
:1038E00007FC03D04EF40C947D1C50954095309508
:1038F00021953F4F4F4F5F4F08959095809570955C
:1039000061957F4F8F4F9F4F0895A29FB001B39F46
:10391000C001A39F700D811D1124911DB29F700DD8
:10392000811D1124911D08950E94851CA59F900D55
:10393000B49F900DA49F800D911D11240895B7FF91
:103940000C94941C0E94941C821B930B0895AA1B38
:10395000BB1B51E107C0AA1FBB1FA617B70710F07A
:10396000A61BB70B881F991F5A95A9F780959095AC
:10397000BC01CD010895EE0FFF1F0590F491E02DDD
:103980000994CF93DF938230910510F482E090E0A8
:10399000E091C203F091C30320E030E0A0E0B0E08A
:1039A000309739F14081518148175907B8F04817CD
:1039B000590771F482819381109729F013969C9393
:1039C0008E9312972CC09093C3038093C20327C099
:1039D0002115310531F04217530718F0A901DB0119
:1039E00001C0EF019A01BD01DF010280F381E02DEA
:1039F000D7CF21153105F9F0281B390B24303105BB
:103A000080F48A819B816115710521F0FB0193830C
:103A1000828304C09093C3038093C203FE01329655
:103A200044C0FE01E20FF31F8193919322503109AC
:103A3000398328833AC02091C0033091C103232BDE
:103A400041F420910201309103013093C10320938E
:103A5000C00320910001309101012115310541F48D
:103A60002DB73EB74091040150910501241B350B41
:103A7000E091C003F091C103E217F307A0F42E1BFD
:103A80003F0B2817390778F0AC014E5F5F4F2417C2
:103A9000350748F04E0F5F1F5093C1034093C0039A
:103AA0008193919302C0E0E0F0E0CF01DF91CF91EC
:103AB0000895CF93DF93009709F487C0FC013297F4
:103AC00013821282C091C203D091C303209781F464
:103AD00020813181280F391F8091C0039091C1034B
:103AE0008217930779F5F093C103E093C0036DC08B
:103AF000DE0120E030E0AE17BF0750F412964D9182
:103B00005C9113979D014115510509F1DA01F3CF3D
:103B1000B383A28340815181840F951F8A179B072D
:103B200071F48D919C911197840F951F029691834A
:103B3000808312968D919C91139793838283211594
:103B4000310529F4F093C303E093C2033EC0D901C9
:103B50001396FC93EE9312974D915D91A40FB51FB0
:103B6000EA17FB0779F480819181840F951F0296F3
:103B7000D90111969C938E938281938113969C9385
:103B80008E931297E0E0F0E08A819B81009719F014
:103B9000FE01EC01F9CFCE01029628813981820F16
:103BA000931F2091C0033091C1032817390769F48E
:103BB000309729F41092C3031092C20302C01382FB
:103BC0001282D093C103C093C003DF91CF910895B7
:103BD0008F929F92AF92BF92CF92DF92EF92FF921D
:103BE000CF93DF93EC01688179818A819B81611594
:103BF00071058105910521F464E279ED8BE597E08B
:103C00002DE133EF41E050E00E94661C49015A016A
:103C10009B01AC01A7EAB1E40E94941C6B017C01FA
:103C2000ACEEB4EFA50194010E94A21CC60ED71EF3
:103C3000E81EF91EF7FE06C081E0C81AD108E108A7
:103C400080E8F80AC882D982EA82FB82C701B601FD
:103C50009F77DF91CF91FF90EF90DF90CF90BF9053
:103C6000AF909F908F9008950E94E81D089586E080
:103C700091E00E94E81D089560930601709307018A
:103C800080930801909309010895A0E0B0E0EBE46F
:103C9000FEE10C94C21FEC01CB01209719F40E94A5
:103CA000C11CB8C0FE01E60FF71F9E01225031096A
:103CB000E217F30708F4ACC0D9010D911C911197DC
:103CC00006171707B8F00530110508F49FC0A801C2
:103CD000445051094617570708F498C0025011097B
:103CE000061B170B019311936D937C93CF010E94D8
:103CF000591D8CC05B01A01AB10A4E01800E911EA5
:103D0000A091C203B091C303612C712C60E070E0FC
:103D1000109709F449C0A815B905C9F5ED90FC90B4
:103D20001197670142E0C40ED11CCA14DB0478F17C
:103D300047018A189B08640142E0C40ED11C129608
:103D4000BC9012971396AC91B5E0CB16D10440F01D
:103D5000B282A38391828082D9018D939C9309C002
:103D60000E5F1F4F0E0D1F1DF90111830083EB2DF8
:103D7000FA2F6115710531F0DB011396FC93EE9378
:103D8000129744C0F093C303E093C2033FC06D9108
:103D90007C9111976616770608F43B01BD011296D7
:103DA0000D90BC91A02DB4CF6091C0037091C10360
:103DB00068157905E9F468167906D0F44091000198
:103DC000509101014115510541F44DB75EB7609125
:103DD000040170910501461B570BE417F507C0F469
:103DE000F093C103E093C003F901918380830EC077
:103DF0000E94C11C7C01009759F0A801BE010E94DD
:103E0000361FCE010E94591DC70104C0CE0102C059
:103E100080E090E0CDB7DEB7EEE00C94DE1F1F939C
:103E2000FC0199278827BC01E89411911032E9F32D
:103E3000193010F01E30C8F31B3251F01D3249F416
:103E4000689406C00E947F1F610F711D811D911D26
:103E5000119110531A30B0F33EF4909580957095FF
:103E600061957F4F8F4F9F4F1F910895FB01DC019C
:103E700002C001900D9241505040D8F70895FB01C7
:103E8000DC018D91019080190110D9F3990B0895EF
:103E9000FB01DC0101900D920020E1F70895FB0188
:103EA00051915523A9F0BF01DC014D9145174111F6
:103EB000E1F759F4CD010190002049F04D914015F2
:103EC0004111C9F3FB014111EFCF81E090E001976F
:103ED00008954532510520F4423010F00C94741FBF
:103EE000FB011082CB010895BB274A3031F499239E
:103EF00022F4BDE2909581959F4F0C94951F592F08
:103F0000482F372F262F660F771F881F991F660FA0
:103F1000771F881F991F620F731F841F951F660FDD
:103F2000771F881F991F0895BB27FB015527AA27D4
:103F3000880F991FAA1FA41710F0A41B8395505136
:103F4000B9F7A05DAA3308F0A95DA193009779F7AE
:103F5000B111B1931192CB010C94AE1FDC01FC01A5
:103F6000672F71917723E1F7329704C07C916D93AD
:103F700070836291AE17BF07C8F308952F923F92E6
:103F80004F925F926F927F928F929F92AF92BF9269
:103F9000CF92DF92EF92FF920F931F93CF93DF9315
:103FA000CDB7DEB7CA1BDB0B0FB6F894DEBF0FBE72
:103FB000CDBF09942A88398848885F846E847D84BF
:103FC0008C849B84AA84B984C884DF80EE80FD80C1
:103FD0000C811B81AA81B981CE0FD11D0FB6F89437
:103FE000DEBF0FBECDBFED01089511E0C8ECD1E0FA
:103FF00004C0FE010E94BD1C2296CA3CD107C9F72D
:04400000F894FFCF62
:104004000000C4038000010000002C010000000037
:1040140040001400540057616974696E6720666F2C
:10402400722070726F6772616D00546F74616C748A
:104034003A006D696E20002073656B00416B7475E6
:10404400656C6C743A00432000537465672000204B
:104054006D696E0020202020202020202020202098
:104064002020202020202020002C00506175736522
:104074006420202020202020202020202020004DEB
:10408400617368736368656D65642075706C6F61D6
:10409400646564004661696C0043757272656E7490
:1040A4002074656D703A200043001F1C1F1E1F1EE4
:1040B4001F1F1E1F1E1F00000000C30D960D6B0D59
:1040C400730D860D950D000000006A10D3170000D3
:0E40D40000005516D317D715F015E215331658
:00000001FF
