:100000000C9460010C9488010C9488010C94880174
:100010000C9488010C9488010C9488010C9488013C
:100020000C9488010C9488010C94E30A0C94B10997
:100030000C9488010C9488010C9488010C9488011C
:100040000C9488010C9488010C9488010C9488010C
:100050000C9488010C9488010C9488010C942B0555
:100060000C9488010C9488010C9488010C948801EC
:100070000C9488010C9488010C9488010C948801DC
:100080000C9488010C9488010C9488010C948801CC
:100090000C9406030C9488010C9488010C9488013C
:1000A0000C9488010C9488010C94880138063B0656
:1000B0002A062E0634065C065C065C063F064306EE
:1000C00047064D0651065C0657060000000200096F
:1000D0000F0000030401000C0000000000000000FD
:1000E00000000000000000000408020110408040F1
:1000F000102040804080080204018040201002014E
:10010000108010204040040404040403040502028B
:1001100002020403020202020606060606060404A0
:100120000202020400000000250028002B002E001F
:100130003100080B00020202010009040000010264
:10014000020000052400100105240101010424021D
:10015000060524060001070581031000400904017B
:1001600000020A00000007050202400000070583A4
:100170000240000000C18081C112010002020000A3
:1001800040412341800001010200011201000200F0
:1001900000004041234180000101020001417264DE
:1001A00075696E6F204C4C430041726475696E6FC7
:1001B0002059756E000403090400000000000000CF
:1001C000002A2B28000000000000000000000000B2
:1001D0000000000000000000002C9EB4A0A1A2A41A
:1001E00034A6A7A5AE362D3738271E1F202122237F
:1001F000242526B333B62EB7B89F84858687888991
:100200008A8B8C8D8E8F90919293949596979899D6
:100210009A9B9C9D2F3130A3AD3504050607080934
:100220000A0B0C0D0E0F10111213141516171819B6
:100230001A1B1C1DAFB1B0B5000904020001030078
:100240000000092101010001226500070584034027
:10025000000105010902A1010901A10085010509AB
:1002600019012903150025019503750181029501E6
:100270007505810305010930093109381581257F8C
:10028000750895038106C0C005010906A101850214
:10029000050719E029E71500250175019508810278
:1002A00095017508810395067508150025650507F4
:1002B000190029658100C000A001680256078E0C54
:1002C00011241FBECFEFDAE0DEBFCDBF11E0A0E00A
:1002D000B1E0E6E4F9E102C005900D92A434B10763
:1002E000D9F722E0A4E4B1E001C01D92AF37B20714
:1002F000E1F712E0C0ECD2E004C02297FE010E94B8
:100300009D0CC83BD107C9F70E9474070C94A10C3F
:100310000C94000040E855E260E070E089E192E072
:100320000E94500784E491E00E94290584E491E052
:100330000C945C046AE071E084E491E00C94C507DD
:1003400024E044E167E284E491E00C94330480917A
:10035000800190E020918101821B910908952091F4
:10036000810180918001281750F4E22FF0E0EE57D0
:10037000FE4F808190E02F5F2093810108958FEFE1
:100380009FEF0895E091810180918001E81730F49A
:10039000F0E0EE57FE4F808190E008958FEF9FEFE1
:1003A00008950895CF92DF92EF92FF920F931F93DB
:1003B000CF93DF937C01CB018A0120915C01222342
:1003C00089F0EB016B01C40ED51ECC15DD0569F07B
:1003D0006991D701ED91FC910190F081E02DC70169
:1003E0000995F3CF642F0E94DD02C801DF91CF9100
:1003F0001F910F91FF90EF90DF90CF900895CF93D2
:10040000DF931F92CDB7DEB7698320915C01222371
:10041000D1F020915D01203240F021E030E0FC017C
:100420003383228380E090E015C080915E01E82F45
:10043000F0E0E15AFE4F998190838F5F80935E01D7
:1004400080935D0105C061E0CE0101960E94DD024E
:1004500081E090E00F90DF91CF910895FC0113822D
:10046000128248EE53E060E070E044835583668377
:10047000778382E191E091838083089510928101D6
:100480001092800110925E0110925D010C946C023A
:1004900081E080935C0160937F0110925E01109275
:1004A0005D0108950F93062F21E040915D016FE5F6
:1004B00071E080917F010E948A0210925E01109289
:1004C0005D0110925C010F91089561E00C9452025D
:1004D00080E591E00C942E0210920F0281E080934F
:1004E0000D0210920C0261E082E00E945D0661E064
:1004F00083E00E945D06E9EBF0E080818E7F8083DF
:1005000080818D7F808388E48093B80085E4809328
:10051000BC0008950F93413208F046C090910F023D
:100520009111FCCF92E090930F0200930D029FEF88
:100530009093A2011092E7014093E601FB0168EE5F
:1005400071E0DB019A2F961B941718F491919D93FB
:10055000F9CF10920E0290910E02880F892B809392
:100560000E0280910C02813041F410920C028091B5
:100570000E028093BB0085EC01C085EE8093BC0029
:10058000222321F080910F028230E1F38091A201B9
:100590008F3F61F08091A201803251F08091A201E1
:1005A000803341F483E007C081E005C080E003C0F0
:1005B00082E001C084E00F910895613298F42091A7
:1005C0000F02243089F46093C401FC0186EC91E0B1
:1005D000DC012A2F281B261718F421912D93F9CF1F
:1005E00080E0089581E0089582E0089585ED80938C
:1005F000BC008091BC0084FDFCCF10920F020895D6
:1006000085EC8093BC0010920F0208951F920F9208
:100610000FB60F9211242F933F934F935F936F93D5
:100620007F938F939F93AF93BF93EF93FF938091AB
:10063000B900887F803609F49CC068F5883209F4D7
:100640005BC090F4803109F454C038F4882309F475
:10065000F5C0883009F44DC0F5C0883109F44CC0AC
:10066000803209F45DC0EEC0803409F468C048F4FB
:10067000803309F455C0883309F0E4C08093A201A7
:10068000A8C0803509F44FC0883509F45DC08834AE
:1006900009F0D8C0D5C0883909F4C6C0A8F4883795
:1006A00009F467C038F4883609F463C0803709F468
:1006B00060C0C8C0883809F4B7C0803909F45FC089
:1006C000803809F0BFC05BC0803B09F485C038F4B6
:1006D000803A09F466C0883A09F47EC0B3C0803C11
:1006E00009F4A6C0883C09F4A3C0883B09F489C07A
:1006F000A9C080910E0210C09091E7018091E6019F
:10070000981770F5E091E70181E08E0F8093E70183
:10071000F0E0E851FE4F80818093BB0085EC85C0FE
:100720008093A2018DC0E091E70181E08E0F80935C
:10073000E7018091BB00F0E0E851FE4F808390918B
:10074000E7018091E6016DC0E091E70181E08E0F45
:100750008093E7018091BB00F0E0E851FE4F808379
:1007600080910D0281116CC081E080930C0284EABB
:1007700060C083E080930F021092A301CFCF8091DD
:10078000A301803208F050C0E091A30181E08E0FF8
:100790008093A3018091BB00F0E0EC55FE4F808375
:1007A000BDCF8091A301803230F4E091A301F0E04D
:1007B000EC55FE4F10820E94F6026091A30170E09A
:1007C000E0910802F091090284EA91E00995109203
:1007D000A3010E94000336C084E080930F021092B0
:1007E000C5011092C401E0910A02F0910B02099533
:1007F0008091C401811105C081E08093C4011092F1
:10080000C601E091C50181E08E0F8093C501F0E043
:10081000EA53FE4F80818093BB009091C501809187
:10082000C401981708F47ACF85E88093BC000AC009
:1008300085EC8093BC0010920F0204C01092A201BC
:100840000E94F602FF91EF91BF91AF919F918F911E
:100850007F916F915F914F913F912F910F900FBEBC
:100860000F901F901895FC011382128282E291E092
:1008700091838083648341872287138608951F9321
:10088000CF93DF93EC01162F6C8180E591E00E94FD
:100890004802E0915001F09151016B85612B01906C
:1008A000F081E02D80E591E0099580E591E0DF9110
:1008B000CF911F910C94650228E0FC01238760E032
:1008C0000C943F041F93CF93DF93EC01162F6460C9
:1008D0000E943F0481E090E00E94C005612F6B7F81
:1008E000CE010E943F0482E390E0DF91CF911F91FF
:1008F0000C94C0051F93CF93DF93EC01162F0E9439
:100900003F04612FCE01DF91CF911F910C946204BF
:10091000EF92FF921F93CF93DF931F92CDB7DEB775
:100920007C01162F607F642B49830E947A0480E14A
:10093000189FB00111244981642BC7010F90DF91EA
:10094000CF911F91FF90EF900C947A0441E00E94A8
:10095000880480E090E0089540E00C94880461E011
:100960000E94AC0480ED97E00C94C00562E00E9408
:10097000AC0480ED97E00C94C005FC016681262F45
:10098000246026836C600C94AC04CF93DF93EC015D
:10099000423018F08D8188608D834887222329F0AA
:1009A000413019F48D8184608D8362E370E080E0D2
:1009B00090E00E9498056B85CE010E943F0468EE8E
:1009C00073E080E090E00E94980560E3CE010E9411
:1009D0007A0484E991E10E94C00560E3CE010E949F
:1009E0007A0484E991E10E94C00560E3CE010E948F
:1009F0007A0486E990E00E94C00560E2CE010E9480
:100A00007A046D816062CE010E94AC0484E08E8322
:100A1000CE010E94BD04CE010E94AF0482E08F830C
:100A200066E0CE010E94AC04CE01DF91CF910C9420
:100A3000B604CF93DF93EC0180E591E00E943E0283
:100A40001D8220E04A856985CE01DF91CF910C940B
:100A5000C5040C9419051F920F920FB60F92112422
:100A60002F933F938F939F93AF93BF9380911102E6
:100A700090911202A0911302B091140230911002D1
:100A800023E0230F2D3720F40196A11DB11D05C0D1
:100A900026E8230F0296A11DB11D2093100280931A
:100AA000110290931202A0931302B093140280914A
:100AB000150290911602A0911702B09118020196AA
:100AC000A11DB11D8093150290931602A0931702E9
:100AD000B0931802BF91AF919F918F913F912F9149
:100AE0000F900FBE0F901F9018953FB7F89480910C
:100AF000150290911602A0911702B091180226B526
:100B0000A89B05C02F3F19F00196A11DB11D3FBF45
:100B10006627782F892F9A2F620F711D811D911DD5
:100B200042E0660F771F881F991F4A95D1F70895F5
:100B3000CF92DF92EF92FF92CF93DF936B017C0114
:100B40000E947505EB01C114D104E104F10489F0A0
:100B50000E94570B0E9475056C1B7D0B683E73400D
:100B600090F381E0C81AD108E108F108C851DC4FC0
:100B7000EACFDF91CF91FF90EF90DF90CF90089573
:100B8000019739F0880F991F880F991F02970197D5
:100B9000F1F70895789484B5826084BD84B581604E
:100BA00084BD85B5826085BD85B5816085BDEEE675
:100BB000F0E0808181608083E1E8F0E01082808154
:100BC00082608083808181608083E0E8F0E08081C2
:100BD00081608083E1E9F0E08081826080838081B0
:100BE00081608083E0E9F0E0808181608083E1ECD6
:100BF000F0E0808184608083808182608083808156
:100C000081608083E3ECF0E0808181608083E0ECB0
:100C1000F0E0808182608083E2ECF0E0808181609E
:100C20008083EAE7F0E08081846080838081826055
:100C30008083808181608083808180688083089543
:100C400090E0FC013197EF30F105B0F5EA5AFF4F23
:100C50000C949B0C809180008F7703C08091800062
:100C60008F7D80938000089580918000877FF9CFE9
:100C700084B58F7702C084B58F7D84BD089580913F
:100C800090008F7707C0809190008F7D03C0809186
:100C90009000877F8093900008958091C0008F77A7
:100CA00003C08091C0008F7D8093C0000895809123
:100CB000C200877F8093C20008950F931F93CF9344
:100CC000DF931F92CDB7DEB7282F30E0F901E6534E
:100CD000FF4F8491F901E851FF4F1491F901EA5F48
:100CE000FE4F04910023C9F0882321F069830E94FC
:100CF00020066981E02FF0E0EE0FFF1FEC5DFE4F54
:100D0000A591B4919FB7F8948C91611103C010958F
:100D1000812301C0812B8C939FBF0F90DF91CF91D6
:100D20001F910F910895CF93DF931F92CDB7DEB738
:100D30006983DC01ED91FC910280F381E02D41E0BB
:100D400050E0BE016F5F7F4F09950F90DF91CF910B
:100D50000895CF93DF93EC018C859D8597FF05C0A7
:100D600082E00E9486089D878C878C859D85DF9117
:100D7000CF91089583E00C94D90AFC018485958570
:100D800097FD06C082E00E942E0890E0019608952B
:100D900082E00E942E0890E00895FC0184859585EC
:100DA00097FD05C02FEF3FEF35872487089582E038
:100DB0000C948608CF93DF93EC0180910701882380
:100DC00031F083E00E94B7081816190634F081E06C
:100DD00090E09B838A8380E090E0DF91CF9108953B
:100DE000FC0120812E5F208342E450E062E371E049
:100DF00080E80C945209FC0181819081913A59F468
:100E0000813209F03CC047E050E060E071E080E0F2
:100E10000E94520943C0913291F5803239F467E063
:100E200070E080E091E00E94830906C0823209F000
:100E300035C082818093070180910001909101016A
:100E4000A0910201B0910301803B9440A105B1053E
:100E5000C1F48091070180FD14C087E797E7909364
:100E60000108809300082BE088E190E00FB6F89429
:100E7000A895809360000FBE209360000FC080E0B3
:100E8000089588E10FB6F894809360001092600096
:100E90000FBEA895109201081092000881E00895F5
:100EA0002FEF3FEFFC0135872487089510921C0235
:100EB00010921B0288EE93E0A0E0B0E080931D0248
:100EC00090931E02A0931F02B09320028AE291E049
:100ED00090931A02809319028FEF9FEF909326024E
:100EE00080932502089508950E94CA050E94730701
:100EF00089E692E00E94390B0E948A01C0E0D0E0AE
:100F00000E949A012097E1F30E940000F9CFCF924E
:100F1000DF92EF92FF920F931F93CF93DF936C01B9
:100F20007A01EB01E60EF71E00E010E0CE15DF05BA
:100F300061F06991D601ED91FC910190F081E02D75
:100F4000C6010995080F191FF1CFC801DF91CF9194
:100F50001F910F91FF90EF90DF90CF900895611552
:100F6000710581F0DB010D900020E9F7AD014150E2
:100F70005109461B570BDC01ED91FC910280F38176
:100F8000E02D099480E090E008950C94AF07409123
:100F90006D0250916E0220916B0230916C024217EB
:100FA0005307B4F49091E8009570E1F39091E80054
:100FB00092FD19C08093F10080916D0290916E02B4
:100FC00001968F739927892B19F48EEF8093E8008F
:100FD00080916D0290916E02019690936E028093C3
:100FE0006D0281E0089580E00895FF920F931F93B2
:100FF000CF93DF938C0188E10E94C70783E00E94B2
:10100000C707C0E0D0E0F801EC0FFD1F84910E94FB
:10101000C707F82E80E00E94C7078F2121F0219694
:10102000CB30D10581F7DF91CF911F910F91FF90C8
:101030000895615030F02091F100FC012083019669
:10104000F8CF289884E68093700208952FB7FC01AA
:101050002083F89467706093E9000895CF93DF933D
:101060001F92CDB7DEB7682FCE0101960E942608E9
:101070008091F20099819FBF0F90DF91CF910895E9
:10108000FF920F931F93CF93DF9300D0CDB7DEB7BE
:10109000F62E8A0190916F02992311F057FF03C039
:1010A0008FEF9FEF2BC0682FCE0101967A830E94AD
:1010B00026088091F20090E0A8017A8180179107BC
:1010C0000CF4AC01EF2DF72FF40E84E6FE1639F088
:1010D0002898809370029091F1009193F7CF411579
:1010E000510521F08091F200882321F089818FBF82
:1010F000CA0104C08BE68093E800F8CF0F900F90F0
:10110000DF91CF911F910F91FF900895CF93DF93BF
:101110001F92CDB7DEB741E050E0BE016F5F7F4F59
:101120000E944008019719F4898190E002C08FEF76
:101130009FEF0F90DF91CF910895CF93DF931F9290
:10114000CDB7DEB7682FCE0101960E942608909198
:10115000E800892F807295FF04C09091F20080E42E
:10116000891B99819FBF0F90DF91CF9108956F9256
:101170007F928F929F92AF92BF92CF92DF92EF9227
:10118000FF920F931F93CF93DF931F92CDB7DEB7DC
:10119000782E7B01C42EB52E80916F02882369F0D2
:1011A000042F152F8AEFD82E872D8072982E9AE360
:1011B000A92E872D8074882E11C08FEF9FEF57C006
:1011C000872D0E949D08682E81110CC0DA94A9F326
:1011D00061E070E080E090E00E9498050115110543
:1011E00079F73BC0282F30E0021713070CF4602E6C
:1011F000672DCE0101960E9426088091E80085FFA8
:1012000029C0262D30E0021B130B992039F06A9477
:101210008FEF6816B1F01092F100F9CFF701862D2B
:1012200077FE07C0815058F094919093F100319669
:10123000F9CF815020F091919093F100FACFE20E16
:10124000F31E8091E80085FF0FC00115110511F410
:1012500081100AC089818FBFC1CF5D9884E68093D9
:1012600071028C2D9B2D03C0A092E800F3CF0F904C
:10127000DF91CF911F910F91FF90EF90DF90CF9072
:10128000BF90AF909F908F907F906F900895109235
:10129000E90010926E0210926D0290936C0280939E
:1012A0006B020895CF92DF92FF920F931F93CF931B
:1012B000DF9300D0CDB7DEB7F82E8A016B010115A0
:1012C0001105B1F0F601F7FE02C0849101C08081E2
:1012D00049835A830E94C70701501109FFEFCF1AB3
:1012E000DF0A49815A818111EACF8FEF9FEF01C058
:1012F000CA010F900F90DF91CF911F910F91FF9036
:10130000DF90CF9008951F93CF93DF931F92CDB7B7
:10131000DEB7162F2091E80022FFFCCF612F7983E2
:101320000E9419088BEF8093E800812F7981972F15
:101330000F90DF91CF911F910895CF93DF931F926C
:10134000CDB7DEB71982CE0101960E94F006CE011C
:1013500001960E94760B898190E00F90DF91CF91EA
:1013600008951F920F920FB60F921124EF92FF92E1
:101370000F931F932F933F934F935F936F937F939D
:101380008F939F93AF93BF93EF93FF93CF93DF938D
:10139000CDB7DEB76297DEBFCDBF1092E900809176
:1013A000E80083FFE9C068E0CE010A960E941908B0
:1013B00082EF8093E8009A8597FF05C08091E8004E
:1013C00080FFFCCF03C08EEF8093E800892F8076EA
:1013D00009F0B7C08B85811105C01092F100109201
:1013E000F100C3C0282F2D7F213009F4BEC0853005
:1013F00049F48091E80080FFFCCF8C858068809361
:10140000E300B3C0863009F074C02D85E888F98800
:10141000223071F580E090E02A8B0E9447090E94FB
:101420009D0999E08E010F5F1F4FF801392F11922E
:101430003A95E9F799832A892A8391E09E8390E877
:1014400098879AEF998720916D0230916E02275FFD
:101450003F4F3C832B838D83C7010E94470949E09E
:1014600050E0B80180E00E9452090E949D097DC0B1
:10147000C7012A8B0E9447092A89223241F482E25D
:1014800090E00E94810B892B09F06FC072C021305F
:1014900069F488899989089711F420936A028091E8
:1014A0006A02811116C06BE871E018C0233009F0A0
:1014B00060C08C85882381F0823019F489EA91E03C
:1014C00005C0813009F055C08DE991E00E94F50713
:1014D0004AC069E771E002C065EB71E06115710512
:1014E00009F447C0FB01449150E080E80E94520992
:1014F0003CC0873009F43DC0883021F481E08093FE
:10150000F10033C0893089F5937099F5E5E7F1E092
:1015100081E021E096E38093E9002093EB00349191
:101520003093EC009093ED008F5F3196853099F702
:101530008EE78093EA001092EA008C8580936F0218
:1015400014C0888999890E9447098E85811105C038
:10155000CE010A960E94FB0606C0823051F4CE01ED
:101560000A960E94A90B882321F08EEF8093E80051
:1015700003C081E28093EB0062960FB6F894DEBF61
:101580000FBECDBFDF91CF91FF91EF91BF91AF9192
:101590009F918F917F916F915F914F913F912F918B
:1015A0001F910F91FF90EF900F900FBE0F901F9023
:1015B00018958093E9008091F200882319F08AE35E
:1015C0008093E80008951F920F920FB60F92112496
:1015D0002F933F934F935F936F937F938F939F933B
:1015E000AF93BF93EF93FF938091E1001092E100DE
:1015F00083FF0FC01092E90091E09093EB001092EE
:10160000EC0092E39093ED0010926F0298E09093BB
:10161000F00082FF1DC083E00E94D90A8091710210
:10162000882339F080917102815080937102882360
:1016300069F080917002882359F080917002815086
:1016400080937002811104C0289A02C05D9AF1CF84
:10165000FF91EF91BF91AF919F918F917F916F918A
:101660005F914F913F912F910F900FBE0F901F9060
:10167000189510926F0281E08093D70080EA8093E2
:10168000D80082E189BD09B400FEFDCF61E070E0C1
:1016900080E090E00E94980580E98093D8008CE07B
:1016A0008093E2001092E000559A209A08950895E0
:1016B000FF920F931F93CF93DF93EC01F62EE881F7
:1016C000F9810480F581E02D09958C01E881F9818B
:1016D0000680F781E02D6F2DCE010995C80199276D
:1016E000DF91CF911F910F91FF900895FC01208110
:1016F0002F5F208349E150E069E372E080E80C94B9
:10170000520945E650E062E572E080E80C94520927
:10171000EF92FF920F931F93CF93DF931F92CDB75A
:10172000DEB789838B017A0141E050E0BE016F5F33
:101730007F4F84E00E94B708A701B80184E40E94AB
:10174000B7080F90DF91CF911F910F91FF90EF900D
:101750000895FC0191818081813A31F481E09130DA
:1017600091F0933089F411C0813271F49B3021F4EF
:1017700082818093090105C09A3031F4828180937F
:10178000080181E00895089580E0089548E050E060
:1017900082E00C94880BCF93DF93DC01683818F05B
:1017A000E8E7E60F25C0E62FF0E067FF11C0E0583C
:1017B000F10981E090E001C0880FEA95EAF71496FC
:1017C0009C911497982B14969C931497E0E010C06A
:1017D000E754FE4FE491EE2309F440C0E7FF08C050
:1017E00014968C911497826014968C931497EF77CB
:1017F00016968C9116978E1741F117968C91179724
:101800008E1719F118968C9118978E17F1F019967A
:101810008C9119978E17C9F01A968C911A978E177A
:10182000A1F01B968C911B978E1779F080E090E0C9
:10183000ED01C80FD91F2E81211102C0EE8305C012
:10184000019686309105A1F709C0BD016C5F7F4FFD
:10185000CD010E94C60B81E090E008C081E090E0DD
:1018600013969C938E93129780E090E0DF91CF9136
:101870000895683818F0E8E7E60F25C0E62FF0E095
:1018800067FF12C0E058F10921E030E001C0220FEB
:10189000EA95EAF72095DC0114963C9114973223DF
:1018A00014963C93E0E00FC0E754FE4FE491EE2322
:1018B00029F1E7FF08C0DC0114962C9114972D7FC5
:1018C00014962C93EF7720E030E0EE2351F0DC010A
:1018D000A20FB31F16964C9116974E1302C0169680
:1018E0001C922F5F3F4F2630310579F7BC016C5FAA
:1018F0007F4F0E94C60B81E090E0089580E090E069
:101900000895FC01168217821086118612861386AE
:101910001482BC016C5F7F4F0C94C60B10927E0248
:1019200010927502109274028AE391E09093730210
:10193000809372020895EE0FFF1F0590F491E02D41
:061940000994F894FFCFAA
:1019460000E1000000000000010173737300000055
:101956000000FF01D201A701AF01C201D1010000C1
:101966000000A6048707000000009306DA06BD06FD
:10197600CD06A906BA0600000000580B8707CB0B58
:04198600390C810C8B
:00000001FF
